{
  "contractName": "MiningDAOCommercialOffer",
  "abi": [
    {
      "inputs": [
        {
          "internalType": "address",
          "name": "_InvestTicketsContractAddress",
          "type": "address"
        },
        {
          "internalType": "string",
          "name": "_offerName",
          "type": "string"
        },
        {
          "internalType": "string",
          "name": "_ref",
          "type": "string"
        },
        {
          "internalType": "string",
          "name": "_collectionName",
          "type": "string"
        },
        {
          "internalType": "address",
          "name": "_DAOWallet",
          "type": "address"
        },
        {
          "internalType": "address[]",
          "name": "_DAOTeamWallets",
          "type": "address[]"
        },
        {
          "internalType": "address",
          "name": "_treasuryWallet",
          "type": "address"
        },
        {
          "internalType": "uint256",
          "name": "_minimumTickets",
          "type": "uint256"
        },
        {
          "internalType": "uint256",
          "name": "_maximumTickets",
          "type": "uint256"
        },
        {
          "internalType": "uint256",
          "name": "_lockTimeLimit",
          "type": "uint256"
        }
      ],
      "stateMutability": "nonpayable",
      "type": "constructor"
    },
    {
      "anonymous": false,
      "inputs": [
        {
          "indexed": true,
          "internalType": "address",
          "name": "owner",
          "type": "address"
        },
        {
          "indexed": true,
          "internalType": "address",
          "name": "approved",
          "type": "address"
        },
        {
          "indexed": true,
          "internalType": "uint256",
          "name": "tokenId",
          "type": "uint256"
        }
      ],
      "name": "Approval",
      "type": "event"
    },
    {
      "anonymous": false,
      "inputs": [
        {
          "indexed": true,
          "internalType": "address",
          "name": "owner",
          "type": "address"
        },
        {
          "indexed": true,
          "internalType": "address",
          "name": "operator",
          "type": "address"
        },
        {
          "indexed": false,
          "internalType": "bool",
          "name": "approved",
          "type": "bool"
        }
      ],
      "name": "ApprovalForAll",
      "type": "event"
    },
    {
      "anonymous": false,
      "inputs": [
        {
          "components": [
            {
              "internalType": "address",
              "name": "investTicketOwner",
              "type": "address"
            },
            {
              "internalType": "uint256",
              "name": "tokenId",
              "type": "uint256"
            },
            {
              "internalType": "bool",
              "name": "isStaked",
              "type": "bool"
            }
          ],
          "indexed": false,
          "internalType": "struct MiningDAOCommercialOffer.InvestTicket",
          "name": "ticket",
          "type": "tuple"
        }
      ],
      "name": "InvestTicketStaked",
      "type": "event"
    },
    {
      "anonymous": false,
      "inputs": [
        {
          "components": [
            {
              "internalType": "address",
              "name": "investTicketOwner",
              "type": "address"
            },
            {
              "internalType": "uint256",
              "name": "tokenId",
              "type": "uint256"
            },
            {
              "internalType": "bool",
              "name": "isStaked",
              "type": "bool"
            }
          ],
          "indexed": false,
          "internalType": "struct MiningDAOCommercialOffer.InvestTicket",
          "name": "ticket",
          "type": "tuple"
        }
      ],
      "name": "InvestTicketUnstaked",
      "type": "event"
    },
    {
      "anonymous": false,
      "inputs": [
        {
          "indexed": true,
          "internalType": "address",
          "name": "previousOwner",
          "type": "address"
        },
        {
          "indexed": true,
          "internalType": "address",
          "name": "newOwner",
          "type": "address"
        }
      ],
      "name": "OwnershipTransferred",
      "type": "event"
    },
    {
      "anonymous": false,
      "inputs": [
        {
          "components": [
            {
              "internalType": "address",
              "name": "ticketOwner",
              "type": "address"
            },
            {
              "internalType": "uint256",
              "name": "power",
              "type": "uint256"
            },
            {
              "components": [
                {
                  "internalType": "uint256",
                  "name": "_value",
                  "type": "uint256"
                }
              ],
              "internalType": "struct Counters.Counter",
              "name": "unclaimedMonths",
              "type": "tuple"
            },
            {
              "internalType": "uint256",
              "name": "unclaimedValue",
              "type": "uint256"
            },
            {
              "internalType": "uint256",
              "name": "timeOfLastRewardUpdate",
              "type": "uint256"
            }
          ],
          "indexed": false,
          "internalType": "struct MiningDAOCommercialOffer.OfferTicket",
          "name": "ticket",
          "type": "tuple"
        }
      ],
      "name": "RewardClaimed",
      "type": "event"
    },
    {
      "anonymous": false,
      "inputs": [
        {
          "indexed": true,
          "internalType": "address",
          "name": "from",
          "type": "address"
        },
        {
          "indexed": true,
          "internalType": "address",
          "name": "to",
          "type": "address"
        },
        {
          "indexed": true,
          "internalType": "uint256",
          "name": "tokenId",
          "type": "uint256"
        }
      ],
      "name": "Transfer",
      "type": "event"
    },
    {
      "anonymous": false,
      "inputs": [
        {
          "indexed": false,
          "internalType": "enum MiningDAOCommercialOffer.WorkflowStatus",
          "name": "previous",
          "type": "uint8"
        },
        {
          "indexed": false,
          "internalType": "enum MiningDAOCommercialOffer.WorkflowStatus",
          "name": "current",
          "type": "uint8"
        }
      ],
      "name": "WorkflowStatusChanged",
      "type": "event"
    },
    {
      "inputs": [
        {
          "internalType": "address",
          "name": "to",
          "type": "address"
        },
        {
          "internalType": "uint256",
          "name": "tokenId",
          "type": "uint256"
        }
      ],
      "name": "approve",
      "outputs": [],
      "stateMutability": "nonpayable",
      "type": "function"
    },
    {
      "inputs": [
        {
          "internalType": "address",
          "name": "owner",
          "type": "address"
        }
      ],
      "name": "balanceOf",
      "outputs": [
        {
          "internalType": "uint256",
          "name": "",
          "type": "uint256"
        }
      ],
      "stateMutability": "view",
      "type": "function"
    },
    {
      "inputs": [
        {
          "internalType": "uint256",
          "name": "tokenId",
          "type": "uint256"
        }
      ],
      "name": "getApproved",
      "outputs": [
        {
          "internalType": "address",
          "name": "",
          "type": "address"
        }
      ],
      "stateMutability": "view",
      "type": "function"
    },
    {
      "inputs": [
        {
          "internalType": "address",
          "name": "owner",
          "type": "address"
        },
        {
          "internalType": "address",
          "name": "operator",
          "type": "address"
        }
      ],
      "name": "isApprovedForAll",
      "outputs": [
        {
          "internalType": "bool",
          "name": "",
          "type": "bool"
        }
      ],
      "stateMutability": "view",
      "type": "function"
    },
    {
      "inputs": [],
      "name": "name",
      "outputs": [
        {
          "internalType": "string",
          "name": "",
          "type": "string"
        }
      ],
      "stateMutability": "view",
      "type": "function"
    },
    {
      "inputs": [
        {
          "internalType": "address",
          "name": "",
          "type": "address"
        }
      ],
      "name": "offerTicketOwners",
      "outputs": [
        {
          "internalType": "address",
          "name": "ticketOwner",
          "type": "address"
        },
        {
          "internalType": "uint256",
          "name": "power",
          "type": "uint256"
        },
        {
          "components": [
            {
              "internalType": "uint256",
              "name": "_value",
              "type": "uint256"
            }
          ],
          "internalType": "struct Counters.Counter",
          "name": "unclaimedMonths",
          "type": "tuple"
        },
        {
          "internalType": "uint256",
          "name": "unclaimedValue",
          "type": "uint256"
        },
        {
          "internalType": "uint256",
          "name": "timeOfLastRewardUpdate",
          "type": "uint256"
        }
      ],
      "stateMutability": "view",
      "type": "function"
    },
    {
      "inputs": [],
      "name": "owner",
      "outputs": [
        {
          "internalType": "address",
          "name": "",
          "type": "address"
        }
      ],
      "stateMutability": "view",
      "type": "function"
    },
    {
      "inputs": [
        {
          "internalType": "uint256",
          "name": "tokenId",
          "type": "uint256"
        }
      ],
      "name": "ownerOf",
      "outputs": [
        {
          "internalType": "address",
          "name": "",
          "type": "address"
        }
      ],
      "stateMutability": "view",
      "type": "function"
    },
    {
      "inputs": [],
      "name": "renounceOwnership",
      "outputs": [],
      "stateMutability": "nonpayable",
      "type": "function"
    },
    {
      "inputs": [
        {
          "internalType": "address",
          "name": "from",
          "type": "address"
        },
        {
          "internalType": "address",
          "name": "to",
          "type": "address"
        },
        {
          "internalType": "uint256",
          "name": "tokenId",
          "type": "uint256"
        }
      ],
      "name": "safeTransferFrom",
      "outputs": [],
      "stateMutability": "nonpayable",
      "type": "function"
    },
    {
      "inputs": [
        {
          "internalType": "address",
          "name": "from",
          "type": "address"
        },
        {
          "internalType": "address",
          "name": "to",
          "type": "address"
        },
        {
          "internalType": "uint256",
          "name": "tokenId",
          "type": "uint256"
        },
        {
          "internalType": "bytes",
          "name": "data",
          "type": "bytes"
        }
      ],
      "name": "safeTransferFrom",
      "outputs": [],
      "stateMutability": "nonpayable",
      "type": "function"
    },
    {
      "inputs": [
        {
          "internalType": "address",
          "name": "operator",
          "type": "address"
        },
        {
          "internalType": "bool",
          "name": "approved",
          "type": "bool"
        }
      ],
      "name": "setApprovalForAll",
      "outputs": [],
      "stateMutability": "nonpayable",
      "type": "function"
    },
    {
      "inputs": [
        {
          "internalType": "bytes4",
          "name": "interfaceId",
          "type": "bytes4"
        }
      ],
      "name": "supportsInterface",
      "outputs": [
        {
          "internalType": "bool",
          "name": "",
          "type": "bool"
        }
      ],
      "stateMutability": "view",
      "type": "function"
    },
    {
      "inputs": [],
      "name": "symbol",
      "outputs": [
        {
          "internalType": "string",
          "name": "",
          "type": "string"
        }
      ],
      "stateMutability": "view",
      "type": "function"
    },
    {
      "inputs": [
        {
          "internalType": "uint256",
          "name": "tokenId",
          "type": "uint256"
        }
      ],
      "name": "tokenURI",
      "outputs": [
        {
          "internalType": "string",
          "name": "",
          "type": "string"
        }
      ],
      "stateMutability": "view",
      "type": "function"
    },
    {
      "inputs": [
        {
          "internalType": "address",
          "name": "from",
          "type": "address"
        },
        {
          "internalType": "address",
          "name": "to",
          "type": "address"
        },
        {
          "internalType": "uint256",
          "name": "tokenId",
          "type": "uint256"
        }
      ],
      "name": "transferFrom",
      "outputs": [],
      "stateMutability": "nonpayable",
      "type": "function"
    },
    {
      "inputs": [
        {
          "internalType": "address",
          "name": "newOwner",
          "type": "address"
        }
      ],
      "name": "transferOwnership",
      "outputs": [],
      "stateMutability": "nonpayable",
      "type": "function"
    },
    {
      "inputs": [],
      "name": "workflowStatus",
      "outputs": [
        {
          "internalType": "enum MiningDAOCommercialOffer.WorkflowStatus",
          "name": "",
          "type": "uint8"
        }
      ],
      "stateMutability": "view",
      "type": "function"
    },
    {
      "inputs": [
        {
          "internalType": "uint256",
          "name": "_tokenId",
          "type": "uint256"
        }
      ],
      "name": "stakeTicket",
      "outputs": [],
      "stateMutability": "nonpayable",
      "type": "function"
    },
    {
      "inputs": [
        {
          "internalType": "uint256",
          "name": "_tokenId",
          "type": "uint256"
        }
      ],
      "name": "unstakeTicket",
      "outputs": [],
      "stateMutability": "nonpayable",
      "type": "function"
    },
    {
      "inputs": [],
      "name": "DAOTeamSignatureRequest",
      "outputs": [],
      "stateMutability": "nonpayable",
      "type": "function"
    },
    {
      "inputs": [],
      "name": "mintTicketRegistrationStarted",
      "outputs": [],
      "stateMutability": "nonpayable",
      "type": "function"
    },
    {
      "inputs": [],
      "name": "checkLockTimeExpired",
      "outputs": [],
      "stateMutability": "nonpayable",
      "type": "function"
    }
  ],
  "bytecode": "0x60806040523480156200001157600080fd5b5060405162004b2138038062004b21833981810160405281019062000037919062000727565b868881600090816200004a919062000ada565b5080600190816200005c919062000ada565b5050506200007f620000736200029d60201b60201c565b620002a560201b60201c565b600160088190555089600960006101000a81548173ffffffffffffffffffffffffffffffffffffffff021916908373ffffffffffffffffffffffffffffffffffffffff16021790555088600d9081620000d9919062000ada565b5087600e9081620000eb919062000ada565b5085600a60006101000a81548173ffffffffffffffffffffffffffffffffffffffff021916908373ffffffffffffffffffffffffffffffffffffffff16021790555084600b9080519060200190620001459291906200036b565b5083600c60006101000a81548173ffffffffffffffffffffffffffffffffffffffff021916908373ffffffffffffffffffffffffffffffffffffffff1602179055508260118190555081601281905550806014819055506001600f60008873ffffffffffffffffffffffffffffffffffffffff1673ffffffffffffffffffffffffffffffffffffffff16815260200190815260200160002060006101000a81548160ff02191690831515021790555060005b85518110156200028c576001600f60008884815181106200021d576200021c62000bc1565b5b602002602001015173ffffffffffffffffffffffffffffffffffffffff1673ffffffffffffffffffffffffffffffffffffffff16815260200190815260200160002060006101000a81548160ff0219169083151502179055508080620002839062000c1f565b915050620001f7565b505050505050505050505062000c6c565b600033905090565b6000600760009054906101000a900473ffffffffffffffffffffffffffffffffffffffff16905081600760006101000a81548173ffffffffffffffffffffffffffffffffffffffff021916908373ffffffffffffffffffffffffffffffffffffffff1602179055508173ffffffffffffffffffffffffffffffffffffffff168173ffffffffffffffffffffffffffffffffffffffff167f8be0079c531659141344cd1fd0a4f28419497f9722a3daafe3b4186f6b6457e060405160405180910390a35050565b828054828255906000526020600020908101928215620003e7579160200282015b82811115620003e65782518260006101000a81548173ffffffffffffffffffffffffffffffffffffffff021916908373ffffffffffffffffffffffffffffffffffffffff160217905550916020019190600101906200038c565b5b509050620003f69190620003fa565b5090565b5b8082111562000415576000816000905550600101620003fb565b5090565b6000604051905090565b600080fd5b600080fd5b600073ffffffffffffffffffffffffffffffffffffffff82169050919050565b60006200045a826200042d565b9050919050565b6200046c816200044d565b81146200047857600080fd5b50565b6000815190506200048c8162000461565b92915050565b600080fd5b600080fd5b6000601f19601f8301169050919050565b7f4e487b7100000000000000000000000000000000000000000000000000000000600052604160045260246000fd5b620004e7826200049c565b810181811067ffffffffffffffff82111715620005095762000508620004ad565b5b80604052505050565b60006200051e62000419565b90506200052c8282620004dc565b919050565b600067ffffffffffffffff8211156200054f576200054e620004ad565b5b6200055a826200049c565b9050602081019050919050565b60005b83811015620005875780820151818401526020810190506200056a565b60008484015250505050565b6000620005aa620005a48462000531565b62000512565b905082815260208101848484011115620005c957620005c862000497565b5b620005d684828562000567565b509392505050565b600082601f830112620005f657620005f562000492565b5b81516200060884826020860162000593565b91505092915050565b600067ffffffffffffffff8211156200062f576200062e620004ad565b5b602082029050602081019050919050565b600080fd5b60006200065c620006568462000611565b62000512565b9050808382526020820190506020840283018581111562000682576200068162000640565b5b835b81811015620006af57806200069a88826200047b565b84526020840193505060208101905062000684565b5050509392505050565b600082601f830112620006d157620006d062000492565b5b8151620006e384826020860162000645565b91505092915050565b6000819050919050565b6200070181620006ec565b81146200070d57600080fd5b50565b6000815190506200072181620006f6565b92915050565b6000806000806000806000806000806101408b8d0312156200074e576200074d62000423565b5b60006200075e8d828e016200047b565b9a505060208b015167ffffffffffffffff81111562000782576200078162000428565b5b620007908d828e01620005de565b99505060408b015167ffffffffffffffff811115620007b457620007b362000428565b5b620007c28d828e01620005de565b98505060608b015167ffffffffffffffff811115620007e657620007e562000428565b5b620007f48d828e01620005de565b9750506080620008078d828e016200047b565b96505060a08b015167ffffffffffffffff8111156200082b576200082a62000428565b5b620008398d828e01620006b9565b95505060c06200084c8d828e016200047b565b94505060e06200085f8d828e0162000710565b935050610100620008738d828e0162000710565b925050610120620008878d828e0162000710565b9150509295989b9194979a5092959850565b600081519050919050565b7f4e487b7100000000000000000000000000000000000000000000000000000000600052602260045260246000fd5b60006002820490506001821680620008ec57607f821691505b602082108103620009025762000901620008a4565b5b50919050565b60008190508160005260206000209050919050565b60006020601f8301049050919050565b600082821b905092915050565b6000600883026200096c7fffffffffffffffffffffffffffffffffffffffffffffffffffffffffffffffff826200092d565b6200097886836200092d565b95508019841693508086168417925050509392505050565b6000819050919050565b6000620009bb620009b5620009af84620006ec565b62000990565b620006ec565b9050919050565b6000819050919050565b620009d7836200099a565b620009ef620009e682620009c2565b8484546200093a565b825550505050565b600090565b62000a06620009f7565b62000a13818484620009cc565b505050565b5b8181101562000a3b5762000a2f600082620009fc565b60018101905062000a19565b5050565b601f82111562000a8a5762000a548162000908565b62000a5f846200091d565b8101602085101562000a6f578190505b62000a8762000a7e856200091d565b83018262000a18565b50505b505050565b600082821c905092915050565b600062000aaf6000198460080262000a8f565b1980831691505092915050565b600062000aca838362000a9c565b9150826002028217905092915050565b62000ae58262000899565b67ffffffffffffffff81111562000b015762000b00620004ad565b5b62000b0d8254620008d3565b62000b1a82828562000a3f565b600060209050601f83116001811462000b52576000841562000b3d578287015190505b62000b49858262000abc565b86555062000bb9565b601f19841662000b628662000908565b60005b8281101562000b8c5784890151825560018201915060208501945060208101905062000b65565b8683101562000bac578489015162000ba8601f89168262000a9c565b8355505b6001600288020188555050505b505050505050565b7f4e487b7100000000000000000000000000000000000000000000000000000000600052603260045260246000fd5b7f4e487b7100000000000000000000000000000000000000000000000000000000600052601160045260246000fd5b600062000c2c82620006ec565b91507fffffffffffffffffffffffffffffffffffffffffffffffffffffffffffffffff820362000c615762000c6062000bf0565b5b600182019050919050565b613ea58062000c7c6000396000f3fe608060405234801561001057600080fd5b506004361061014d5760003560e01c80637550d1c9116100c3578063a1edffa21161007c578063a1edffa214610354578063a22cb46514610372578063b88d4fde1461038e578063c87b56dd146103aa578063e985e9c5146103da578063f2fde38b1461040a5761014d565b80637550d1c9146102cc5780637f36655d146102d6578063829b4663146102f257806389834083146102fc5780638da5cb5b1461031857806395d89b41146103365761014d565b8063241277ea11610115578063241277ea146102085780632df270251461021257806342842e0e146102465780636352211e1461026257806370a0823114610292578063715018a6146102c25761014d565b806301ffc9a71461015257806306fdde0314610182578063081812fc146101a0578063095ea7b3146101d057806323b872dd146101ec575b600080fd5b61016c60048036038101906101679190612bc3565b610426565b6040516101799190612c0b565b60405180910390f35b61018a610508565b6040516101979190612cb6565b60405180910390f35b6101ba60048036038101906101b59190612d0e565b61059a565b6040516101c79190612d7c565b60405180910390f35b6101ea60048036038101906101e59190612dc3565b6105e0565b005b61020660048036038101906102019190612e03565b6106f7565b005b610210610757565b005b61022c60048036038101906102279190612e56565b610831565b60405161023d959493929190612ebd565b60405180910390f35b610260600480360381019061025b9190612e03565b61089b565b005b61027c60048036038101906102779190612d0e565b6108bb565b6040516102899190612d7c565b60405180910390f35b6102ac60048036038101906102a79190612e56565b610941565b6040516102b99190612f10565b60405180910390f35b6102ca6109f8565b005b6102d4610a0c565b005b6102f060048036038101906102eb9190612d0e565b610a21565b005b6102fa61113f565b005b61031660048036038101906103119190612d0e565b611225565b005b6103206117de565b60405161032d9190612d7c565b60405180910390f35b61033e611808565b60405161034b9190612cb6565b60405180910390f35b61035c61189a565b6040516103699190612fa2565b60405180910390f35b61038c60048036038101906103879190612fe9565b6118ad565b005b6103a860048036038101906103a3919061315e565b6118c3565b005b6103c460048036038101906103bf9190612d0e565b611925565b6040516103d19190612cb6565b60405180910390f35b6103f460048036038101906103ef91906131e1565b611a37565b6040516104019190612c0b565b60405180910390f35b610424600480360381019061041f9190612e56565b611acb565b005b60007f80ac58cd000000000000000000000000000000000000000000000000000000007bffffffffffffffffffffffffffffffffffffffffffffffffffffffff1916827bffffffffffffffffffffffffffffffffffffffffffffffffffffffff191614806104f157507f5b5e139f000000000000000000000000000000000000000000000000000000007bffffffffffffffffffffffffffffffffffffffffffffffffffffffff1916827bffffffffffffffffffffffffffffffffffffffffffffffffffffffff1916145b80610501575061050082611b4e565b5b9050919050565b60606000805461051790613250565b80601f016020809104026020016040519081016040528092919081815260200182805461054390613250565b80156105905780601f1061056557610100808354040283529160200191610590565b820191906000526020600020905b81548152906001019060200180831161057357829003601f168201915b5050505050905090565b60006105a582611bb8565b6004600083815260200190815260200160002060009054906101000a900473ffffffffffffffffffffffffffffffffffffffff169050919050565b60006105eb826108bb565b90508073ffffffffffffffffffffffffffffffffffffffff168373ffffffffffffffffffffffffffffffffffffffff160361065b576040517f08c379a0000000000000000000000000000000000000000000000000000000008152600401610652906132f3565b60405180910390fd5b8073ffffffffffffffffffffffffffffffffffffffff1661067a611c03565b73ffffffffffffffffffffffffffffffffffffffff1614806106a957506106a8816106a3611c03565b611a37565b5b6106e8576040517f08c379a00000000000000000000000000000000000000000000000000000000081526004016106df90613385565b60405180910390fd5b6106f28383611c0b565b505050565b610708610702611c03565b82611cc4565b610747576040517f08c379a000000000000000000000000000000000000000000000000000000000815260040161073e90613417565b60405180910390fd5b610752838383611d59565b505050565b600a60009054906101000a900473ffffffffffffffffffffffffffffffffffffffff1673ffffffffffffffffffffffffffffffffffffffff163373ffffffffffffffffffffffffffffffffffffffff16146107e7576040517f08c379a00000000000000000000000000000000000000000000000000000000081526004016107de90613483565b60405180910390fd5b600260078111156107fb576107fa612f2b565b5b601060009054906101000a900460ff16600781111561081d5761081c612f2b565b5b1461082757600080fd5b61082f612052565b565b60246020528060005260406000206000915090508060000160009054906101000a900473ffffffffffffffffffffffffffffffffffffffff169080600101549080600201604051806020016040529081600082015481525050908060030154908060040154905085565b6108b6838383604051806020016040528060008152506118c3565b505050565b6000806108c783612130565b9050600073ffffffffffffffffffffffffffffffffffffffff168173ffffffffffffffffffffffffffffffffffffffff1603610938576040517f08c379a000000000000000000000000000000000000000000000000000000000815260040161092f906134ef565b60405180910390fd5b80915050919050565b60008073ffffffffffffffffffffffffffffffffffffffff168273ffffffffffffffffffffffffffffffffffffffff16036109b1576040517f08c379a00000000000000000000000000000000000000000000000000000000081526004016109a890613581565b60405180910390fd5b600360008373ffffffffffffffffffffffffffffffffffffffff1673ffffffffffffffffffffffffffffffffffffffff168152602001908152602001600020549050919050565b610a0061216d565b610a0a60006121eb565b565b426014541115610a1f57610a1e6122b1565b5b565b6001610a6d602060003373ffffffffffffffffffffffffffffffffffffffff1673ffffffffffffffffffffffffffffffffffffffff168152602001908152602001600020600001612416565b1015610aae576040517f08c379a0000000000000000000000000000000000000000000000000000000008152600401610aa5906135ed565b60405180910390fd5b60016007811115610ac257610ac1612f2b565b5b601060009054906101000a900460ff166007811115610ae457610ae3612f2b565b5b14610b24576040517f08c379a0000000000000000000000000000000000000000000000000000000008152600401610b1b9061367f565b60405180910390fd5b602060003373ffffffffffffffffffffffffffffffffffffffff1673ffffffffffffffffffffffffffffffffffffffff168152602001908152602001600020600101600082815260200190815260200160002060020160009054906101000a900460ff16610bc7576040517f08c379a0000000000000000000000000000000000000000000000000000000008152600401610bbe906136eb565b60405180910390fd5b600960009054906101000a900473ffffffffffffffffffffffffffffffffffffffff1673ffffffffffffffffffffffffffffffffffffffff16632098364933836040518363ffffffff1660e01b8152600401610c2492919061370b565b600060405180830381600087803b158015610c3e57600080fd5b505af1158015610c52573d6000803e3d6000fd5b505050506000601f8281548110610c6c57610c6b613734565b5b906000526020600020906005020160405180606001604052908160008201548152602001600182016040518060600160405290816000820160009054906101000a900473ffffffffffffffffffffffffffffffffffffffff1673ffffffffffffffffffffffffffffffffffffffff1673ffffffffffffffffffffffffffffffffffffffff168152602001600182015481526020016002820160009054906101000a900460ff161515151581525050815260200160048201548152505090508160156001016001015403610e3157601f60156004015481548110610d5257610d51613734565b5b906000526020600020906005020160156000820154816000015560018201816001016000820160009054906101000a900473ffffffffffffffffffffffffffffffffffffffff168160000160006101000a81548173ffffffffffffffffffffffffffffffffffffffff021916908373ffffffffffffffffffffffffffffffffffffffff160217905550600182015481600101556002820160009054906101000a900460ff168160020160006101000a81548160ff0219169083151502179055505050600482015481600401559050506000601560000181905550610f9e565b81601a6001016001015403610f3857601f601a6000015481548110610e5957610e58613734565b5b9060005260206000209060050201601a6000820154816000015560018201816001016000820160009054906101000a900473ffffffffffffffffffffffffffffffffffffffff168160000160006101000a81548173ffffffffffffffffffffffffffffffffffffffff021916908373ffffffffffffffffffffffffffffffffffffffff160217905550600182015481600101556002820160009054906101000a900460ff168160020160006101000a81548160ff0219169083151502179055505050600482015481600401559050506000601a60040181905550610f9d565b8060400151601f826000015181548110610f5557610f54613734565b5b9060005260206000209060050201600401819055508060000151601f826040015181548110610f8757610f86613734565b5b9060005260206000209060050201600001819055505b5b601f8281548110610fb257610fb1613734565b5b906000526020600020906005020160008082016000905560018201600080820160006101000a81549073ffffffffffffffffffffffffffffffffffffffff021916905560018201600090556002820160006101000a81549060ff0219169055505060048201600090555050611067602060003373ffffffffffffffffffffffffffffffffffffffff1673ffffffffffffffffffffffffffffffffffffffff168152602001908152602001600020600001612424565b602060003373ffffffffffffffffffffffffffffffffffffffff1673ffffffffffffffffffffffffffffffffffffffff1681526020019081526020016000206001016000838152602001908152602001600020600080820160006101000a81549073ffffffffffffffffffffffffffffffffffffffff021916905560018201600090556002820160006101000a81549060ff021916905550507fe705dd9d71182b5cf2821d65e821de54338ddb99849a71aa739ce428be12927b816020015160405161113391906137c3565b60405180910390a15050565b61114761216d565b6000600781111561115b5761115a612f2b565b5b601060009054906101000a900460ff16600781111561117d5761117c612f2b565b5b146111bd576040517f08c379a00000000000000000000000000000000000000000000000000000000081526004016111b490613850565b60405180910390fd5b6001601060006101000a81548160ff021916908360078111156111e3576111e2612f2b565b5b02179055507f880498af3c6b66c92ab2120d6b0aca7539f4b40c5f3d8366dc8f8706bf60e9926000600160405161121b929190613870565b60405180910390a1565b6001600781111561123957611238612f2b565b5b601060009054906101000a900460ff16600781111561125b5761125a612f2b565b5b1461129b576040517f08c379a00000000000000000000000000000000000000000000000000000000081526004016112929061367f565b60405180910390fd5b602060003373ffffffffffffffffffffffffffffffffffffffff1673ffffffffffffffffffffffffffffffffffffffff168152602001908152602001600020600101600082815260200190815260200160002060020160009054906101000a900460ff161561133f576040517f08c379a0000000000000000000000000000000000000000000000000000000008152600401611336906138e5565b60405180910390fd5b600960009054906101000a900473ffffffffffffffffffffffffffffffffffffffff1673ffffffffffffffffffffffffffffffffffffffff16631457e16f33836040518363ffffffff1660e01b815260040161139c92919061370b565b600060405180830381600087803b1580156113b657600080fd5b505af11580156113ca573d6000803e3d6000fd5b50505050600060405180606001604052803373ffffffffffffffffffffffffffffffffffffffff16815260200183815260200160011515815250905080602060003373ffffffffffffffffffffffffffffffffffffffff1673ffffffffffffffffffffffffffffffffffffffff168152602001908152602001600020600101600084815260200190815260200160002060008201518160000160006101000a81548173ffffffffffffffffffffffffffffffffffffffff021916908373ffffffffffffffffffffffffffffffffffffffff1602179055506020820151816001015560408201518160020160006101000a81548160ff021916908315150217905550905050611518602060003373ffffffffffffffffffffffffffffffffffffffff1673ffffffffffffffffffffffffffffffffffffffff168152602001908152602001600020600001612480565b611520612af7565b601560010160020160009054906101000a900460ff166115f457604051806060016040528060008152602001838152602001600081525090508060156000820151816000015560208201518160010160008201518160000160006101000a81548173ffffffffffffffffffffffffffffffffffffffff021916908373ffffffffffffffffffffffffffffffffffffffff1602179055506020820151816001015560408201518160020160006101000a81548160ff02191690831515021790555050506040820151816004015590505061162d565b6040518060600160405280601a60010160010154815260200183815260200160008152509050806020015160200151601a600401819055505b80601f848154811061164257611641613734565b5b90600052602060002090600502016000820151816000015560208201518160010160008201518160000160006101000a81548173ffffffffffffffffffffffffffffffffffffffff021916908373ffffffffffffffffffffffffffffffffffffffff1602179055506020820151816001015560408201518160020160006101000a81548160ff02191690831515021790555050506040820151816004015590505080601a6000820151816000015560208201518160010160008201518160000160006101000a81548173ffffffffffffffffffffffffffffffffffffffff021916908373ffffffffffffffffffffffffffffffffffffffff1602179055506020820151816001015560408201518160020160006101000a81548160ff0219169083151502179055505050604082015181600401559050506117836013612480565b6012546117906013612416565b0361179e5761179d6122b1565b5b7f40009383578d93076aa0b4174716f668f22544022966ac50296178faa5f3dd9e81602001516040516117d191906137c3565b60405180910390a1505050565b6000600760009054906101000a900473ffffffffffffffffffffffffffffffffffffffff16905090565b60606001805461181790613250565b80601f016020809104026020016040519081016040528092919081815260200182805461184390613250565b80156118905780601f1061186557610100808354040283529160200191611890565b820191906000526020600020905b81548152906001019060200180831161187357829003601f168201915b5050505050905090565b601060009054906101000a900460ff1681565b6118bf6118b8611c03565b8383612496565b5050565b6118d46118ce611c03565b83611cc4565b611913576040517f08c379a000000000000000000000000000000000000000000000000000000000815260040161190a90613417565b60405180910390fd5b61191f84848484612602565b50505050565b606061193082611bb8565b600060066000848152602001908152602001600020805461195090613250565b80601f016020809104026020016040519081016040528092919081815260200182805461197c90613250565b80156119c95780601f1061199e576101008083540402835291602001916119c9565b820191906000526020600020905b8154815290600101906020018083116119ac57829003601f168201915b5050505050905060006119da61265e565b905060008151036119ef578192505050611a32565b600082511115611a24578082604051602001611a0c929190613941565b60405160208183030381529060405292505050611a32565b611a2d84612675565b925050505b919050565b6000600560008473ffffffffffffffffffffffffffffffffffffffff1673ffffffffffffffffffffffffffffffffffffffff16815260200190815260200160002060008373ffffffffffffffffffffffffffffffffffffffff1673ffffffffffffffffffffffffffffffffffffffff16815260200190815260200160002060009054906101000a900460ff16905092915050565b611ad361216d565b600073ffffffffffffffffffffffffffffffffffffffff168173ffffffffffffffffffffffffffffffffffffffff1603611b42576040517f08c379a0000000000000000000000000000000000000000000000000000000008152600401611b39906139d7565b60405180910390fd5b611b4b816121eb565b50565b60007f01ffc9a7000000000000000000000000000000000000000000000000000000007bffffffffffffffffffffffffffffffffffffffffffffffffffffffff1916827bffffffffffffffffffffffffffffffffffffffffffffffffffffffff1916149050919050565b611bc1816126dd565b611c00576040517f08c379a0000000000000000000000000000000000000000000000000000000008152600401611bf7906134ef565b60405180910390fd5b50565b600033905090565b816004600083815260200190815260200160002060006101000a81548173ffffffffffffffffffffffffffffffffffffffff021916908373ffffffffffffffffffffffffffffffffffffffff160217905550808273ffffffffffffffffffffffffffffffffffffffff16611c7e836108bb565b73ffffffffffffffffffffffffffffffffffffffff167f8c5be1e5ebec7d5bd14f71427d1e84f3dd0314c0f7b2291e5b200ac8c7c3b92560405160405180910390a45050565b600080611cd0836108bb565b90508073ffffffffffffffffffffffffffffffffffffffff168473ffffffffffffffffffffffffffffffffffffffff161480611d125750611d118185611a37565b5b80611d5057508373ffffffffffffffffffffffffffffffffffffffff16611d388461059a565b73ffffffffffffffffffffffffffffffffffffffff16145b91505092915050565b8273ffffffffffffffffffffffffffffffffffffffff16611d79826108bb565b73ffffffffffffffffffffffffffffffffffffffff1614611dcf576040517f08c379a0000000000000000000000000000000000000000000000000000000008152600401611dc690613a69565b60405180910390fd5b600073ffffffffffffffffffffffffffffffffffffffff168273ffffffffffffffffffffffffffffffffffffffff1603611e3e576040517f08c379a0000000000000000000000000000000000000000000000000000000008152600401611e3590613afb565b60405180910390fd5b611e4b838383600161271e565b8273ffffffffffffffffffffffffffffffffffffffff16611e6b826108bb565b73ffffffffffffffffffffffffffffffffffffffff1614611ec1576040517f08c379a0000000000000000000000000000000000000000000000000000000008152600401611eb890613a69565b60405180910390fd5b6004600082815260200190815260200160002060006101000a81549073ffffffffffffffffffffffffffffffffffffffff02191690556001600360008573ffffffffffffffffffffffffffffffffffffffff1673ffffffffffffffffffffffffffffffffffffffff168152602001908152602001600020600082825403925050819055506001600360008473ffffffffffffffffffffffffffffffffffffffff1673ffffffffffffffffffffffffffffffffffffffff16815260200190815260200160002060008282540192505081905550816002600083815260200190815260200160002060006101000a81548173ffffffffffffffffffffffffffffffffffffffff021916908373ffffffffffffffffffffffffffffffffffffffff160217905550808273ffffffffffffffffffffffffffffffffffffffff168473ffffffffffffffffffffffffffffffffffffffff167fddf252ad1be2c89b69c2b068fc378daa952ba7f163c4a11628f55a4df523b3ef60405160405180910390a461204d8383836001612724565b505050565b6002600781111561206657612065612f2b565b5b601060009054906101000a900460ff16600781111561208857612087612f2b565b5b146120c8576040517f08c379a00000000000000000000000000000000000000000000000000000000081526004016120bf90613b67565b60405180910390fd5b6003601060006101000a81548160ff021916908360078111156120ee576120ed612f2b565b5b02179055507f880498af3c6b66c92ab2120d6b0aca7539f4b40c5f3d8366dc8f8706bf60e99260026003604051612126929190613870565b60405180910390a1565b60006002600083815260200190815260200160002060009054906101000a900473ffffffffffffffffffffffffffffffffffffffff169050919050565b612175611c03565b73ffffffffffffffffffffffffffffffffffffffff166121936117de565b73ffffffffffffffffffffffffffffffffffffffff16146121e9576040517f08c379a00000000000000000000000000000000000000000000000000000000081526004016121e090613bd3565b60405180910390fd5b565b6000600760009054906101000a900473ffffffffffffffffffffffffffffffffffffffff16905081600760006101000a81548173ffffffffffffffffffffffffffffffffffffffff021916908373ffffffffffffffffffffffffffffffffffffffff1602179055508173ffffffffffffffffffffffffffffffffffffffff168173ffffffffffffffffffffffffffffffffffffffff167f8be0079c531659141344cd1fd0a4f28419497f9722a3daafe3b4186f6b6457e060405160405180910390a35050565b600160078111156122c5576122c4612f2b565b5b601060009054906101000a900460ff1660078111156122e7576122e6612f2b565b5b14612327576040517f08c379a000000000000000000000000000000000000000000000000000000000815260040161231e90613850565b60405180910390fd5b6011546123346013612416565b10156123ad576006601060006101000a81548160ff021916908360078111156123605761235f612f2b565b5b021790555061236d61272a565b7f880498af3c6b66c92ab2120d6b0aca7539f4b40c5f3d8366dc8f8706bf60e992600160066040516123a0929190613870565b60405180910390a1612414565b6002601060006101000a81548160ff021916908360078111156123d3576123d2612f2b565b5b02179055507f880498af3c6b66c92ab2120d6b0aca7539f4b40c5f3d8366dc8f8706bf60e9926001600260405161240b929190613870565b60405180910390a15b565b600081600001549050919050565b60008160000154905060008111612470576040517f08c379a000000000000000000000000000000000000000000000000000000000815260040161246790613c3f565b60405180910390fd5b6001810382600001819055505050565b6001816000016000828254019250508190555050565b8173ffffffffffffffffffffffffffffffffffffffff168373ffffffffffffffffffffffffffffffffffffffff1603612504576040517f08c379a00000000000000000000000000000000000000000000000000000000081526004016124fb90613cab565b60405180910390fd5b80600560008573ffffffffffffffffffffffffffffffffffffffff1673ffffffffffffffffffffffffffffffffffffffff16815260200190815260200160002060008473ffffffffffffffffffffffffffffffffffffffff1673ffffffffffffffffffffffffffffffffffffffff16815260200190815260200160002060006101000a81548160ff0219169083151502179055508173ffffffffffffffffffffffffffffffffffffffff168373ffffffffffffffffffffffffffffffffffffffff167f17307eab39ab6107e8899845ad3d59bd9653f200f220920489ca2b5937696c31836040516125f59190612c0b565b60405180910390a3505050565b61260d848484611d59565b6126198484848461272c565b612658576040517f08c379a000000000000000000000000000000000000000000000000000000000815260040161264f90613d3d565b60405180910390fd5b50505050565b606060405180602001604052806000815250905090565b606061268082611bb8565b600061268a61265e565b905060008151116126aa57604051806020016040528060008152506126d5565b806126b4846128b3565b6040516020016126c5929190613941565b6040516020818303038152906040525b915050919050565b60008073ffffffffffffffffffffffffffffffffffffffff166126ff83612130565b73ffffffffffffffffffffffffffffffffffffffff1614159050919050565b50505050565b50505050565b565b600061274d8473ffffffffffffffffffffffffffffffffffffffff16612981565b156128a6578373ffffffffffffffffffffffffffffffffffffffff1663150b7a02612776611c03565b8786866040518563ffffffff1660e01b81526004016127989493929190613db2565b6020604051808303816000875af19250505080156127d457506040513d601f19601f820116820180604052508101906127d19190613e13565b60015b612856573d8060008114612804576040519150601f19603f3d011682016040523d82523d6000602084013e612809565b606091505b50600081510361284e576040517f08c379a000000000000000000000000000000000000000000000000000000000815260040161284590613d3d565b60405180910390fd5b805181602001fd5b63150b7a0260e01b7bffffffffffffffffffffffffffffffffffffffffffffffffffffffff1916817bffffffffffffffffffffffffffffffffffffffffffffffffffffffff1916149150506128ab565b600190505b949350505050565b6060600060016128c2846129a4565b01905060008167ffffffffffffffff8111156128e1576128e0613033565b5b6040519080825280601f01601f1916602001820160405280156129135781602001600182028036833780820191505090505b509050600082602001820190505b600115612976578080600190039150507f3031323334353637383961626364656600000000000000000000000000000000600a86061a8153600a858161296a57612969613e40565b5b04945060008503612921575b819350505050919050565b6000808273ffffffffffffffffffffffffffffffffffffffff163b119050919050565b600080600090507a184f03e93ff9f4daa797ed6e38ed64bf6a1f0100000000000000008310612a02577a184f03e93ff9f4daa797ed6e38ed64bf6a1f01000000000000000083816129f8576129f7613e40565b5b0492506040810190505b6d04ee2d6d415b85acef81000000008310612a3f576d04ee2d6d415b85acef81000000008381612a3557612a34613e40565b5b0492506020810190505b662386f26fc100008310612a6e57662386f26fc100008381612a6457612a63613e40565b5b0492506010810190505b6305f5e1008310612a97576305f5e1008381612a8d57612a8c613e40565b5b0492506008810190505b6127108310612abc576127108381612ab257612ab1613e40565b5b0492506004810190505b60648310612adf5760648381612ad557612ad4613e40565b5b0492506002810190505b600a8310612aee576001810190505b80915050919050565b604051806060016040528060008152602001612b11612b1e565b8152602001600081525090565b6040518060600160405280600073ffffffffffffffffffffffffffffffffffffffff168152602001600081526020016000151581525090565b6000604051905090565b600080fd5b600080fd5b60007fffffffff0000000000000000000000000000000000000000000000000000000082169050919050565b612ba081612b6b565b8114612bab57600080fd5b50565b600081359050612bbd81612b97565b92915050565b600060208284031215612bd957612bd8612b61565b5b6000612be784828501612bae565b91505092915050565b60008115159050919050565b612c0581612bf0565b82525050565b6000602082019050612c206000830184612bfc565b92915050565b600081519050919050565b600082825260208201905092915050565b60005b83811015612c60578082015181840152602081019050612c45565b60008484015250505050565b6000601f19601f8301169050919050565b6000612c8882612c26565b612c928185612c31565b9350612ca2818560208601612c42565b612cab81612c6c565b840191505092915050565b60006020820190508181036000830152612cd08184612c7d565b905092915050565b6000819050919050565b612ceb81612cd8565b8114612cf657600080fd5b50565b600081359050612d0881612ce2565b92915050565b600060208284031215612d2457612d23612b61565b5b6000612d3284828501612cf9565b91505092915050565b600073ffffffffffffffffffffffffffffffffffffffff82169050919050565b6000612d6682612d3b565b9050919050565b612d7681612d5b565b82525050565b6000602082019050612d916000830184612d6d565b92915050565b612da081612d5b565b8114612dab57600080fd5b50565b600081359050612dbd81612d97565b92915050565b60008060408385031215612dda57612dd9612b61565b5b6000612de885828601612dae565b9250506020612df985828601612cf9565b9150509250929050565b600080600060608486031215612e1c57612e1b612b61565b5b6000612e2a86828701612dae565b9350506020612e3b86828701612dae565b9250506040612e4c86828701612cf9565b9150509250925092565b600060208284031215612e6c57612e6b612b61565b5b6000612e7a84828501612dae565b91505092915050565b612e8c81612cd8565b82525050565b612e9b81612cd8565b82525050565b602082016000820151612eb76000850182612e92565b50505050565b600060a082019050612ed26000830188612d6d565b612edf6020830187612e83565b612eec6040830186612ea1565b612ef96060830185612e83565b612f066080830184612e83565b9695505050505050565b6000602082019050612f256000830184612e83565b92915050565b7f4e487b7100000000000000000000000000000000000000000000000000000000600052602160045260246000fd5b60088110612f6b57612f6a612f2b565b5b50565b6000819050612f7c82612f5a565b919050565b6000612f8c82612f6e565b9050919050565b612f9c81612f81565b82525050565b6000602082019050612fb76000830184612f93565b92915050565b612fc681612bf0565b8114612fd157600080fd5b50565b600081359050612fe381612fbd565b92915050565b6000806040838503121561300057612fff612b61565b5b600061300e85828601612dae565b925050602061301f85828601612fd4565b9150509250929050565b600080fd5b600080fd5b7f4e487b7100000000000000000000000000000000000000000000000000000000600052604160045260246000fd5b61306b82612c6c565b810181811067ffffffffffffffff8211171561308a57613089613033565b5b80604052505050565b600061309d612b57565b90506130a98282613062565b919050565b600067ffffffffffffffff8211156130c9576130c8613033565b5b6130d282612c6c565b9050602081019050919050565b82818337600083830152505050565b60006131016130fc846130ae565b613093565b90508281526020810184848401111561311d5761311c61302e565b5b6131288482856130df565b509392505050565b600082601f83011261314557613144613029565b5b81356131558482602086016130ee565b91505092915050565b6000806000806080858703121561317857613177612b61565b5b600061318687828801612dae565b945050602061319787828801612dae565b93505060406131a887828801612cf9565b925050606085013567ffffffffffffffff8111156131c9576131c8612b66565b5b6131d587828801613130565b91505092959194509250565b600080604083850312156131f8576131f7612b61565b5b600061320685828601612dae565b925050602061321785828601612dae565b9150509250929050565b7f4e487b7100000000000000000000000000000000000000000000000000000000600052602260045260246000fd5b6000600282049050600182168061326857607f821691505b60208210810361327b5761327a613221565b5b50919050565b7f4552433732313a20617070726f76616c20746f2063757272656e74206f776e6560008201527f7200000000000000000000000000000000000000000000000000000000000000602082015250565b60006132dd602183612c31565b91506132e882613281565b604082019050919050565b6000602082019050818103600083015261330c816132d0565b9050919050565b7f4552433732313a20617070726f76652063616c6c6572206973206e6f7420746f60008201527f6b656e206f776e6572206f7220617070726f76656420666f7220616c6c000000602082015250565b600061336f603d83612c31565b915061337a82613313565b604082019050919050565b6000602082019050818103600083015261339e81613362565b9050919050565b7f4552433732313a2063616c6c6572206973206e6f7420746f6b656e206f776e6560008201527f72206f7220617070726f76656400000000000000000000000000000000000000602082015250565b6000613401602d83612c31565b915061340c826133a5565b604082019050919050565b60006020820190508181036000830152613430816133f4565b9050919050565b7f596f7520617265206e6f74207468652044414f20210000000000000000000000600082015250565b600061346d601583612c31565b915061347882613437565b602082019050919050565b6000602082019050818103600083015261349c81613460565b9050919050565b7f4552433732313a20696e76616c696420746f6b656e2049440000000000000000600082015250565b60006134d9601883612c31565b91506134e4826134a3565b602082019050919050565b60006020820190508181036000830152613508816134cc565b9050919050565b7f4552433732313a2061646472657373207a65726f206973206e6f74206120766160008201527f6c6964206f776e65720000000000000000000000000000000000000000000000602082015250565b600061356b602983612c31565b91506135768261350f565b604082019050919050565b6000602082019050818103600083015261359a8161355e565b9050919050565b7f596f7520617265206e6f742061205469636b6574205374616b65640000000000600082015250565b60006135d7601b83612c31565b91506135e2826135a1565b602082019050919050565b60006020820190508181036000830152613606816135ca565b9050919050565b7f5374616b696e67206973206e6f7420617574686f72697a656420616e796d6f7260008201527f6500000000000000000000000000000000000000000000000000000000000000602082015250565b6000613669602183612c31565b91506136748261360d565b604082019050919050565b600060208201905081810360008301526136988161365c565b9050919050565b7f5469636b6574206973206e6f74207374616b6564000000000000000000000000600082015250565b60006136d5601483612c31565b91506136e08261369f565b602082019050919050565b60006020820190508181036000830152613704816136c8565b9050919050565b60006040820190506137206000830185612d6d565b61372d6020830184612e83565b9392505050565b7f4e487b7100000000000000000000000000000000000000000000000000000000600052603260045260246000fd5b61376c81612d5b565b82525050565b61377b81612bf0565b82525050565b6060820160008201516137976000850182613763565b5060208201516137aa6020850182612e92565b5060408201516137bd6040850182613772565b50505050565b60006060820190506137d86000830184613781565b92915050565b7f4d696e74207469636b657420726567697374726174696f6e2068617665206e6f60008201527f74206265656e2073746172746564207965740000000000000000000000000000602082015250565b600061383a603283612c31565b9150613845826137de565b604082019050919050565b600060208201905081810360008301526138698161382d565b9050919050565b60006040820190506138856000830185612f93565b6138926020830184612f93565b9392505050565b7f5469636b657420616c7265616479207374616b65640000000000000000000000600082015250565b60006138cf601583612c31565b91506138da82613899565b602082019050919050565b600060208201905081810360008301526138fe816138c2565b9050919050565b600081905092915050565b600061391b82612c26565b6139258185613905565b9350613935818560208601612c42565b80840191505092915050565b600061394d8285613910565b91506139598284613910565b91508190509392505050565b7f4f776e61626c653a206e6577206f776e657220697320746865207a65726f206160008201527f6464726573730000000000000000000000000000000000000000000000000000602082015250565b60006139c1602683612c31565b91506139cc82613965565b604082019050919050565b600060208201905081810360008301526139f0816139b4565b9050919050565b7f4552433732313a207472616e736665722066726f6d20696e636f72726563742060008201527f6f776e6572000000000000000000000000000000000000000000000000000000602082015250565b6000613a53602583612c31565b9150613a5e826139f7565b604082019050919050565b60006020820190508181036000830152613a8281613a46565b9050919050565b7f4552433732313a207472616e7366657220746f20746865207a65726f2061646460008201527f7265737300000000000000000000000000000000000000000000000000000000602082015250565b6000613ae5602483612c31565b9150613af082613a89565b604082019050919050565b60006020820190508181036000830152613b1481613ad8565b9050919050565b7f5469636b657420726567697374726174696f6e206e6f7420656e646564000000600082015250565b6000613b51601d83612c31565b9150613b5c82613b1b565b602082019050919050565b60006020820190508181036000830152613b8081613b44565b9050919050565b7f4f776e61626c653a2063616c6c6572206973206e6f7420746865206f776e6572600082015250565b6000613bbd602083612c31565b9150613bc882613b87565b602082019050919050565b60006020820190508181036000830152613bec81613bb0565b9050919050565b7f436f756e7465723a2064656372656d656e74206f766572666c6f770000000000600082015250565b6000613c29601b83612c31565b9150613c3482613bf3565b602082019050919050565b60006020820190508181036000830152613c5881613c1c565b9050919050565b7f4552433732313a20617070726f766520746f2063616c6c657200000000000000600082015250565b6000613c95601983612c31565b9150613ca082613c5f565b602082019050919050565b60006020820190508181036000830152613cc481613c88565b9050919050565b7f4552433732313a207472616e7366657220746f206e6f6e20455243373231526560008201527f63656976657220696d706c656d656e7465720000000000000000000000000000602082015250565b6000613d27603283612c31565b9150613d3282613ccb565b604082019050919050565b60006020820190508181036000830152613d5681613d1a565b9050919050565b600081519050919050565b600082825260208201905092915050565b6000613d8482613d5d565b613d8e8185613d68565b9350613d9e818560208601612c42565b613da781612c6c565b840191505092915050565b6000608082019050613dc76000830187612d6d565b613dd46020830186612d6d565b613de16040830185612e83565b8181036060830152613df38184613d79565b905095945050505050565b600081519050613e0d81612b97565b92915050565b600060208284031215613e2957613e28612b61565b5b6000613e3784828501613dfe565b91505092915050565b7f4e487b7100000000000000000000000000000000000000000000000000000000600052601260045260246000fdfea2646970667358221220be92bef6cb4f5c6347c7b596e773bc62aa9d76ce2270bd4cbd3c7ad9bb5917d664736f6c63430008120033",
  "immutableReferences": {},
  "source": "// SPDX-License-Identifier: MIT\npragma solidity >=0.4.22 <0.9.0;\n\nimport '@openzeppelin/contracts/token/ERC721/ERC721.sol';\nimport '@openzeppelin/contracts/token/ERC721/extensions/ERC721URIStorage.sol';\nimport '@openzeppelin/contracts/security/ReentrancyGuard.sol';\nimport './MiningDAOInvestTickets.sol';\n\n// ADD 5% Royalty\n// ADD STATIC Variable method\n// Attention royalty check par rapport  blur.\n\n\n\ncontract MiningDAOCommercialOffer is ERC721URIStorage, Ownable, ReentrancyGuard{\n    using Counters for Counters.Counter;\n\n\n    MiningDAOInvestTickets private InvestTicketsContract;\n\n    enum WorkflowStatus {\n        Initialized,\n        MintTicketsRegistrationStarted,\n        MintTicketsRegistrationEnded,\n        DAOTeamSignatureCompleted,\n        RunningNoClaim,\n        RunningWithClaim,\n        CanceledMinimumTicketsNotReach,\n        Stopped\n    }\n\n    struct InvestTicket {\n        address investTicketOwner;\n        uint256 tokenId;\n        bool isStaked;\n    }\n\n    struct InvestTicketsStaked {\n        Counters.Counter amountOfTicketStaked;\n        mapping(uint => InvestTicket) stakedInvestTickets;\n    }\n\n    struct OfferTicket {\n        address ticketOwner;\n        uint256 power;\n        Counters.Counter unclaimedMonths;\n        uint256 unclaimedValue;\n        uint256 timeOfLastRewardUpdate;\n    }\n\n    struct LinkedListInvestTicket {\n        uint previousIndex;\n        InvestTicket ticket;\n        uint nextIndex;\n    }\n\n    // GLOBAL\n\n    address DAOWallet;\n    address[] DAOTeamWallets;\n    address treasuryWallet;\n    string offerName;\n    string ref;\n    mapping(address => bool) whitelisted;\n\n    WorkflowStatus public workflowStatus;\n\n    // PHASE 1\n    uint minimumTickets;\n    uint maximumTickets;\n    Counters.Counter ticketsCounter;\n    uint lockTimeLimit;\n    LinkedListInvestTicket linkedListHead;\n    LinkedListInvestTicket linkedListLast;\n    LinkedListInvestTicket[] stakerList;\n    mapping(address => InvestTicketsStaked) investTicketsStaked;\n\n\n    // PHASE 2\n    uint256 timeOfLastRewardUpdate;\n    uint256 totalTHPower;\n    OfferTicket[] offerOwnersList;\n    mapping(address => OfferTicket) public offerTicketOwners;\n\n    event InvestTicketStaked(InvestTicket ticket);\n    event InvestTicketUnstaked(InvestTicket ticket);\n    event RewardClaimed(OfferTicket ticket);\n    event WorkflowStatusChanged(WorkflowStatus previous, WorkflowStatus current);\n\n    //CONSTRUCTOR\n    constructor(\n        address _InvestTicketsContractAddress,\n        string memory _offerName,\n        string memory _ref,\n        string memory _collectionName,\n        address _DAOWallet,\n        address[] memory _DAOTeamWallets,\n        address _treasuryWallet,\n        uint _minimumTickets,\n        uint _maximumTickets,\n        uint _lockTimeLimit\n    ) ERC721(_collectionName, _ref){\n        InvestTicketsContract = MiningDAOInvestTickets(_InvestTicketsContractAddress);\n        offerName = _offerName;\n        ref = _ref;\n        DAOWallet = _DAOWallet;\n        DAOTeamWallets = _DAOTeamWallets;\n        treasuryWallet = _treasuryWallet;\n        minimumTickets = _minimumTickets;\n        maximumTickets = _maximumTickets;\n        lockTimeLimit = _lockTimeLimit;\n\n        whitelisted[_DAOWallet] = true;\n        for(uint i = 0; i < _DAOTeamWallets.length; i++){\n            whitelisted[_DAOTeamWallets[i]] = true;\n        }\n    }\n\n    //MODIFIER CHECK whitelistedOwner\n    modifier isWhitelisted() {\n        require(whitelisted[msg.sender] == true, \"You are not whitelisted\");\n        _;\n    }\n\n    //MODIFIER CHECK isInvestTicketStaker\n    modifier isInvestTicketStacker() {\n        require(investTicketsStaked[msg.sender].amountOfTicketStaked.current() >= 1, \"You are not a Ticket Staked\");\n        _;\n    }\n\n    //MOFICIER CHECK isOfferTicketOwner\n    modifier isOfferTicketOwner() {\n        require(offerTicketOwners[msg.sender].power >= 1, \"You are not an offer ticket owner\");\n        _;\n    }\n\n    //STAKE INVEST TICKET METHOD\n    function stakeTicket(uint _tokenId) external {\n        require(workflowStatus == WorkflowStatus.MintTicketsRegistrationStarted, \"Staking is not authorized anymore\");\n        require(!investTicketsStaked[msg.sender].stakedInvestTickets[_tokenId].isStaked, \"Ticket already staked\");\n        InvestTicketsContract.stakeTicket(msg.sender, _tokenId);\n        InvestTicket memory investTicket = InvestTicket(msg.sender, _tokenId, true);\n        investTicketsStaked[msg.sender].stakedInvestTickets[_tokenId] = investTicket;\n        investTicketsStaked[msg.sender].amountOfTicketStaked.increment();\n\n        LinkedListInvestTicket memory item;\n        if(!linkedListHead.ticket.isStaked) {\n            item = LinkedListInvestTicket(0,investTicket,0);\n            linkedListHead = item;\n        } else {\n            item = LinkedListInvestTicket(linkedListLast.ticket.tokenId,investTicket,0);\n            linkedListLast.nextIndex = item.ticket.tokenId;\n        }\n        stakerList[_tokenId] = item;\n        linkedListLast = item;\n\n        ticketsCounter.increment();\n        if(ticketsCounter.current() == maximumTickets){\n            mintTicketRegistrationEnded();\n        }\n        emit InvestTicketStaked(item.ticket);\n    }\n\n    //UNSTAKE INVEST TICKET METHOD\n    function unstakeTicket(uint _tokenId) external isInvestTicketStacker {\n        require(workflowStatus == WorkflowStatus.MintTicketsRegistrationStarted, \"Staking is not authorized anymore\");\n        require(investTicketsStaked[msg.sender].stakedInvestTickets[_tokenId].isStaked, \"Ticket is not staked\");\n        InvestTicketsContract.unstakeTicket(msg.sender, _tokenId);\n\n        LinkedListInvestTicket memory item = stakerList[_tokenId];\n        if(linkedListHead.ticket.tokenId == _tokenId) {\n            linkedListHead = stakerList[linkedListHead.nextIndex];\n            linkedListHead.previousIndex = 0;\n        }else if(linkedListLast.ticket.tokenId == _tokenId){\n            linkedListLast = stakerList[linkedListLast.previousIndex];\n            linkedListLast.nextIndex = 0;\n        }else{\n            stakerList[item.previousIndex].nextIndex = item.nextIndex;\n            stakerList[item.nextIndex].previousIndex = item.previousIndex;\n        }\n        delete stakerList[_tokenId];\n\n        investTicketsStaked[msg.sender].amountOfTicketStaked.decrement();\n        delete investTicketsStaked[msg.sender].stakedInvestTickets[_tokenId];\n\n        emit InvestTicketUnstaked(item.ticket);\n    }\n\n    function unstakeAllTickets() internal {\n        //Unstake all Tickets\n    }\n\n\n\n    //DAOSIGNATURE REQUEST\n    function DAOTeamSignatureRequest() external {\n        require(msg.sender == DAOWallet, \"You are not the DAO !\");\n        require(workflowStatus == WorkflowStatus.MintTicketsRegistrationEnded);\n        DAOTeamSignatureCompleted();\n    }\n\n    //GENERATE OFFER NFT\n    function generateOfferNFT() internal {\n        //BURN TICKET AND GENERATE OFFER\n    }\n\n    //HANDLE OFFER NFT TRANSFER (ownership change)\n\n    //***\n    //CHANGE WORKFLOWSTATUS\n    //***\n\n    //START MINT TICKET REGISTRATION\n    function mintTicketRegistrationStarted() external onlyOwner {\n        require(workflowStatus == WorkflowStatus.Initialized, \"Mint ticket registration have not been started yet\");\n        workflowStatus = WorkflowStatus.MintTicketsRegistrationStarted;\n        emit WorkflowStatusChanged(WorkflowStatus.Initialized, WorkflowStatus.MintTicketsRegistrationStarted);\n    }\n\n    //END MINT TICKET REGISTRATION\n    function mintTicketRegistrationEnded() internal {\n        require(workflowStatus == WorkflowStatus.MintTicketsRegistrationStarted, \"Mint ticket registration have not been started yet\");\n        if(ticketsCounter.current() < minimumTickets){\n            workflowStatus = WorkflowStatus.CanceledMinimumTicketsNotReach;\n            unstakeAllTickets();\n            emit WorkflowStatusChanged(WorkflowStatus.MintTicketsRegistrationStarted, WorkflowStatus.CanceledMinimumTicketsNotReach);\n        } else {\n            workflowStatus = WorkflowStatus.MintTicketsRegistrationEnded;\n            emit WorkflowStatusChanged(WorkflowStatus.MintTicketsRegistrationStarted, WorkflowStatus.MintTicketsRegistrationEnded);\n        }\n\n    }\n\n    function DAOTeamSignatureCompleted() internal {\n        require(workflowStatus == WorkflowStatus.MintTicketsRegistrationEnded, \"Ticket registration not ended\");\n        workflowStatus = WorkflowStatus.DAOTeamSignatureCompleted;\n        emit WorkflowStatusChanged(WorkflowStatus.MintTicketsRegistrationEnded, WorkflowStatus.DAOTeamSignatureCompleted);\n    }\n\n    //SWITCH TO RUNNING MODE (need totalThPower and set timeOfLastRewardUpdate)\n\n    //***\n    //CRON TASK\n    //***\n\n    //CHECK IF TIME EXPIRED\n    function checkLockTimeExpired() external {\n        if(lockTimeLimit > block.timestamp) {\n            mintTicketRegistrationEnded();\n        }\n    }\n\n    //CHECK IF BEGIN OF NEW MONTH SO COMPUTE REWARD\n\n}",
  "sourcePath": "/Users/dylandivito/DEV/Solidity/Mining-DAO/truffle/contracts/MiningDAOCommercialOffer.sol",
  "compiler": {
    "name": "solc",
    "version": "0.8.18+commit.87f61d96.Emscripten.clang"
  },
  "schemaVersion": "3.4.11",
  "updatedAt": "2023-04-07T21:57:52.340Z",
  "devdoc": {
    "events": {
      "Approval(address,address,uint256)": {
        "details": "Emitted when `owner` enables `approved` to manage the `tokenId` token."
      },
      "ApprovalForAll(address,address,bool)": {
        "details": "Emitted when `owner` enables or disables (`approved`) `operator` to manage all of its assets."
      },
      "Transfer(address,address,uint256)": {
        "details": "Emitted when `tokenId` token is transferred from `from` to `to`."
      }
    },
    "kind": "dev",
    "methods": {
      "approve(address,uint256)": {
        "details": "See {IERC721-approve}."
      },
      "balanceOf(address)": {
        "details": "See {IERC721-balanceOf}."
      },
      "getApproved(uint256)": {
        "details": "See {IERC721-getApproved}."
      },
      "isApprovedForAll(address,address)": {
        "details": "See {IERC721-isApprovedForAll}."
      },
      "name()": {
        "details": "See {IERC721Metadata-name}."
      },
      "owner()": {
        "details": "Returns the address of the current owner."
      },
      "ownerOf(uint256)": {
        "details": "See {IERC721-ownerOf}."
      },
      "renounceOwnership()": {
        "details": "Leaves the contract without owner. It will not be possible to call `onlyOwner` functions anymore. Can only be called by the current owner. NOTE: Renouncing ownership will leave the contract without an owner, thereby removing any functionality that is only available to the owner."
      },
      "safeTransferFrom(address,address,uint256)": {
        "details": "See {IERC721-safeTransferFrom}."
      },
      "safeTransferFrom(address,address,uint256,bytes)": {
        "details": "See {IERC721-safeTransferFrom}."
      },
      "setApprovalForAll(address,bool)": {
        "details": "See {IERC721-setApprovalForAll}."
      },
      "supportsInterface(bytes4)": {
        "details": "See {IERC165-supportsInterface}."
      },
      "symbol()": {
        "details": "See {IERC721Metadata-symbol}."
      },
      "tokenURI(uint256)": {
        "details": "See {IERC721Metadata-tokenURI}."
      },
      "transferFrom(address,address,uint256)": {
        "details": "See {IERC721-transferFrom}."
      },
      "transferOwnership(address)": {
        "details": "Transfers ownership of the contract to a new account (`newOwner`). Can only be called by the current owner."
      }
    },
    "version": 1
  },
  "userdoc": {
    "kind": "user",
    "methods": {},
    "version": 1
  }
}