{
  "contractName": "MiningDAOCommercialOffer",
  "abi": [
    {
      "inputs": [
        {
          "internalType": "address",
          "name": "_InvestTicketsContractAddress",
          "type": "address"
        },
        {
          "internalType": "string",
          "name": "_offerName",
          "type": "string"
        },
        {
          "internalType": "string",
          "name": "_ref",
          "type": "string"
        },
        {
          "internalType": "string",
          "name": "_collectionName",
          "type": "string"
        },
        {
          "internalType": "address",
          "name": "_DAOWallet",
          "type": "address"
        },
        {
          "internalType": "address[]",
          "name": "_DAOTeamWallets",
          "type": "address[]"
        },
        {
          "internalType": "address",
          "name": "_treasuryWallet",
          "type": "address"
        },
        {
          "internalType": "uint256",
          "name": "_minimumTickets",
          "type": "uint256"
        },
        {
          "internalType": "uint256",
          "name": "_maximumTickets",
          "type": "uint256"
        },
        {
          "internalType": "uint256",
          "name": "_lockTimeLimit",
          "type": "uint256"
        }
      ],
      "stateMutability": "nonpayable",
      "type": "constructor"
    },
    {
      "anonymous": false,
      "inputs": [
        {
          "indexed": true,
          "internalType": "address",
          "name": "owner",
          "type": "address"
        },
        {
          "indexed": true,
          "internalType": "address",
          "name": "approved",
          "type": "address"
        },
        {
          "indexed": true,
          "internalType": "uint256",
          "name": "tokenId",
          "type": "uint256"
        }
      ],
      "name": "Approval",
      "type": "event"
    },
    {
      "anonymous": false,
      "inputs": [
        {
          "indexed": true,
          "internalType": "address",
          "name": "owner",
          "type": "address"
        },
        {
          "indexed": true,
          "internalType": "address",
          "name": "operator",
          "type": "address"
        },
        {
          "indexed": false,
          "internalType": "bool",
          "name": "approved",
          "type": "bool"
        }
      ],
      "name": "ApprovalForAll",
      "type": "event"
    },
    {
      "anonymous": false,
      "inputs": [
        {
          "components": [
            {
              "internalType": "address",
              "name": "investTicketOwner",
              "type": "address"
            },
            {
              "internalType": "uint256",
              "name": "tokenId",
              "type": "uint256"
            },
            {
              "internalType": "bool",
              "name": "isStaked",
              "type": "bool"
            }
          ],
          "indexed": false,
          "internalType": "struct MiningDAOCommercialOffer.InvestTicket",
          "name": "ticket",
          "type": "tuple"
        }
      ],
      "name": "InvestTicketStaked",
      "type": "event"
    },
    {
      "anonymous": false,
      "inputs": [
        {
          "components": [
            {
              "internalType": "address",
              "name": "investTicketOwner",
              "type": "address"
            },
            {
              "internalType": "uint256",
              "name": "tokenId",
              "type": "uint256"
            },
            {
              "internalType": "bool",
              "name": "isStaked",
              "type": "bool"
            }
          ],
          "indexed": false,
          "internalType": "struct MiningDAOCommercialOffer.InvestTicket",
          "name": "ticket",
          "type": "tuple"
        }
      ],
      "name": "InvestTicketUnstaked",
      "type": "event"
    },
    {
      "anonymous": false,
      "inputs": [
        {
          "indexed": true,
          "internalType": "address",
          "name": "previousOwner",
          "type": "address"
        },
        {
          "indexed": true,
          "internalType": "address",
          "name": "newOwner",
          "type": "address"
        }
      ],
      "name": "OwnershipTransferred",
      "type": "event"
    },
    {
      "anonymous": false,
      "inputs": [
        {
          "components": [
            {
              "internalType": "address",
              "name": "ticketOwner",
              "type": "address"
            },
            {
              "internalType": "uint256",
              "name": "power",
              "type": "uint256"
            },
            {
              "internalType": "string",
              "name": "tokenUri",
              "type": "string"
            },
            {
              "internalType": "uint256",
              "name": "tokenId",
              "type": "uint256"
            },
            {
              "components": [
                {
                  "internalType": "uint256",
                  "name": "_value",
                  "type": "uint256"
                }
              ],
              "internalType": "struct Counters.Counter",
              "name": "unclaimedMonths",
              "type": "tuple"
            },
            {
              "internalType": "uint256",
              "name": "unclaimedValue",
              "type": "uint256"
            },
            {
              "internalType": "uint256",
              "name": "timeOfLastRewardUpdate",
              "type": "uint256"
            }
          ],
          "indexed": false,
          "internalType": "struct MiningDAOCommercialOffer.OfferTicket",
          "name": "ticket",
          "type": "tuple"
        }
      ],
      "name": "RewardClaimed",
      "type": "event"
    },
    {
      "anonymous": false,
      "inputs": [
        {
          "indexed": true,
          "internalType": "address",
          "name": "from",
          "type": "address"
        },
        {
          "indexed": true,
          "internalType": "address",
          "name": "to",
          "type": "address"
        },
        {
          "indexed": true,
          "internalType": "uint256",
          "name": "tokenId",
          "type": "uint256"
        }
      ],
      "name": "Transfer",
      "type": "event"
    },
    {
      "anonymous": false,
      "inputs": [
        {
          "indexed": false,
          "internalType": "enum MiningDAOCommercialOffer.WorkflowStatus",
          "name": "previous",
          "type": "uint8"
        },
        {
          "indexed": false,
          "internalType": "enum MiningDAOCommercialOffer.WorkflowStatus",
          "name": "current",
          "type": "uint8"
        }
      ],
      "name": "WorkflowStatusChanged",
      "type": "event"
    },
    {
      "inputs": [
        {
          "internalType": "address",
          "name": "to",
          "type": "address"
        },
        {
          "internalType": "uint256",
          "name": "tokenId",
          "type": "uint256"
        }
      ],
      "name": "approve",
      "outputs": [],
      "stateMutability": "nonpayable",
      "type": "function"
    },
    {
      "inputs": [
        {
          "internalType": "address",
          "name": "owner",
          "type": "address"
        }
      ],
      "name": "balanceOf",
      "outputs": [
        {
          "internalType": "uint256",
          "name": "",
          "type": "uint256"
        }
      ],
      "stateMutability": "view",
      "type": "function"
    },
    {
      "inputs": [
        {
          "internalType": "uint256",
          "name": "tokenId",
          "type": "uint256"
        }
      ],
      "name": "getApproved",
      "outputs": [
        {
          "internalType": "address",
          "name": "",
          "type": "address"
        }
      ],
      "stateMutability": "view",
      "type": "function"
    },
    {
      "inputs": [
        {
          "internalType": "address",
          "name": "owner",
          "type": "address"
        },
        {
          "internalType": "address",
          "name": "operator",
          "type": "address"
        }
      ],
      "name": "isApprovedForAll",
      "outputs": [
        {
          "internalType": "bool",
          "name": "",
          "type": "bool"
        }
      ],
      "stateMutability": "view",
      "type": "function"
    },
    {
      "inputs": [],
      "name": "name",
      "outputs": [
        {
          "internalType": "string",
          "name": "",
          "type": "string"
        }
      ],
      "stateMutability": "view",
      "type": "function"
    },
    {
      "inputs": [
        {
          "internalType": "address",
          "name": "",
          "type": "address"
        }
      ],
      "name": "offerTicketOwners",
      "outputs": [
        {
          "internalType": "address",
          "name": "ticketOwner",
          "type": "address"
        },
        {
          "internalType": "uint256",
          "name": "power",
          "type": "uint256"
        },
        {
          "internalType": "string",
          "name": "tokenUri",
          "type": "string"
        },
        {
          "internalType": "uint256",
          "name": "tokenId",
          "type": "uint256"
        },
        {
          "components": [
            {
              "internalType": "uint256",
              "name": "_value",
              "type": "uint256"
            }
          ],
          "internalType": "struct Counters.Counter",
          "name": "unclaimedMonths",
          "type": "tuple"
        },
        {
          "internalType": "uint256",
          "name": "unclaimedValue",
          "type": "uint256"
        },
        {
          "internalType": "uint256",
          "name": "timeOfLastRewardUpdate",
          "type": "uint256"
        }
      ],
      "stateMutability": "view",
      "type": "function"
    },
    {
      "inputs": [],
      "name": "owner",
      "outputs": [
        {
          "internalType": "address",
          "name": "",
          "type": "address"
        }
      ],
      "stateMutability": "view",
      "type": "function"
    },
    {
      "inputs": [
        {
          "internalType": "uint256",
          "name": "tokenId",
          "type": "uint256"
        }
      ],
      "name": "ownerOf",
      "outputs": [
        {
          "internalType": "address",
          "name": "",
          "type": "address"
        }
      ],
      "stateMutability": "view",
      "type": "function"
    },
    {
      "inputs": [],
      "name": "renounceOwnership",
      "outputs": [],
      "stateMutability": "nonpayable",
      "type": "function"
    },
    {
      "inputs": [
        {
          "internalType": "address",
          "name": "from",
          "type": "address"
        },
        {
          "internalType": "address",
          "name": "to",
          "type": "address"
        },
        {
          "internalType": "uint256",
          "name": "tokenId",
          "type": "uint256"
        }
      ],
      "name": "safeTransferFrom",
      "outputs": [],
      "stateMutability": "nonpayable",
      "type": "function"
    },
    {
      "inputs": [
        {
          "internalType": "address",
          "name": "from",
          "type": "address"
        },
        {
          "internalType": "address",
          "name": "to",
          "type": "address"
        },
        {
          "internalType": "uint256",
          "name": "tokenId",
          "type": "uint256"
        },
        {
          "internalType": "bytes",
          "name": "data",
          "type": "bytes"
        }
      ],
      "name": "safeTransferFrom",
      "outputs": [],
      "stateMutability": "nonpayable",
      "type": "function"
    },
    {
      "inputs": [
        {
          "internalType": "address",
          "name": "operator",
          "type": "address"
        },
        {
          "internalType": "bool",
          "name": "approved",
          "type": "bool"
        }
      ],
      "name": "setApprovalForAll",
      "outputs": [],
      "stateMutability": "nonpayable",
      "type": "function"
    },
    {
      "inputs": [
        {
          "internalType": "bytes4",
          "name": "interfaceId",
          "type": "bytes4"
        }
      ],
      "name": "supportsInterface",
      "outputs": [
        {
          "internalType": "bool",
          "name": "",
          "type": "bool"
        }
      ],
      "stateMutability": "view",
      "type": "function"
    },
    {
      "inputs": [],
      "name": "symbol",
      "outputs": [
        {
          "internalType": "string",
          "name": "",
          "type": "string"
        }
      ],
      "stateMutability": "view",
      "type": "function"
    },
    {
      "inputs": [
        {
          "internalType": "uint256",
          "name": "tokenId",
          "type": "uint256"
        }
      ],
      "name": "tokenURI",
      "outputs": [
        {
          "internalType": "string",
          "name": "",
          "type": "string"
        }
      ],
      "stateMutability": "view",
      "type": "function"
    },
    {
      "inputs": [
        {
          "internalType": "address",
          "name": "from",
          "type": "address"
        },
        {
          "internalType": "address",
          "name": "to",
          "type": "address"
        },
        {
          "internalType": "uint256",
          "name": "tokenId",
          "type": "uint256"
        }
      ],
      "name": "transferFrom",
      "outputs": [],
      "stateMutability": "nonpayable",
      "type": "function"
    },
    {
      "inputs": [
        {
          "internalType": "address",
          "name": "newOwner",
          "type": "address"
        }
      ],
      "name": "transferOwnership",
      "outputs": [],
      "stateMutability": "nonpayable",
      "type": "function"
    },
    {
      "inputs": [],
      "name": "workflowStatus",
      "outputs": [
        {
          "internalType": "enum MiningDAOCommercialOffer.WorkflowStatus",
          "name": "",
          "type": "uint8"
        }
      ],
      "stateMutability": "view",
      "type": "function"
    },
    {
      "inputs": [
        {
          "internalType": "uint256",
          "name": "_tokenId",
          "type": "uint256"
        }
      ],
      "name": "getStakedTicket",
      "outputs": [
        {
          "components": [
            {
              "internalType": "uint256",
              "name": "previousIndex",
              "type": "uint256"
            },
            {
              "components": [
                {
                  "internalType": "address",
                  "name": "investTicketOwner",
                  "type": "address"
                },
                {
                  "internalType": "uint256",
                  "name": "tokenId",
                  "type": "uint256"
                },
                {
                  "internalType": "bool",
                  "name": "isStaked",
                  "type": "bool"
                }
              ],
              "internalType": "struct MiningDAOCommercialOffer.InvestTicket",
              "name": "ticket",
              "type": "tuple"
            },
            {
              "internalType": "uint256",
              "name": "nextIndex",
              "type": "uint256"
            }
          ],
          "internalType": "struct MiningDAOCommercialOffer.LinkedListInvestTicket",
          "name": "",
          "type": "tuple"
        }
      ],
      "stateMutability": "view",
      "type": "function"
    },
    {
      "inputs": [],
      "name": "getTotalStakedTicket",
      "outputs": [
        {
          "internalType": "uint256",
          "name": "",
          "type": "uint256"
        }
      ],
      "stateMutability": "view",
      "type": "function"
    },
    {
      "inputs": [],
      "name": "getStakedList",
      "outputs": [
        {
          "components": [
            {
              "internalType": "address",
              "name": "investTicketOwner",
              "type": "address"
            },
            {
              "internalType": "uint256",
              "name": "tokenId",
              "type": "uint256"
            },
            {
              "internalType": "bool",
              "name": "isStaked",
              "type": "bool"
            }
          ],
          "internalType": "struct MiningDAOCommercialOffer.InvestTicket[]",
          "name": "",
          "type": "tuple[]"
        }
      ],
      "stateMutability": "view",
      "type": "function"
    },
    {
      "inputs": [
        {
          "internalType": "uint256",
          "name": "_tokenId",
          "type": "uint256"
        }
      ],
      "name": "stakeTicket",
      "outputs": [],
      "stateMutability": "nonpayable",
      "type": "function"
    },
    {
      "inputs": [
        {
          "internalType": "uint256",
          "name": "_tokenId",
          "type": "uint256"
        }
      ],
      "name": "unstakeTicket",
      "outputs": [],
      "stateMutability": "nonpayable",
      "type": "function"
    },
    {
      "inputs": [],
      "name": "DAOTeamSignatureRequest",
      "outputs": [],
      "stateMutability": "nonpayable",
      "type": "function"
    },
    {
      "inputs": [
        {
          "components": [
            {
              "internalType": "address",
              "name": "ticketOwner",
              "type": "address"
            },
            {
              "internalType": "uint256",
              "name": "power",
              "type": "uint256"
            },
            {
              "internalType": "string",
              "name": "tokenUri",
              "type": "string"
            }
          ],
          "internalType": "struct MiningDAOCommercialOffer.OfferTicketProps[]",
          "name": "_offerTicketData",
          "type": "tuple[]"
        },
        {
          "internalType": "uint256",
          "name": "totalThPower",
          "type": "uint256"
        }
      ],
      "name": "generateOfferNFT",
      "outputs": [],
      "stateMutability": "nonpayable",
      "type": "function"
    },
    {
      "inputs": [],
      "name": "mintTicketRegistrationStarted",
      "outputs": [],
      "stateMutability": "nonpayable",
      "type": "function"
    },
    {
      "inputs": [],
      "name": "checkLockTimeExpired",
      "outputs": [],
      "stateMutability": "nonpayable",
      "type": "function"
    }
  ],
  "bytecode": "0x60806040523480156200001157600080fd5b50604051620067df380380620067df833981810160405281019062000037919062000727565b868881600090816200004a919062000ada565b5080600190816200005c919062000ada565b5050506200007f620000736200029d60201b60201c565b620002a560201b60201c565b600160088190555089600960006101000a81548173ffffffffffffffffffffffffffffffffffffffff021916908373ffffffffffffffffffffffffffffffffffffffff16021790555088600d9081620000d9919062000ada565b5087600e9081620000eb919062000ada565b5085600a60006101000a81548173ffffffffffffffffffffffffffffffffffffffff021916908373ffffffffffffffffffffffffffffffffffffffff16021790555084600b9080519060200190620001459291906200036b565b5083600c60006101000a81548173ffffffffffffffffffffffffffffffffffffffff021916908373ffffffffffffffffffffffffffffffffffffffff1602179055508260118190555081601281905550806014819055506001600f60008873ffffffffffffffffffffffffffffffffffffffff1673ffffffffffffffffffffffffffffffffffffffff16815260200190815260200160002060006101000a81548160ff02191690831515021790555060005b85518110156200028c576001600f60008884815181106200021d576200021c62000bc1565b5b602002602001015173ffffffffffffffffffffffffffffffffffffffff1673ffffffffffffffffffffffffffffffffffffffff16815260200190815260200160002060006101000a81548160ff0219169083151502179055508080620002839062000c1f565b915050620001f7565b505050505050505050505062000c6c565b600033905090565b6000600760009054906101000a900473ffffffffffffffffffffffffffffffffffffffff16905081600760006101000a81548173ffffffffffffffffffffffffffffffffffffffff021916908373ffffffffffffffffffffffffffffffffffffffff1602179055508173ffffffffffffffffffffffffffffffffffffffff168173ffffffffffffffffffffffffffffffffffffffff167f8be0079c531659141344cd1fd0a4f28419497f9722a3daafe3b4186f6b6457e060405160405180910390a35050565b828054828255906000526020600020908101928215620003e7579160200282015b82811115620003e65782518260006101000a81548173ffffffffffffffffffffffffffffffffffffffff021916908373ffffffffffffffffffffffffffffffffffffffff160217905550916020019190600101906200038c565b5b509050620003f69190620003fa565b5090565b5b8082111562000415576000816000905550600101620003fb565b5090565b6000604051905090565b600080fd5b600080fd5b600073ffffffffffffffffffffffffffffffffffffffff82169050919050565b60006200045a826200042d565b9050919050565b6200046c816200044d565b81146200047857600080fd5b50565b6000815190506200048c8162000461565b92915050565b600080fd5b600080fd5b6000601f19601f8301169050919050565b7f4e487b7100000000000000000000000000000000000000000000000000000000600052604160045260246000fd5b620004e7826200049c565b810181811067ffffffffffffffff82111715620005095762000508620004ad565b5b80604052505050565b60006200051e62000419565b90506200052c8282620004dc565b919050565b600067ffffffffffffffff8211156200054f576200054e620004ad565b5b6200055a826200049c565b9050602081019050919050565b60005b83811015620005875780820151818401526020810190506200056a565b60008484015250505050565b6000620005aa620005a48462000531565b62000512565b905082815260208101848484011115620005c957620005c862000497565b5b620005d684828562000567565b509392505050565b600082601f830112620005f657620005f562000492565b5b81516200060884826020860162000593565b91505092915050565b600067ffffffffffffffff8211156200062f576200062e620004ad565b5b602082029050602081019050919050565b600080fd5b60006200065c620006568462000611565b62000512565b9050808382526020820190506020840283018581111562000682576200068162000640565b5b835b81811015620006af57806200069a88826200047b565b84526020840193505060208101905062000684565b5050509392505050565b600082601f830112620006d157620006d062000492565b5b8151620006e384826020860162000645565b91505092915050565b6000819050919050565b6200070181620006ec565b81146200070d57600080fd5b50565b6000815190506200072181620006f6565b92915050565b6000806000806000806000806000806101408b8d0312156200074e576200074d62000423565b5b60006200075e8d828e016200047b565b9a505060208b015167ffffffffffffffff81111562000782576200078162000428565b5b620007908d828e01620005de565b99505060408b015167ffffffffffffffff811115620007b457620007b362000428565b5b620007c28d828e01620005de565b98505060608b015167ffffffffffffffff811115620007e657620007e562000428565b5b620007f48d828e01620005de565b9750506080620008078d828e016200047b565b96505060a08b015167ffffffffffffffff8111156200082b576200082a62000428565b5b620008398d828e01620006b9565b95505060c06200084c8d828e016200047b565b94505060e06200085f8d828e0162000710565b935050610100620008738d828e0162000710565b925050610120620008878d828e0162000710565b9150509295989b9194979a5092959850565b600081519050919050565b7f4e487b7100000000000000000000000000000000000000000000000000000000600052602260045260246000fd5b60006002820490506001821680620008ec57607f821691505b602082108103620009025762000901620008a4565b5b50919050565b60008190508160005260206000209050919050565b60006020601f8301049050919050565b600082821b905092915050565b6000600883026200096c7fffffffffffffffffffffffffffffffffffffffffffffffffffffffffffffffff826200092d565b6200097886836200092d565b95508019841693508086168417925050509392505050565b6000819050919050565b6000620009bb620009b5620009af84620006ec565b62000990565b620006ec565b9050919050565b6000819050919050565b620009d7836200099a565b620009ef620009e682620009c2565b8484546200093a565b825550505050565b600090565b62000a06620009f7565b62000a13818484620009cc565b505050565b5b8181101562000a3b5762000a2f600082620009fc565b60018101905062000a19565b5050565b601f82111562000a8a5762000a548162000908565b62000a5f846200091d565b8101602085101562000a6f578190505b62000a8762000a7e856200091d565b83018262000a18565b50505b505050565b600082821c905092915050565b600062000aaf6000198460080262000a8f565b1980831691505092915050565b600062000aca838362000a9c565b9150826002028217905092915050565b62000ae58262000899565b67ffffffffffffffff81111562000b015762000b00620004ad565b5b62000b0d8254620008d3565b62000b1a82828562000a3f565b600060209050601f83116001811462000b52576000841562000b3d578287015190505b62000b49858262000abc565b86555062000bb9565b601f19841662000b628662000908565b60005b8281101562000b8c5784890151825560018201915060208501945060208101905062000b65565b8683101562000bac578489015162000ba8601f89168262000a9c565b8355505b6001600288020188555050505b505050505050565b7f4e487b7100000000000000000000000000000000000000000000000000000000600052603260045260246000fd5b7f4e487b7100000000000000000000000000000000000000000000000000000000600052601160045260246000fd5b600062000c2c82620006ec565b91507fffffffffffffffffffffffffffffffffffffffffffffffffffffffffffffffff820362000c615762000c6062000bf0565b5b600182019050919050565b615b638062000c7c6000396000f3fe608060405234801561001057600080fd5b50600436106101a95760003560e01c806377696646116100f9578063a1edffa211610097578063c87b56dd11610071578063c87b56dd14610460578063e985e9c514610490578063f0cf628b146104c0578063f2fde38b146104f0576101a9565b8063a1edffa21461040a578063a22cb46514610428578063b88d4fde14610444576101a9565b806388f833e0116100d357806388f833e01461039457806389834083146103b25780638da5cb5b146103ce57806395d89b41146103ec576101a9565b806377696646146103505780637f36655d1461036e578063829b46631461038a576101a9565b80632df27025116101665780636352211e116101405780636352211e146102dc57806370a082311461030c578063715018a61461033c5780637550d1c914610346576101a9565b80632df270251461026e57806342842e0e146102a457806343909ec7146102c0576101a9565b806301ffc9a7146101ae57806306fdde03146101de578063081812fc146101fc578063095ea7b31461022c57806323b872dd14610248578063241277ea14610264575b600080fd5b6101c860048036038101906101c39190613f66565b61050c565b6040516101d59190613fae565b60405180910390f35b6101e66105ee565b6040516101f39190614059565b60405180910390f35b610216600480360381019061021191906140b1565b610680565b604051610223919061411f565b60405180910390f35b61024660048036038101906102419190614166565b6106c6565b005b610262600480360381019061025d91906141a6565b6107dd565b005b61026c61083d565b005b610288600480360381019061028391906141f9565b610917565b60405161029b9796959493929190614260565b60405180910390f35b6102be60048036038101906102b991906141a6565b610a15565b005b6102da60048036038101906102d5919061433b565b610a35565b005b6102f660048036038101906102f191906140b1565b610d62565b604051610303919061411f565b60405180910390f35b610326600480360381019061032191906141f9565b610de8565b604051610333919061439b565b60405180910390f35b610344610e9f565b005b61034e610eb3565b005b610358610ec8565b604051610365919061439b565b60405180910390f35b610388600480360381019061038391906140b1565b610ed9565b005b610392611c90565b005b61039c611d76565b6040516103a991906144c5565b60405180910390f35b6103cc60048036038101906103c791906140b1565b611fea565b005b6103d66125eb565b6040516103e3919061411f565b60405180910390f35b6103f4612615565b6040516104019190614059565b60405180910390f35b6104126126a7565b60405161041f919061455e565b60405180910390f35b610442600480360381019061043d91906145a5565b6126ba565b005b61045e60048036038101906104599190614715565b6126d0565b005b61047a600480360381019061047591906140b1565b612732565b6040516104879190614059565b60405180910390f35b6104aa60048036038101906104a59190614798565b612844565b6040516104b79190613fae565b60405180910390f35b6104da60048036038101906104d591906140b1565b6128d8565b6040516104e7919061481a565b60405180910390f35b61050a600480360381019061050591906141f9565b612997565b005b60007f80ac58cd000000000000000000000000000000000000000000000000000000007bffffffffffffffffffffffffffffffffffffffffffffffffffffffff1916827bffffffffffffffffffffffffffffffffffffffffffffffffffffffff191614806105d757507f5b5e139f000000000000000000000000000000000000000000000000000000007bffffffffffffffffffffffffffffffffffffffffffffffffffffffff1916827bffffffffffffffffffffffffffffffffffffffffffffffffffffffff1916145b806105e757506105e682612a1a565b5b9050919050565b6060600080546105fd90614864565b80601f016020809104026020016040519081016040528092919081815260200182805461062990614864565b80156106765780601f1061064b57610100808354040283529160200191610676565b820191906000526020600020905b81548152906001019060200180831161065957829003601f168201915b5050505050905090565b600061068b82612a84565b6004600083815260200190815260200160002060009054906101000a900473ffffffffffffffffffffffffffffffffffffffff169050919050565b60006106d182610d62565b90508073ffffffffffffffffffffffffffffffffffffffff168373ffffffffffffffffffffffffffffffffffffffff1603610741576040517f08c379a000000000000000000000000000000000000000000000000000000000815260040161073890614907565b60405180910390fd5b8073ffffffffffffffffffffffffffffffffffffffff16610760612acf565b73ffffffffffffffffffffffffffffffffffffffff16148061078f575061078e81610789612acf565b612844565b5b6107ce576040517f08c379a00000000000000000000000000000000000000000000000000000000081526004016107c590614999565b60405180910390fd5b6107d88383612ad7565b505050565b6107ee6107e8612acf565b82612b90565b61082d576040517f08c379a000000000000000000000000000000000000000000000000000000000815260040161082490614a2b565b60405180910390fd5b610838838383612c25565b505050565b600a60009054906101000a900473ffffffffffffffffffffffffffffffffffffffff1673ffffffffffffffffffffffffffffffffffffffff163373ffffffffffffffffffffffffffffffffffffffff16146108cd576040517f08c379a00000000000000000000000000000000000000000000000000000000081526004016108c490614a97565b60405180910390fd5b600260068111156108e1576108e06144e7565b5b601060009054906101000a900460ff166006811115610903576109026144e7565b5b1461090d57600080fd5b610915612f1e565b565b60246020528060005260406000206000915090508060000160009054906101000a900473ffffffffffffffffffffffffffffffffffffffff169080600101549080600201805461096690614864565b80601f016020809104026020016040519081016040528092919081815260200182805461099290614864565b80156109df5780601f106109b4576101008083540402835291602001916109df565b820191906000526020600020905b8154815290600101906020018083116109c257829003601f168201915b50505050509080600301549080600401604051806020016040529081600082015481525050908060050154908060060154905087565b610a30838383604051806020016040528060008152506126d0565b505050565b610a3d612ffc565b60036006811115610a5157610a506144e7565b5b601060009054906101000a900460ff166006811115610a7357610a726144e7565b5b14610ab3576040517f08c379a0000000000000000000000000000000000000000000000000000000008152600401610aaa90614b03565b60405180910390fd5b6000600190504260218190555060005b84849050811015610d4b57610ad6613e87565b6000868684818110610aeb57610aea614b23565b5b9050602002810190610afd9190614b57565b610b0690614caa565b905060006040518060e00160405280836000015173ffffffffffffffffffffffffffffffffffffffff168152602001836020015181526020018360400151815260200186815260200184815260200160008152602001428152509050602381908060018154018082558091505060019003906000526020600020906007020160009091909190915060008201518160000160006101000a81548173ffffffffffffffffffffffffffffffffffffffff021916908373ffffffffffffffffffffffffffffffffffffffff160217905550602082015181600101556040820151816002019081610bf49190614e69565b506060820151816003015560808201518160040160008201518160000155505060a0820151816005015560c0820151816006015550508060246000846000015173ffffffffffffffffffffffffffffffffffffffff1673ffffffffffffffffffffffffffffffffffffffff16815260200190815260200160002060008201518160000160006101000a81548173ffffffffffffffffffffffffffffffffffffffff021916908373ffffffffffffffffffffffffffffffffffffffff160217905550602082015181600101556040820151816002019081610cd49190614e69565b506060820151816003015560808201518160040160008201518160000155505060a0820151816005015560c08201518160060155905050610d1982600001518661307a565b610d27858360400151613297565b8480610d3290614f6a565b9550505050508080610d4390614f6a565b915050610ac3565b50610d54613304565b610d5c613460565b50505050565b600080610d6e8361353e565b9050600073ffffffffffffffffffffffffffffffffffffffff168173ffffffffffffffffffffffffffffffffffffffff1603610ddf576040517f08c379a0000000000000000000000000000000000000000000000000000000008152600401610dd690614ffe565b60405180910390fd5b80915050919050565b60008073ffffffffffffffffffffffffffffffffffffffff168273ffffffffffffffffffffffffffffffffffffffff1603610e58576040517f08c379a0000000000000000000000000000000000000000000000000000000008152600401610e4f90615090565b60405180910390fd5b600360008373ffffffffffffffffffffffffffffffffffffffff1673ffffffffffffffffffffffffffffffffffffffff168152602001908152602001600020549050919050565b610ea7612ffc565b610eb1600061357b565b565b426014541115610ec657610ec5613641565b5b565b6000610ed460136137a6565b905090565b6001610f25602060003373ffffffffffffffffffffffffffffffffffffffff1673ffffffffffffffffffffffffffffffffffffffff1681526020019081526020016000206000016137a6565b1015610f66576040517f08c379a0000000000000000000000000000000000000000000000000000000008152600401610f5d906150fc565b60405180910390fd5b60016006811115610f7a57610f796144e7565b5b601060009054906101000a900460ff166006811115610f9c57610f9b6144e7565b5b14610fdc576040517f08c379a0000000000000000000000000000000000000000000000000000000008152600401610fd39061518e565b60405180910390fd5b602060003373ffffffffffffffffffffffffffffffffffffffff1673ffffffffffffffffffffffffffffffffffffffff168152602001908152602001600020600101600082815260200190815260200160002060010160020160009054906101000a900460ff16611082576040517f08c379a0000000000000000000000000000000000000000000000000000000008152600401611079906151fa565b60405180910390fd5b600960009054906101000a900473ffffffffffffffffffffffffffffffffffffffff1673ffffffffffffffffffffffffffffffffffffffff16632098364933836040518363ffffffff1660e01b81526004016110df92919061521a565b600060405180830381600087803b1580156110f957600080fd5b505af115801561110d573d6000803e3d6000fd5b505050506000601f600083815260200190815260200160002060405180606001604052908160008201548152602001600182016040518060600160405290816000820160009054906101000a900473ffffffffffffffffffffffffffffffffffffffff1673ffffffffffffffffffffffffffffffffffffffff1673ffffffffffffffffffffffffffffffffffffffff168152602001600182015481526020016002820160009054906101000a900460ff161515151581525050815260200160048201548152505090506111de613e9a565b60016111ea60136137a6565b03611320578060156000820151816000015560208201518160010160008201518160000160006101000a81548173ffffffffffffffffffffffffffffffffffffffff021916908373ffffffffffffffffffffffffffffffffffffffff1602179055506020820151816001015560408201518160020160006101000a81548160ff02191690831515021790555050506040820151816004015590505080601a6000820151816000015560208201518160010160008201518160000160006101000a81548173ffffffffffffffffffffffffffffffffffffffff021916908373ffffffffffffffffffffffffffffffffffffffff1602179055506020820151816001015560408201518160020160006101000a81548160ff021916908315150217905550505060408201518160040155905050611adc565b826015600101600101540361161a57601a600101600101546015600401540361153057604051806060016040528060008152602001601f600060156004015481526020019081526020016000206001016040518060600160405290816000820160009054906101000a900473ffffffffffffffffffffffffffffffffffffffff1673ffffffffffffffffffffffffffffffffffffffff1673ffffffffffffffffffffffffffffffffffffffff168152602001600182015481526020016002820160009054906101000a900460ff1615151515815250508152602001600081525060156000820151816000015560208201518160010160008201518160000160006101000a81548173ffffffffffffffffffffffffffffffffffffffff021916908373ffffffffffffffffffffffffffffffffffffffff1602179055506020820151816001015560408201518160020160006101000a81548160ff02191690831515021790555050506040820151816004015590505080601a6000820151816000015560208201518160010160008201518160000160006101000a81548173ffffffffffffffffffffffffffffffffffffffff021916908373ffffffffffffffffffffffffffffffffffffffff1602179055506020820151816001015560408201518160020160006101000a81548160ff021916908315150217905550505060408201518160040155905050611615565b601f6000601560040154815260200190815260200160002060156000820154816000015560018201816001016000820160009054906101000a900473ffffffffffffffffffffffffffffffffffffffff168160000160006101000a81548173ffffffffffffffffffffffffffffffffffffffff021916908373ffffffffffffffffffffffffffffffffffffffff160217905550600182015481600101556002820160009054906101000a900460ff168160020160006101000a81548160ff02191690831515021790555050506004820154816004015590505060006015600001819055505b611adb565b82601a60010160010154036117cd57601a60010160010154601560040154036116e357600060156004018190555080601a6000820151816000015560208201518160010160008201518160000160006101000a81548173ffffffffffffffffffffffffffffffffffffffff021916908373ffffffffffffffffffffffffffffffffffffffff1602179055506020820151816001015560408201518160020160006101000a81548160ff0219169083151502179055505050604082015181600401559050506117c8565b601f6000601a600001548152602001908152602001600020601a6000820154816000015560018201816001016000820160009054906101000a900473ffffffffffffffffffffffffffffffffffffffff168160000160006101000a81548173ffffffffffffffffffffffffffffffffffffffff021916908373ffffffffffffffffffffffffffffffffffffffff160217905550600182015481600101556002820160009054906101000a900460ff168160020160006101000a81548160ff0219169083151502179055505050600482015481600401559050506000601a600401819055505b611ada565b6000601f60008460000151815260200190815260200160002060405180606001604052908160008201548152602001600182016040518060600160405290816000820160009054906101000a900473ffffffffffffffffffffffffffffffffffffffff1673ffffffffffffffffffffffffffffffffffffffff1673ffffffffffffffffffffffffffffffffffffffff168152602001600182015481526020016002820160009054906101000a900460ff161515151581525050815260200160048201548152505090506000601f60008560400151815260200190815260200160002060405180606001604052908160008201548152602001600182016040518060600160405290816000820160009054906101000a900473ffffffffffffffffffffffffffffffffffffffff1673ffffffffffffffffffffffffffffffffffffffff1673ffffffffffffffffffffffffffffffffffffffff168152602001600182015481526020016002820160009054906101000a900460ff161515151581525050815260200160048201548152505090508360400151826040018181525050836000015181600001818152505081602001516020015160156001016001015403611a29578160156000820151816000015560208201518160010160008201518160000160006101000a81548173ffffffffffffffffffffffffffffffffffffffff021916908373ffffffffffffffffffffffffffffffffffffffff1602179055506020820151816001015560408201518160020160006101000a81548160ff0219169083151502179055505050604082015181600401559050505b806020015160200151601a6001016001015403611ad75781601a6000820151816000015560208201518160010160008201518160000160006101000a81548173ffffffffffffffffffffffffffffffffffffffff021916908373ffffffffffffffffffffffffffffffffffffffff1602179055506020820151816001015560408201518160020160006101000a81548160ff0219169083151502179055505050604082015181600401559050505b50505b5b5b601f600084815260200190815260200160002060008082016000905560018201600080820160006101000a81549073ffffffffffffffffffffffffffffffffffffffff021916905560018201600090556002820160006101000a81549060ff0219169055505060048201600090555050611b96602060003373ffffffffffffffffffffffffffffffffffffffff1673ffffffffffffffffffffffffffffffffffffffff1681526020019081526020016000206000016137b4565b602060003373ffffffffffffffffffffffffffffffffffffffff1673ffffffffffffffffffffffffffffffffffffffff168152602001908152602001600020600101600084815260200190815260200160002060008082016000905560018201600080820160006101000a81549073ffffffffffffffffffffffffffffffffffffffff021916905560018201600090556002820160006101000a81549060ff0219169055505060048201600090555050611c5060136137b4565b7fe705dd9d71182b5cf2821d65e821de54338ddb99849a71aa739ce428be12927b8260200151604051611c839190615285565b60405180910390a1505050565b611c98612ffc565b60006006811115611cac57611cab6144e7565b5b601060009054906101000a900460ff166006811115611cce57611ccd6144e7565b5b14611d0e576040517f08c379a0000000000000000000000000000000000000000000000000000000008152600401611d0590615312565b60405180910390fd5b6001601060006101000a81548160ff02191690836006811115611d3457611d336144e7565b5b02179055507f880498af3c6b66c92ab2120d6b0aca7539f4b40c5f3d8366dc8f8706bf60e99260006001604051611d6c929190615332565b60405180910390a1565b60606000611d8460136137a6565b67ffffffffffffffff811115611d9d57611d9c6145ea565b5b604051908082528060200260200182016040528015611dd657816020015b611dc3613ec1565b815260200190600190039081611dbb5790505b509050600080611de660136137a6565b03611df5578192505050611fe7565b6000601560405180606001604052908160008201548152602001600182016040518060600160405290816000820160009054906101000a900473ffffffffffffffffffffffffffffffffffffffff1673ffffffffffffffffffffffffffffffffffffffff1673ffffffffffffffffffffffffffffffffffffffff168152602001600182015481526020016002820160009054906101000a900460ff161515151581525050815260200160048201548152505090508060200151838380611eba90614f6a565b945081518110611ecd57611ecc614b23565b5b60200260200101819052505b6000816040015114611fe057601f60008260400151815260200190815260200160002060405180606001604052908160008201548152602001600182016040518060600160405290816000820160009054906101000a900473ffffffffffffffffffffffffffffffffffffffff1673ffffffffffffffffffffffffffffffffffffffff1673ffffffffffffffffffffffffffffffffffffffff168152602001600182015481526020016002820160009054906101000a900460ff161515151581525050815260200160048201548152505090508060200151838380611fbd90614f6a565b945081518110611fd057611fcf614b23565b5b6020026020010181905250611ed9565b8293505050505b90565b60016006811115611ffe57611ffd6144e7565b5b601060009054906101000a900460ff1660068111156120205761201f6144e7565b5b14612060576040517f08c379a00000000000000000000000000000000000000000000000000000000081526004016120579061518e565b60405180910390fd5b602060003373ffffffffffffffffffffffffffffffffffffffff1673ffffffffffffffffffffffffffffffffffffffff168152602001908152602001600020600101600082815260200190815260200160002060010160020160009054906101000a900460ff1615612107576040517f08c379a00000000000000000000000000000000000000000000000000000000081526004016120fe906153a7565b60405180910390fd5b600960009054906101000a900473ffffffffffffffffffffffffffffffffffffffff1673ffffffffffffffffffffffffffffffffffffffff16631457e16f33836040518363ffffffff1660e01b815260040161216492919061521a565b600060405180830381600087803b15801561217e57600080fd5b505af1158015612192573d6000803e3d6000fd5b50505050600060405180606001604052803373ffffffffffffffffffffffffffffffffffffffff1681526020018381526020016001151581525090506121d6613e9a565b601560010160020160009054906101000a900460ff166122aa57604051806060016040528060008152602001838152602001600081525090508060156000820151816000015560208201518160010160008201518160000160006101000a81548173ffffffffffffffffffffffffffffffffffffffff021916908373ffffffffffffffffffffffffffffffffffffffff1602179055506020820151816001015560408201518160020160006101000a81548160ff0219169083151502179055505050604082015181600401559050506122fc565b6040518060600160405280601a60010160010154815260200183815260200160008152509050806020015160200151601f6000601a600101600101548152602001908152602001600020600401819055505b600161230860136137a6565b0361231857826015600401819055505b80601f60008581526020019081526020016000206000820151816000015560208201518160010160008201518160000160006101000a81548173ffffffffffffffffffffffffffffffffffffffff021916908373ffffffffffffffffffffffffffffffffffffffff1602179055506020820151816001015560408201518160020160006101000a81548160ff02191690831515021790555050506040820151816004015590505080601a6000820151816000015560208201518160010160008201518160000160006101000a81548173ffffffffffffffffffffffffffffffffffffffff021916908373ffffffffffffffffffffffffffffffffffffffff1602179055506020820151816001015560408201518160020160006101000a81548160ff02191690831515021790555050506040820151816004015590505080602060003373ffffffffffffffffffffffffffffffffffffffff1673ffffffffffffffffffffffffffffffffffffffff16815260200190815260200160002060010160008581526020019081526020016000206000820151816000015560208201518160010160008201518160000160006101000a81548173ffffffffffffffffffffffffffffffffffffffff021916908373ffffffffffffffffffffffffffffffffffffffff1602179055506020820151816001015560408201518160020160006101000a81548160ff021916908315150217905550505060408201518160040155905050612586602060003373ffffffffffffffffffffffffffffffffffffffff1673ffffffffffffffffffffffffffffffffffffffff168152602001908152602001600020600001613810565b6125906013613810565b60125461259d60136137a6565b036125ab576125aa613641565b5b7f40009383578d93076aa0b4174716f668f22544022966ac50296178faa5f3dd9e81602001516040516125de9190615285565b60405180910390a1505050565b6000600760009054906101000a900473ffffffffffffffffffffffffffffffffffffffff16905090565b60606001805461262490614864565b80601f016020809104026020016040519081016040528092919081815260200182805461265090614864565b801561269d5780601f106126725761010080835404028352916020019161269d565b820191906000526020600020905b81548152906001019060200180831161268057829003601f168201915b5050505050905090565b601060009054906101000a900460ff1681565b6126cc6126c5612acf565b8383613826565b5050565b6126e16126db612acf565b83612b90565b612720576040517f08c379a000000000000000000000000000000000000000000000000000000000815260040161271790614a2b565b60405180910390fd5b61272c84848484613992565b50505050565b606061273d82612a84565b600060066000848152602001908152602001600020805461275d90614864565b80601f016020809104026020016040519081016040528092919081815260200182805461278990614864565b80156127d65780601f106127ab576101008083540402835291602001916127d6565b820191906000526020600020905b8154815290600101906020018083116127b957829003601f168201915b5050505050905060006127e76139ee565b905060008151036127fc57819250505061283f565b600082511115612831578082604051602001612819929190615403565b6040516020818303038152906040529250505061283f565b61283a84613a05565b925050505b919050565b6000600560008473ffffffffffffffffffffffffffffffffffffffff1673ffffffffffffffffffffffffffffffffffffffff16815260200190815260200160002060008373ffffffffffffffffffffffffffffffffffffffff1673ffffffffffffffffffffffffffffffffffffffff16815260200190815260200160002060009054906101000a900460ff16905092915050565b6128e0613e9a565b601a60405180606001604052908160008201548152602001600182016040518060600160405290816000820160009054906101000a900473ffffffffffffffffffffffffffffffffffffffff1673ffffffffffffffffffffffffffffffffffffffff1673ffffffffffffffffffffffffffffffffffffffff168152602001600182015481526020016002820160009054906101000a900460ff16151515158152505081526020016004820154815250509050919050565b61299f612ffc565b600073ffffffffffffffffffffffffffffffffffffffff168173ffffffffffffffffffffffffffffffffffffffff1603612a0e576040517f08c379a0000000000000000000000000000000000000000000000000000000008152600401612a0590615499565b60405180910390fd5b612a178161357b565b50565b60007f01ffc9a7000000000000000000000000000000000000000000000000000000007bffffffffffffffffffffffffffffffffffffffffffffffffffffffff1916827bffffffffffffffffffffffffffffffffffffffffffffffffffffffff1916149050919050565b612a8d81613a6d565b612acc576040517f08c379a0000000000000000000000000000000000000000000000000000000008152600401612ac390614ffe565b60405180910390fd5b50565b600033905090565b816004600083815260200190815260200160002060006101000a81548173ffffffffffffffffffffffffffffffffffffffff021916908373ffffffffffffffffffffffffffffffffffffffff160217905550808273ffffffffffffffffffffffffffffffffffffffff16612b4a83610d62565b73ffffffffffffffffffffffffffffffffffffffff167f8c5be1e5ebec7d5bd14f71427d1e84f3dd0314c0f7b2291e5b200ac8c7c3b92560405160405180910390a45050565b600080612b9c83610d62565b90508073ffffffffffffffffffffffffffffffffffffffff168473ffffffffffffffffffffffffffffffffffffffff161480612bde5750612bdd8185612844565b5b80612c1c57508373ffffffffffffffffffffffffffffffffffffffff16612c0484610680565b73ffffffffffffffffffffffffffffffffffffffff16145b91505092915050565b8273ffffffffffffffffffffffffffffffffffffffff16612c4582610d62565b73ffffffffffffffffffffffffffffffffffffffff1614612c9b576040517f08c379a0000000000000000000000000000000000000000000000000000000008152600401612c929061552b565b60405180910390fd5b600073ffffffffffffffffffffffffffffffffffffffff168273ffffffffffffffffffffffffffffffffffffffff1603612d0a576040517f08c379a0000000000000000000000000000000000000000000000000000000008152600401612d01906155bd565b60405180910390fd5b612d178383836001613aae565b8273ffffffffffffffffffffffffffffffffffffffff16612d3782610d62565b73ffffffffffffffffffffffffffffffffffffffff1614612d8d576040517f08c379a0000000000000000000000000000000000000000000000000000000008152600401612d849061552b565b60405180910390fd5b6004600082815260200190815260200160002060006101000a81549073ffffffffffffffffffffffffffffffffffffffff02191690556001600360008573ffffffffffffffffffffffffffffffffffffffff1673ffffffffffffffffffffffffffffffffffffffff168152602001908152602001600020600082825403925050819055506001600360008473ffffffffffffffffffffffffffffffffffffffff1673ffffffffffffffffffffffffffffffffffffffff16815260200190815260200160002060008282540192505081905550816002600083815260200190815260200160002060006101000a81548173ffffffffffffffffffffffffffffffffffffffff021916908373ffffffffffffffffffffffffffffffffffffffff160217905550808273ffffffffffffffffffffffffffffffffffffffff168473ffffffffffffffffffffffffffffffffffffffff167fddf252ad1be2c89b69c2b068fc378daa952ba7f163c4a11628f55a4df523b3ef60405160405180910390a4612f198383836001613ab4565b505050565b60026006811115612f3257612f316144e7565b5b601060009054906101000a900460ff166006811115612f5457612f536144e7565b5b14612f94576040517f08c379a0000000000000000000000000000000000000000000000000000000008152600401612f8b90615629565b60405180910390fd5b6003601060006101000a81548160ff02191690836006811115612fba57612fb96144e7565b5b02179055507f880498af3c6b66c92ab2120d6b0aca7539f4b40c5f3d8366dc8f8706bf60e99260026003604051612ff2929190615332565b60405180910390a1565b613004612acf565b73ffffffffffffffffffffffffffffffffffffffff166130226125eb565b73ffffffffffffffffffffffffffffffffffffffff1614613078576040517f08c379a000000000000000000000000000000000000000000000000000000000815260040161306f90615695565b60405180910390fd5b565b600073ffffffffffffffffffffffffffffffffffffffff168273ffffffffffffffffffffffffffffffffffffffff16036130e9576040517f08c379a00000000000000000000000000000000000000000000000000000000081526004016130e090615701565b60405180910390fd5b6130f281613a6d565b15613132576040517f08c379a00000000000000000000000000000000000000000000000000000000081526004016131299061576d565b60405180910390fd5b613140600083836001613aae565b61314981613a6d565b15613189576040517f08c379a00000000000000000000000000000000000000000000000000000000081526004016131809061576d565b60405180910390fd5b6001600360008473ffffffffffffffffffffffffffffffffffffffff1673ffffffffffffffffffffffffffffffffffffffff16815260200190815260200160002060008282540192505081905550816002600083815260200190815260200160002060006101000a81548173ffffffffffffffffffffffffffffffffffffffff021916908373ffffffffffffffffffffffffffffffffffffffff160217905550808273ffffffffffffffffffffffffffffffffffffffff16600073ffffffffffffffffffffffffffffffffffffffff167fddf252ad1be2c89b69c2b068fc378daa952ba7f163c4a11628f55a4df523b3ef60405160405180910390a4613293600083836001613ab4565b5050565b6132a082613a6d565b6132df576040517f08c379a00000000000000000000000000000000000000000000000000000000081526004016132d6906157ff565b60405180910390fd5b806006600084815260200190815260200160002090816132ff9190614e69565b505050565b60036006811115613318576133176144e7565b5b601060009054906101000a900460ff16600681111561333a576133396144e7565b5b1461337a576040517f08c379a000000000000000000000000000000000000000000000000000000000815260040161337190614b03565b60405180910390fd5b6000613384611d76565b905060005b815181101561345c5760008282815181106133a7576133a6614b23565b5b60200260200101519050600960009054906101000a900473ffffffffffffffffffffffffffffffffffffffff1673ffffffffffffffffffffffffffffffffffffffff16634c575423826000015183602001516040518363ffffffff1660e01b815260040161341692919061521a565b600060405180830381600087803b15801561343057600080fd5b505af1158015613444573d6000803e3d6000fd5b5050505050808061345490614f6a565b915050613389565b5050565b60036006811115613474576134736144e7565b5b601060009054906101000a900460ff166006811115613496576134956144e7565b5b146134d6576040517f08c379a00000000000000000000000000000000000000000000000000000000081526004016134cd90615891565b60405180910390fd5b6004601060006101000a81548160ff021916908360068111156134fc576134fb6144e7565b5b02179055507f880498af3c6b66c92ab2120d6b0aca7539f4b40c5f3d8366dc8f8706bf60e99260036004604051613534929190615332565b60405180910390a1565b60006002600083815260200190815260200160002060009054906101000a900473ffffffffffffffffffffffffffffffffffffffff169050919050565b6000600760009054906101000a900473ffffffffffffffffffffffffffffffffffffffff16905081600760006101000a81548173ffffffffffffffffffffffffffffffffffffffff021916908373ffffffffffffffffffffffffffffffffffffffff1602179055508173ffffffffffffffffffffffffffffffffffffffff168173ffffffffffffffffffffffffffffffffffffffff167f8be0079c531659141344cd1fd0a4f28419497f9722a3daafe3b4186f6b6457e060405160405180910390a35050565b60016006811115613655576136546144e7565b5b601060009054906101000a900460ff166006811115613677576136766144e7565b5b146136b7576040517f08c379a00000000000000000000000000000000000000000000000000000000081526004016136ae90615312565b60405180910390fd5b6011546136c460136137a6565b101561373d576005601060006101000a81548160ff021916908360068111156136f0576136ef6144e7565b5b02179055506136fd613aba565b7f880498af3c6b66c92ab2120d6b0aca7539f4b40c5f3d8366dc8f8706bf60e99260016005604051613730929190615332565b60405180910390a16137a4565b6002601060006101000a81548160ff02191690836006811115613763576137626144e7565b5b02179055507f880498af3c6b66c92ab2120d6b0aca7539f4b40c5f3d8366dc8f8706bf60e9926001600260405161379b929190615332565b60405180910390a15b565b600081600001549050919050565b60008160000154905060008111613800576040517f08c379a00000000000000000000000000000000000000000000000000000000081526004016137f7906158fd565b60405180910390fd5b6001810382600001819055505050565b6001816000016000828254019250508190555050565b8173ffffffffffffffffffffffffffffffffffffffff168373ffffffffffffffffffffffffffffffffffffffff1603613894576040517f08c379a000000000000000000000000000000000000000000000000000000000815260040161388b90615969565b60405180910390fd5b80600560008573ffffffffffffffffffffffffffffffffffffffff1673ffffffffffffffffffffffffffffffffffffffff16815260200190815260200160002060008473ffffffffffffffffffffffffffffffffffffffff1673ffffffffffffffffffffffffffffffffffffffff16815260200190815260200160002060006101000a81548160ff0219169083151502179055508173ffffffffffffffffffffffffffffffffffffffff168373ffffffffffffffffffffffffffffffffffffffff167f17307eab39ab6107e8899845ad3d59bd9653f200f220920489ca2b5937696c31836040516139859190613fae565b60405180910390a3505050565b61399d848484612c25565b6139a984848484613abc565b6139e8576040517f08c379a00000000000000000000000000000000000000000000000000000000081526004016139df906159fb565b60405180910390fd5b50505050565b606060405180602001604052806000815250905090565b6060613a1082612a84565b6000613a1a6139ee565b90506000815111613a3a5760405180602001604052806000815250613a65565b80613a4484613c43565b604051602001613a55929190615403565b6040516020818303038152906040525b915050919050565b60008073ffffffffffffffffffffffffffffffffffffffff16613a8f8361353e565b73ffffffffffffffffffffffffffffffffffffffff1614159050919050565b50505050565b50505050565b565b6000613add8473ffffffffffffffffffffffffffffffffffffffff16613d11565b15613c36578373ffffffffffffffffffffffffffffffffffffffff1663150b7a02613b06612acf565b8786866040518563ffffffff1660e01b8152600401613b289493929190615a70565b6020604051808303816000875af1925050508015613b6457506040513d601f19601f82011682018060405250810190613b619190615ad1565b60015b613be6573d8060008114613b94576040519150601f19603f3d011682016040523d82523d6000602084013e613b99565b606091505b506000815103613bde576040517f08c379a0000000000000000000000000000000000000000000000000000000008152600401613bd5906159fb565b60405180910390fd5b805181602001fd5b63150b7a0260e01b7bffffffffffffffffffffffffffffffffffffffffffffffffffffffff1916817bffffffffffffffffffffffffffffffffffffffffffffffffffffffff191614915050613c3b565b600190505b949350505050565b606060006001613c5284613d34565b01905060008167ffffffffffffffff811115613c7157613c706145ea565b5b6040519080825280601f01601f191660200182016040528015613ca35781602001600182028036833780820191505090505b509050600082602001820190505b600115613d06578080600190039150507f3031323334353637383961626364656600000000000000000000000000000000600a86061a8153600a8581613cfa57613cf9615afe565b5b04945060008503613cb1575b819350505050919050565b6000808273ffffffffffffffffffffffffffffffffffffffff163b119050919050565b600080600090507a184f03e93ff9f4daa797ed6e38ed64bf6a1f0100000000000000008310613d92577a184f03e93ff9f4daa797ed6e38ed64bf6a1f0100000000000000008381613d8857613d87615afe565b5b0492506040810190505b6d04ee2d6d415b85acef81000000008310613dcf576d04ee2d6d415b85acef81000000008381613dc557613dc4615afe565b5b0492506020810190505b662386f26fc100008310613dfe57662386f26fc100008381613df457613df3615afe565b5b0492506010810190505b6305f5e1008310613e27576305f5e1008381613e1d57613e1c615afe565b5b0492506008810190505b6127108310613e4c576127108381613e4257613e41615afe565b5b0492506004810190505b60648310613e6f5760648381613e6557613e64615afe565b5b0492506002810190505b600a8310613e7e576001810190505b80915050919050565b6040518060200160405280600081525090565b604051806060016040528060008152602001613eb4613ec1565b8152602001600081525090565b6040518060600160405280600073ffffffffffffffffffffffffffffffffffffffff168152602001600081526020016000151581525090565b6000604051905090565b600080fd5b600080fd5b60007fffffffff0000000000000000000000000000000000000000000000000000000082169050919050565b613f4381613f0e565b8114613f4e57600080fd5b50565b600081359050613f6081613f3a565b92915050565b600060208284031215613f7c57613f7b613f04565b5b6000613f8a84828501613f51565b91505092915050565b60008115159050919050565b613fa881613f93565b82525050565b6000602082019050613fc36000830184613f9f565b92915050565b600081519050919050565b600082825260208201905092915050565b60005b83811015614003578082015181840152602081019050613fe8565b60008484015250505050565b6000601f19601f8301169050919050565b600061402b82613fc9565b6140358185613fd4565b9350614045818560208601613fe5565b61404e8161400f565b840191505092915050565b600060208201905081810360008301526140738184614020565b905092915050565b6000819050919050565b61408e8161407b565b811461409957600080fd5b50565b6000813590506140ab81614085565b92915050565b6000602082840312156140c7576140c6613f04565b5b60006140d58482850161409c565b91505092915050565b600073ffffffffffffffffffffffffffffffffffffffff82169050919050565b6000614109826140de565b9050919050565b614119816140fe565b82525050565b60006020820190506141346000830184614110565b92915050565b614143816140fe565b811461414e57600080fd5b50565b6000813590506141608161413a565b92915050565b6000806040838503121561417d5761417c613f04565b5b600061418b85828601614151565b925050602061419c8582860161409c565b9150509250929050565b6000806000606084860312156141bf576141be613f04565b5b60006141cd86828701614151565b93505060206141de86828701614151565b92505060406141ef8682870161409c565b9150509250925092565b60006020828403121561420f5761420e613f04565b5b600061421d84828501614151565b91505092915050565b61422f8161407b565b82525050565b61423e8161407b565b82525050565b60208201600082015161425a6000850182614235565b50505050565b600060e082019050614275600083018a614110565b6142826020830189614226565b81810360408301526142948188614020565b90506142a36060830187614226565b6142b06080830186614244565b6142bd60a0830185614226565b6142ca60c0830184614226565b98975050505050505050565b600080fd5b600080fd5b600080fd5b60008083601f8401126142fb576142fa6142d6565b5b8235905067ffffffffffffffff811115614318576143176142db565b5b602083019150836020820283011115614334576143336142e0565b5b9250929050565b60008060006040848603121561435457614353613f04565b5b600084013567ffffffffffffffff81111561437257614371613f09565b5b61437e868287016142e5565b935093505060206143918682870161409c565b9150509250925092565b60006020820190506143b06000830184614226565b92915050565b600081519050919050565b600082825260208201905092915050565b6000819050602082019050919050565b6143eb816140fe565b82525050565b6143fa81613f93565b82525050565b60608201600082015161441660008501826143e2565b5060208201516144296020850182614235565b50604082015161443c60408501826143f1565b50505050565b600061444e8383614400565b60608301905092915050565b6000602082019050919050565b6000614472826143b6565b61447c81856143c1565b9350614487836143d2565b8060005b838110156144b857815161449f8882614442565b97506144aa8361445a565b92505060018101905061448b565b5085935050505092915050565b600060208201905081810360008301526144df8184614467565b905092915050565b7f4e487b7100000000000000000000000000000000000000000000000000000000600052602160045260246000fd5b60078110614527576145266144e7565b5b50565b600081905061453882614516565b919050565b60006145488261452a565b9050919050565b6145588161453d565b82525050565b6000602082019050614573600083018461454f565b92915050565b61458281613f93565b811461458d57600080fd5b50565b60008135905061459f81614579565b92915050565b600080604083850312156145bc576145bb613f04565b5b60006145ca85828601614151565b92505060206145db85828601614590565b9150509250929050565b600080fd5b7f4e487b7100000000000000000000000000000000000000000000000000000000600052604160045260246000fd5b6146228261400f565b810181811067ffffffffffffffff82111715614641576146406145ea565b5b80604052505050565b6000614654613efa565b90506146608282614619565b919050565b600067ffffffffffffffff8211156146805761467f6145ea565b5b6146898261400f565b9050602081019050919050565b82818337600083830152505050565b60006146b86146b384614665565b61464a565b9050828152602081018484840111156146d4576146d36145e5565b5b6146df848285614696565b509392505050565b600082601f8301126146fc576146fb6142d6565b5b813561470c8482602086016146a5565b91505092915050565b6000806000806080858703121561472f5761472e613f04565b5b600061473d87828801614151565b945050602061474e87828801614151565b935050604061475f8782880161409c565b925050606085013567ffffffffffffffff8111156147805761477f613f09565b5b61478c878288016146e7565b91505092959194509250565b600080604083850312156147af576147ae613f04565b5b60006147bd85828601614151565b92505060206147ce85828601614151565b9150509250929050565b60a0820160008201516147ee6000850182614235565b5060208201516148016020850182614400565b5060408201516148146080850182614235565b50505050565b600060a08201905061482f60008301846147d8565b92915050565b7f4e487b7100000000000000000000000000000000000000000000000000000000600052602260045260246000fd5b6000600282049050600182168061487c57607f821691505b60208210810361488f5761488e614835565b5b50919050565b7f4552433732313a20617070726f76616c20746f2063757272656e74206f776e6560008201527f7200000000000000000000000000000000000000000000000000000000000000602082015250565b60006148f1602183613fd4565b91506148fc82614895565b604082019050919050565b60006020820190508181036000830152614920816148e4565b9050919050565b7f4552433732313a20617070726f76652063616c6c6572206973206e6f7420746f60008201527f6b656e206f776e6572206f7220617070726f76656420666f7220616c6c000000602082015250565b6000614983603d83613fd4565b915061498e82614927565b604082019050919050565b600060208201905081810360008301526149b281614976565b9050919050565b7f4552433732313a2063616c6c6572206973206e6f7420746f6b656e206f776e6560008201527f72206f7220617070726f76656400000000000000000000000000000000000000602082015250565b6000614a15602d83613fd4565b9150614a20826149b9565b604082019050919050565b60006020820190508181036000830152614a4481614a08565b9050919050565b7f596f7520617265206e6f74207468652044414f20210000000000000000000000600082015250565b6000614a81601583613fd4565b9150614a8c82614a4b565b602082019050919050565b60006020820190508181036000830152614ab081614a74565b9050919050565b7f44414f206d7573742068617665207369676e6564206669727374000000000000600082015250565b6000614aed601a83613fd4565b9150614af882614ab7565b602082019050919050565b60006020820190508181036000830152614b1c81614ae0565b9050919050565b7f4e487b7100000000000000000000000000000000000000000000000000000000600052603260045260246000fd5b600080fd5b600082356001606003833603038112614b7357614b72614b52565b5b80830191505092915050565b600080fd5b600080fd5b600067ffffffffffffffff821115614ba457614ba36145ea565b5b614bad8261400f565b9050602081019050919050565b6000614bcd614bc884614b89565b61464a565b905082815260208101848484011115614be957614be86145e5565b5b614bf4848285614696565b509392505050565b600082601f830112614c1157614c106142d6565b5b8135614c21848260208601614bba565b91505092915050565b600060608284031215614c4057614c3f614b7f565b5b614c4a606061464a565b90506000614c5a84828501614151565b6000830152506020614c6e8482850161409c565b602083015250604082013567ffffffffffffffff811115614c9257614c91614b84565b5b614c9e84828501614bfc565b60408301525092915050565b6000614cb63683614c2a565b9050919050565b60008190508160005260206000209050919050565b60006020601f8301049050919050565b600082821b905092915050565b600060088302614d1f7fffffffffffffffffffffffffffffffffffffffffffffffffffffffffffffffff82614ce2565b614d298683614ce2565b95508019841693508086168417925050509392505050565b6000819050919050565b6000614d66614d61614d5c8461407b565b614d41565b61407b565b9050919050565b6000819050919050565b614d8083614d4b565b614d94614d8c82614d6d565b848454614cef565b825550505050565b600090565b614da9614d9c565b614db4818484614d77565b505050565b5b81811015614dd857614dcd600082614da1565b600181019050614dba565b5050565b601f821115614e1d57614dee81614cbd565b614df784614cd2565b81016020851015614e06578190505b614e1a614e1285614cd2565b830182614db9565b50505b505050565b600082821c905092915050565b6000614e4060001984600802614e22565b1980831691505092915050565b6000614e598383614e2f565b9150826002028217905092915050565b614e7282613fc9565b67ffffffffffffffff811115614e8b57614e8a6145ea565b5b614e958254614864565b614ea0828285614ddc565b600060209050601f831160018114614ed35760008415614ec1578287015190505b614ecb8582614e4d565b865550614f33565b601f198416614ee186614cbd565b60005b82811015614f0957848901518255600182019150602085019450602081019050614ee4565b86831015614f265784890151614f22601f891682614e2f565b8355505b6001600288020188555050505b505050505050565b7f4e487b7100000000000000000000000000000000000000000000000000000000600052601160045260246000fd5b6000614f758261407b565b91507fffffffffffffffffffffffffffffffffffffffffffffffffffffffffffffffff8203614fa757614fa6614f3b565b5b600182019050919050565b7f4552433732313a20696e76616c696420746f6b656e2049440000000000000000600082015250565b6000614fe8601883613fd4565b9150614ff382614fb2565b602082019050919050565b6000602082019050818103600083015261501781614fdb565b9050919050565b7f4552433732313a2061646472657373207a65726f206973206e6f74206120766160008201527f6c6964206f776e65720000000000000000000000000000000000000000000000602082015250565b600061507a602983613fd4565b91506150858261501e565b604082019050919050565b600060208201905081810360008301526150a98161506d565b9050919050565b7f596f7520686176652030205469636b6574205374616b65640000000000000000600082015250565b60006150e6601883613fd4565b91506150f1826150b0565b602082019050919050565b60006020820190508181036000830152615115816150d9565b9050919050565b7f5374616b696e67206973206e6f7420617574686f72697a656420616e796d6f7260008201527f6500000000000000000000000000000000000000000000000000000000000000602082015250565b6000615178602183613fd4565b91506151838261511c565b604082019050919050565b600060208201905081810360008301526151a78161516b565b9050919050565b7f5469636b6574206973206e6f74207374616b6564000000000000000000000000600082015250565b60006151e4601483613fd4565b91506151ef826151ae565b602082019050919050565b60006020820190508181036000830152615213816151d7565b9050919050565b600060408201905061522f6000830185614110565b61523c6020830184614226565b9392505050565b60608201600082015161525960008501826143e2565b50602082015161526c6020850182614235565b50604082015161527f60408501826143f1565b50505050565b600060608201905061529a6000830184615243565b92915050565b7f4d696e74207469636b657420726567697374726174696f6e2068617665206e6f60008201527f74206265656e2073746172746564207965740000000000000000000000000000602082015250565b60006152fc603283613fd4565b9150615307826152a0565b604082019050919050565b6000602082019050818103600083015261532b816152ef565b9050919050565b6000604082019050615347600083018561454f565b615354602083018461454f565b9392505050565b7f5469636b657420616c7265616479207374616b65640000000000000000000000600082015250565b6000615391601583613fd4565b915061539c8261535b565b602082019050919050565b600060208201905081810360008301526153c081615384565b9050919050565b600081905092915050565b60006153dd82613fc9565b6153e781856153c7565b93506153f7818560208601613fe5565b80840191505092915050565b600061540f82856153d2565b915061541b82846153d2565b91508190509392505050565b7f4f776e61626c653a206e6577206f776e657220697320746865207a65726f206160008201527f6464726573730000000000000000000000000000000000000000000000000000602082015250565b6000615483602683613fd4565b915061548e82615427565b604082019050919050565b600060208201905081810360008301526154b281615476565b9050919050565b7f4552433732313a207472616e736665722066726f6d20696e636f72726563742060008201527f6f776e6572000000000000000000000000000000000000000000000000000000602082015250565b6000615515602583613fd4565b9150615520826154b9565b604082019050919050565b6000602082019050818103600083015261554481615508565b9050919050565b7f4552433732313a207472616e7366657220746f20746865207a65726f2061646460008201527f7265737300000000000000000000000000000000000000000000000000000000602082015250565b60006155a7602483613fd4565b91506155b28261554b565b604082019050919050565b600060208201905081810360008301526155d68161559a565b9050919050565b7f5469636b657420726567697374726174696f6e206e6f7420656e646564000000600082015250565b6000615613601d83613fd4565b915061561e826155dd565b602082019050919050565b6000602082019050818103600083015261564281615606565b9050919050565b7f4f776e61626c653a2063616c6c6572206973206e6f7420746865206f776e6572600082015250565b600061567f602083613fd4565b915061568a82615649565b602082019050919050565b600060208201905081810360008301526156ae81615672565b9050919050565b7f4552433732313a206d696e7420746f20746865207a65726f2061646472657373600082015250565b60006156eb602083613fd4565b91506156f6826156b5565b602082019050919050565b6000602082019050818103600083015261571a816156de565b9050919050565b7f4552433732313a20746f6b656e20616c7265616479206d696e74656400000000600082015250565b6000615757601c83613fd4565b915061576282615721565b602082019050919050565b600060208201905081810360008301526157868161574a565b9050919050565b7f45524337323155524953746f726167653a2055524920736574206f66206e6f6e60008201527f6578697374656e7420746f6b656e000000000000000000000000000000000000602082015250565b60006157e9602e83613fd4565b91506157f48261578d565b604082019050919050565b60006020820190508181036000830152615818816157dc565b9050919050565b7f44414f205465616d206e65656420746f207369676e20666972737420696e206f60008201527f7264657220746f2067656e6572617465204e4654000000000000000000000000602082015250565b600061587b603483613fd4565b91506158868261581f565b604082019050919050565b600060208201905081810360008301526158aa8161586e565b9050919050565b7f436f756e7465723a2064656372656d656e74206f766572666c6f770000000000600082015250565b60006158e7601b83613fd4565b91506158f2826158b1565b602082019050919050565b60006020820190508181036000830152615916816158da565b9050919050565b7f4552433732313a20617070726f766520746f2063616c6c657200000000000000600082015250565b6000615953601983613fd4565b915061595e8261591d565b602082019050919050565b6000602082019050818103600083015261598281615946565b9050919050565b7f4552433732313a207472616e7366657220746f206e6f6e20455243373231526560008201527f63656976657220696d706c656d656e7465720000000000000000000000000000602082015250565b60006159e5603283613fd4565b91506159f082615989565b604082019050919050565b60006020820190508181036000830152615a14816159d8565b9050919050565b600081519050919050565b600082825260208201905092915050565b6000615a4282615a1b565b615a4c8185615a26565b9350615a5c818560208601613fe5565b615a658161400f565b840191505092915050565b6000608082019050615a856000830187614110565b615a926020830186614110565b615a9f6040830185614226565b8181036060830152615ab18184615a37565b905095945050505050565b600081519050615acb81613f3a565b92915050565b600060208284031215615ae757615ae6613f04565b5b6000615af584828501615abc565b91505092915050565b7f4e487b7100000000000000000000000000000000000000000000000000000000600052601260045260246000fdfea2646970667358221220a79aef08e5940025953821ecc3b0a14298264b10e6fea0e2cac0940e8a95ec5b64736f6c63430008120033",
  "immutableReferences": {},
  "source": "// SPDX-License-Identifier: MIT\npragma solidity >=0.4.22 <0.9.0;\n\nimport '@openzeppelin/contracts/token/ERC721/ERC721.sol';\nimport '@openzeppelin/contracts/token/ERC721/extensions/ERC721URIStorage.sol';\nimport '@openzeppelin/contracts/security/ReentrancyGuard.sol';\nimport './MiningDAOInvestTickets.sol';\n\n// ADD 5% Royalty\n// ADD STATIC Variable method\n// Attention royalty check par rapport  blur.\n\n\n\ncontract MiningDAOCommercialOffer is ERC721URIStorage, Ownable, ReentrancyGuard{\n    using Counters for Counters.Counter;\n\n\n    MiningDAOInvestTickets private InvestTicketsContract;\n\n    enum WorkflowStatus {\n        Initialized,\n        MintTicketsRegistrationStarted,\n        MintTicketsRegistrationEnded,\n        DAOTeamSignatureCompleted,\n        Running,\n        CanceledMinimumTicketsNotReach,\n        Stopped\n    }\n\n    struct InvestTicket {\n        address investTicketOwner;\n        uint256 tokenId;\n        bool isStaked;\n    }\n\n    struct InvestTicketsStaked {\n        Counters.Counter amountOfTicketStaked;\n        mapping(uint => LinkedListInvestTicket) stakedInvestTickets;\n    }\n\n    struct OfferTicket {\n        address ticketOwner;\n        uint256 power;\n        string tokenUri;\n        uint tokenId;\n        Counters.Counter unclaimedMonths;\n        uint256 unclaimedValue;\n        uint256 timeOfLastRewardUpdate;\n    }\n\n    struct OfferTicketProps {\n        address ticketOwner;\n        uint power;\n        string tokenUri;\n    }\n\n    struct LinkedListInvestTicket {\n        uint previousIndex;\n        InvestTicket ticket;\n        uint nextIndex;\n    }\n\n    // GLOBAL\n\n    address DAOWallet;\n    address[] DAOTeamWallets;\n    address treasuryWallet;\n    string offerName;\n    string ref;\n    mapping(address => bool) whitelisted;\n\n    WorkflowStatus public workflowStatus;\n\n    // PHASE 1\n    uint minimumTickets;\n    uint maximumTickets;\n    Counters.Counter ticketsCounter;\n    uint lockTimeLimit;\n    LinkedListInvestTicket linkedListHead;\n    LinkedListInvestTicket linkedListLast;\n    mapping(uint => LinkedListInvestTicket) stakedList;\n    mapping(address => InvestTicketsStaked) investTicketsStaked;\n\n\n    // PHASE 2\n    uint256 timeOfLastRewardUpdate;\n    uint256 totalTHPower;\n    OfferTicket[] offerOwnersList;\n    mapping(address => OfferTicket) public offerTicketOwners;\n\n    event InvestTicketStaked(InvestTicket ticket);\n    event InvestTicketUnstaked(InvestTicket ticket);\n    event RewardClaimed(OfferTicket ticket);\n    event WorkflowStatusChanged(WorkflowStatus previous, WorkflowStatus current);\n\n    //CONSTRUCTOR\n    constructor(\n        address _InvestTicketsContractAddress,\n        string memory _offerName,\n        string memory _ref,\n        string memory _collectionName,\n        address _DAOWallet,\n        address[] memory _DAOTeamWallets,\n        address _treasuryWallet,\n        uint _minimumTickets,\n        uint _maximumTickets,\n        uint _lockTimeLimit\n    ) ERC721(_collectionName, _ref){\n        InvestTicketsContract = MiningDAOInvestTickets(_InvestTicketsContractAddress);\n        offerName = _offerName;\n        ref = _ref;\n        DAOWallet = _DAOWallet;\n        DAOTeamWallets = _DAOTeamWallets;\n        treasuryWallet = _treasuryWallet;\n        minimumTickets = _minimumTickets;\n        maximumTickets = _maximumTickets;\n        lockTimeLimit = _lockTimeLimit;\n\n        whitelisted[_DAOWallet] = true;\n        for(uint i = 0; i < _DAOTeamWallets.length; i++){\n            whitelisted[_DAOTeamWallets[i]] = true;\n        }\n    }\n\n    //MODIFIER CHECK whitelistedOwner\n    modifier isWhitelisted() {\n        require(whitelisted[msg.sender] == true, \"You are not whitelisted\");\n        _;\n    }\n\n    //MODIFIER CHECK isInvestTicketStaker\n    modifier isInvestTicketStacker() {\n        require(investTicketsStaked[msg.sender].amountOfTicketStaked.current() >= 1, \"You have 0 Ticket Staked\");\n        _;\n    }\n\n    //MOFICIER CHECK isOfferTicketOwner\n    modifier isOfferTicketOwner() {\n        require(offerTicketOwners[msg.sender].power >= 1, \"You are not an offer ticket owner\");\n        _;\n    }\n\n    function getStakedTicket(uint _tokenId) public view returns (LinkedListInvestTicket memory) {\n        //return stakedList[_tokenId];\n        return linkedListLast;\n    }\n\n    function getTotalStakedTicket() public view returns (uint) {\n        return ticketsCounter.current();\n    }\n\n    function getStakedList() public view returns (InvestTicket[] memory) {\n        InvestTicket[] memory ticketsList = new InvestTicket[](ticketsCounter.current());\n        uint index;\n        if(ticketsCounter.current() == 0){\n            return ticketsList;\n        }\n        LinkedListInvestTicket memory current = linkedListHead;\n        ticketsList[index++] = current.ticket;\n        while(current.nextIndex != 0) {\n            current = stakedList[current.nextIndex];\n            ticketsList[index++] = current.ticket;\n        }\n        return ticketsList;\n    }\n\n    //STAKE INVEST TICKET METHOD\n    function stakeTicket(uint _tokenId) external {\n        require(workflowStatus == WorkflowStatus.MintTicketsRegistrationStarted, \"Staking is not authorized anymore\");\n        require(!investTicketsStaked[msg.sender].stakedInvestTickets[_tokenId].ticket.isStaked, \"Ticket already staked\");\n        InvestTicketsContract.stakeTicket(msg.sender, _tokenId);\n        InvestTicket memory investTicket = InvestTicket(msg.sender, _tokenId, true);\n\n        LinkedListInvestTicket memory item;\n        if(!linkedListHead.ticket.isStaked) {\n            item = LinkedListInvestTicket(0,investTicket,0);\n            linkedListHead = item;\n        } else {\n            item = LinkedListInvestTicket(linkedListLast.ticket.tokenId,investTicket,0);\n            stakedList[linkedListLast.ticket.tokenId].nextIndex = item.ticket.tokenId;\n        }\n        if(ticketsCounter.current() == 1) {\n            linkedListHead.nextIndex = _tokenId;\n        }\n        stakedList[_tokenId] = item;\n        linkedListLast = item;\n\n        investTicketsStaked[msg.sender].stakedInvestTickets[_tokenId] = item;\n        investTicketsStaked[msg.sender].amountOfTicketStaked.increment();\n\n        ticketsCounter.increment();\n        if(ticketsCounter.current() == maximumTickets){\n            mintTicketRegistrationEnded();\n        }\n\n        emit InvestTicketStaked(item.ticket);\n    }\n\n    //UNSTAKE INVEST TICKET METHOD\n    function unstakeTicket(uint _tokenId) external isInvestTicketStacker {\n        require(workflowStatus == WorkflowStatus.MintTicketsRegistrationStarted, \"Staking is not authorized anymore\");\n        require(investTicketsStaked[msg.sender].stakedInvestTickets[_tokenId].ticket.isStaked, \"Ticket is not staked\");\n        InvestTicketsContract.unstakeTicket(msg.sender, _tokenId);\n\n        LinkedListInvestTicket memory item = stakedList[_tokenId];\n        LinkedListInvestTicket memory _default;\n        if(ticketsCounter.current() == 1) {\n            linkedListHead = _default;\n            linkedListLast = _default;\n        }else if(linkedListHead.ticket.tokenId == _tokenId) {\n            if(linkedListHead.nextIndex == linkedListLast.ticket.tokenId){\n                linkedListHead = LinkedListInvestTicket(0,stakedList[linkedListHead.nextIndex].ticket,0);\n                linkedListLast = _default;\n            } else {\n                linkedListHead = stakedList[linkedListHead.nextIndex];\n                linkedListHead.previousIndex = 0;\n            }\n        }else if(linkedListLast.ticket.tokenId == _tokenId){\n            if(linkedListHead.nextIndex == linkedListLast.ticket.tokenId){\n                linkedListHead.nextIndex = 0;\n                linkedListLast = _default;\n            } else {\n                linkedListLast = stakedList[linkedListLast.previousIndex];\n                linkedListLast.nextIndex = 0;\n            }\n        }else{\n            LinkedListInvestTicket memory previous = stakedList[item.previousIndex];\n            LinkedListInvestTicket memory next = stakedList[item.nextIndex];\n            previous.nextIndex = item.nextIndex;\n            next.previousIndex = item.previousIndex;\n            if(linkedListHead.ticket.tokenId == previous.ticket.tokenId) {\n                linkedListHead = previous;\n            }\n            if(linkedListLast.ticket.tokenId == next.ticket.tokenId) {\n                linkedListLast = previous;\n            }\n        }\n        delete stakedList[_tokenId];\n\n        investTicketsStaked[msg.sender].amountOfTicketStaked.decrement();\n        delete investTicketsStaked[msg.sender].stakedInvestTickets[_tokenId];\n        ticketsCounter.decrement();\n\n        emit InvestTicketUnstaked(item.ticket);\n    }\n\n    function unstakeAllTickets() internal {\n        //Unstake all Tickets\n    }\n\n\n\n    //DAOSIGNATURE REQUEST\n    function DAOTeamSignatureRequest() external {\n        require(msg.sender == DAOWallet, \"You are not the DAO !\");\n        require(workflowStatus == WorkflowStatus.MintTicketsRegistrationEnded);\n        DAOTeamSignatureCompleted();\n    }\n\n    //GENERATE OFFER NFT\n    function generateOfferNFT(OfferTicketProps[] calldata _offerTicketData, uint256 totalThPower) public onlyOwner {\n        require(workflowStatus == WorkflowStatus.DAOTeamSignatureCompleted, 'DAO must have signed first');\n        uint tokenId = 1;\n        timeOfLastRewardUpdate = block.timestamp;\n        for(uint i; i < _offerTicketData.length; i++) {\n            Counters.Counter memory counter;\n            OfferTicketProps memory ticketData = _offerTicketData[i];\n            OfferTicket memory ticket = OfferTicket(ticketData.ticketOwner, ticketData.power, ticketData.tokenUri, tokenId, counter, 0, block.timestamp);\n            offerOwnersList.push(ticket);\n            offerTicketOwners[ticketData.ticketOwner] = ticket;\n\n            _mint(ticketData.ticketOwner, tokenId);\n            _setTokenURI(tokenId, ticketData.tokenUri);\n\n            tokenId++;\n        }\n\n        burnAllTickets();\n        running();\n    }\n\n    function burnAllTickets() internal {\n        require(workflowStatus == WorkflowStatus.DAOTeamSignatureCompleted, 'DAO must have signed first');\n        InvestTicket[] memory investTickets = getStakedList();\n        for(uint i; i < investTickets.length; i++) {\n            InvestTicket memory ticket = investTickets[i];\n            InvestTicketsContract.useTicket(ticket.investTicketOwner, ticket.tokenId);\n        }\n    }\n\n    //HANDLE OFFER NFT TRANSFER (ownership change)\n\n    //***\n    //CHANGE WORKFLOWSTATUS\n    //***\n\n    //START MINT TICKET REGISTRATION\n    function mintTicketRegistrationStarted() external onlyOwner {\n        require(workflowStatus == WorkflowStatus.Initialized, \"Mint ticket registration have not been started yet\");\n        workflowStatus = WorkflowStatus.MintTicketsRegistrationStarted;\n        emit WorkflowStatusChanged(WorkflowStatus.Initialized, WorkflowStatus.MintTicketsRegistrationStarted);\n    }\n\n    //END MINT TICKET REGISTRATION\n    function mintTicketRegistrationEnded() internal {\n        require(workflowStatus == WorkflowStatus.MintTicketsRegistrationStarted, \"Mint ticket registration have not been started yet\");\n        if(ticketsCounter.current() < minimumTickets){\n            workflowStatus = WorkflowStatus.CanceledMinimumTicketsNotReach;\n            unstakeAllTickets();\n            emit WorkflowStatusChanged(WorkflowStatus.MintTicketsRegistrationStarted, WorkflowStatus.CanceledMinimumTicketsNotReach);\n        } else {\n            workflowStatus = WorkflowStatus.MintTicketsRegistrationEnded;\n            emit WorkflowStatusChanged(WorkflowStatus.MintTicketsRegistrationStarted, WorkflowStatus.MintTicketsRegistrationEnded);\n        }\n\n    }\n\n    function DAOTeamSignatureCompleted() internal {\n        require(workflowStatus == WorkflowStatus.MintTicketsRegistrationEnded, \"Ticket registration not ended\");\n        workflowStatus = WorkflowStatus.DAOTeamSignatureCompleted;\n        emit WorkflowStatusChanged(WorkflowStatus.MintTicketsRegistrationEnded, WorkflowStatus.DAOTeamSignatureCompleted);\n    }\n\n    function running() internal {\n        require(workflowStatus == WorkflowStatus.DAOTeamSignatureCompleted, 'DAO Team need to sign first in order to generate NFT');\n        workflowStatus = WorkflowStatus.Running;\n        emit WorkflowStatusChanged(WorkflowStatus.DAOTeamSignatureCompleted, WorkflowStatus.Running);\n    }\n\n    //SWITCH TO RUNNING MODE (need totalThPower and set timeOfLastRewardUpdate)\n\n    //***\n    //CRON TASK\n    //***\n\n    //CHECK IF TIME EXPIRED\n    function checkLockTimeExpired() external {\n        if(lockTimeLimit > block.timestamp) {\n            mintTicketRegistrationEnded();\n        }\n    }\n\n    //CHECK IF BEGIN OF NEW MONTH SO COMPUTE REWARD\n\n}",
  "sourcePath": "/Users/dylandivito/DEV/Solidity/Mining-DAO/truffle/contracts/MiningDAOCommercialOffer.sol",
  "compiler": {
    "name": "solc",
    "version": "0.8.18+commit.87f61d96.Emscripten.clang"
  },
  "schemaVersion": "3.4.11",
  "updatedAt": "2023-04-08T16:19:20.796Z",
  "devdoc": {
    "events": {
      "Approval(address,address,uint256)": {
        "details": "Emitted when `owner` enables `approved` to manage the `tokenId` token."
      },
      "ApprovalForAll(address,address,bool)": {
        "details": "Emitted when `owner` enables or disables (`approved`) `operator` to manage all of its assets."
      },
      "Transfer(address,address,uint256)": {
        "details": "Emitted when `tokenId` token is transferred from `from` to `to`."
      }
    },
    "kind": "dev",
    "methods": {
      "approve(address,uint256)": {
        "details": "See {IERC721-approve}."
      },
      "balanceOf(address)": {
        "details": "See {IERC721-balanceOf}."
      },
      "getApproved(uint256)": {
        "details": "See {IERC721-getApproved}."
      },
      "isApprovedForAll(address,address)": {
        "details": "See {IERC721-isApprovedForAll}."
      },
      "name()": {
        "details": "See {IERC721Metadata-name}."
      },
      "owner()": {
        "details": "Returns the address of the current owner."
      },
      "ownerOf(uint256)": {
        "details": "See {IERC721-ownerOf}."
      },
      "renounceOwnership()": {
        "details": "Leaves the contract without owner. It will not be possible to call `onlyOwner` functions anymore. Can only be called by the current owner. NOTE: Renouncing ownership will leave the contract without an owner, thereby removing any functionality that is only available to the owner."
      },
      "safeTransferFrom(address,address,uint256)": {
        "details": "See {IERC721-safeTransferFrom}."
      },
      "safeTransferFrom(address,address,uint256,bytes)": {
        "details": "See {IERC721-safeTransferFrom}."
      },
      "setApprovalForAll(address,bool)": {
        "details": "See {IERC721-setApprovalForAll}."
      },
      "supportsInterface(bytes4)": {
        "details": "See {IERC165-supportsInterface}."
      },
      "symbol()": {
        "details": "See {IERC721Metadata-symbol}."
      },
      "tokenURI(uint256)": {
        "details": "See {IERC721Metadata-tokenURI}."
      },
      "transferFrom(address,address,uint256)": {
        "details": "See {IERC721-transferFrom}."
      },
      "transferOwnership(address)": {
        "details": "Transfers ownership of the contract to a new account (`newOwner`). Can only be called by the current owner."
      }
    },
    "version": 1
  },
  "userdoc": {
    "kind": "user",
    "methods": {},
    "version": 1
  }
}