{
  "contractName": "MiningDAOInvestTickets",
  "abi": [
    {
      "inputs": [
        {
          "internalType": "address",
          "name": "_DAOAdress",
          "type": "address"
        },
        {
          "internalType": "string",
          "name": "_tokenURI",
          "type": "string"
        }
      ],
      "stateMutability": "nonpayable",
      "type": "constructor"
    },
    {
      "anonymous": false,
      "inputs": [
        {
          "indexed": true,
          "internalType": "address",
          "name": "owner",
          "type": "address"
        },
        {
          "indexed": true,
          "internalType": "address",
          "name": "approved",
          "type": "address"
        },
        {
          "indexed": true,
          "internalType": "uint256",
          "name": "tokenId",
          "type": "uint256"
        }
      ],
      "name": "Approval",
      "type": "event"
    },
    {
      "anonymous": false,
      "inputs": [
        {
          "indexed": true,
          "internalType": "address",
          "name": "owner",
          "type": "address"
        },
        {
          "indexed": true,
          "internalType": "address",
          "name": "operator",
          "type": "address"
        },
        {
          "indexed": false,
          "internalType": "bool",
          "name": "approved",
          "type": "bool"
        }
      ],
      "name": "ApprovalForAll",
      "type": "event"
    },
    {
      "anonymous": false,
      "inputs": [
        {
          "indexed": true,
          "internalType": "address",
          "name": "previousOwner",
          "type": "address"
        },
        {
          "indexed": true,
          "internalType": "address",
          "name": "newOwner",
          "type": "address"
        }
      ],
      "name": "OwnershipTransferred",
      "type": "event"
    },
    {
      "anonymous": false,
      "inputs": [
        {
          "components": [
            {
              "internalType": "uint256",
              "name": "tokenId",
              "type": "uint256"
            },
            {
              "internalType": "address",
              "name": "ticketOwner",
              "type": "address"
            },
            {
              "internalType": "uint256",
              "name": "gweiValue",
              "type": "uint256"
            },
            {
              "internalType": "bool",
              "name": "isUsed",
              "type": "bool"
            },
            {
              "internalType": "bool",
              "name": "isMinted",
              "type": "bool"
            },
            {
              "internalType": "bool",
              "name": "isStaked",
              "type": "bool"
            }
          ],
          "indexed": false,
          "internalType": "struct MiningDAOInvestTickets.Ticket",
          "name": "ticket",
          "type": "tuple"
        }
      ],
      "name": "TicketBurned",
      "type": "event"
    },
    {
      "anonymous": false,
      "inputs": [
        {
          "components": [
            {
              "internalType": "uint256",
              "name": "tokenId",
              "type": "uint256"
            },
            {
              "internalType": "address",
              "name": "ticketOwner",
              "type": "address"
            },
            {
              "internalType": "uint256",
              "name": "gweiValue",
              "type": "uint256"
            },
            {
              "internalType": "bool",
              "name": "isUsed",
              "type": "bool"
            },
            {
              "internalType": "bool",
              "name": "isMinted",
              "type": "bool"
            },
            {
              "internalType": "bool",
              "name": "isStaked",
              "type": "bool"
            }
          ],
          "indexed": false,
          "internalType": "struct MiningDAOInvestTickets.Ticket",
          "name": "ticket",
          "type": "tuple"
        }
      ],
      "name": "TicketMinted",
      "type": "event"
    },
    {
      "anonymous": false,
      "inputs": [
        {
          "components": [
            {
              "internalType": "uint256",
              "name": "tokenId",
              "type": "uint256"
            },
            {
              "internalType": "address",
              "name": "ticketOwner",
              "type": "address"
            },
            {
              "internalType": "uint256",
              "name": "gweiValue",
              "type": "uint256"
            },
            {
              "internalType": "bool",
              "name": "isUsed",
              "type": "bool"
            },
            {
              "internalType": "bool",
              "name": "isMinted",
              "type": "bool"
            },
            {
              "internalType": "bool",
              "name": "isStaked",
              "type": "bool"
            }
          ],
          "indexed": false,
          "internalType": "struct MiningDAOInvestTickets.Ticket",
          "name": "ticket",
          "type": "tuple"
        }
      ],
      "name": "TicketRefund",
      "type": "event"
    },
    {
      "anonymous": false,
      "inputs": [
        {
          "components": [
            {
              "internalType": "uint256",
              "name": "tokenId",
              "type": "uint256"
            },
            {
              "internalType": "address",
              "name": "ticketOwner",
              "type": "address"
            },
            {
              "internalType": "uint256",
              "name": "gweiValue",
              "type": "uint256"
            },
            {
              "internalType": "bool",
              "name": "isUsed",
              "type": "bool"
            },
            {
              "internalType": "bool",
              "name": "isMinted",
              "type": "bool"
            },
            {
              "internalType": "bool",
              "name": "isStaked",
              "type": "bool"
            }
          ],
          "indexed": false,
          "internalType": "struct MiningDAOInvestTickets.Ticket",
          "name": "ticket",
          "type": "tuple"
        }
      ],
      "name": "TicketStaked",
      "type": "event"
    },
    {
      "anonymous": false,
      "inputs": [
        {
          "components": [
            {
              "internalType": "uint256",
              "name": "tokenId",
              "type": "uint256"
            },
            {
              "internalType": "address",
              "name": "ticketOwner",
              "type": "address"
            },
            {
              "internalType": "uint256",
              "name": "gweiValue",
              "type": "uint256"
            },
            {
              "internalType": "bool",
              "name": "isUsed",
              "type": "bool"
            },
            {
              "internalType": "bool",
              "name": "isMinted",
              "type": "bool"
            },
            {
              "internalType": "bool",
              "name": "isStaked",
              "type": "bool"
            }
          ],
          "indexed": false,
          "internalType": "struct MiningDAOInvestTickets.Ticket",
          "name": "ticket",
          "type": "tuple"
        }
      ],
      "name": "TicketUnstaked",
      "type": "event"
    },
    {
      "anonymous": false,
      "inputs": [
        {
          "indexed": true,
          "internalType": "address",
          "name": "from",
          "type": "address"
        },
        {
          "indexed": true,
          "internalType": "address",
          "name": "to",
          "type": "address"
        },
        {
          "indexed": true,
          "internalType": "uint256",
          "name": "tokenId",
          "type": "uint256"
        }
      ],
      "name": "Transfer",
      "type": "event"
    },
    {
      "inputs": [
        {
          "internalType": "address",
          "name": "to",
          "type": "address"
        },
        {
          "internalType": "uint256",
          "name": "tokenId",
          "type": "uint256"
        }
      ],
      "name": "approve",
      "outputs": [],
      "stateMutability": "nonpayable",
      "type": "function"
    },
    {
      "inputs": [
        {
          "internalType": "address",
          "name": "owner",
          "type": "address"
        }
      ],
      "name": "balanceOf",
      "outputs": [
        {
          "internalType": "uint256",
          "name": "",
          "type": "uint256"
        }
      ],
      "stateMutability": "view",
      "type": "function",
      "constant": true
    },
    {
      "inputs": [
        {
          "internalType": "uint256",
          "name": "tokenId",
          "type": "uint256"
        }
      ],
      "name": "getApproved",
      "outputs": [
        {
          "internalType": "address",
          "name": "",
          "type": "address"
        }
      ],
      "stateMutability": "view",
      "type": "function",
      "constant": true
    },
    {
      "inputs": [
        {
          "internalType": "address",
          "name": "owner",
          "type": "address"
        },
        {
          "internalType": "address",
          "name": "operator",
          "type": "address"
        }
      ],
      "name": "isApprovedForAll",
      "outputs": [
        {
          "internalType": "bool",
          "name": "",
          "type": "bool"
        }
      ],
      "stateMutability": "view",
      "type": "function",
      "constant": true
    },
    {
      "inputs": [],
      "name": "name",
      "outputs": [
        {
          "internalType": "string",
          "name": "",
          "type": "string"
        }
      ],
      "stateMutability": "view",
      "type": "function",
      "constant": true
    },
    {
      "inputs": [],
      "name": "owner",
      "outputs": [
        {
          "internalType": "address",
          "name": "",
          "type": "address"
        }
      ],
      "stateMutability": "view",
      "type": "function",
      "constant": true
    },
    {
      "inputs": [
        {
          "internalType": "uint256",
          "name": "tokenId",
          "type": "uint256"
        }
      ],
      "name": "ownerOf",
      "outputs": [
        {
          "internalType": "address",
          "name": "",
          "type": "address"
        }
      ],
      "stateMutability": "view",
      "type": "function",
      "constant": true
    },
    {
      "inputs": [],
      "name": "renounceOwnership",
      "outputs": [],
      "stateMutability": "nonpayable",
      "type": "function"
    },
    {
      "inputs": [
        {
          "internalType": "address",
          "name": "operator",
          "type": "address"
        },
        {
          "internalType": "bool",
          "name": "approved",
          "type": "bool"
        }
      ],
      "name": "setApprovalForAll",
      "outputs": [],
      "stateMutability": "nonpayable",
      "type": "function"
    },
    {
      "inputs": [
        {
          "internalType": "bytes4",
          "name": "interfaceId",
          "type": "bytes4"
        }
      ],
      "name": "supportsInterface",
      "outputs": [
        {
          "internalType": "bool",
          "name": "",
          "type": "bool"
        }
      ],
      "stateMutability": "view",
      "type": "function",
      "constant": true
    },
    {
      "inputs": [],
      "name": "symbol",
      "outputs": [
        {
          "internalType": "string",
          "name": "",
          "type": "string"
        }
      ],
      "stateMutability": "view",
      "type": "function",
      "constant": true
    },
    {
      "inputs": [
        {
          "internalType": "uint256",
          "name": "tokenId",
          "type": "uint256"
        }
      ],
      "name": "tokenURI",
      "outputs": [
        {
          "internalType": "string",
          "name": "",
          "type": "string"
        }
      ],
      "stateMutability": "view",
      "type": "function",
      "constant": true
    },
    {
      "inputs": [
        {
          "internalType": "address",
          "name": "from",
          "type": "address"
        },
        {
          "internalType": "address",
          "name": "to",
          "type": "address"
        },
        {
          "internalType": "uint256",
          "name": "tokenId",
          "type": "uint256"
        }
      ],
      "name": "transferFrom",
      "outputs": [],
      "stateMutability": "nonpayable",
      "type": "function"
    },
    {
      "inputs": [
        {
          "internalType": "address",
          "name": "newOwner",
          "type": "address"
        }
      ],
      "name": "transferOwnership",
      "outputs": [],
      "stateMutability": "nonpayable",
      "type": "function"
    },
    {
      "inputs": [],
      "name": "getWhitelistedList",
      "outputs": [
        {
          "internalType": "address[]",
          "name": "",
          "type": "address[]"
        }
      ],
      "stateMutability": "view",
      "type": "function",
      "constant": true
    },
    {
      "inputs": [
        {
          "internalType": "address",
          "name": "_contract",
          "type": "address"
        }
      ],
      "name": "whitelist",
      "outputs": [],
      "stateMutability": "nonpayable",
      "type": "function"
    },
    {
      "inputs": [
        {
          "internalType": "address",
          "name": "_contract",
          "type": "address"
        }
      ],
      "name": "unWhitelist",
      "outputs": [],
      "stateMutability": "nonpayable",
      "type": "function"
    },
    {
      "inputs": [
        {
          "internalType": "address",
          "name": "_address",
          "type": "address"
        }
      ],
      "name": "getTicketsByAddress",
      "outputs": [
        {
          "components": [
            {
              "internalType": "uint256",
              "name": "tokenId",
              "type": "uint256"
            },
            {
              "internalType": "address",
              "name": "ticketOwner",
              "type": "address"
            },
            {
              "internalType": "uint256",
              "name": "gweiValue",
              "type": "uint256"
            },
            {
              "internalType": "bool",
              "name": "isUsed",
              "type": "bool"
            },
            {
              "internalType": "bool",
              "name": "isMinted",
              "type": "bool"
            },
            {
              "internalType": "bool",
              "name": "isStaked",
              "type": "bool"
            }
          ],
          "internalType": "struct MiningDAOInvestTickets.Ticket[]",
          "name": "",
          "type": "tuple[]"
        }
      ],
      "stateMutability": "view",
      "type": "function",
      "constant": true
    },
    {
      "inputs": [
        {
          "internalType": "uint256",
          "name": "_tokenId",
          "type": "uint256"
        }
      ],
      "name": "getTicketByTokenId",
      "outputs": [
        {
          "components": [
            {
              "internalType": "uint256",
              "name": "tokenId",
              "type": "uint256"
            },
            {
              "internalType": "address",
              "name": "ticketOwner",
              "type": "address"
            },
            {
              "internalType": "uint256",
              "name": "gweiValue",
              "type": "uint256"
            },
            {
              "internalType": "bool",
              "name": "isUsed",
              "type": "bool"
            },
            {
              "internalType": "bool",
              "name": "isMinted",
              "type": "bool"
            },
            {
              "internalType": "bool",
              "name": "isStaked",
              "type": "bool"
            }
          ],
          "internalType": "struct MiningDAOInvestTickets.Ticket",
          "name": "",
          "type": "tuple"
        }
      ],
      "stateMutability": "view",
      "type": "function",
      "constant": true
    },
    {
      "inputs": [],
      "name": "getTotalNFT",
      "outputs": [
        {
          "internalType": "uint256",
          "name": "",
          "type": "uint256"
        }
      ],
      "stateMutability": "view",
      "type": "function",
      "constant": true
    },
    {
      "inputs": [],
      "name": "getTokenUri",
      "outputs": [
        {
          "internalType": "string",
          "name": "",
          "type": "string"
        }
      ],
      "stateMutability": "view",
      "type": "function",
      "constant": true
    },
    {
      "inputs": [
        {
          "internalType": "string",
          "name": "_tokenUri",
          "type": "string"
        }
      ],
      "name": "setTokenURI",
      "outputs": [],
      "stateMutability": "nonpayable",
      "type": "function"
    },
    {
      "inputs": [],
      "name": "getMintPriceETH",
      "outputs": [
        {
          "internalType": "uint256",
          "name": "",
          "type": "uint256"
        }
      ],
      "stateMutability": "view",
      "type": "function",
      "constant": true
    },
    {
      "inputs": [
        {
          "internalType": "uint256",
          "name": "_price",
          "type": "uint256"
        }
      ],
      "name": "setEthPrice",
      "outputs": [],
      "stateMutability": "nonpayable",
      "type": "function"
    },
    {
      "inputs": [
        {
          "internalType": "address",
          "name": "_customer",
          "type": "address"
        }
      ],
      "name": "mintTicketETH",
      "outputs": [
        {
          "internalType": "uint256",
          "name": "",
          "type": "uint256"
        }
      ],
      "stateMutability": "payable",
      "type": "function",
      "payable": true
    },
    {
      "inputs": [
        {
          "internalType": "address",
          "name": "_origin",
          "type": "address"
        },
        {
          "internalType": "uint256",
          "name": "_tokenId",
          "type": "uint256"
        }
      ],
      "name": "stakeTicket",
      "outputs": [],
      "stateMutability": "nonpayable",
      "type": "function"
    },
    {
      "inputs": [
        {
          "internalType": "address",
          "name": "_origin",
          "type": "address"
        },
        {
          "internalType": "uint256",
          "name": "_tokenId",
          "type": "uint256"
        }
      ],
      "name": "unstakeTicket",
      "outputs": [],
      "stateMutability": "nonpayable",
      "type": "function"
    },
    {
      "inputs": [
        {
          "internalType": "address",
          "name": "_origin",
          "type": "address"
        },
        {
          "internalType": "uint256",
          "name": "_tokenId",
          "type": "uint256"
        }
      ],
      "name": "useTicket",
      "outputs": [],
      "stateMutability": "nonpayable",
      "type": "function"
    },
    {
      "inputs": [
        {
          "internalType": "address payable",
          "name": "_address",
          "type": "address"
        },
        {
          "internalType": "uint256",
          "name": "_tokenId",
          "type": "uint256"
        }
      ],
      "name": "refundTicket",
      "outputs": [],
      "stateMutability": "nonpayable",
      "type": "function"
    },
    {
      "inputs": [
        {
          "internalType": "address",
          "name": "from",
          "type": "address"
        },
        {
          "internalType": "address",
          "name": "to",
          "type": "address"
        },
        {
          "internalType": "uint256",
          "name": "tokenId",
          "type": "uint256"
        }
      ],
      "name": "safeTransferFrom",
      "outputs": [],
      "stateMutability": "nonpayable",
      "type": "function"
    },
    {
      "inputs": [
        {
          "internalType": "address",
          "name": "from",
          "type": "address"
        },
        {
          "internalType": "address",
          "name": "to",
          "type": "address"
        },
        {
          "internalType": "uint256",
          "name": "tokenId",
          "type": "uint256"
        },
        {
          "internalType": "bytes",
          "name": "data",
          "type": "bytes"
        }
      ],
      "name": "safeTransferFrom",
      "outputs": [],
      "stateMutability": "nonpayable",
      "type": "function"
    }
  ],
  "bytecode": "0x608060405266038d7ea4c680006009553480156200001c57600080fd5b506040516200665838038062006658833981810160405281019062000042919062000415565b6040518060400160405280601f81526020017f4d696e696e672044414f202d20496e766573746d656e74205469636b657473008152506040518060400160405280600481526020017f4d44414f000000000000000000000000000000000000000000000000000000008152508160009081620000bf9190620006c6565b508060019081620000d19190620006c6565b505050620000f4620000e86200014f60201b60201c565b6200015760201b60201c565b81600a60006101000a81548173ffffffffffffffffffffffffffffffffffffffff021916908373ffffffffffffffffffffffffffffffffffffffff16021790555080600b9081620001469190620006c6565b505050620007ad565b600033905090565b6000600760009054906101000a900473ffffffffffffffffffffffffffffffffffffffff16905081600760006101000a81548173ffffffffffffffffffffffffffffffffffffffff021916908373ffffffffffffffffffffffffffffffffffffffff1602179055508173ffffffffffffffffffffffffffffffffffffffff168173ffffffffffffffffffffffffffffffffffffffff167f8be0079c531659141344cd1fd0a4f28419497f9722a3daafe3b4186f6b6457e060405160405180910390a35050565b6000604051905090565b600080fd5b600080fd5b600073ffffffffffffffffffffffffffffffffffffffff82169050919050565b60006200025e8262000231565b9050919050565b620002708162000251565b81146200027c57600080fd5b50565b600081519050620002908162000265565b92915050565b600080fd5b600080fd5b6000601f19601f8301169050919050565b7f4e487b7100000000000000000000000000000000000000000000000000000000600052604160045260246000fd5b620002eb82620002a0565b810181811067ffffffffffffffff821117156200030d576200030c620002b1565b5b80604052505050565b6000620003226200021d565b9050620003308282620002e0565b919050565b600067ffffffffffffffff821115620003535762000352620002b1565b5b6200035e82620002a0565b9050602081019050919050565b60005b838110156200038b5780820151818401526020810190506200036e565b60008484015250505050565b6000620003ae620003a88462000335565b62000316565b905082815260208101848484011115620003cd57620003cc6200029b565b5b620003da8482856200036b565b509392505050565b600082601f830112620003fa57620003f962000296565b5b81516200040c84826020860162000397565b91505092915050565b600080604083850312156200042f576200042e62000227565b5b60006200043f858286016200027f565b925050602083015167ffffffffffffffff8111156200046357620004626200022c565b5b6200047185828601620003e2565b9150509250929050565b600081519050919050565b7f4e487b7100000000000000000000000000000000000000000000000000000000600052602260045260246000fd5b60006002820490506001821680620004ce57607f821691505b602082108103620004e457620004e362000486565b5b50919050565b60008190508160005260206000209050919050565b60006020601f8301049050919050565b600082821b905092915050565b6000600883026200054e7fffffffffffffffffffffffffffffffffffffffffffffffffffffffffffffffff826200050f565b6200055a86836200050f565b95508019841693508086168417925050509392505050565b6000819050919050565b6000819050919050565b6000620005a7620005a16200059b8462000572565b6200057c565b62000572565b9050919050565b6000819050919050565b620005c38362000586565b620005db620005d282620005ae565b8484546200051c565b825550505050565b600090565b620005f2620005e3565b620005ff818484620005b8565b505050565b5b8181101562000627576200061b600082620005e8565b60018101905062000605565b5050565b601f82111562000676576200064081620004ea565b6200064b84620004ff565b810160208510156200065b578190505b620006736200066a85620004ff565b83018262000604565b50505b505050565b600082821c905092915050565b60006200069b600019846008026200067b565b1980831691505092915050565b6000620006b6838362000688565b9150826002028217905092915050565b620006d1826200047b565b67ffffffffffffffff811115620006ed57620006ec620002b1565b5b620006f98254620004b5565b620007068282856200062b565b600060209050601f8311600181146200073e576000841562000729578287015190505b620007358582620006a8565b865550620007a5565b601f1984166200074e86620004ea565b60005b82811015620007785784890151825560018201915060208501945060208101905062000751565b8683101562000798578489015162000794601f89168262000688565b8355505b6001600288020188555050505b505050505050565b615e9b80620007bd6000396000f3fe6080604052600436106101d75760003560e01c80638da5cb5b11610102578063c395c8af11610095578063e985e9c511610064578063e985e9c5146106aa578063f21af007146106e7578063f2fde38b14610710578063f5e47f9614610739576101d7565b8063c395c8af146105dc578063c87b56dd14610607578063e0df5b6f14610644578063e8af32531461066d576101d7565b8063ae5d1371116100d1578063ae5d13711461052d578063af8052c01461055d578063b88d4fde14610588578063bcf16f2d146105b1576101d7565b80638da5cb5b1461048557806395d89b41146104b05780639b19251a146104db578063a22cb46514610504576101d7565b806323b872dd1161017a5780636352211e116101495780636352211e146103cb578063705099b91461040857806370a0823114610431578063715018a61461046e576101d7565b806323b872dd146103255780633627c1971461034e57806342842e0e146103795780634c575423146103a2576101d7565b8063081812fc116101b6578063081812fc1461026d578063095ea7b3146102aa5780631457e16f146102d357806320983649146102fc576101d7565b80629f9262146101dc57806301ffc9a71461020557806306fdde0314610242575b600080fd5b3480156101e857600080fd5b5061020360048036038101906101fe9190614129565b610776565b005b34801561021157600080fd5b5061022c600480360381019061022791906141ae565b610788565b60405161023991906141f6565b60405180910390f35b34801561024e57600080fd5b5061025761086a565b60405161026491906142a1565b60405180910390f35b34801561027957600080fd5b50610294600480360381019061028f9190614129565b6108fc565b6040516102a19190614304565b60405180910390f35b3480156102b657600080fd5b506102d160048036038101906102cc919061434b565b610942565b005b3480156102df57600080fd5b506102fa60048036038101906102f5919061434b565b610a59565b005b34801561030857600080fd5b50610323600480360381019061031e919061434b565b610e21565b005b34801561033157600080fd5b5061034c6004803603810190610347919061438b565b6111e8565b005b34801561035a57600080fd5b50610363611248565b604051610370919061449c565b60405180910390f35b34801561038557600080fd5b506103a0600480360381019061039b919061438b565b6112d6565b005b3480156103ae57600080fd5b506103c960048036038101906103c4919061434b565b61133b565b005b3480156103d757600080fd5b506103f260048036038101906103ed9190614129565b611715565b6040516103ff9190614304565b60405180910390f35b34801561041457600080fd5b5061042f600480360381019061042a91906144fc565b61179b565b005b34801561043d57600080fd5b506104586004803603810190610453919061453c565b611bae565b6040516104659190614578565b60405180910390f35b34801561047a57600080fd5b50610483611c65565b005b34801561049157600080fd5b5061049a611c79565b6040516104a79190614304565b60405180910390f35b3480156104bc57600080fd5b506104c5611ca3565b6040516104d291906142a1565b60405180910390f35b3480156104e757600080fd5b5061050260048036038101906104fd919061453c565b611d35565b005b34801561051057600080fd5b5061052b600480360381019061052691906145bf565b611dfb565b005b6105476004803603810190610542919061453c565b611e11565b6040516105549190614578565b60405180910390f35b34801561056957600080fd5b5061057261219d565b60405161057f9190614578565b60405180910390f35b34801561059457600080fd5b506105af60048036038101906105aa9190614734565b6121a7565b005b3480156105bd57600080fd5b506105c6612209565b6040516105d39190614578565b60405180910390f35b3480156105e857600080fd5b506105f161221a565b6040516105fe91906142a1565b60405180910390f35b34801561061357600080fd5b5061062e60048036038101906106299190614129565b6122ac565b60405161063b91906142a1565b60405180910390f35b34801561065057600080fd5b5061066b60048036038101906106669190614817565b6123be565b005b34801561067957600080fd5b50610694600480360381019061068f9190614129565b6123dc565b6040516106a191906148fd565b60405180910390f35b3480156106b657600080fd5b506106d160048036038101906106cc9190614918565b6124c4565b6040516106de91906141f6565b60405180910390f35b3480156106f357600080fd5b5061070e6004803603810190610709919061453c565b612558565b005b34801561071c57600080fd5b506107376004803603810190610732919061453c565b61256c565b005b34801561074557600080fd5b50610760600480360381019061075b919061453c565b6125ef565b60405161076d9190614a82565b60405180910390f35b61077e612748565b8060098190555050565b60007f80ac58cd000000000000000000000000000000000000000000000000000000007bffffffffffffffffffffffffffffffffffffffffffffffffffffffff1916827bffffffffffffffffffffffffffffffffffffffffffffffffffffffff1916148061085357507f5b5e139f000000000000000000000000000000000000000000000000000000007bffffffffffffffffffffffffffffffffffffffffffffffffffffffff1916827bffffffffffffffffffffffffffffffffffffffffffffffffffffffff1916145b806108635750610862826127c6565b5b9050919050565b60606000805461087990614ad3565b80601f01602080910402602001604051908101604052809291908181526020018280546108a590614ad3565b80156108f25780601f106108c7576101008083540402835291602001916108f2565b820191906000526020600020905b8154815290600101906020018083116108d557829003601f168201915b5050505050905090565b600061090782612830565b6004600083815260200190815260200160002060009054906101000a900473ffffffffffffffffffffffffffffffffffffffff169050919050565b600061094d82611715565b90508073ffffffffffffffffffffffffffffffffffffffff168373ffffffffffffffffffffffffffffffffffffffff16036109bd576040517f08c379a00000000000000000000000000000000000000000000000000000000081526004016109b490614b76565b60405180910390fd5b8073ffffffffffffffffffffffffffffffffffffffff166109dc61287b565b73ffffffffffffffffffffffffffffffffffffffff161480610a0b5750610a0a81610a0561287b565b6124c4565b5b610a4a576040517f08c379a0000000000000000000000000000000000000000000000000000000008152600401610a4190614c08565b60405180910390fd5b610a548383612883565b505050565b6000600e60008381526020019081526020016000206040518060c0016040529081600082015481526020016001820160009054906101000a900473ffffffffffffffffffffffffffffffffffffffff1673ffffffffffffffffffffffffffffffffffffffff1673ffffffffffffffffffffffffffffffffffffffff168152602001600282015481526020016003820160009054906101000a900460ff161515151581526020016003820160019054906101000a900460ff161515151581526020016003820160029054906101000a900460ff16151515158152505090508060800151610b7a576040517f08c379a0000000000000000000000000000000000000000000000000000000008152600401610b7190614c74565b60405180910390fd5b806060015115610bbf576040517f08c379a0000000000000000000000000000000000000000000000000000000008152600401610bb690614d06565b60405180910390fd5b8273ffffffffffffffffffffffffffffffffffffffff16816020015173ffffffffffffffffffffffffffffffffffffffff1614610c31576040517f08c379a0000000000000000000000000000000000000000000000000000000008152600401610c2890614d72565b60405180910390fd5b600f60003373ffffffffffffffffffffffffffffffffffffffff1673ffffffffffffffffffffffffffffffffffffffff16815260200190815260200160002060009054906101000a900460ff16610cbd576040517f08c379a0000000000000000000000000000000000000000000000000000000008152600401610cb490614e04565b60405180910390fd5b8060a0015115610d02576040517f08c379a0000000000000000000000000000000000000000000000000000000008152600401610cf990614e70565b60405180910390fd5b60018160a001901515908115158152505080600e60008481526020019081526020016000206000820151816000015560208201518160010160006101000a81548173ffffffffffffffffffffffffffffffffffffffff021916908373ffffffffffffffffffffffffffffffffffffffff1602179055506040820151816002015560608201518160030160006101000a81548160ff02191690831515021790555060808201518160030160016101000a81548160ff02191690831515021790555060a08201518160030160026101000a81548160ff0219169083151502179055509050507f4f58770a6d7e5ecaf22e5da9aa506f095243cfc0b1f7dcea50ec9b09a2a832f181604051610e1491906148fd565b60405180910390a1505050565b6000600e60008381526020019081526020016000206040518060c0016040529081600082015481526020016001820160009054906101000a900473ffffffffffffffffffffffffffffffffffffffff1673ffffffffffffffffffffffffffffffffffffffff1673ffffffffffffffffffffffffffffffffffffffff168152602001600282015481526020016003820160009054906101000a900460ff161515151581526020016003820160019054906101000a900460ff161515151581526020016003820160029054906101000a900460ff16151515158152505090508060800151610f42576040517f08c379a0000000000000000000000000000000000000000000000000000000008152600401610f3990614c74565b60405180910390fd5b806060015115610f87576040517f08c379a0000000000000000000000000000000000000000000000000000000008152600401610f7e90614d06565b60405180910390fd5b8273ffffffffffffffffffffffffffffffffffffffff16816020015173ffffffffffffffffffffffffffffffffffffffff1614610ff9576040517f08c379a0000000000000000000000000000000000000000000000000000000008152600401610ff090614d72565b60405180910390fd5b600f60003373ffffffffffffffffffffffffffffffffffffffff1673ffffffffffffffffffffffffffffffffffffffff16815260200190815260200160002060009054906101000a900460ff16611085576040517f08c379a000000000000000000000000000000000000000000000000000000000815260040161107c90614e04565b60405180910390fd5b8060a001516110c9576040517f08c379a00000000000000000000000000000000000000000000000000000000081526004016110c090614edc565b60405180910390fd5b60008160a001901515908115158152505080600e60008481526020019081526020016000206000820151816000015560208201518160010160006101000a81548173ffffffffffffffffffffffffffffffffffffffff021916908373ffffffffffffffffffffffffffffffffffffffff1602179055506040820151816002015560608201518160030160006101000a81548160ff02191690831515021790555060808201518160030160016101000a81548160ff02191690831515021790555060a08201518160030160026101000a81548160ff0219169083151502179055509050507f248f640e687960fbf08368bb2d6ab0b2a3268dfd569b69e9a7101c206da1cd8c816040516111db91906148fd565b60405180910390a1505050565b6111f96111f361287b565b8261293c565b611238576040517f08c379a000000000000000000000000000000000000000000000000000000000815260040161122f90614f6e565b60405180910390fd5b6112438383836129d1565b505050565b606060108054806020026020016040519081016040528092919081815260200182805480156112cc57602002820191906000526020600020905b8160009054906101000a900473ffffffffffffffffffffffffffffffffffffffff1673ffffffffffffffffffffffffffffffffffffffff1681526020019060010190808311611282575b5050505050905090565b6112e1838383612cca565b81600e600083815260200190815260200160002060010160006101000a81548173ffffffffffffffffffffffffffffffffffffffff021916908373ffffffffffffffffffffffffffffffffffffffff160217905550505050565b6000600e60008381526020019081526020016000206040518060c0016040529081600082015481526020016001820160009054906101000a900473ffffffffffffffffffffffffffffffffffffffff1673ffffffffffffffffffffffffffffffffffffffff1673ffffffffffffffffffffffffffffffffffffffff168152602001600282015481526020016003820160009054906101000a900460ff161515151581526020016003820160019054906101000a900460ff161515151581526020016003820160029054906101000a900460ff1615151515815250509050806080015161145c576040517f08c379a000000000000000000000000000000000000000000000000000000000815260040161145390614c74565b60405180910390fd5b8060600151156114a1576040517f08c379a000000000000000000000000000000000000000000000000000000000815260040161149890614d06565b60405180910390fd5b8273ffffffffffffffffffffffffffffffffffffffff16816020015173ffffffffffffffffffffffffffffffffffffffff1614611513576040517f08c379a000000000000000000000000000000000000000000000000000000000815260040161150a90614d72565b60405180910390fd5b600f60003373ffffffffffffffffffffffffffffffffffffffff1673ffffffffffffffffffffffffffffffffffffffff16815260200190815260200160002060009054906101000a900460ff1661159f576040517f08c379a000000000000000000000000000000000000000000000000000000000815260040161159690614e04565b60405180910390fd5b8060a001516115e3576040517f08c379a00000000000000000000000000000000000000000000000000000000081526004016115da90614edc565b60405180910390fd5b6115ec82612cea565b600181606001901515908115158152505080600e60008481526020019081526020016000206000820151816000015560208201518160010160006101000a81548173ffffffffffffffffffffffffffffffffffffffff021916908373ffffffffffffffffffffffffffffffffffffffff1602179055506040820151816002015560608201518160030160006101000a81548160ff02191690831515021790555060808201518160030160016101000a81548160ff02191690831515021790555060a08201518160030160026101000a81548160ff0219169083151502179055509050506116d93383612d3d565b7ff21aa87017d3619b72fb0cc50c3ad1b0382aab7ec6a93fa6518574d06d47413d8160405161170891906148fd565b60405180910390a1505050565b60008061172183613024565b9050600073ffffffffffffffffffffffffffffffffffffffff168173ffffffffffffffffffffffffffffffffffffffff1603611792576040517f08c379a000000000000000000000000000000000000000000000000000000000815260040161178990614fda565b60405180910390fd5b80915050919050565b6000600e60008381526020019081526020016000206040518060c0016040529081600082015481526020016001820160009054906101000a900473ffffffffffffffffffffffffffffffffffffffff1673ffffffffffffffffffffffffffffffffffffffff1673ffffffffffffffffffffffffffffffffffffffff168152602001600282015481526020016003820160009054906101000a900460ff161515151581526020016003820160019054906101000a900460ff161515151581526020016003820160029054906101000a900460ff161515151581525050905080608001516118bc576040517f08c379a00000000000000000000000000000000000000000000000000000000081526004016118b390614c74565b60405180910390fd5b806060015115611901576040517f08c379a00000000000000000000000000000000000000000000000000000000081526004016118f890614d06565b60405180910390fd5b3373ffffffffffffffffffffffffffffffffffffffff16816020015173ffffffffffffffffffffffffffffffffffffffff1614611973576040517f08c379a000000000000000000000000000000000000000000000000000000000815260040161196a90615046565b60405180910390fd5b60006064605f83604001516119889190615095565b6119929190615106565b90506000808573ffffffffffffffffffffffffffffffffffffffff16836040516119bb9061518e565b60006040518083038185875af1925050503d80600081146119f8576040519150601f19603f3d011682016040523d82523d6000602084013e6119fd565b606091505b509150915081611a42576040517f08c379a0000000000000000000000000000000000000000000000000000000008152600401611a39906151ef565b60405180910390fd5b611a4b85612cea565b600184606001901515908115158152505083600e60008781526020019081526020016000206000820151816000015560208201518160010160006101000a81548173ffffffffffffffffffffffffffffffffffffffff021916908373ffffffffffffffffffffffffffffffffffffffff1602179055506040820151816002015560608201518160030160006101000a81548160ff02191690831515021790555060808201518160030160016101000a81548160ff02191690831515021790555060a08201518160030160026101000a81548160ff021916908315150217905550905050611b388686612d3d565b7ff21aa87017d3619b72fb0cc50c3ad1b0382aab7ec6a93fa6518574d06d47413d84604051611b6791906148fd565b60405180910390a17f9fc5e71aeff7a6d972aa15a0fe198c3e4bf252cb9a1305552d0b7f98d70eebf784604051611b9e91906148fd565b60405180910390a1505050505050565b60008073ffffffffffffffffffffffffffffffffffffffff168273ffffffffffffffffffffffffffffffffffffffff1603611c1e576040517f08c379a0000000000000000000000000000000000000000000000000000000008152600401611c1590615281565b60405180910390fd5b600360008373ffffffffffffffffffffffffffffffffffffffff1673ffffffffffffffffffffffffffffffffffffffff168152602001908152602001600020549050919050565b611c6d612748565b611c776000613061565b565b6000600760009054906101000a900473ffffffffffffffffffffffffffffffffffffffff16905090565b606060018054611cb290614ad3565b80601f0160208091040260200160405190810160405280929190818152602001828054611cde90614ad3565b8015611d2b5780601f10611d0057610100808354040283529160200191611d2b565b820191906000526020600020905b815481529060010190602001808311611d0e57829003601f168201915b5050505050905090565b611d3d612748565b6001600f60008373ffffffffffffffffffffffffffffffffffffffff1673ffffffffffffffffffffffffffffffffffffffff16815260200190815260200160002060006101000a81548160ff0219169083151502179055506010819080600181540180825580915050600190039060005260206000200160009091909190916101000a81548173ffffffffffffffffffffffffffffffffffffffff021916908373ffffffffffffffffffffffffffffffffffffffff16021790555050565b611e0d611e0661287b565b8383613127565b5050565b6000600954341015611e58576040517f08c379a0000000000000000000000000000000000000000000000000000000008152600401611e4f90615313565b60405180910390fd5b611e626008613293565b6000611e6e60086132a9565b905060006040518060c001604052808381526020018573ffffffffffffffffffffffffffffffffffffffff1681526020016009548152602001600015158152602001600115158152602001600015158152509050600c60008573ffffffffffffffffffffffffffffffffffffffff1673ffffffffffffffffffffffffffffffffffffffff1681526020019081526020016000208190806001815401808255809150506001900390600052602060002090600402016000909190919091506000820151816000015560208201518160010160006101000a81548173ffffffffffffffffffffffffffffffffffffffff021916908373ffffffffffffffffffffffffffffffffffffffff1602179055506040820151816002015560608201518160030160006101000a81548160ff02191690831515021790555060808201518160030160016101000a81548160ff02191690831515021790555060a08201518160030160026101000a81548160ff021916908315150217905550505080600e60008481526020019081526020016000206000820151816000015560208201518160010160006101000a81548173ffffffffffffffffffffffffffffffffffffffff021916908373ffffffffffffffffffffffffffffffffffffffff1602179055506040820151816002015560608201518160030160006101000a81548160ff02191690831515021790555060808201518160030160016101000a81548160ff02191690831515021790555060a08201518160030160026101000a81548160ff0219169083151502179055509050506120c484836132b7565b61215882600b80546120d590614ad3565b80601f016020809104026020016040519081016040528092919081815260200182805461210190614ad3565b801561214e5780601f106121235761010080835404028352916020019161214e565b820191906000526020600020905b81548152906001019060200180831161213157829003601f168201915b50505050506134d4565b7f0a58329b7f1e88b2a3a998689583a568a722e27f897f37aa3c1f59f573338ad48160405161218791906148fd565b60405180910390a1806000015192505050919050565b6000600954905090565b6121b86121b261287b565b8361293c565b6121f7576040517f08c379a00000000000000000000000000000000000000000000000000000000081526004016121ee90614f6e565b60405180910390fd5b61220384848484613541565b50505050565b600061221560086132a9565b905090565b6060600b805461222990614ad3565b80601f016020809104026020016040519081016040528092919081815260200182805461225590614ad3565b80156122a25780601f10612277576101008083540402835291602001916122a2565b820191906000526020600020905b81548152906001019060200180831161228557829003601f168201915b5050505050905090565b60606122b782612830565b60006006600084815260200190815260200160002080546122d790614ad3565b80601f016020809104026020016040519081016040528092919081815260200182805461230390614ad3565b80156123505780601f1061232557610100808354040283529160200191612350565b820191906000526020600020905b81548152906001019060200180831161233357829003601f168201915b50505050509050600061236161359d565b905060008151036123765781925050506123b9565b6000825111156123ab57808260405160200161239392919061536f565b604051602081830303815290604052925050506123b9565b6123b4846135b4565b925050505b919050565b6123c6612748565b8181600b91826123d792919061554a565b505050565b6123e4613e4c565b600e60008381526020019081526020016000206040518060c0016040529081600082015481526020016001820160009054906101000a900473ffffffffffffffffffffffffffffffffffffffff1673ffffffffffffffffffffffffffffffffffffffff1673ffffffffffffffffffffffffffffffffffffffff168152602001600282015481526020016003820160009054906101000a900460ff161515151581526020016003820160019054906101000a900460ff161515151581526020016003820160029054906101000a900460ff1615151515815250509050919050565b6000600560008473ffffffffffffffffffffffffffffffffffffffff1673ffffffffffffffffffffffffffffffffffffffff16815260200190815260200160002060008373ffffffffffffffffffffffffffffffffffffffff1673ffffffffffffffffffffffffffffffffffffffff16815260200190815260200160002060009054906101000a900460ff16905092915050565b612560612748565b6125698161361c565b50565b612574612748565b600073ffffffffffffffffffffffffffffffffffffffff168173ffffffffffffffffffffffffffffffffffffffff16036125e3576040517f08c379a00000000000000000000000000000000000000000000000000000000081526004016125da9061568c565b60405180910390fd5b6125ec81613061565b50565b6060600c60008373ffffffffffffffffffffffffffffffffffffffff1673ffffffffffffffffffffffffffffffffffffffff168152602001908152602001600020805480602002602001604051908101604052809291908181526020016000905b8282101561273d57838290600052602060002090600402016040518060c0016040529081600082015481526020016001820160009054906101000a900473ffffffffffffffffffffffffffffffffffffffff1673ffffffffffffffffffffffffffffffffffffffff1673ffffffffffffffffffffffffffffffffffffffff168152602001600282015481526020016003820160009054906101000a900460ff161515151581526020016003820160019054906101000a900460ff161515151581526020016003820160029054906101000a900460ff16151515158152505081526020019060010190612650565b505050509050919050565b61275061287b565b73ffffffffffffffffffffffffffffffffffffffff1661276e611c79565b73ffffffffffffffffffffffffffffffffffffffff16146127c4576040517f08c379a00000000000000000000000000000000000000000000000000000000081526004016127bb906156f8565b60405180910390fd5b565b60007f01ffc9a7000000000000000000000000000000000000000000000000000000007bffffffffffffffffffffffffffffffffffffffffffffffffffffffff1916827bffffffffffffffffffffffffffffffffffffffffffffffffffffffff1916149050919050565b6128398161380c565b612878576040517f08c379a000000000000000000000000000000000000000000000000000000000815260040161286f90614fda565b60405180910390fd5b50565b600033905090565b816004600083815260200190815260200160002060006101000a81548173ffffffffffffffffffffffffffffffffffffffff021916908373ffffffffffffffffffffffffffffffffffffffff160217905550808273ffffffffffffffffffffffffffffffffffffffff166128f683611715565b73ffffffffffffffffffffffffffffffffffffffff167f8c5be1e5ebec7d5bd14f71427d1e84f3dd0314c0f7b2291e5b200ac8c7c3b92560405160405180910390a45050565b60008061294883611715565b90508073ffffffffffffffffffffffffffffffffffffffff168473ffffffffffffffffffffffffffffffffffffffff16148061298a575061298981856124c4565b5b806129c857508373ffffffffffffffffffffffffffffffffffffffff166129b0846108fc565b73ffffffffffffffffffffffffffffffffffffffff16145b91505092915050565b8273ffffffffffffffffffffffffffffffffffffffff166129f182611715565b73ffffffffffffffffffffffffffffffffffffffff1614612a47576040517f08c379a0000000000000000000000000000000000000000000000000000000008152600401612a3e9061578a565b60405180910390fd5b600073ffffffffffffffffffffffffffffffffffffffff168273ffffffffffffffffffffffffffffffffffffffff1603612ab6576040517f08c379a0000000000000000000000000000000000000000000000000000000008152600401612aad9061581c565b60405180910390fd5b612ac3838383600161384d565b8273ffffffffffffffffffffffffffffffffffffffff16612ae382611715565b73ffffffffffffffffffffffffffffffffffffffff1614612b39576040517f08c379a0000000000000000000000000000000000000000000000000000000008152600401612b309061578a565b60405180910390fd5b6004600082815260200190815260200160002060006101000a81549073ffffffffffffffffffffffffffffffffffffffff02191690556001600360008573ffffffffffffffffffffffffffffffffffffffff1673ffffffffffffffffffffffffffffffffffffffff168152602001908152602001600020600082825403925050819055506001600360008473ffffffffffffffffffffffffffffffffffffffff1673ffffffffffffffffffffffffffffffffffffffff16815260200190815260200160002060008282540192505081905550816002600083815260200190815260200160002060006101000a81548173ffffffffffffffffffffffffffffffffffffffff021916908373ffffffffffffffffffffffffffffffffffffffff160217905550808273ffffffffffffffffffffffffffffffffffffffff168473ffffffffffffffffffffffffffffffffffffffff167fddf252ad1be2c89b69c2b068fc378daa952ba7f163c4a11628f55a4df523b3ef60405160405180910390a4612cc58383836001613927565b505050565b612ce5838383604051806020016040528060008152506121a7565b505050565b612cf38161392d565b6000600660008381526020019081526020016000208054612d1390614ad3565b905014612d3a57600660008281526020019081526020016000206000612d399190613e9e565b5b50565b6000600c60008473ffffffffffffffffffffffffffffffffffffffff1673ffffffffffffffffffffffffffffffffffffffff16815260200190815260200160002090506000805b60018380549050612d95919061583c565b811015612f315783838281548110612db057612daf615870565b5b90600052602060002090600402016000015403612dcc57600191505b828282612dd9919061589f565b81548110612dea57612de9615870565b5b9060005260206000209060040201838281548110612e0b57612e0a615870565b5b9060005260206000209060040201600082015481600001556001820160009054906101000a900473ffffffffffffffffffffffffffffffffffffffff168160010160006101000a81548173ffffffffffffffffffffffffffffffffffffffff021916908373ffffffffffffffffffffffffffffffffffffffff160217905550600282015481600201556003820160009054906101000a900460ff168160030160006101000a81548160ff0219169083151502179055506003820160019054906101000a900460ff168160030160016101000a81548160ff0219169083151502179055506003820160029054906101000a900460ff168160030160026101000a81548160ff0219169083151502179055509050508080612f29906158d3565b915050612d84565b5081805480612f4357612f4261591b565b5b60019003818190600052602060002090600402016000808201600090556001820160006101000a81549073ffffffffffffffffffffffffffffffffffffffff021916905560028201600090556003820160006101000a81549060ff02191690556003820160016101000a81549060ff02191690556003820160026101000a81549060ff02191690555050905581600c60008673ffffffffffffffffffffffffffffffffffffffff1673ffffffffffffffffffffffffffffffffffffffff16815260200190815260200160002090805461301d929190613ede565b5050505050565b60006002600083815260200190815260200160002060009054906101000a900473ffffffffffffffffffffffffffffffffffffffff169050919050565b6000600760009054906101000a900473ffffffffffffffffffffffffffffffffffffffff16905081600760006101000a81548173ffffffffffffffffffffffffffffffffffffffff021916908373ffffffffffffffffffffffffffffffffffffffff1602179055508173ffffffffffffffffffffffffffffffffffffffff168173ffffffffffffffffffffffffffffffffffffffff167f8be0079c531659141344cd1fd0a4f28419497f9722a3daafe3b4186f6b6457e060405160405180910390a35050565b8173ffffffffffffffffffffffffffffffffffffffff168373ffffffffffffffffffffffffffffffffffffffff1603613195576040517f08c379a000000000000000000000000000000000000000000000000000000000815260040161318c90615996565b60405180910390fd5b80600560008573ffffffffffffffffffffffffffffffffffffffff1673ffffffffffffffffffffffffffffffffffffffff16815260200190815260200160002060008473ffffffffffffffffffffffffffffffffffffffff1673ffffffffffffffffffffffffffffffffffffffff16815260200190815260200160002060006101000a81548160ff0219169083151502179055508173ffffffffffffffffffffffffffffffffffffffff168373ffffffffffffffffffffffffffffffffffffffff167f17307eab39ab6107e8899845ad3d59bd9653f200f220920489ca2b5937696c318360405161328691906141f6565b60405180910390a3505050565b6001816000016000828254019250508190555050565b600081600001549050919050565b600073ffffffffffffffffffffffffffffffffffffffff168273ffffffffffffffffffffffffffffffffffffffff1603613326576040517f08c379a000000000000000000000000000000000000000000000000000000000815260040161331d90615a02565b60405180910390fd5b61332f8161380c565b1561336f576040517f08c379a000000000000000000000000000000000000000000000000000000000815260040161336690615a6e565b60405180910390fd5b61337d60008383600161384d565b6133868161380c565b156133c6576040517f08c379a00000000000000000000000000000000000000000000000000000000081526004016133bd90615a6e565b60405180910390fd5b6001600360008473ffffffffffffffffffffffffffffffffffffffff1673ffffffffffffffffffffffffffffffffffffffff16815260200190815260200160002060008282540192505081905550816002600083815260200190815260200160002060006101000a81548173ffffffffffffffffffffffffffffffffffffffff021916908373ffffffffffffffffffffffffffffffffffffffff160217905550808273ffffffffffffffffffffffffffffffffffffffff16600073ffffffffffffffffffffffffffffffffffffffff167fddf252ad1be2c89b69c2b068fc378daa952ba7f163c4a11628f55a4df523b3ef60405160405180910390a46134d0600083836001613927565b5050565b6134dd8261380c565b61351c576040517f08c379a000000000000000000000000000000000000000000000000000000000815260040161351390615b00565b60405180910390fd5b8060066000848152602001908152602001600020908161353c9190615b20565b505050565b61354c8484846129d1565b61355884848484613a7b565b613597576040517f08c379a000000000000000000000000000000000000000000000000000000000815260040161358e90615c64565b60405180910390fd5b50505050565b606060405180602001604052806000815250905090565b60606135bf82612830565b60006135c961359d565b905060008151116135e95760405180602001604052806000815250613614565b806135f384613c02565b60405160200161360492919061536f565b6040516020818303038152906040525b915050919050565b6000805b6001601080549050613632919061583c565b811015613768578273ffffffffffffffffffffffffffffffffffffffff166010828154811061366457613663615870565b5b9060005260206000200160009054906101000a900473ffffffffffffffffffffffffffffffffffffffff1673ffffffffffffffffffffffffffffffffffffffff16036136af57600191505b601082826136bd919061589f565b815481106136ce576136cd615870565b5b9060005260206000200160009054906101000a900473ffffffffffffffffffffffffffffffffffffffff166010828154811061370d5761370c615870565b5b9060005260206000200160006101000a81548173ffffffffffffffffffffffffffffffffffffffff021916908373ffffffffffffffffffffffffffffffffffffffff1602179055508080613760906158d3565b915050613620565b50601080548061377b5761377a61591b565b5b6001900381819060005260206000200160006101000a81549073ffffffffffffffffffffffffffffffffffffffff021916905590556000600f60008473ffffffffffffffffffffffffffffffffffffffff1673ffffffffffffffffffffffffffffffffffffffff16815260200190815260200160002060006101000a81548160ff0219169083151502179055505050565b60008073ffffffffffffffffffffffffffffffffffffffff1661382e83613024565b73ffffffffffffffffffffffffffffffffffffffff1614159050919050565b61385984848484613cd0565b600e600083815260200190815260200160002060030160009054906101000a900460ff16156138bd576040517f08c379a00000000000000000000000000000000000000000000000000000000081526004016138b490615cd0565b60405180910390fd5b600e600083815260200190815260200160002060030160029054906101000a900460ff1615613921576040517f08c379a000000000000000000000000000000000000000000000000000000000815260040161391890615d62565b60405180910390fd5b50505050565b50505050565b600061393882611715565b905061394881600084600161384d565b61395182611715565b90506004600083815260200190815260200160002060006101000a81549073ffffffffffffffffffffffffffffffffffffffff02191690556001600360008373ffffffffffffffffffffffffffffffffffffffff1673ffffffffffffffffffffffffffffffffffffffff168152602001908152602001600020600082825403925050819055506002600083815260200190815260200160002060006101000a81549073ffffffffffffffffffffffffffffffffffffffff021916905581600073ffffffffffffffffffffffffffffffffffffffff168273ffffffffffffffffffffffffffffffffffffffff167fddf252ad1be2c89b69c2b068fc378daa952ba7f163c4a11628f55a4df523b3ef60405160405180910390a4613a77816000846001613927565b5050565b6000613a9c8473ffffffffffffffffffffffffffffffffffffffff16613cd6565b15613bf5578373ffffffffffffffffffffffffffffffffffffffff1663150b7a02613ac561287b565b8786866040518563ffffffff1660e01b8152600401613ae79493929190615dd7565b6020604051808303816000875af1925050508015613b2357506040513d601f19601f82011682018060405250810190613b209190615e38565b60015b613ba5573d8060008114613b53576040519150601f19603f3d011682016040523d82523d6000602084013e613b58565b606091505b506000815103613b9d576040517f08c379a0000000000000000000000000000000000000000000000000000000008152600401613b9490615c64565b60405180910390fd5b805181602001fd5b63150b7a0260e01b7bffffffffffffffffffffffffffffffffffffffffffffffffffffffff1916817bffffffffffffffffffffffffffffffffffffffffffffffffffffffff191614915050613bfa565b600190505b949350505050565b606060006001613c1184613cf9565b01905060008167ffffffffffffffff811115613c3057613c2f614609565b5b6040519080825280601f01601f191660200182016040528015613c625781602001600182028036833780820191505090505b509050600082602001820190505b600115613cc5578080600190039150507f3031323334353637383961626364656600000000000000000000000000000000600a86061a8153600a8581613cb957613cb86150d7565b5b04945060008503613c70575b819350505050919050565b50505050565b6000808273ffffffffffffffffffffffffffffffffffffffff163b119050919050565b600080600090507a184f03e93ff9f4daa797ed6e38ed64bf6a1f0100000000000000008310613d57577a184f03e93ff9f4daa797ed6e38ed64bf6a1f0100000000000000008381613d4d57613d4c6150d7565b5b0492506040810190505b6d04ee2d6d415b85acef81000000008310613d94576d04ee2d6d415b85acef81000000008381613d8a57613d896150d7565b5b0492506020810190505b662386f26fc100008310613dc357662386f26fc100008381613db957613db86150d7565b5b0492506010810190505b6305f5e1008310613dec576305f5e1008381613de257613de16150d7565b5b0492506008810190505b6127108310613e11576127108381613e0757613e066150d7565b5b0492506004810190505b60648310613e345760648381613e2a57613e296150d7565b5b0492506002810190505b600a8310613e43576001810190505b80915050919050565b6040518060c0016040528060008152602001600073ffffffffffffffffffffffffffffffffffffffff168152602001600081526020016000151581526020016000151581526020016000151581525090565b508054613eaa90614ad3565b6000825580601f10613ebc5750613edb565b601f016020900490600052602060002090810190613eda9190614038565b5b50565b8280548282559060005260206000209060040281019282156140275760005260206000209160040282015b82811115614026578282600082015481600001556001820160009054906101000a900473ffffffffffffffffffffffffffffffffffffffff168160010160006101000a81548173ffffffffffffffffffffffffffffffffffffffff021916908373ffffffffffffffffffffffffffffffffffffffff160217905550600282015481600201556003820160009054906101000a900460ff168160030160006101000a81548160ff0219169083151502179055506003820160019054906101000a900460ff168160030160016101000a81548160ff0219169083151502179055506003820160029054906101000a900460ff168160030160026101000a81548160ff021916908315150217905550505091600401919060040190613f09565b5b5090506140349190614055565b5090565b5b80821115614051576000816000905550600101614039565b5090565b5b808211156140db576000808201600090556001820160006101000a81549073ffffffffffffffffffffffffffffffffffffffff021916905560028201600090556003820160006101000a81549060ff02191690556003820160016101000a81549060ff02191690556003820160026101000a81549060ff021916905550600401614056565b5090565b6000604051905090565b600080fd5b600080fd5b6000819050919050565b614106816140f3565b811461411157600080fd5b50565b600081359050614123816140fd565b92915050565b60006020828403121561413f5761413e6140e9565b5b600061414d84828501614114565b91505092915050565b60007fffffffff0000000000000000000000000000000000000000000000000000000082169050919050565b61418b81614156565b811461419657600080fd5b50565b6000813590506141a881614182565b92915050565b6000602082840312156141c4576141c36140e9565b5b60006141d284828501614199565b91505092915050565b60008115159050919050565b6141f0816141db565b82525050565b600060208201905061420b60008301846141e7565b92915050565b600081519050919050565b600082825260208201905092915050565b60005b8381101561424b578082015181840152602081019050614230565b60008484015250505050565b6000601f19601f8301169050919050565b600061427382614211565b61427d818561421c565b935061428d81856020860161422d565b61429681614257565b840191505092915050565b600060208201905081810360008301526142bb8184614268565b905092915050565b600073ffffffffffffffffffffffffffffffffffffffff82169050919050565b60006142ee826142c3565b9050919050565b6142fe816142e3565b82525050565b600060208201905061431960008301846142f5565b92915050565b614328816142e3565b811461433357600080fd5b50565b6000813590506143458161431f565b92915050565b60008060408385031215614362576143616140e9565b5b600061437085828601614336565b925050602061438185828601614114565b9150509250929050565b6000806000606084860312156143a4576143a36140e9565b5b60006143b286828701614336565b93505060206143c386828701614336565b92505060406143d486828701614114565b9150509250925092565b600081519050919050565b600082825260208201905092915050565b6000819050602082019050919050565b614413816142e3565b82525050565b6000614425838361440a565b60208301905092915050565b6000602082019050919050565b6000614449826143de565b61445381856143e9565b935061445e836143fa565b8060005b8381101561448f5781516144768882614419565b975061448183614431565b925050600181019050614462565b5085935050505092915050565b600060208201905081810360008301526144b6818461443e565b905092915050565b60006144c9826142c3565b9050919050565b6144d9816144be565b81146144e457600080fd5b50565b6000813590506144f6816144d0565b92915050565b60008060408385031215614513576145126140e9565b5b6000614521858286016144e7565b925050602061453285828601614114565b9150509250929050565b600060208284031215614552576145516140e9565b5b600061456084828501614336565b91505092915050565b614572816140f3565b82525050565b600060208201905061458d6000830184614569565b92915050565b61459c816141db565b81146145a757600080fd5b50565b6000813590506145b981614593565b92915050565b600080604083850312156145d6576145d56140e9565b5b60006145e485828601614336565b92505060206145f5858286016145aa565b9150509250929050565b600080fd5b600080fd5b7f4e487b7100000000000000000000000000000000000000000000000000000000600052604160045260246000fd5b61464182614257565b810181811067ffffffffffffffff821117156146605761465f614609565b5b80604052505050565b60006146736140df565b905061467f8282614638565b919050565b600067ffffffffffffffff82111561469f5761469e614609565b5b6146a882614257565b9050602081019050919050565b82818337600083830152505050565b60006146d76146d284614684565b614669565b9050828152602081018484840111156146f3576146f2614604565b5b6146fe8482856146b5565b509392505050565b600082601f83011261471b5761471a6145ff565b5b813561472b8482602086016146c4565b91505092915050565b6000806000806080858703121561474e5761474d6140e9565b5b600061475c87828801614336565b945050602061476d87828801614336565b935050604061477e87828801614114565b925050606085013567ffffffffffffffff81111561479f5761479e6140ee565b5b6147ab87828801614706565b91505092959194509250565b600080fd5b600080fd5b60008083601f8401126147d7576147d66145ff565b5b8235905067ffffffffffffffff8111156147f4576147f36147b7565b5b6020830191508360018202830111156148105761480f6147bc565b5b9250929050565b6000806020838503121561482e5761482d6140e9565b5b600083013567ffffffffffffffff81111561484c5761484b6140ee565b5b614858858286016147c1565b92509250509250929050565b61486d816140f3565b82525050565b61487c816141db565b82525050565b60c0820160008201516148986000850182614864565b5060208201516148ab602085018261440a565b5060408201516148be6040850182614864565b5060608201516148d16060850182614873565b5060808201516148e46080850182614873565b5060a08201516148f760a0850182614873565b50505050565b600060c0820190506149126000830184614882565b92915050565b6000806040838503121561492f5761492e6140e9565b5b600061493d85828601614336565b925050602061494e85828601614336565b9150509250929050565b600081519050919050565b600082825260208201905092915050565b6000819050602082019050919050565b60c08201600082015161499a6000850182614864565b5060208201516149ad602085018261440a565b5060408201516149c06040850182614864565b5060608201516149d36060850182614873565b5060808201516149e66080850182614873565b5060a08201516149f960a0850182614873565b50505050565b6000614a0b8383614984565b60c08301905092915050565b6000602082019050919050565b6000614a2f82614958565b614a398185614963565b9350614a4483614974565b8060005b83811015614a75578151614a5c88826149ff565b9750614a6783614a17565b925050600181019050614a48565b5085935050505092915050565b60006020820190508181036000830152614a9c8184614a24565b905092915050565b7f4e487b7100000000000000000000000000000000000000000000000000000000600052602260045260246000fd5b60006002820490506001821680614aeb57607f821691505b602082108103614afe57614afd614aa4565b5b50919050565b7f4552433732313a20617070726f76616c20746f2063757272656e74206f776e6560008201527f7200000000000000000000000000000000000000000000000000000000000000602082015250565b6000614b6060218361421c565b9150614b6b82614b04565b604082019050919050565b60006020820190508181036000830152614b8f81614b53565b9050919050565b7f4552433732313a20617070726f76652063616c6c6572206973206e6f7420746f60008201527f6b656e206f776e6572206f7220617070726f76656420666f7220616c6c000000602082015250565b6000614bf2603d8361421c565b9150614bfd82614b96565b604082019050919050565b60006020820190508181036000830152614c2181614be5565b9050919050565b7f4e6f742061206d696e7465720000000000000000000000000000000000000000600082015250565b6000614c5e600c8361421c565b9150614c6982614c28565b602082019050919050565b60006020820190508181036000830152614c8d81614c51565b9050919050565b7f54686973207469636b65742068617320616c7265616479206265656e2075736560008201527f6400000000000000000000000000000000000000000000000000000000000000602082015250565b6000614cf060218361421c565b9150614cfb82614c94565b604082019050919050565b60006020820190508181036000830152614d1f81614ce3565b9050919050565b7f43616c6c6572206973206e6f742061206d696e74657200000000000000000000600082015250565b6000614d5c60168361421c565b9150614d6782614d26565b602082019050919050565b60006020820190508181036000830152614d8b81614d4f565b9050919050565b7f43616c6c6572206973206e6f7420612077686974656c697374656420636f6e7460008201527f7261637400000000000000000000000000000000000000000000000000000000602082015250565b6000614dee60248361421c565b9150614df982614d92565b604082019050919050565b60006020820190508181036000830152614e1d81614de1565b9050919050565b7f546f6b656e20616c7265616479207374616b6564000000000000000000000000600082015250565b6000614e5a60148361421c565b9150614e6582614e24565b602082019050919050565b60006020820190508181036000830152614e8981614e4d565b9050919050565b7f546f6b656e206973206e6f74207374616b656400000000000000000000000000600082015250565b6000614ec660138361421c565b9150614ed182614e90565b602082019050919050565b60006020820190508181036000830152614ef581614eb9565b9050919050565b7f4552433732313a2063616c6c6572206973206e6f7420746f6b656e206f776e6560008201527f72206f7220617070726f76656400000000000000000000000000000000000000602082015250565b6000614f58602d8361421c565b9150614f6382614efc565b604082019050919050565b60006020820190508181036000830152614f8781614f4b565b9050919050565b7f4552433732313a20696e76616c696420746f6b656e2049440000000000000000600082015250565b6000614fc460188361421c565b9150614fcf82614f8e565b602082019050919050565b60006020820190508181036000830152614ff381614fb7565b9050919050565b7f43616c6c6572206973206e6f74206f776e657200000000000000000000000000600082015250565b600061503060138361421c565b915061503b82614ffa565b602082019050919050565b6000602082019050818103600083015261505f81615023565b9050919050565b7f4e487b7100000000000000000000000000000000000000000000000000000000600052601160045260246000fd5b60006150a0826140f3565b91506150ab836140f3565b92508282026150b9816140f3565b915082820484148315176150d0576150cf615066565b5b5092915050565b7f4e487b7100000000000000000000000000000000000000000000000000000000600052601260045260246000fd5b6000615111826140f3565b915061511c836140f3565b92508261512c5761512b6150d7565b5b828204905092915050565b600081905092915050565b7f393525206f66204e465420726566756e64000000000000000000000000000000600082015250565b6000615178601183615137565b915061518382615142565b601182019050919050565b60006151998261516b565b9150819050919050565b7f4661696c656420746f2073656e64204574686572000000000000000000000000600082015250565b60006151d960148361421c565b91506151e4826151a3565b602082019050919050565b60006020820190508181036000830152615208816151cc565b9050919050565b7f4552433732313a2061646472657373207a65726f206973206e6f74206120766160008201527f6c6964206f776e65720000000000000000000000000000000000000000000000602082015250565b600061526b60298361421c565b91506152768261520f565b604082019050919050565b6000602082019050818103600083015261529a8161525e565b9050919050565b7f596f7520646f6e2774206861766520656e6f756768206d6f6e657920746f206d60008201527f696e740000000000000000000000000000000000000000000000000000000000602082015250565b60006152fd60238361421c565b9150615308826152a1565b604082019050919050565b6000602082019050818103600083015261532c816152f0565b9050919050565b600081905092915050565b600061534982614211565b6153538185615333565b935061536381856020860161422d565b80840191505092915050565b600061537b828561533e565b9150615387828461533e565b91508190509392505050565b600082905092915050565b60008190508160005260206000209050919050565b60006020601f8301049050919050565b600082821b905092915050565b6000600883026154007fffffffffffffffffffffffffffffffffffffffffffffffffffffffffffffffff826153c3565b61540a86836153c3565b95508019841693508086168417925050509392505050565b6000819050919050565b600061544761544261543d846140f3565b615422565b6140f3565b9050919050565b6000819050919050565b6154618361542c565b61547561546d8261544e565b8484546153d0565b825550505050565b600090565b61548a61547d565b615495818484615458565b505050565b5b818110156154b9576154ae600082615482565b60018101905061549b565b5050565b601f8211156154fe576154cf8161539e565b6154d8846153b3565b810160208510156154e7578190505b6154fb6154f3856153b3565b83018261549a565b50505b505050565b600082821c905092915050565b600061552160001984600802615503565b1980831691505092915050565b600061553a8383615510565b9150826002028217905092915050565b6155548383615393565b67ffffffffffffffff81111561556d5761556c614609565b5b6155778254614ad3565b6155828282856154bd565b6000601f8311600181146155b1576000841561559f578287013590505b6155a9858261552e565b865550615611565b601f1984166155bf8661539e565b60005b828110156155e7578489013582556001820191506020850194506020810190506155c2565b868310156156045784890135615600601f891682615510565b8355505b6001600288020188555050505b50505050505050565b7f4f776e61626c653a206e6577206f776e657220697320746865207a65726f206160008201527f6464726573730000000000000000000000000000000000000000000000000000602082015250565b600061567660268361421c565b91506156818261561a565b604082019050919050565b600060208201905081810360008301526156a581615669565b9050919050565b7f4f776e61626c653a2063616c6c6572206973206e6f7420746865206f776e6572600082015250565b60006156e260208361421c565b91506156ed826156ac565b602082019050919050565b60006020820190508181036000830152615711816156d5565b9050919050565b7f4552433732313a207472616e736665722066726f6d20696e636f72726563742060008201527f6f776e6572000000000000000000000000000000000000000000000000000000602082015250565b600061577460258361421c565b915061577f82615718565b604082019050919050565b600060208201905081810360008301526157a381615767565b9050919050565b7f4552433732313a207472616e7366657220746f20746865207a65726f2061646460008201527f7265737300000000000000000000000000000000000000000000000000000000602082015250565b600061580660248361421c565b9150615811826157aa565b604082019050919050565b60006020820190508181036000830152615835816157f9565b9050919050565b6000615847826140f3565b9150615852836140f3565b925082820390508181111561586a57615869615066565b5b92915050565b7f4e487b7100000000000000000000000000000000000000000000000000000000600052603260045260246000fd5b60006158aa826140f3565b91506158b5836140f3565b92508282019050808211156158cd576158cc615066565b5b92915050565b60006158de826140f3565b91507fffffffffffffffffffffffffffffffffffffffffffffffffffffffffffffffff82036159105761590f615066565b5b600182019050919050565b7f4e487b7100000000000000000000000000000000000000000000000000000000600052603160045260246000fd5b7f4552433732313a20617070726f766520746f2063616c6c657200000000000000600082015250565b600061598060198361421c565b915061598b8261594a565b602082019050919050565b600060208201905081810360008301526159af81615973565b9050919050565b7f4552433732313a206d696e7420746f20746865207a65726f2061646472657373600082015250565b60006159ec60208361421c565b91506159f7826159b6565b602082019050919050565b60006020820190508181036000830152615a1b816159df565b9050919050565b7f4552433732313a20746f6b656e20616c7265616479206d696e74656400000000600082015250565b6000615a58601c8361421c565b9150615a6382615a22565b602082019050919050565b60006020820190508181036000830152615a8781615a4b565b9050919050565b7f45524337323155524953746f726167653a2055524920736574206f66206e6f6e60008201527f6578697374656e7420746f6b656e000000000000000000000000000000000000602082015250565b6000615aea602e8361421c565b9150615af582615a8e565b604082019050919050565b60006020820190508181036000830152615b1981615add565b9050919050565b615b2982614211565b67ffffffffffffffff811115615b4257615b41614609565b5b615b4c8254614ad3565b615b578282856154bd565b600060209050601f831160018114615b8a5760008415615b78578287015190505b615b82858261552e565b865550615bea565b601f198416615b988661539e565b60005b82811015615bc057848901518255600182019150602085019450602081019050615b9b565b86831015615bdd5784890151615bd9601f891682615510565b8355505b6001600288020188555050505b505050505050565b7f4552433732313a207472616e7366657220746f206e6f6e20455243373231526560008201527f63656976657220696d706c656d656e7465720000000000000000000000000000602082015250565b6000615c4e60328361421c565b9150615c5982615bf2565b604082019050919050565b60006020820190508181036000830152615c7d81615c41565b9050919050565b7f596f752063616e6e6f74207472616e736665722061207573656420746f6b656e600082015250565b6000615cba60208361421c565b9150615cc582615c84565b602082019050919050565b60006020820190508181036000830152615ce981615cad565b9050919050565b7f596f752063616e6e6f74207472616e736665722061207374616b656420746f6b60008201527f656e000000000000000000000000000000000000000000000000000000000000602082015250565b6000615d4c60228361421c565b9150615d5782615cf0565b604082019050919050565b60006020820190508181036000830152615d7b81615d3f565b9050919050565b600081519050919050565b600082825260208201905092915050565b6000615da982615d82565b615db38185615d8d565b9350615dc381856020860161422d565b615dcc81614257565b840191505092915050565b6000608082019050615dec60008301876142f5565b615df960208301866142f5565b615e066040830185614569565b8181036060830152615e188184615d9e565b905095945050505050565b600081519050615e3281614182565b92915050565b600060208284031215615e4e57615e4d6140e9565b5b6000615e5c84828501615e23565b9150509291505056fea2646970667358221220211ad5fd76fcdb74ea20ab7241dc837832608ceda68969a094cc94b3ed9dd82e64736f6c63430008120033",
  "immutableReferences": {},
  "source": "// SPDX-License-Identifier: MIT\npragma solidity >=0.4.22 <0.9.0;\n\nimport '@openzeppelin/contracts/token/ERC721/ERC721.sol';\nimport '@openzeppelin/contracts/token/ERC721/extensions/ERC721URIStorage.sol';\nimport '@openzeppelin/contracts/utils/Counters.sol';\nimport '@openzeppelin/contracts/access/Ownable.sol';\n\n// ADD 5% Royalty\n// ADD STATIC Variable method\n// Attention royalty check par rapport  blur.\n\n\n\ncontract MiningDAOInvestTickets is ERC721URIStorage, Ownable {\n    using Counters for Counters.Counter;\n\n    struct Ticket {\n        uint tokenId;\n        address ticketOwner;\n        uint gweiValue;\n        bool isUsed;\n        bool isMinted;\n        bool isStaked;\n    }\n\n    event TicketMinted(Ticket ticket);\n    event TicketRefund(Ticket ticket);\n    event TicketBurned(Ticket ticket);\n    event TicketStaked(Ticket ticket);\n    event TicketUnstaked(Ticket ticket);\n\n    Counters.Counter private _tokenIds;\n    uint private mintPriceETH = 0.001 ether;\n    address private DAOAddress;\n    string private tokenUri;\n    mapping (address => Ticket[]) private ticketsByAddress;\n    mapping (address => Ticket[]) private usableTicketsByAddress;\n    mapping (uint => Ticket) private ticketByTokenId;\n    mapping (address => bool) private whitelistedOfferContract;\n    address[] private whitelistedList;\n\n\n\n    constructor(address _DAOAdress, string memory _tokenURI) ERC721(\"Mining DAO - Investment Tickets\", \"MDAO\") {\n        DAOAddress = _DAOAdress;\n        tokenUri = _tokenURI;\n    }\n\n    function getWhitelistedList() public view returns (address[] memory) {\n        return whitelistedList;\n    }\n\n    function whitelist(address _contract) public onlyOwner{\n        whitelistedOfferContract[_contract] = true;\n        whitelistedList.push(_contract);\n    }\n\n    function unWhitelist(address _contract) public onlyOwner{\n        removeFromWhitelist(_contract);\n    }\n\n    function getTicketsByAddress(address _address) public view returns (Ticket[] memory) {\n        return ticketsByAddress[_address];\n    }\n\n    function getTicketByTokenId(uint _tokenId) public view returns (Ticket memory) {\n        return ticketByTokenId[_tokenId];\n    }\n\n    function getTotalNFT() public view returns (uint256) {\n        return _tokenIds.current();\n    }\n\n    function getTokenUri() public view returns (string memory) {\n        return tokenUri;\n    }\n\n    function setTokenURI(string calldata _tokenUri) public onlyOwner {\n        tokenUri = _tokenUri;\n    }\n\n    function getMintPriceETH() public view returns (uint){\n        return mintPriceETH;\n    }\n\n    function setEthPrice(uint _price) public onlyOwner {\n        mintPriceETH = _price;\n    }\n\n    function  mintTicketETH(address _customer) public payable returns (uint) {\n        require(msg.value >= mintPriceETH, \"You don't have enough money to mint\");\n\n        _tokenIds.increment();\n        uint newTokenId = _tokenIds.current();\n        Ticket memory ticket = Ticket(newTokenId, _customer, mintPriceETH, false, true, false);\n        ticketsByAddress[_customer].push(ticket);\n        ticketByTokenId[newTokenId] = ticket;\n\n        _mint(_customer, newTokenId);\n        _setTokenURI(newTokenId, tokenUri);\n\n        emit TicketMinted(ticket);\n        return ticket.tokenId;\n    }\n\n    function stakeTicket(address _origin, uint _tokenId) public {\n        Ticket memory ticket = ticketByTokenId[_tokenId];\n        require(ticket.isMinted, \"Not a minter\");\n        require(!ticket.isUsed, \"This ticket has already been used\");\n        require(ticket.ticketOwner == _origin, \"Caller is not a minter\");\n        require(whitelistedOfferContract[msg.sender], \"Caller is not a whitelisted contract\");\n        require(!ticket.isStaked, \"Token already staked\");\n\n        ticket.isStaked = true;\n        ticketByTokenId[_tokenId] = ticket;\n\n        emit TicketStaked(ticket);\n    }\n\n    function unstakeTicket(address _origin, uint _tokenId) public {\n        Ticket memory ticket = ticketByTokenId[_tokenId];\n        require(ticket.isMinted, \"Not a minter\");\n        require(!ticket.isUsed, \"This ticket has already been used\");\n        require(ticket.ticketOwner == _origin, \"Caller is not a minter\");\n        require(whitelistedOfferContract[msg.sender], \"Caller is not a whitelisted contract\");\n        require(ticket.isStaked, \"Token is not staked\");\n\n        ticket.isStaked = false;\n        ticketByTokenId[_tokenId] = ticket;\n\n        emit TicketUnstaked(ticket);\n    }\n\n    function useTicket(address _origin, uint _tokenId) public {\n        Ticket memory ticket = ticketByTokenId[_tokenId];\n        require(ticket.isMinted, \"Not a minter\");\n        require(!ticket.isUsed, \"This ticket has already been used\");\n        require(ticket.ticketOwner == _origin, \"Caller is not a minter\");\n        require(whitelistedOfferContract[msg.sender], \"Caller is not a whitelisted contract\");\n        require(ticket.isStaked, \"Token is not staked\");\n\n        _burn(_tokenId);\n        ticket.isUsed = true;\n        ticketByTokenId[_tokenId] = ticket;\n        removeFromList(msg.sender, _tokenId);\n\n        emit TicketBurned(ticket);\n    }\n\n    function refundTicket(address payable _address, uint _tokenId) public {\n        Ticket memory ticket = ticketByTokenId[_tokenId];\n        require(ticket.isMinted, \"Not a minter\");\n        require(!ticket.isUsed, \"This ticket has already been used\");\n        require(ticket.ticketOwner == msg.sender, \"Caller is not owner\");\n\n        uint residualValue = (ticket.gweiValue * 95) / 100;\n\n        (bool sent, bytes memory data) = _address.call{value: residualValue}(\"95% of NFT refund\");\n        require(sent, \"Failed to send Ether\");\n        _burn(_tokenId);\n\n        ticket.isUsed = true;\n        ticketByTokenId[_tokenId] = ticket;\n        removeFromList(_address, _tokenId);\n\n        emit TicketBurned(ticket);\n        emit TicketRefund(ticket);\n    }\n\n    function removeFromList(address _address, uint _tokenId) private {\n        Ticket[] storage tickets = ticketsByAddress[_address];\n        uint extraIndex = 0;\n        for(uint i = 0; i < tickets.length-1; i++){\n            if(tickets[i].tokenId == _tokenId) {\n                extraIndex = 1;\n            }\n            tickets[i] = tickets[i+extraIndex];\n        }\n        tickets.pop();\n        ticketsByAddress[_address] = tickets;\n    }\n\n    function removeFromWhitelist(address _contract) internal {\n        uint extraIndex = 0;\n        for(uint i = 0; i < whitelistedList.length-1; i++){\n            if(whitelistedList[i] == _contract) {\n                extraIndex = 1;\n            }\n            whitelistedList[i] = whitelistedList[i+extraIndex];\n        }\n        whitelistedList.pop();\n        whitelistedOfferContract[_contract] = false;\n    }\n\n    function _beforeTokenTransfer(address from, address to, uint256 tokenId, uint256 batchSize) internal virtual override {\n        super._beforeTokenTransfer(from, to, tokenId, batchSize);\n        require(!ticketByTokenId[tokenId].isUsed, \"You cannot transfer a used token\");\n        require(!ticketByTokenId[tokenId].isStaked, \"You cannot transfer a staked token\");\n    }\n\n    function safeTransferFrom(address from, address to, uint256 tokenId) public virtual override {\n        super.safeTransferFrom(from, to, tokenId);\n        ticketByTokenId[tokenId].ticketOwner = to;\n    }\n\n}",
  "sourcePath": "/Users/dylandivito/DEV/Solidity/Mining-DAO/truffle/contracts/MiningDAOInvestTickets.sol",
  "compiler": {
    "name": "solc",
    "version": "0.8.18+commit.87f61d96.Emscripten.clang"
  },
  "schemaVersion": "3.4.11",
  "updatedAt": "2023-04-09T08:40:49.300Z",
  "networkType": "ethereum",
  "devdoc": {
    "events": {
      "Approval(address,address,uint256)": {
        "details": "Emitted when `owner` enables `approved` to manage the `tokenId` token."
      },
      "ApprovalForAll(address,address,bool)": {
        "details": "Emitted when `owner` enables or disables (`approved`) `operator` to manage all of its assets."
      },
      "Transfer(address,address,uint256)": {
        "details": "Emitted when `tokenId` token is transferred from `from` to `to`."
      }
    },
    "kind": "dev",
    "methods": {
      "approve(address,uint256)": {
        "details": "See {IERC721-approve}."
      },
      "balanceOf(address)": {
        "details": "See {IERC721-balanceOf}."
      },
      "getApproved(uint256)": {
        "details": "See {IERC721-getApproved}."
      },
      "isApprovedForAll(address,address)": {
        "details": "See {IERC721-isApprovedForAll}."
      },
      "name()": {
        "details": "See {IERC721Metadata-name}."
      },
      "owner()": {
        "details": "Returns the address of the current owner."
      },
      "ownerOf(uint256)": {
        "details": "See {IERC721-ownerOf}."
      },
      "renounceOwnership()": {
        "details": "Leaves the contract without owner. It will not be possible to call `onlyOwner` functions anymore. Can only be called by the current owner. NOTE: Renouncing ownership will leave the contract without an owner, thereby removing any functionality that is only available to the owner."
      },
      "safeTransferFrom(address,address,uint256)": {
        "details": "See {IERC721-safeTransferFrom}."
      },
      "safeTransferFrom(address,address,uint256,bytes)": {
        "details": "See {IERC721-safeTransferFrom}."
      },
      "setApprovalForAll(address,bool)": {
        "details": "See {IERC721-setApprovalForAll}."
      },
      "supportsInterface(bytes4)": {
        "details": "See {IERC165-supportsInterface}."
      },
      "symbol()": {
        "details": "See {IERC721Metadata-symbol}."
      },
      "tokenURI(uint256)": {
        "details": "See {IERC721Metadata-tokenURI}."
      },
      "transferFrom(address,address,uint256)": {
        "details": "See {IERC721-transferFrom}."
      },
      "transferOwnership(address)": {
        "details": "Transfers ownership of the contract to a new account (`newOwner`). Can only be called by the current owner."
      }
    },
    "version": 1
  },
  "userdoc": {
    "kind": "user",
    "methods": {},
    "version": 1
  }
}