{
  "contractName": "MiningDAOCommercialOffer",
  "abi": [
    {
      "inputs": [
        {
          "internalType": "address",
          "name": "_InvestTicketsContractAddress",
          "type": "address"
        },
        {
          "internalType": "string",
          "name": "_offerName",
          "type": "string"
        },
        {
          "internalType": "string",
          "name": "_ref",
          "type": "string"
        },
        {
          "internalType": "string",
          "name": "_collectionName",
          "type": "string"
        },
        {
          "internalType": "address",
          "name": "_DAOWallet",
          "type": "address"
        },
        {
          "internalType": "address[]",
          "name": "_DAOTeamWallets",
          "type": "address[]"
        },
        {
          "internalType": "address",
          "name": "_treasuryWallet",
          "type": "address"
        },
        {
          "internalType": "uint256",
          "name": "_minimumTickets",
          "type": "uint256"
        },
        {
          "internalType": "uint256",
          "name": "_maximumTickets",
          "type": "uint256"
        },
        {
          "internalType": "uint256",
          "name": "_lockTimeLimit",
          "type": "uint256"
        }
      ],
      "stateMutability": "nonpayable",
      "type": "constructor"
    },
    {
      "anonymous": false,
      "inputs": [
        {
          "indexed": true,
          "internalType": "address",
          "name": "owner",
          "type": "address"
        },
        {
          "indexed": true,
          "internalType": "address",
          "name": "approved",
          "type": "address"
        },
        {
          "indexed": true,
          "internalType": "uint256",
          "name": "tokenId",
          "type": "uint256"
        }
      ],
      "name": "Approval",
      "type": "event"
    },
    {
      "anonymous": false,
      "inputs": [
        {
          "indexed": true,
          "internalType": "address",
          "name": "owner",
          "type": "address"
        },
        {
          "indexed": true,
          "internalType": "address",
          "name": "operator",
          "type": "address"
        },
        {
          "indexed": false,
          "internalType": "bool",
          "name": "approved",
          "type": "bool"
        }
      ],
      "name": "ApprovalForAll",
      "type": "event"
    },
    {
      "anonymous": false,
      "inputs": [
        {
          "components": [
            {
              "internalType": "address",
              "name": "investTicketOwner",
              "type": "address"
            },
            {
              "internalType": "uint256",
              "name": "tokenId",
              "type": "uint256"
            },
            {
              "internalType": "bool",
              "name": "isStaked",
              "type": "bool"
            }
          ],
          "indexed": false,
          "internalType": "struct MiningDAOCommercialOffer.InvestTicket",
          "name": "ticket",
          "type": "tuple"
        }
      ],
      "name": "InvestTicketStaked",
      "type": "event"
    },
    {
      "anonymous": false,
      "inputs": [
        {
          "components": [
            {
              "internalType": "address",
              "name": "investTicketOwner",
              "type": "address"
            },
            {
              "internalType": "uint256",
              "name": "tokenId",
              "type": "uint256"
            },
            {
              "internalType": "bool",
              "name": "isStaked",
              "type": "bool"
            }
          ],
          "indexed": false,
          "internalType": "struct MiningDAOCommercialOffer.InvestTicket",
          "name": "ticket",
          "type": "tuple"
        }
      ],
      "name": "InvestTicketUnstaked",
      "type": "event"
    },
    {
      "anonymous": false,
      "inputs": [
        {
          "indexed": true,
          "internalType": "address",
          "name": "previousOwner",
          "type": "address"
        },
        {
          "indexed": true,
          "internalType": "address",
          "name": "newOwner",
          "type": "address"
        }
      ],
      "name": "OwnershipTransferred",
      "type": "event"
    },
    {
      "anonymous": false,
      "inputs": [
        {
          "components": [
            {
              "internalType": "address",
              "name": "ticketOwner",
              "type": "address"
            },
            {
              "internalType": "uint256",
              "name": "power",
              "type": "uint256"
            },
            {
              "internalType": "string",
              "name": "tokenUri",
              "type": "string"
            },
            {
              "internalType": "uint256",
              "name": "tokenId",
              "type": "uint256"
            },
            {
              "components": [
                {
                  "internalType": "uint256",
                  "name": "_value",
                  "type": "uint256"
                }
              ],
              "internalType": "struct Counters.Counter",
              "name": "unclaimedMonths",
              "type": "tuple"
            },
            {
              "internalType": "uint256",
              "name": "unclaimedValue",
              "type": "uint256"
            },
            {
              "internalType": "uint256",
              "name": "timeOfLastRewardUpdate",
              "type": "uint256"
            }
          ],
          "indexed": false,
          "internalType": "struct MiningDAOCommercialOffer.OfferTicket",
          "name": "ticket",
          "type": "tuple"
        }
      ],
      "name": "RewardClaimed",
      "type": "event"
    },
    {
      "anonymous": false,
      "inputs": [
        {
          "indexed": true,
          "internalType": "address",
          "name": "from",
          "type": "address"
        },
        {
          "indexed": true,
          "internalType": "address",
          "name": "to",
          "type": "address"
        },
        {
          "indexed": true,
          "internalType": "uint256",
          "name": "tokenId",
          "type": "uint256"
        }
      ],
      "name": "Transfer",
      "type": "event"
    },
    {
      "anonymous": false,
      "inputs": [
        {
          "indexed": false,
          "internalType": "enum MiningDAOCommercialOffer.WorkflowStatus",
          "name": "previous",
          "type": "uint8"
        },
        {
          "indexed": false,
          "internalType": "enum MiningDAOCommercialOffer.WorkflowStatus",
          "name": "current",
          "type": "uint8"
        }
      ],
      "name": "WorkflowStatusChanged",
      "type": "event"
    },
    {
      "inputs": [
        {
          "internalType": "address",
          "name": "to",
          "type": "address"
        },
        {
          "internalType": "uint256",
          "name": "tokenId",
          "type": "uint256"
        }
      ],
      "name": "approve",
      "outputs": [],
      "stateMutability": "nonpayable",
      "type": "function"
    },
    {
      "inputs": [
        {
          "internalType": "address",
          "name": "owner",
          "type": "address"
        }
      ],
      "name": "balanceOf",
      "outputs": [
        {
          "internalType": "uint256",
          "name": "",
          "type": "uint256"
        }
      ],
      "stateMutability": "view",
      "type": "function",
      "constant": true
    },
    {
      "inputs": [
        {
          "internalType": "uint256",
          "name": "tokenId",
          "type": "uint256"
        }
      ],
      "name": "getApproved",
      "outputs": [
        {
          "internalType": "address",
          "name": "",
          "type": "address"
        }
      ],
      "stateMutability": "view",
      "type": "function",
      "constant": true
    },
    {
      "inputs": [
        {
          "internalType": "address",
          "name": "owner",
          "type": "address"
        },
        {
          "internalType": "address",
          "name": "operator",
          "type": "address"
        }
      ],
      "name": "isApprovedForAll",
      "outputs": [
        {
          "internalType": "bool",
          "name": "",
          "type": "bool"
        }
      ],
      "stateMutability": "view",
      "type": "function",
      "constant": true
    },
    {
      "inputs": [],
      "name": "name",
      "outputs": [
        {
          "internalType": "string",
          "name": "",
          "type": "string"
        }
      ],
      "stateMutability": "view",
      "type": "function",
      "constant": true
    },
    {
      "inputs": [
        {
          "internalType": "address",
          "name": "",
          "type": "address"
        }
      ],
      "name": "offerTicketOwners",
      "outputs": [
        {
          "internalType": "address",
          "name": "ticketOwner",
          "type": "address"
        },
        {
          "internalType": "uint256",
          "name": "power",
          "type": "uint256"
        },
        {
          "internalType": "string",
          "name": "tokenUri",
          "type": "string"
        },
        {
          "internalType": "uint256",
          "name": "tokenId",
          "type": "uint256"
        },
        {
          "components": [
            {
              "internalType": "uint256",
              "name": "_value",
              "type": "uint256"
            }
          ],
          "internalType": "struct Counters.Counter",
          "name": "unclaimedMonths",
          "type": "tuple"
        },
        {
          "internalType": "uint256",
          "name": "unclaimedValue",
          "type": "uint256"
        },
        {
          "internalType": "uint256",
          "name": "timeOfLastRewardUpdate",
          "type": "uint256"
        }
      ],
      "stateMutability": "view",
      "type": "function",
      "constant": true
    },
    {
      "inputs": [],
      "name": "owner",
      "outputs": [
        {
          "internalType": "address",
          "name": "",
          "type": "address"
        }
      ],
      "stateMutability": "view",
      "type": "function",
      "constant": true
    },
    {
      "inputs": [
        {
          "internalType": "uint256",
          "name": "tokenId",
          "type": "uint256"
        }
      ],
      "name": "ownerOf",
      "outputs": [
        {
          "internalType": "address",
          "name": "",
          "type": "address"
        }
      ],
      "stateMutability": "view",
      "type": "function",
      "constant": true
    },
    {
      "inputs": [],
      "name": "renounceOwnership",
      "outputs": [],
      "stateMutability": "nonpayable",
      "type": "function"
    },
    {
      "inputs": [
        {
          "internalType": "address",
          "name": "from",
          "type": "address"
        },
        {
          "internalType": "address",
          "name": "to",
          "type": "address"
        },
        {
          "internalType": "uint256",
          "name": "tokenId",
          "type": "uint256"
        }
      ],
      "name": "safeTransferFrom",
      "outputs": [],
      "stateMutability": "nonpayable",
      "type": "function"
    },
    {
      "inputs": [
        {
          "internalType": "address",
          "name": "from",
          "type": "address"
        },
        {
          "internalType": "address",
          "name": "to",
          "type": "address"
        },
        {
          "internalType": "uint256",
          "name": "tokenId",
          "type": "uint256"
        },
        {
          "internalType": "bytes",
          "name": "data",
          "type": "bytes"
        }
      ],
      "name": "safeTransferFrom",
      "outputs": [],
      "stateMutability": "nonpayable",
      "type": "function"
    },
    {
      "inputs": [
        {
          "internalType": "address",
          "name": "operator",
          "type": "address"
        },
        {
          "internalType": "bool",
          "name": "approved",
          "type": "bool"
        }
      ],
      "name": "setApprovalForAll",
      "outputs": [],
      "stateMutability": "nonpayable",
      "type": "function"
    },
    {
      "inputs": [
        {
          "internalType": "bytes4",
          "name": "interfaceId",
          "type": "bytes4"
        }
      ],
      "name": "supportsInterface",
      "outputs": [
        {
          "internalType": "bool",
          "name": "",
          "type": "bool"
        }
      ],
      "stateMutability": "view",
      "type": "function",
      "constant": true
    },
    {
      "inputs": [],
      "name": "symbol",
      "outputs": [
        {
          "internalType": "string",
          "name": "",
          "type": "string"
        }
      ],
      "stateMutability": "view",
      "type": "function",
      "constant": true
    },
    {
      "inputs": [
        {
          "internalType": "uint256",
          "name": "tokenId",
          "type": "uint256"
        }
      ],
      "name": "tokenURI",
      "outputs": [
        {
          "internalType": "string",
          "name": "",
          "type": "string"
        }
      ],
      "stateMutability": "view",
      "type": "function",
      "constant": true
    },
    {
      "inputs": [
        {
          "internalType": "address",
          "name": "from",
          "type": "address"
        },
        {
          "internalType": "address",
          "name": "to",
          "type": "address"
        },
        {
          "internalType": "uint256",
          "name": "tokenId",
          "type": "uint256"
        }
      ],
      "name": "transferFrom",
      "outputs": [],
      "stateMutability": "nonpayable",
      "type": "function"
    },
    {
      "inputs": [
        {
          "internalType": "address",
          "name": "newOwner",
          "type": "address"
        }
      ],
      "name": "transferOwnership",
      "outputs": [],
      "stateMutability": "nonpayable",
      "type": "function"
    },
    {
      "inputs": [],
      "name": "workflowStatus",
      "outputs": [
        {
          "internalType": "enum MiningDAOCommercialOffer.WorkflowStatus",
          "name": "",
          "type": "uint8"
        }
      ],
      "stateMutability": "view",
      "type": "function",
      "constant": true
    },
    {
      "inputs": [],
      "name": "getOfferDetail",
      "outputs": [
        {
          "components": [
            {
              "internalType": "string",
              "name": "offerName",
              "type": "string"
            },
            {
              "internalType": "string",
              "name": "ref",
              "type": "string"
            },
            {
              "internalType": "uint256",
              "name": "minimumTickets",
              "type": "uint256"
            },
            {
              "internalType": "uint256",
              "name": "maximumTickets",
              "type": "uint256"
            },
            {
              "internalType": "uint256",
              "name": "ticketsCounter",
              "type": "uint256"
            },
            {
              "internalType": "uint256",
              "name": "lockTimeLimit",
              "type": "uint256"
            }
          ],
          "internalType": "struct MiningDAOCommercialOffer.OfferDetail",
          "name": "",
          "type": "tuple"
        }
      ],
      "stateMutability": "view",
      "type": "function",
      "constant": true
    },
    {
      "inputs": [
        {
          "internalType": "uint256",
          "name": "_tokenId",
          "type": "uint256"
        }
      ],
      "name": "getStakedTicket",
      "outputs": [
        {
          "components": [
            {
              "internalType": "uint256",
              "name": "previousIndex",
              "type": "uint256"
            },
            {
              "components": [
                {
                  "internalType": "address",
                  "name": "investTicketOwner",
                  "type": "address"
                },
                {
                  "internalType": "uint256",
                  "name": "tokenId",
                  "type": "uint256"
                },
                {
                  "internalType": "bool",
                  "name": "isStaked",
                  "type": "bool"
                }
              ],
              "internalType": "struct MiningDAOCommercialOffer.InvestTicket",
              "name": "ticket",
              "type": "tuple"
            },
            {
              "internalType": "uint256",
              "name": "nextIndex",
              "type": "uint256"
            }
          ],
          "internalType": "struct MiningDAOCommercialOffer.LinkedListInvestTicket",
          "name": "",
          "type": "tuple"
        }
      ],
      "stateMutability": "view",
      "type": "function",
      "constant": true
    },
    {
      "inputs": [],
      "name": "getTotalStakedTicket",
      "outputs": [
        {
          "internalType": "uint256",
          "name": "",
          "type": "uint256"
        }
      ],
      "stateMutability": "view",
      "type": "function",
      "constant": true
    },
    {
      "inputs": [],
      "name": "getStakedList",
      "outputs": [
        {
          "components": [
            {
              "internalType": "address",
              "name": "investTicketOwner",
              "type": "address"
            },
            {
              "internalType": "uint256",
              "name": "tokenId",
              "type": "uint256"
            },
            {
              "internalType": "bool",
              "name": "isStaked",
              "type": "bool"
            }
          ],
          "internalType": "struct MiningDAOCommercialOffer.InvestTicket[]",
          "name": "",
          "type": "tuple[]"
        }
      ],
      "stateMutability": "view",
      "type": "function",
      "constant": true
    },
    {
      "inputs": [
        {
          "internalType": "uint256",
          "name": "_tokenId",
          "type": "uint256"
        }
      ],
      "name": "stakeTicket",
      "outputs": [],
      "stateMutability": "nonpayable",
      "type": "function"
    },
    {
      "inputs": [
        {
          "internalType": "uint256",
          "name": "_tokenId",
          "type": "uint256"
        }
      ],
      "name": "unstakeTicket",
      "outputs": [],
      "stateMutability": "nonpayable",
      "type": "function"
    },
    {
      "inputs": [],
      "name": "DAOTeamSignatureRequest",
      "outputs": [],
      "stateMutability": "nonpayable",
      "type": "function"
    },
    {
      "inputs": [
        {
          "components": [
            {
              "internalType": "address",
              "name": "ticketOwner",
              "type": "address"
            },
            {
              "internalType": "uint256",
              "name": "power",
              "type": "uint256"
            },
            {
              "internalType": "string",
              "name": "tokenUri",
              "type": "string"
            }
          ],
          "internalType": "struct MiningDAOCommercialOffer.OfferTicketProps[]",
          "name": "_offerTicketData",
          "type": "tuple[]"
        },
        {
          "internalType": "uint256",
          "name": "totalThPower",
          "type": "uint256"
        }
      ],
      "name": "generateOfferNFT",
      "outputs": [],
      "stateMutability": "nonpayable",
      "type": "function"
    },
    {
      "inputs": [],
      "name": "mintTicketRegistrationStarted",
      "outputs": [],
      "stateMutability": "nonpayable",
      "type": "function"
    },
    {
      "inputs": [],
      "name": "checkLockTimeExpired",
      "outputs": [],
      "stateMutability": "nonpayable",
      "type": "function"
    }
  ],
  "bytecode": "0x60806040523480156200001157600080fd5b5060405162006aa738038062006aa7833981810160405281019062000037919062000727565b868881600090816200004a919062000ada565b5080600190816200005c919062000ada565b5050506200007f620000736200029d60201b60201c565b620002a560201b60201c565b600160088190555089600960006101000a81548173ffffffffffffffffffffffffffffffffffffffff021916908373ffffffffffffffffffffffffffffffffffffffff16021790555088600d9081620000d9919062000ada565b5087600e9081620000eb919062000ada565b5085600a60006101000a81548173ffffffffffffffffffffffffffffffffffffffff021916908373ffffffffffffffffffffffffffffffffffffffff16021790555084600b9080519060200190620001459291906200036b565b5083600c60006101000a81548173ffffffffffffffffffffffffffffffffffffffff021916908373ffffffffffffffffffffffffffffffffffffffff1602179055508260118190555081601281905550806014819055506001600f60008873ffffffffffffffffffffffffffffffffffffffff1673ffffffffffffffffffffffffffffffffffffffff16815260200190815260200160002060006101000a81548160ff02191690831515021790555060005b85518110156200028c576001600f60008884815181106200021d576200021c62000bc1565b5b602002602001015173ffffffffffffffffffffffffffffffffffffffff1673ffffffffffffffffffffffffffffffffffffffff16815260200190815260200160002060006101000a81548160ff0219169083151502179055508080620002839062000c1f565b915050620001f7565b505050505050505050505062000c6c565b600033905090565b6000600760009054906101000a900473ffffffffffffffffffffffffffffffffffffffff16905081600760006101000a81548173ffffffffffffffffffffffffffffffffffffffff021916908373ffffffffffffffffffffffffffffffffffffffff1602179055508173ffffffffffffffffffffffffffffffffffffffff168173ffffffffffffffffffffffffffffffffffffffff167f8be0079c531659141344cd1fd0a4f28419497f9722a3daafe3b4186f6b6457e060405160405180910390a35050565b828054828255906000526020600020908101928215620003e7579160200282015b82811115620003e65782518260006101000a81548173ffffffffffffffffffffffffffffffffffffffff021916908373ffffffffffffffffffffffffffffffffffffffff160217905550916020019190600101906200038c565b5b509050620003f69190620003fa565b5090565b5b8082111562000415576000816000905550600101620003fb565b5090565b6000604051905090565b600080fd5b600080fd5b600073ffffffffffffffffffffffffffffffffffffffff82169050919050565b60006200045a826200042d565b9050919050565b6200046c816200044d565b81146200047857600080fd5b50565b6000815190506200048c8162000461565b92915050565b600080fd5b600080fd5b6000601f19601f8301169050919050565b7f4e487b7100000000000000000000000000000000000000000000000000000000600052604160045260246000fd5b620004e7826200049c565b810181811067ffffffffffffffff82111715620005095762000508620004ad565b5b80604052505050565b60006200051e62000419565b90506200052c8282620004dc565b919050565b600067ffffffffffffffff8211156200054f576200054e620004ad565b5b6200055a826200049c565b9050602081019050919050565b60005b83811015620005875780820151818401526020810190506200056a565b60008484015250505050565b6000620005aa620005a48462000531565b62000512565b905082815260208101848484011115620005c957620005c862000497565b5b620005d684828562000567565b509392505050565b600082601f830112620005f657620005f562000492565b5b81516200060884826020860162000593565b91505092915050565b600067ffffffffffffffff8211156200062f576200062e620004ad565b5b602082029050602081019050919050565b600080fd5b60006200065c620006568462000611565b62000512565b9050808382526020820190506020840283018581111562000682576200068162000640565b5b835b81811015620006af57806200069a88826200047b565b84526020840193505060208101905062000684565b5050509392505050565b600082601f830112620006d157620006d062000492565b5b8151620006e384826020860162000645565b91505092915050565b6000819050919050565b6200070181620006ec565b81146200070d57600080fd5b50565b6000815190506200072181620006f6565b92915050565b6000806000806000806000806000806101408b8d0312156200074e576200074d62000423565b5b60006200075e8d828e016200047b565b9a505060208b015167ffffffffffffffff81111562000782576200078162000428565b5b620007908d828e01620005de565b99505060408b015167ffffffffffffffff811115620007b457620007b362000428565b5b620007c28d828e01620005de565b98505060608b015167ffffffffffffffff811115620007e657620007e562000428565b5b620007f48d828e01620005de565b9750506080620008078d828e016200047b565b96505060a08b015167ffffffffffffffff8111156200082b576200082a62000428565b5b620008398d828e01620006b9565b95505060c06200084c8d828e016200047b565b94505060e06200085f8d828e0162000710565b935050610100620008738d828e0162000710565b925050610120620008878d828e0162000710565b9150509295989b9194979a5092959850565b600081519050919050565b7f4e487b7100000000000000000000000000000000000000000000000000000000600052602260045260246000fd5b60006002820490506001821680620008ec57607f821691505b602082108103620009025762000901620008a4565b5b50919050565b60008190508160005260206000209050919050565b60006020601f8301049050919050565b600082821b905092915050565b6000600883026200096c7fffffffffffffffffffffffffffffffffffffffffffffffffffffffffffffffff826200092d565b6200097886836200092d565b95508019841693508086168417925050509392505050565b6000819050919050565b6000620009bb620009b5620009af84620006ec565b62000990565b620006ec565b9050919050565b6000819050919050565b620009d7836200099a565b620009ef620009e682620009c2565b8484546200093a565b825550505050565b600090565b62000a06620009f7565b62000a13818484620009cc565b505050565b5b8181101562000a3b5762000a2f600082620009fc565b60018101905062000a19565b5050565b601f82111562000a8a5762000a548162000908565b62000a5f846200091d565b8101602085101562000a6f578190505b62000a8762000a7e856200091d565b83018262000a18565b50505b505050565b600082821c905092915050565b600062000aaf6000198460080262000a8f565b1980831691505092915050565b600062000aca838362000a9c565b9150826002028217905092915050565b62000ae58262000899565b67ffffffffffffffff81111562000b015762000b00620004ad565b5b62000b0d8254620008d3565b62000b1a82828562000a3f565b600060209050601f83116001811462000b52576000841562000b3d578287015190505b62000b49858262000abc565b86555062000bb9565b601f19841662000b628662000908565b60005b8281101562000b8c5784890151825560018201915060208501945060208101905062000b65565b8683101562000bac578489015162000ba8601f89168262000a9c565b8355505b6001600288020188555050505b505050505050565b7f4e487b7100000000000000000000000000000000000000000000000000000000600052603260045260246000fd5b7f4e487b7100000000000000000000000000000000000000000000000000000000600052601160045260246000fd5b600062000c2c82620006ec565b91507fffffffffffffffffffffffffffffffffffffffffffffffffffffffffffffffff820362000c615762000c6062000bf0565b5b600182019050919050565b615e2b8062000c7c6000396000f3fe608060405234801561001057600080fd5b50600436106101c45760003560e01c80637f36655d116100f9578063a22cb46511610097578063e985e9c511610071578063e985e9c5146104ab578063eb5e459f146104db578063f0cf628b146104f9578063f2fde38b14610529576101c4565b8063a22cb46514610443578063b88d4fde1461045f578063c87b56dd1461047b576101c4565b806389834083116100d357806389834083146103cd5780638da5cb5b146103e957806395d89b4114610407578063a1edffa214610425576101c4565b80637f36655d14610389578063829b4663146103a557806388f833e0146103af576101c4565b806342842e0e1161016657806370a082311161014057806370a0823114610327578063715018a6146103575780637550d1c914610361578063776966461461036b576101c4565b806342842e0e146102bf57806343909ec7146102db5780636352211e146102f7576101c4565b8063095ea7b3116101a2578063095ea7b31461024757806323b872dd14610263578063241277ea1461027f5780632df2702514610289576101c4565b806301ffc9a7146101c957806306fdde03146101f9578063081812fc14610217575b600080fd5b6101e360048036038101906101de9190614132565b610545565b6040516101f0919061417a565b60405180910390f35b610201610627565b60405161020e9190614225565b60405180910390f35b610231600480360381019061022c919061427d565b6106b9565b60405161023e91906142eb565b60405180910390f35b610261600480360381019061025c9190614332565b6106ff565b005b61027d60048036038101906102789190614372565b610816565b005b610287610876565b005b6102a3600480360381019061029e91906143c5565b610950565b6040516102b6979695949392919061442c565b60405180910390f35b6102d960048036038101906102d49190614372565b610a4e565b005b6102f560048036038101906102f09190614507565b610a6e565b005b610311600480360381019061030c919061427d565b610d9b565b60405161031e91906142eb565b60405180910390f35b610341600480360381019061033c91906143c5565b610e21565b60405161034e9190614567565b60405180910390f35b61035f610ed8565b005b610369610eec565b005b610373610f01565b6040516103809190614567565b60405180910390f35b6103a3600480360381019061039e919061427d565b610f12565b005b6103ad611cc9565b005b6103b7611daf565b6040516103c49190614691565b60405180910390f35b6103e760048036038101906103e2919061427d565b612023565b005b6103f1612624565b6040516103fe91906142eb565b60405180910390f35b61040f61264e565b60405161041c9190614225565b60405180910390f35b61042d6126e0565b60405161043a919061472a565b60405180910390f35b61045d60048036038101906104589190614771565b6126f3565b005b610479600480360381019061047491906148e1565b612709565b005b6104956004803603810190610490919061427d565b61276b565b6040516104a29190614225565b60405180910390f35b6104c560048036038101906104c09190614964565b61287d565b6040516104d2919061417a565b60405180910390f35b6104e3612911565b6040516104f09190614a7e565b60405180910390f35b610513600480360381019061050e919061427d565b612a6e565b6040516105209190614ae2565b60405180910390f35b610543600480360381019061053e91906143c5565b612b2d565b005b60007f80ac58cd000000000000000000000000000000000000000000000000000000007bffffffffffffffffffffffffffffffffffffffffffffffffffffffff1916827bffffffffffffffffffffffffffffffffffffffffffffffffffffffff1916148061061057507f5b5e139f000000000000000000000000000000000000000000000000000000007bffffffffffffffffffffffffffffffffffffffffffffffffffffffff1916827bffffffffffffffffffffffffffffffffffffffffffffffffffffffff1916145b80610620575061061f82612bb0565b5b9050919050565b60606000805461063690614b2c565b80601f016020809104026020016040519081016040528092919081815260200182805461066290614b2c565b80156106af5780601f10610684576101008083540402835291602001916106af565b820191906000526020600020905b81548152906001019060200180831161069257829003601f168201915b5050505050905090565b60006106c482612c1a565b6004600083815260200190815260200160002060009054906101000a900473ffffffffffffffffffffffffffffffffffffffff169050919050565b600061070a82610d9b565b90508073ffffffffffffffffffffffffffffffffffffffff168373ffffffffffffffffffffffffffffffffffffffff160361077a576040517f08c379a000000000000000000000000000000000000000000000000000000000815260040161077190614bcf565b60405180910390fd5b8073ffffffffffffffffffffffffffffffffffffffff16610799612c65565b73ffffffffffffffffffffffffffffffffffffffff1614806107c857506107c7816107c2612c65565b61287d565b5b610807576040517f08c379a00000000000000000000000000000000000000000000000000000000081526004016107fe90614c61565b60405180910390fd5b6108118383612c6d565b505050565b610827610821612c65565b82612d26565b610866576040517f08c379a000000000000000000000000000000000000000000000000000000000815260040161085d90614cf3565b60405180910390fd5b610871838383612dbb565b505050565b600a60009054906101000a900473ffffffffffffffffffffffffffffffffffffffff1673ffffffffffffffffffffffffffffffffffffffff163373ffffffffffffffffffffffffffffffffffffffff1614610906576040517f08c379a00000000000000000000000000000000000000000000000000000000081526004016108fd90614d5f565b60405180910390fd5b6002600681111561091a576109196146b3565b5b601060009054906101000a900460ff16600681111561093c5761093b6146b3565b5b1461094657600080fd5b61094e6130b4565b565b60246020528060005260406000206000915090508060000160009054906101000a900473ffffffffffffffffffffffffffffffffffffffff169080600101549080600201805461099f90614b2c565b80601f01602080910402602001604051908101604052809291908181526020018280546109cb90614b2c565b8015610a185780601f106109ed57610100808354040283529160200191610a18565b820191906000526020600020905b8154815290600101906020018083116109fb57829003601f168201915b50505050509080600301549080600401604051806020016040529081600082015481525050908060050154908060060154905087565b610a6983838360405180602001604052806000815250612709565b505050565b610a76613192565b60036006811115610a8a57610a896146b3565b5b601060009054906101000a900460ff166006811115610aac57610aab6146b3565b5b14610aec576040517f08c379a0000000000000000000000000000000000000000000000000000000008152600401610ae390614dcb565b60405180910390fd5b6000600190504260218190555060005b84849050811015610d8457610b0f61401d565b6000868684818110610b2457610b23614deb565b5b9050602002810190610b369190614e1f565b610b3f90614f72565b905060006040518060e00160405280836000015173ffffffffffffffffffffffffffffffffffffffff168152602001836020015181526020018360400151815260200186815260200184815260200160008152602001428152509050602381908060018154018082558091505060019003906000526020600020906007020160009091909190915060008201518160000160006101000a81548173ffffffffffffffffffffffffffffffffffffffff021916908373ffffffffffffffffffffffffffffffffffffffff160217905550602082015181600101556040820151816002019081610c2d9190615131565b506060820151816003015560808201518160040160008201518160000155505060a0820151816005015560c0820151816006015550508060246000846000015173ffffffffffffffffffffffffffffffffffffffff1673ffffffffffffffffffffffffffffffffffffffff16815260200190815260200160002060008201518160000160006101000a81548173ffffffffffffffffffffffffffffffffffffffff021916908373ffffffffffffffffffffffffffffffffffffffff160217905550602082015181600101556040820151816002019081610d0d9190615131565b506060820151816003015560808201518160040160008201518160000155505060a0820151816005015560c08201518160060155905050610d52826000015186613210565b610d6085836040015161342d565b8480610d6b90615232565b9550505050508080610d7c90615232565b915050610afc565b50610d8d61349a565b610d956135f6565b50505050565b600080610da7836136d4565b9050600073ffffffffffffffffffffffffffffffffffffffff168173ffffffffffffffffffffffffffffffffffffffff1603610e18576040517f08c379a0000000000000000000000000000000000000000000000000000000008152600401610e0f906152c6565b60405180910390fd5b80915050919050565b60008073ffffffffffffffffffffffffffffffffffffffff168273ffffffffffffffffffffffffffffffffffffffff1603610e91576040517f08c379a0000000000000000000000000000000000000000000000000000000008152600401610e8890615358565b60405180910390fd5b600360008373ffffffffffffffffffffffffffffffffffffffff1673ffffffffffffffffffffffffffffffffffffffff168152602001908152602001600020549050919050565b610ee0613192565b610eea6000613711565b565b426014541115610eff57610efe6137d7565b5b565b6000610f0d601361393c565b905090565b6001610f5e602060003373ffffffffffffffffffffffffffffffffffffffff1673ffffffffffffffffffffffffffffffffffffffff16815260200190815260200160002060000161393c565b1015610f9f576040517f08c379a0000000000000000000000000000000000000000000000000000000008152600401610f96906153c4565b60405180910390fd5b60016006811115610fb357610fb26146b3565b5b601060009054906101000a900460ff166006811115610fd557610fd46146b3565b5b14611015576040517f08c379a000000000000000000000000000000000000000000000000000000000815260040161100c90615456565b60405180910390fd5b602060003373ffffffffffffffffffffffffffffffffffffffff1673ffffffffffffffffffffffffffffffffffffffff168152602001908152602001600020600101600082815260200190815260200160002060010160020160009054906101000a900460ff166110bb576040517f08c379a00000000000000000000000000000000000000000000000000000000081526004016110b2906154c2565b60405180910390fd5b600960009054906101000a900473ffffffffffffffffffffffffffffffffffffffff1673ffffffffffffffffffffffffffffffffffffffff16632098364933836040518363ffffffff1660e01b81526004016111189291906154e2565b600060405180830381600087803b15801561113257600080fd5b505af1158015611146573d6000803e3d6000fd5b505050506000601f600083815260200190815260200160002060405180606001604052908160008201548152602001600182016040518060600160405290816000820160009054906101000a900473ffffffffffffffffffffffffffffffffffffffff1673ffffffffffffffffffffffffffffffffffffffff1673ffffffffffffffffffffffffffffffffffffffff168152602001600182015481526020016002820160009054906101000a900460ff16151515158152505081526020016004820154815250509050611217614030565b6001611223601361393c565b03611359578060156000820151816000015560208201518160010160008201518160000160006101000a81548173ffffffffffffffffffffffffffffffffffffffff021916908373ffffffffffffffffffffffffffffffffffffffff1602179055506020820151816001015560408201518160020160006101000a81548160ff02191690831515021790555050506040820151816004015590505080601a6000820151816000015560208201518160010160008201518160000160006101000a81548173ffffffffffffffffffffffffffffffffffffffff021916908373ffffffffffffffffffffffffffffffffffffffff1602179055506020820151816001015560408201518160020160006101000a81548160ff021916908315150217905550505060408201518160040155905050611b15565b826015600101600101540361165357601a600101600101546015600401540361156957604051806060016040528060008152602001601f600060156004015481526020019081526020016000206001016040518060600160405290816000820160009054906101000a900473ffffffffffffffffffffffffffffffffffffffff1673ffffffffffffffffffffffffffffffffffffffff1673ffffffffffffffffffffffffffffffffffffffff168152602001600182015481526020016002820160009054906101000a900460ff1615151515815250508152602001600081525060156000820151816000015560208201518160010160008201518160000160006101000a81548173ffffffffffffffffffffffffffffffffffffffff021916908373ffffffffffffffffffffffffffffffffffffffff1602179055506020820151816001015560408201518160020160006101000a81548160ff02191690831515021790555050506040820151816004015590505080601a6000820151816000015560208201518160010160008201518160000160006101000a81548173ffffffffffffffffffffffffffffffffffffffff021916908373ffffffffffffffffffffffffffffffffffffffff1602179055506020820151816001015560408201518160020160006101000a81548160ff02191690831515021790555050506040820151816004015590505061164e565b601f6000601560040154815260200190815260200160002060156000820154816000015560018201816001016000820160009054906101000a900473ffffffffffffffffffffffffffffffffffffffff168160000160006101000a81548173ffffffffffffffffffffffffffffffffffffffff021916908373ffffffffffffffffffffffffffffffffffffffff160217905550600182015481600101556002820160009054906101000a900460ff168160020160006101000a81548160ff02191690831515021790555050506004820154816004015590505060006015600001819055505b611b14565b82601a600101600101540361180657601a600101600101546015600401540361171c57600060156004018190555080601a6000820151816000015560208201518160010160008201518160000160006101000a81548173ffffffffffffffffffffffffffffffffffffffff021916908373ffffffffffffffffffffffffffffffffffffffff1602179055506020820151816001015560408201518160020160006101000a81548160ff021916908315150217905550505060408201518160040155905050611801565b601f6000601a600001548152602001908152602001600020601a6000820154816000015560018201816001016000820160009054906101000a900473ffffffffffffffffffffffffffffffffffffffff168160000160006101000a81548173ffffffffffffffffffffffffffffffffffffffff021916908373ffffffffffffffffffffffffffffffffffffffff160217905550600182015481600101556002820160009054906101000a900460ff168160020160006101000a81548160ff0219169083151502179055505050600482015481600401559050506000601a600401819055505b611b13565b6000601f60008460000151815260200190815260200160002060405180606001604052908160008201548152602001600182016040518060600160405290816000820160009054906101000a900473ffffffffffffffffffffffffffffffffffffffff1673ffffffffffffffffffffffffffffffffffffffff1673ffffffffffffffffffffffffffffffffffffffff168152602001600182015481526020016002820160009054906101000a900460ff161515151581525050815260200160048201548152505090506000601f60008560400151815260200190815260200160002060405180606001604052908160008201548152602001600182016040518060600160405290816000820160009054906101000a900473ffffffffffffffffffffffffffffffffffffffff1673ffffffffffffffffffffffffffffffffffffffff1673ffffffffffffffffffffffffffffffffffffffff168152602001600182015481526020016002820160009054906101000a900460ff161515151581525050815260200160048201548152505090508360400151826040018181525050836000015181600001818152505081602001516020015160156001016001015403611a62578160156000820151816000015560208201518160010160008201518160000160006101000a81548173ffffffffffffffffffffffffffffffffffffffff021916908373ffffffffffffffffffffffffffffffffffffffff1602179055506020820151816001015560408201518160020160006101000a81548160ff0219169083151502179055505050604082015181600401559050505b806020015160200151601a6001016001015403611b105781601a6000820151816000015560208201518160010160008201518160000160006101000a81548173ffffffffffffffffffffffffffffffffffffffff021916908373ffffffffffffffffffffffffffffffffffffffff1602179055506020820151816001015560408201518160020160006101000a81548160ff0219169083151502179055505050604082015181600401559050505b50505b5b5b601f600084815260200190815260200160002060008082016000905560018201600080820160006101000a81549073ffffffffffffffffffffffffffffffffffffffff021916905560018201600090556002820160006101000a81549060ff0219169055505060048201600090555050611bcf602060003373ffffffffffffffffffffffffffffffffffffffff1673ffffffffffffffffffffffffffffffffffffffff16815260200190815260200160002060000161394a565b602060003373ffffffffffffffffffffffffffffffffffffffff1673ffffffffffffffffffffffffffffffffffffffff168152602001908152602001600020600101600084815260200190815260200160002060008082016000905560018201600080820160006101000a81549073ffffffffffffffffffffffffffffffffffffffff021916905560018201600090556002820160006101000a81549060ff0219169055505060048201600090555050611c89601361394a565b7fe705dd9d71182b5cf2821d65e821de54338ddb99849a71aa739ce428be12927b8260200151604051611cbc919061554d565b60405180910390a1505050565b611cd1613192565b60006006811115611ce557611ce46146b3565b5b601060009054906101000a900460ff166006811115611d0757611d066146b3565b5b14611d47576040517f08c379a0000000000000000000000000000000000000000000000000000000008152600401611d3e906155da565b60405180910390fd5b6001601060006101000a81548160ff02191690836006811115611d6d57611d6c6146b3565b5b02179055507f880498af3c6b66c92ab2120d6b0aca7539f4b40c5f3d8366dc8f8706bf60e99260006001604051611da59291906155fa565b60405180910390a1565b60606000611dbd601361393c565b67ffffffffffffffff811115611dd657611dd56147b6565b5b604051908082528060200260200182016040528015611e0f57816020015b611dfc614057565b815260200190600190039081611df45790505b509050600080611e1f601361393c565b03611e2e578192505050612020565b6000601560405180606001604052908160008201548152602001600182016040518060600160405290816000820160009054906101000a900473ffffffffffffffffffffffffffffffffffffffff1673ffffffffffffffffffffffffffffffffffffffff1673ffffffffffffffffffffffffffffffffffffffff168152602001600182015481526020016002820160009054906101000a900460ff161515151581525050815260200160048201548152505090508060200151838380611ef390615232565b945081518110611f0657611f05614deb565b5b60200260200101819052505b600081604001511461201957601f60008260400151815260200190815260200160002060405180606001604052908160008201548152602001600182016040518060600160405290816000820160009054906101000a900473ffffffffffffffffffffffffffffffffffffffff1673ffffffffffffffffffffffffffffffffffffffff1673ffffffffffffffffffffffffffffffffffffffff168152602001600182015481526020016002820160009054906101000a900460ff161515151581525050815260200160048201548152505090508060200151838380611ff690615232565b94508151811061200957612008614deb565b5b6020026020010181905250611f12565b8293505050505b90565b60016006811115612037576120366146b3565b5b601060009054906101000a900460ff166006811115612059576120586146b3565b5b14612099576040517f08c379a000000000000000000000000000000000000000000000000000000000815260040161209090615456565b60405180910390fd5b602060003373ffffffffffffffffffffffffffffffffffffffff1673ffffffffffffffffffffffffffffffffffffffff168152602001908152602001600020600101600082815260200190815260200160002060010160020160009054906101000a900460ff1615612140576040517f08c379a00000000000000000000000000000000000000000000000000000000081526004016121379061566f565b60405180910390fd5b600960009054906101000a900473ffffffffffffffffffffffffffffffffffffffff1673ffffffffffffffffffffffffffffffffffffffff16631457e16f33836040518363ffffffff1660e01b815260040161219d9291906154e2565b600060405180830381600087803b1580156121b757600080fd5b505af11580156121cb573d6000803e3d6000fd5b50505050600060405180606001604052803373ffffffffffffffffffffffffffffffffffffffff16815260200183815260200160011515815250905061220f614030565b601560010160020160009054906101000a900460ff166122e357604051806060016040528060008152602001838152602001600081525090508060156000820151816000015560208201518160010160008201518160000160006101000a81548173ffffffffffffffffffffffffffffffffffffffff021916908373ffffffffffffffffffffffffffffffffffffffff1602179055506020820151816001015560408201518160020160006101000a81548160ff021916908315150217905550505060408201518160040155905050612335565b6040518060600160405280601a60010160010154815260200183815260200160008152509050806020015160200151601f6000601a600101600101548152602001908152602001600020600401819055505b6001612341601361393c565b0361235157826015600401819055505b80601f60008581526020019081526020016000206000820151816000015560208201518160010160008201518160000160006101000a81548173ffffffffffffffffffffffffffffffffffffffff021916908373ffffffffffffffffffffffffffffffffffffffff1602179055506020820151816001015560408201518160020160006101000a81548160ff02191690831515021790555050506040820151816004015590505080601a6000820151816000015560208201518160010160008201518160000160006101000a81548173ffffffffffffffffffffffffffffffffffffffff021916908373ffffffffffffffffffffffffffffffffffffffff1602179055506020820151816001015560408201518160020160006101000a81548160ff02191690831515021790555050506040820151816004015590505080602060003373ffffffffffffffffffffffffffffffffffffffff1673ffffffffffffffffffffffffffffffffffffffff16815260200190815260200160002060010160008581526020019081526020016000206000820151816000015560208201518160010160008201518160000160006101000a81548173ffffffffffffffffffffffffffffffffffffffff021916908373ffffffffffffffffffffffffffffffffffffffff1602179055506020820151816001015560408201518160020160006101000a81548160ff0219169083151502179055505050604082015181600401559050506125bf602060003373ffffffffffffffffffffffffffffffffffffffff1673ffffffffffffffffffffffffffffffffffffffff1681526020019081526020016000206000016139a6565b6125c960136139a6565b6012546125d6601361393c565b036125e4576125e36137d7565b5b7f40009383578d93076aa0b4174716f668f22544022966ac50296178faa5f3dd9e8160200151604051612617919061554d565b60405180910390a1505050565b6000600760009054906101000a900473ffffffffffffffffffffffffffffffffffffffff16905090565b60606001805461265d90614b2c565b80601f016020809104026020016040519081016040528092919081815260200182805461268990614b2c565b80156126d65780601f106126ab576101008083540402835291602001916126d6565b820191906000526020600020905b8154815290600101906020018083116126b957829003601f168201915b5050505050905090565b601060009054906101000a900460ff1681565b6127056126fe612c65565b83836139bc565b5050565b61271a612714612c65565b83612d26565b612759576040517f08c379a000000000000000000000000000000000000000000000000000000000815260040161275090614cf3565b60405180910390fd5b61276584848484613b28565b50505050565b606061277682612c1a565b600060066000848152602001908152602001600020805461279690614b2c565b80601f01602080910402602001604051908101604052809291908181526020018280546127c290614b2c565b801561280f5780601f106127e45761010080835404028352916020019161280f565b820191906000526020600020905b8154815290600101906020018083116127f257829003601f168201915b505050505090506000612820613b84565b90506000815103612835578192505050612878565b60008251111561286a5780826040516020016128529291906156cb565b60405160208183030381529060405292505050612878565b61287384613b9b565b925050505b919050565b6000600560008473ffffffffffffffffffffffffffffffffffffffff1673ffffffffffffffffffffffffffffffffffffffff16815260200190815260200160002060008373ffffffffffffffffffffffffffffffffffffffff1673ffffffffffffffffffffffffffffffffffffffff16815260200190815260200160002060009054906101000a900460ff16905092915050565b612919614090565b6040518060c00160405280600d805461293190614b2c565b80601f016020809104026020016040519081016040528092919081815260200182805461295d90614b2c565b80156129aa5780601f1061297f576101008083540402835291602001916129aa565b820191906000526020600020905b81548152906001019060200180831161298d57829003601f168201915b50505050508152602001600e80546129c190614b2c565b80601f01602080910402602001604051908101604052809291908181526020018280546129ed90614b2c565b8015612a3a5780601f10612a0f57610100808354040283529160200191612a3a565b820191906000526020600020905b815481529060010190602001808311612a1d57829003601f168201915b5050505050815260200160115481526020016012548152602001612a5e601361393c565b8152602001601454815250905090565b612a76614030565b601a60405180606001604052908160008201548152602001600182016040518060600160405290816000820160009054906101000a900473ffffffffffffffffffffffffffffffffffffffff1673ffffffffffffffffffffffffffffffffffffffff1673ffffffffffffffffffffffffffffffffffffffff168152602001600182015481526020016002820160009054906101000a900460ff16151515158152505081526020016004820154815250509050919050565b612b35613192565b600073ffffffffffffffffffffffffffffffffffffffff168173ffffffffffffffffffffffffffffffffffffffff1603612ba4576040517f08c379a0000000000000000000000000000000000000000000000000000000008152600401612b9b90615761565b60405180910390fd5b612bad81613711565b50565b60007f01ffc9a7000000000000000000000000000000000000000000000000000000007bffffffffffffffffffffffffffffffffffffffffffffffffffffffff1916827bffffffffffffffffffffffffffffffffffffffffffffffffffffffff1916149050919050565b612c2381613c03565b612c62576040517f08c379a0000000000000000000000000000000000000000000000000000000008152600401612c59906152c6565b60405180910390fd5b50565b600033905090565b816004600083815260200190815260200160002060006101000a81548173ffffffffffffffffffffffffffffffffffffffff021916908373ffffffffffffffffffffffffffffffffffffffff160217905550808273ffffffffffffffffffffffffffffffffffffffff16612ce083610d9b565b73ffffffffffffffffffffffffffffffffffffffff167f8c5be1e5ebec7d5bd14f71427d1e84f3dd0314c0f7b2291e5b200ac8c7c3b92560405160405180910390a45050565b600080612d3283610d9b565b90508073ffffffffffffffffffffffffffffffffffffffff168473ffffffffffffffffffffffffffffffffffffffff161480612d745750612d73818561287d565b5b80612db257508373ffffffffffffffffffffffffffffffffffffffff16612d9a846106b9565b73ffffffffffffffffffffffffffffffffffffffff16145b91505092915050565b8273ffffffffffffffffffffffffffffffffffffffff16612ddb82610d9b565b73ffffffffffffffffffffffffffffffffffffffff1614612e31576040517f08c379a0000000000000000000000000000000000000000000000000000000008152600401612e28906157f3565b60405180910390fd5b600073ffffffffffffffffffffffffffffffffffffffff168273ffffffffffffffffffffffffffffffffffffffff1603612ea0576040517f08c379a0000000000000000000000000000000000000000000000000000000008152600401612e9790615885565b60405180910390fd5b612ead8383836001613c44565b8273ffffffffffffffffffffffffffffffffffffffff16612ecd82610d9b565b73ffffffffffffffffffffffffffffffffffffffff1614612f23576040517f08c379a0000000000000000000000000000000000000000000000000000000008152600401612f1a906157f3565b60405180910390fd5b6004600082815260200190815260200160002060006101000a81549073ffffffffffffffffffffffffffffffffffffffff02191690556001600360008573ffffffffffffffffffffffffffffffffffffffff1673ffffffffffffffffffffffffffffffffffffffff168152602001908152602001600020600082825403925050819055506001600360008473ffffffffffffffffffffffffffffffffffffffff1673ffffffffffffffffffffffffffffffffffffffff16815260200190815260200160002060008282540192505081905550816002600083815260200190815260200160002060006101000a81548173ffffffffffffffffffffffffffffffffffffffff021916908373ffffffffffffffffffffffffffffffffffffffff160217905550808273ffffffffffffffffffffffffffffffffffffffff168473ffffffffffffffffffffffffffffffffffffffff167fddf252ad1be2c89b69c2b068fc378daa952ba7f163c4a11628f55a4df523b3ef60405160405180910390a46130af8383836001613c4a565b505050565b600260068111156130c8576130c76146b3565b5b601060009054906101000a900460ff1660068111156130ea576130e96146b3565b5b1461312a576040517f08c379a0000000000000000000000000000000000000000000000000000000008152600401613121906158f1565b60405180910390fd5b6003601060006101000a81548160ff021916908360068111156131505761314f6146b3565b5b02179055507f880498af3c6b66c92ab2120d6b0aca7539f4b40c5f3d8366dc8f8706bf60e992600260036040516131889291906155fa565b60405180910390a1565b61319a612c65565b73ffffffffffffffffffffffffffffffffffffffff166131b8612624565b73ffffffffffffffffffffffffffffffffffffffff161461320e576040517f08c379a00000000000000000000000000000000000000000000000000000000081526004016132059061595d565b60405180910390fd5b565b600073ffffffffffffffffffffffffffffffffffffffff168273ffffffffffffffffffffffffffffffffffffffff160361327f576040517f08c379a0000000000000000000000000000000000000000000000000000000008152600401613276906159c9565b60405180910390fd5b61328881613c03565b156132c8576040517f08c379a00000000000000000000000000000000000000000000000000000000081526004016132bf90615a35565b60405180910390fd5b6132d6600083836001613c44565b6132df81613c03565b1561331f576040517f08c379a000000000000000000000000000000000000000000000000000000000815260040161331690615a35565b60405180910390fd5b6001600360008473ffffffffffffffffffffffffffffffffffffffff1673ffffffffffffffffffffffffffffffffffffffff16815260200190815260200160002060008282540192505081905550816002600083815260200190815260200160002060006101000a81548173ffffffffffffffffffffffffffffffffffffffff021916908373ffffffffffffffffffffffffffffffffffffffff160217905550808273ffffffffffffffffffffffffffffffffffffffff16600073ffffffffffffffffffffffffffffffffffffffff167fddf252ad1be2c89b69c2b068fc378daa952ba7f163c4a11628f55a4df523b3ef60405160405180910390a4613429600083836001613c4a565b5050565b61343682613c03565b613475576040517f08c379a000000000000000000000000000000000000000000000000000000000815260040161346c90615ac7565b60405180910390fd5b806006600084815260200190815260200160002090816134959190615131565b505050565b600360068111156134ae576134ad6146b3565b5b601060009054906101000a900460ff1660068111156134d0576134cf6146b3565b5b14613510576040517f08c379a000000000000000000000000000000000000000000000000000000000815260040161350790614dcb565b60405180910390fd5b600061351a611daf565b905060005b81518110156135f257600082828151811061353d5761353c614deb565b5b60200260200101519050600960009054906101000a900473ffffffffffffffffffffffffffffffffffffffff1673ffffffffffffffffffffffffffffffffffffffff16634c575423826000015183602001516040518363ffffffff1660e01b81526004016135ac9291906154e2565b600060405180830381600087803b1580156135c657600080fd5b505af11580156135da573d6000803e3d6000fd5b505050505080806135ea90615232565b91505061351f565b5050565b6003600681111561360a576136096146b3565b5b601060009054906101000a900460ff16600681111561362c5761362b6146b3565b5b1461366c576040517f08c379a000000000000000000000000000000000000000000000000000000000815260040161366390615b59565b60405180910390fd5b6004601060006101000a81548160ff02191690836006811115613692576136916146b3565b5b02179055507f880498af3c6b66c92ab2120d6b0aca7539f4b40c5f3d8366dc8f8706bf60e992600360046040516136ca9291906155fa565b60405180910390a1565b60006002600083815260200190815260200160002060009054906101000a900473ffffffffffffffffffffffffffffffffffffffff169050919050565b6000600760009054906101000a900473ffffffffffffffffffffffffffffffffffffffff16905081600760006101000a81548173ffffffffffffffffffffffffffffffffffffffff021916908373ffffffffffffffffffffffffffffffffffffffff1602179055508173ffffffffffffffffffffffffffffffffffffffff168173ffffffffffffffffffffffffffffffffffffffff167f8be0079c531659141344cd1fd0a4f28419497f9722a3daafe3b4186f6b6457e060405160405180910390a35050565b600160068111156137eb576137ea6146b3565b5b601060009054906101000a900460ff16600681111561380d5761380c6146b3565b5b1461384d576040517f08c379a0000000000000000000000000000000000000000000000000000000008152600401613844906155da565b60405180910390fd5b60115461385a601361393c565b10156138d3576005601060006101000a81548160ff02191690836006811115613886576138856146b3565b5b0217905550613893613c50565b7f880498af3c6b66c92ab2120d6b0aca7539f4b40c5f3d8366dc8f8706bf60e992600160056040516138c69291906155fa565b60405180910390a161393a565b6002601060006101000a81548160ff021916908360068111156138f9576138f86146b3565b5b02179055507f880498af3c6b66c92ab2120d6b0aca7539f4b40c5f3d8366dc8f8706bf60e992600160026040516139319291906155fa565b60405180910390a15b565b600081600001549050919050565b60008160000154905060008111613996576040517f08c379a000000000000000000000000000000000000000000000000000000000815260040161398d90615bc5565b60405180910390fd5b6001810382600001819055505050565b6001816000016000828254019250508190555050565b8173ffffffffffffffffffffffffffffffffffffffff168373ffffffffffffffffffffffffffffffffffffffff1603613a2a576040517f08c379a0000000000000000000000000000000000000000000000000000000008152600401613a2190615c31565b60405180910390fd5b80600560008573ffffffffffffffffffffffffffffffffffffffff1673ffffffffffffffffffffffffffffffffffffffff16815260200190815260200160002060008473ffffffffffffffffffffffffffffffffffffffff1673ffffffffffffffffffffffffffffffffffffffff16815260200190815260200160002060006101000a81548160ff0219169083151502179055508173ffffffffffffffffffffffffffffffffffffffff168373ffffffffffffffffffffffffffffffffffffffff167f17307eab39ab6107e8899845ad3d59bd9653f200f220920489ca2b5937696c3183604051613b1b919061417a565b60405180910390a3505050565b613b33848484612dbb565b613b3f84848484613c52565b613b7e576040517f08c379a0000000000000000000000000000000000000000000000000000000008152600401613b7590615cc3565b60405180910390fd5b50505050565b606060405180602001604052806000815250905090565b6060613ba682612c1a565b6000613bb0613b84565b90506000815111613bd05760405180602001604052806000815250613bfb565b80613bda84613dd9565b604051602001613beb9291906156cb565b6040516020818303038152906040525b915050919050565b60008073ffffffffffffffffffffffffffffffffffffffff16613c25836136d4565b73ffffffffffffffffffffffffffffffffffffffff1614159050919050565b50505050565b50505050565b565b6000613c738473ffffffffffffffffffffffffffffffffffffffff16613ea7565b15613dcc578373ffffffffffffffffffffffffffffffffffffffff1663150b7a02613c9c612c65565b8786866040518563ffffffff1660e01b8152600401613cbe9493929190615d38565b6020604051808303816000875af1925050508015613cfa57506040513d601f19601f82011682018060405250810190613cf79190615d99565b60015b613d7c573d8060008114613d2a576040519150601f19603f3d011682016040523d82523d6000602084013e613d2f565b606091505b506000815103613d74576040517f08c379a0000000000000000000000000000000000000000000000000000000008152600401613d6b90615cc3565b60405180910390fd5b805181602001fd5b63150b7a0260e01b7bffffffffffffffffffffffffffffffffffffffffffffffffffffffff1916817bffffffffffffffffffffffffffffffffffffffffffffffffffffffff191614915050613dd1565b600190505b949350505050565b606060006001613de884613eca565b01905060008167ffffffffffffffff811115613e0757613e066147b6565b5b6040519080825280601f01601f191660200182016040528015613e395781602001600182028036833780820191505090505b509050600082602001820190505b600115613e9c578080600190039150507f3031323334353637383961626364656600000000000000000000000000000000600a86061a8153600a8581613e9057613e8f615dc6565b5b04945060008503613e47575b819350505050919050565b6000808273ffffffffffffffffffffffffffffffffffffffff163b119050919050565b600080600090507a184f03e93ff9f4daa797ed6e38ed64bf6a1f0100000000000000008310613f28577a184f03e93ff9f4daa797ed6e38ed64bf6a1f0100000000000000008381613f1e57613f1d615dc6565b5b0492506040810190505b6d04ee2d6d415b85acef81000000008310613f65576d04ee2d6d415b85acef81000000008381613f5b57613f5a615dc6565b5b0492506020810190505b662386f26fc100008310613f9457662386f26fc100008381613f8a57613f89615dc6565b5b0492506010810190505b6305f5e1008310613fbd576305f5e1008381613fb357613fb2615dc6565b5b0492506008810190505b6127108310613fe2576127108381613fd857613fd7615dc6565b5b0492506004810190505b606483106140055760648381613ffb57613ffa615dc6565b5b0492506002810190505b600a8310614014576001810190505b80915050919050565b6040518060200160405280600081525090565b60405180606001604052806000815260200161404a614057565b8152602001600081525090565b6040518060600160405280600073ffffffffffffffffffffffffffffffffffffffff168152602001600081526020016000151581525090565b6040518060c001604052806060815260200160608152602001600081526020016000815260200160008152602001600081525090565b6000604051905090565b600080fd5b600080fd5b60007fffffffff0000000000000000000000000000000000000000000000000000000082169050919050565b61410f816140da565b811461411a57600080fd5b50565b60008135905061412c81614106565b92915050565b600060208284031215614148576141476140d0565b5b60006141568482850161411d565b91505092915050565b60008115159050919050565b6141748161415f565b82525050565b600060208201905061418f600083018461416b565b92915050565b600081519050919050565b600082825260208201905092915050565b60005b838110156141cf5780820151818401526020810190506141b4565b60008484015250505050565b6000601f19601f8301169050919050565b60006141f782614195565b61420181856141a0565b93506142118185602086016141b1565b61421a816141db565b840191505092915050565b6000602082019050818103600083015261423f81846141ec565b905092915050565b6000819050919050565b61425a81614247565b811461426557600080fd5b50565b60008135905061427781614251565b92915050565b600060208284031215614293576142926140d0565b5b60006142a184828501614268565b91505092915050565b600073ffffffffffffffffffffffffffffffffffffffff82169050919050565b60006142d5826142aa565b9050919050565b6142e5816142ca565b82525050565b600060208201905061430060008301846142dc565b92915050565b61430f816142ca565b811461431a57600080fd5b50565b60008135905061432c81614306565b92915050565b60008060408385031215614349576143486140d0565b5b60006143578582860161431d565b925050602061436885828601614268565b9150509250929050565b60008060006060848603121561438b5761438a6140d0565b5b60006143998682870161431d565b93505060206143aa8682870161431d565b92505060406143bb86828701614268565b9150509250925092565b6000602082840312156143db576143da6140d0565b5b60006143e98482850161431d565b91505092915050565b6143fb81614247565b82525050565b61440a81614247565b82525050565b6020820160008201516144266000850182614401565b50505050565b600060e082019050614441600083018a6142dc565b61444e60208301896143f2565b818103604083015261446081886141ec565b905061446f60608301876143f2565b61447c6080830186614410565b61448960a08301856143f2565b61449660c08301846143f2565b98975050505050505050565b600080fd5b600080fd5b600080fd5b60008083601f8401126144c7576144c66144a2565b5b8235905067ffffffffffffffff8111156144e4576144e36144a7565b5b602083019150836020820283011115614500576144ff6144ac565b5b9250929050565b6000806000604084860312156145205761451f6140d0565b5b600084013567ffffffffffffffff81111561453e5761453d6140d5565b5b61454a868287016144b1565b9350935050602061455d86828701614268565b9150509250925092565b600060208201905061457c60008301846143f2565b92915050565b600081519050919050565b600082825260208201905092915050565b6000819050602082019050919050565b6145b7816142ca565b82525050565b6145c68161415f565b82525050565b6060820160008201516145e260008501826145ae565b5060208201516145f56020850182614401565b50604082015161460860408501826145bd565b50505050565b600061461a83836145cc565b60608301905092915050565b6000602082019050919050565b600061463e82614582565b614648818561458d565b93506146538361459e565b8060005b8381101561468457815161466b888261460e565b975061467683614626565b925050600181019050614657565b5085935050505092915050565b600060208201905081810360008301526146ab8184614633565b905092915050565b7f4e487b7100000000000000000000000000000000000000000000000000000000600052602160045260246000fd5b600781106146f3576146f26146b3565b5b50565b6000819050614704826146e2565b919050565b6000614714826146f6565b9050919050565b61472481614709565b82525050565b600060208201905061473f600083018461471b565b92915050565b61474e8161415f565b811461475957600080fd5b50565b60008135905061476b81614745565b92915050565b60008060408385031215614788576147876140d0565b5b60006147968582860161431d565b92505060206147a78582860161475c565b9150509250929050565b600080fd5b7f4e487b7100000000000000000000000000000000000000000000000000000000600052604160045260246000fd5b6147ee826141db565b810181811067ffffffffffffffff8211171561480d5761480c6147b6565b5b80604052505050565b60006148206140c6565b905061482c82826147e5565b919050565b600067ffffffffffffffff82111561484c5761484b6147b6565b5b614855826141db565b9050602081019050919050565b82818337600083830152505050565b600061488461487f84614831565b614816565b9050828152602081018484840111156148a05761489f6147b1565b5b6148ab848285614862565b509392505050565b600082601f8301126148c8576148c76144a2565b5b81356148d8848260208601614871565b91505092915050565b600080600080608085870312156148fb576148fa6140d0565b5b60006149098782880161431d565b945050602061491a8782880161431d565b935050604061492b87828801614268565b925050606085013567ffffffffffffffff81111561494c5761494b6140d5565b5b614958878288016148b3565b91505092959194509250565b6000806040838503121561497b5761497a6140d0565b5b60006149898582860161431d565b925050602061499a8582860161431d565b9150509250929050565b600082825260208201905092915050565b60006149c082614195565b6149ca81856149a4565b93506149da8185602086016141b1565b6149e3816141db565b840191505092915050565b600060c0830160008301518482036000860152614a0b82826149b5565b91505060208301518482036020860152614a2582826149b5565b9150506040830151614a3a6040860182614401565b506060830151614a4d6060860182614401565b506080830151614a606080860182614401565b5060a0830151614a7360a0860182614401565b508091505092915050565b60006020820190508181036000830152614a9881846149ee565b905092915050565b60a082016000820151614ab66000850182614401565b506020820151614ac960208501826145cc565b506040820151614adc6080850182614401565b50505050565b600060a082019050614af76000830184614aa0565b92915050565b7f4e487b7100000000000000000000000000000000000000000000000000000000600052602260045260246000fd5b60006002820490506001821680614b4457607f821691505b602082108103614b5757614b56614afd565b5b50919050565b7f4552433732313a20617070726f76616c20746f2063757272656e74206f776e6560008201527f7200000000000000000000000000000000000000000000000000000000000000602082015250565b6000614bb96021836141a0565b9150614bc482614b5d565b604082019050919050565b60006020820190508181036000830152614be881614bac565b9050919050565b7f4552433732313a20617070726f76652063616c6c6572206973206e6f7420746f60008201527f6b656e206f776e6572206f7220617070726f76656420666f7220616c6c000000602082015250565b6000614c4b603d836141a0565b9150614c5682614bef565b604082019050919050565b60006020820190508181036000830152614c7a81614c3e565b9050919050565b7f4552433732313a2063616c6c6572206973206e6f7420746f6b656e206f776e6560008201527f72206f7220617070726f76656400000000000000000000000000000000000000602082015250565b6000614cdd602d836141a0565b9150614ce882614c81565b604082019050919050565b60006020820190508181036000830152614d0c81614cd0565b9050919050565b7f596f7520617265206e6f74207468652044414f20210000000000000000000000600082015250565b6000614d496015836141a0565b9150614d5482614d13565b602082019050919050565b60006020820190508181036000830152614d7881614d3c565b9050919050565b7f44414f206d7573742068617665207369676e6564206669727374000000000000600082015250565b6000614db5601a836141a0565b9150614dc082614d7f565b602082019050919050565b60006020820190508181036000830152614de481614da8565b9050919050565b7f4e487b7100000000000000000000000000000000000000000000000000000000600052603260045260246000fd5b600080fd5b600082356001606003833603038112614e3b57614e3a614e1a565b5b80830191505092915050565b600080fd5b600080fd5b600067ffffffffffffffff821115614e6c57614e6b6147b6565b5b614e75826141db565b9050602081019050919050565b6000614e95614e9084614e51565b614816565b905082815260208101848484011115614eb157614eb06147b1565b5b614ebc848285614862565b509392505050565b600082601f830112614ed957614ed86144a2565b5b8135614ee9848260208601614e82565b91505092915050565b600060608284031215614f0857614f07614e47565b5b614f126060614816565b90506000614f228482850161431d565b6000830152506020614f3684828501614268565b602083015250604082013567ffffffffffffffff811115614f5a57614f59614e4c565b5b614f6684828501614ec4565b60408301525092915050565b6000614f7e3683614ef2565b9050919050565b60008190508160005260206000209050919050565b60006020601f8301049050919050565b600082821b905092915050565b600060088302614fe77fffffffffffffffffffffffffffffffffffffffffffffffffffffffffffffffff82614faa565b614ff18683614faa565b95508019841693508086168417925050509392505050565b6000819050919050565b600061502e61502961502484614247565b615009565b614247565b9050919050565b6000819050919050565b61504883615013565b61505c61505482615035565b848454614fb7565b825550505050565b600090565b615071615064565b61507c81848461503f565b505050565b5b818110156150a057615095600082615069565b600181019050615082565b5050565b601f8211156150e5576150b681614f85565b6150bf84614f9a565b810160208510156150ce578190505b6150e26150da85614f9a565b830182615081565b50505b505050565b600082821c905092915050565b6000615108600019846008026150ea565b1980831691505092915050565b600061512183836150f7565b9150826002028217905092915050565b61513a82614195565b67ffffffffffffffff811115615153576151526147b6565b5b61515d8254614b2c565b6151688282856150a4565b600060209050601f83116001811461519b5760008415615189578287015190505b6151938582615115565b8655506151fb565b601f1984166151a986614f85565b60005b828110156151d1578489015182556001820191506020850194506020810190506151ac565b868310156151ee57848901516151ea601f8916826150f7565b8355505b6001600288020188555050505b505050505050565b7f4e487b7100000000000000000000000000000000000000000000000000000000600052601160045260246000fd5b600061523d82614247565b91507fffffffffffffffffffffffffffffffffffffffffffffffffffffffffffffffff820361526f5761526e615203565b5b600182019050919050565b7f4552433732313a20696e76616c696420746f6b656e2049440000000000000000600082015250565b60006152b06018836141a0565b91506152bb8261527a565b602082019050919050565b600060208201905081810360008301526152df816152a3565b9050919050565b7f4552433732313a2061646472657373207a65726f206973206e6f74206120766160008201527f6c6964206f776e65720000000000000000000000000000000000000000000000602082015250565b60006153426029836141a0565b915061534d826152e6565b604082019050919050565b6000602082019050818103600083015261537181615335565b9050919050565b7f596f7520686176652030205469636b6574205374616b65640000000000000000600082015250565b60006153ae6018836141a0565b91506153b982615378565b602082019050919050565b600060208201905081810360008301526153dd816153a1565b9050919050565b7f5374616b696e67206973206e6f7420617574686f72697a656420616e796d6f7260008201527f6500000000000000000000000000000000000000000000000000000000000000602082015250565b60006154406021836141a0565b915061544b826153e4565b604082019050919050565b6000602082019050818103600083015261546f81615433565b9050919050565b7f5469636b6574206973206e6f74207374616b6564000000000000000000000000600082015250565b60006154ac6014836141a0565b91506154b782615476565b602082019050919050565b600060208201905081810360008301526154db8161549f565b9050919050565b60006040820190506154f760008301856142dc565b61550460208301846143f2565b9392505050565b60608201600082015161552160008501826145ae565b5060208201516155346020850182614401565b50604082015161554760408501826145bd565b50505050565b6000606082019050615562600083018461550b565b92915050565b7f4d696e74207469636b657420726567697374726174696f6e2068617665206e6f60008201527f74206265656e2073746172746564207965740000000000000000000000000000602082015250565b60006155c46032836141a0565b91506155cf82615568565b604082019050919050565b600060208201905081810360008301526155f3816155b7565b9050919050565b600060408201905061560f600083018561471b565b61561c602083018461471b565b9392505050565b7f5469636b657420616c7265616479207374616b65640000000000000000000000600082015250565b60006156596015836141a0565b915061566482615623565b602082019050919050565b600060208201905081810360008301526156888161564c565b9050919050565b600081905092915050565b60006156a582614195565b6156af818561568f565b93506156bf8185602086016141b1565b80840191505092915050565b60006156d7828561569a565b91506156e3828461569a565b91508190509392505050565b7f4f776e61626c653a206e6577206f776e657220697320746865207a65726f206160008201527f6464726573730000000000000000000000000000000000000000000000000000602082015250565b600061574b6026836141a0565b9150615756826156ef565b604082019050919050565b6000602082019050818103600083015261577a8161573e565b9050919050565b7f4552433732313a207472616e736665722066726f6d20696e636f72726563742060008201527f6f776e6572000000000000000000000000000000000000000000000000000000602082015250565b60006157dd6025836141a0565b91506157e882615781565b604082019050919050565b6000602082019050818103600083015261580c816157d0565b9050919050565b7f4552433732313a207472616e7366657220746f20746865207a65726f2061646460008201527f7265737300000000000000000000000000000000000000000000000000000000602082015250565b600061586f6024836141a0565b915061587a82615813565b604082019050919050565b6000602082019050818103600083015261589e81615862565b9050919050565b7f5469636b657420726567697374726174696f6e206e6f7420656e646564000000600082015250565b60006158db601d836141a0565b91506158e6826158a5565b602082019050919050565b6000602082019050818103600083015261590a816158ce565b9050919050565b7f4f776e61626c653a2063616c6c6572206973206e6f7420746865206f776e6572600082015250565b60006159476020836141a0565b915061595282615911565b602082019050919050565b600060208201905081810360008301526159768161593a565b9050919050565b7f4552433732313a206d696e7420746f20746865207a65726f2061646472657373600082015250565b60006159b36020836141a0565b91506159be8261597d565b602082019050919050565b600060208201905081810360008301526159e2816159a6565b9050919050565b7f4552433732313a20746f6b656e20616c7265616479206d696e74656400000000600082015250565b6000615a1f601c836141a0565b9150615a2a826159e9565b602082019050919050565b60006020820190508181036000830152615a4e81615a12565b9050919050565b7f45524337323155524953746f726167653a2055524920736574206f66206e6f6e60008201527f6578697374656e7420746f6b656e000000000000000000000000000000000000602082015250565b6000615ab1602e836141a0565b9150615abc82615a55565b604082019050919050565b60006020820190508181036000830152615ae081615aa4565b9050919050565b7f44414f205465616d206e65656420746f207369676e20666972737420696e206f60008201527f7264657220746f2067656e6572617465204e4654000000000000000000000000602082015250565b6000615b436034836141a0565b9150615b4e82615ae7565b604082019050919050565b60006020820190508181036000830152615b7281615b36565b9050919050565b7f436f756e7465723a2064656372656d656e74206f766572666c6f770000000000600082015250565b6000615baf601b836141a0565b9150615bba82615b79565b602082019050919050565b60006020820190508181036000830152615bde81615ba2565b9050919050565b7f4552433732313a20617070726f766520746f2063616c6c657200000000000000600082015250565b6000615c1b6019836141a0565b9150615c2682615be5565b602082019050919050565b60006020820190508181036000830152615c4a81615c0e565b9050919050565b7f4552433732313a207472616e7366657220746f206e6f6e20455243373231526560008201527f63656976657220696d706c656d656e7465720000000000000000000000000000602082015250565b6000615cad6032836141a0565b9150615cb882615c51565b604082019050919050565b60006020820190508181036000830152615cdc81615ca0565b9050919050565b600081519050919050565b600082825260208201905092915050565b6000615d0a82615ce3565b615d148185615cee565b9350615d248185602086016141b1565b615d2d816141db565b840191505092915050565b6000608082019050615d4d60008301876142dc565b615d5a60208301866142dc565b615d6760408301856143f2565b8181036060830152615d798184615cff565b905095945050505050565b600081519050615d9381614106565b92915050565b600060208284031215615daf57615dae6140d0565b5b6000615dbd84828501615d84565b91505092915050565b7f4e487b7100000000000000000000000000000000000000000000000000000000600052601260045260246000fdfea2646970667358221220f67401a4bf516a8475a47ebb957a5645e07b723a8f2cc06a359751017d0f721b64736f6c63430008120033",
  "immutableReferences": {},
  "source": "// SPDX-License-Identifier: MIT\npragma solidity >=0.4.22 <0.9.0;\n\nimport '@openzeppelin/contracts/token/ERC721/ERC721.sol';\nimport '@openzeppelin/contracts/token/ERC721/extensions/ERC721URIStorage.sol';\nimport '@openzeppelin/contracts/security/ReentrancyGuard.sol';\nimport './MiningDAOInvestTickets.sol';\n\n// ADD 5% Royalty\n// ADD STATIC Variable method\n// Attention royalty check par rapport  blur.\n\n\n\ncontract MiningDAOCommercialOffer is ERC721URIStorage, Ownable, ReentrancyGuard{\n    using Counters for Counters.Counter;\n\n\n    MiningDAOInvestTickets private InvestTicketsContract;\n\n    enum WorkflowStatus {\n        Initialized,\n        MintTicketsRegistrationStarted,\n        MintTicketsRegistrationEnded,\n        DAOTeamSignatureCompleted,\n        Running,\n        CanceledMinimumTicketsNotReach,\n        Stopped\n    }\n\n    struct OfferDetail {\n        string offerName;\n        string ref;\n        uint minimumTickets;\n        uint maximumTickets;\n        uint ticketsCounter;\n        uint lockTimeLimit;\n    }\n\n    struct InvestTicket {\n        address investTicketOwner;\n        uint256 tokenId;\n        bool isStaked;\n    }\n\n    struct InvestTicketsStaked {\n        Counters.Counter amountOfTicketStaked;\n        mapping(uint => LinkedListInvestTicket) stakedInvestTickets;\n    }\n\n    struct OfferTicket {\n        address ticketOwner;\n        uint256 power;\n        string tokenUri;\n        uint tokenId;\n        Counters.Counter unclaimedMonths;\n        uint256 unclaimedValue;\n        uint256 timeOfLastRewardUpdate;\n    }\n\n    struct OfferTicketProps {\n        address ticketOwner;\n        uint power;\n        string tokenUri;\n    }\n\n    struct LinkedListInvestTicket {\n        uint previousIndex;\n        InvestTicket ticket;\n        uint nextIndex;\n    }\n\n    // GLOBAL\n\n    address DAOWallet;\n    address[] DAOTeamWallets;\n    address treasuryWallet;\n    string offerName;\n    string ref;\n    mapping(address => bool) whitelisted;\n\n    WorkflowStatus public workflowStatus;\n\n    // PHASE 1\n    uint minimumTickets;\n    uint maximumTickets;\n    Counters.Counter ticketsCounter;\n    uint lockTimeLimit;\n    LinkedListInvestTicket linkedListHead;\n    LinkedListInvestTicket linkedListLast;\n    mapping(uint => LinkedListInvestTicket) stakedList;\n    mapping(address => InvestTicketsStaked) investTicketsStaked;\n\n\n    // PHASE 2\n    uint256 timeOfLastRewardUpdate;\n    uint256 totalTHPower;\n    OfferTicket[] offerOwnersList;\n    mapping(address => OfferTicket) public offerTicketOwners;\n\n    event InvestTicketStaked(InvestTicket ticket);\n    event InvestTicketUnstaked(InvestTicket ticket);\n    event RewardClaimed(OfferTicket ticket);\n    event WorkflowStatusChanged(WorkflowStatus previous, WorkflowStatus current);\n\n    //CONSTRUCTOR\n    constructor(\n        address _InvestTicketsContractAddress,\n        string memory _offerName,\n        string memory _ref,\n        string memory _collectionName,\n        address _DAOWallet,\n        address[] memory _DAOTeamWallets,\n        address _treasuryWallet,\n        uint _minimumTickets,\n        uint _maximumTickets,\n        uint _lockTimeLimit\n    ) ERC721(_collectionName, _ref){\n        InvestTicketsContract = MiningDAOInvestTickets(_InvestTicketsContractAddress);\n        offerName = _offerName;\n        ref = _ref;\n        DAOWallet = _DAOWallet;\n        DAOTeamWallets = _DAOTeamWallets;\n        treasuryWallet = _treasuryWallet;\n        minimumTickets = _minimumTickets;\n        maximumTickets = _maximumTickets;\n        lockTimeLimit = _lockTimeLimit;\n\n        whitelisted[_DAOWallet] = true;\n        for(uint i = 0; i < _DAOTeamWallets.length; i++){\n            whitelisted[_DAOTeamWallets[i]] = true;\n        }\n    }\n\n    //MODIFIER CHECK whitelistedOwner\n    modifier isWhitelisted() {\n        require(whitelisted[msg.sender] == true, \"You are not whitelisted\");\n        _;\n    }\n\n    //MODIFIER CHECK isInvestTicketStaker\n    modifier isInvestTicketStacker() {\n        require(investTicketsStaked[msg.sender].amountOfTicketStaked.current() >= 1, \"You have 0 Ticket Staked\");\n        _;\n    }\n\n    //MOFICIER CHECK isOfferTicketOwner\n    modifier isOfferTicketOwner() {\n        require(offerTicketOwners[msg.sender].power >= 1, \"You are not an offer ticket owner\");\n        _;\n    }\n\n    function getOfferDetail() public view returns (OfferDetail memory) {\n        return OfferDetail(offerName, ref, minimumTickets, maximumTickets, ticketsCounter.current(), lockTimeLimit);\n    }\n\n    function getStakedTicket(uint _tokenId) public view returns (LinkedListInvestTicket memory) {\n        //return stakedList[_tokenId];\n        return linkedListLast;\n    }\n\n    function getTotalStakedTicket() public view returns (uint) {\n        return ticketsCounter.current();\n    }\n\n    function getStakedList() public view returns (InvestTicket[] memory) {\n        InvestTicket[] memory ticketsList = new InvestTicket[](ticketsCounter.current());\n        uint index;\n        if(ticketsCounter.current() == 0){\n            return ticketsList;\n        }\n        LinkedListInvestTicket memory current = linkedListHead;\n        ticketsList[index++] = current.ticket;\n        while(current.nextIndex != 0) {\n            current = stakedList[current.nextIndex];\n            ticketsList[index++] = current.ticket;\n        }\n        return ticketsList;\n    }\n\n    //STAKE INVEST TICKET METHOD\n    function stakeTicket(uint _tokenId) external {\n        require(workflowStatus == WorkflowStatus.MintTicketsRegistrationStarted, \"Staking is not authorized anymore\");\n        require(!investTicketsStaked[msg.sender].stakedInvestTickets[_tokenId].ticket.isStaked, \"Ticket already staked\");\n        InvestTicketsContract.stakeTicket(msg.sender, _tokenId);\n        InvestTicket memory investTicket = InvestTicket(msg.sender, _tokenId, true);\n\n        LinkedListInvestTicket memory item;\n        if(!linkedListHead.ticket.isStaked) {\n            item = LinkedListInvestTicket(0,investTicket,0);\n            linkedListHead = item;\n        } else {\n            item = LinkedListInvestTicket(linkedListLast.ticket.tokenId,investTicket,0);\n            stakedList[linkedListLast.ticket.tokenId].nextIndex = item.ticket.tokenId;\n        }\n        if(ticketsCounter.current() == 1) {\n            linkedListHead.nextIndex = _tokenId;\n        }\n        stakedList[_tokenId] = item;\n        linkedListLast = item;\n\n        investTicketsStaked[msg.sender].stakedInvestTickets[_tokenId] = item;\n        investTicketsStaked[msg.sender].amountOfTicketStaked.increment();\n\n        ticketsCounter.increment();\n        if(ticketsCounter.current() == maximumTickets){\n            mintTicketRegistrationEnded();\n        }\n\n        emit InvestTicketStaked(item.ticket);\n    }\n\n    //UNSTAKE INVEST TICKET METHOD\n    function unstakeTicket(uint _tokenId) external isInvestTicketStacker {\n        require(workflowStatus == WorkflowStatus.MintTicketsRegistrationStarted, \"Staking is not authorized anymore\");\n        require(investTicketsStaked[msg.sender].stakedInvestTickets[_tokenId].ticket.isStaked, \"Ticket is not staked\");\n        InvestTicketsContract.unstakeTicket(msg.sender, _tokenId);\n\n        LinkedListInvestTicket memory item = stakedList[_tokenId];\n        LinkedListInvestTicket memory _default;\n        if(ticketsCounter.current() == 1) {\n            linkedListHead = _default;\n            linkedListLast = _default;\n        }else if(linkedListHead.ticket.tokenId == _tokenId) {\n            if(linkedListHead.nextIndex == linkedListLast.ticket.tokenId){\n                linkedListHead = LinkedListInvestTicket(0,stakedList[linkedListHead.nextIndex].ticket,0);\n                linkedListLast = _default;\n            } else {\n                linkedListHead = stakedList[linkedListHead.nextIndex];\n                linkedListHead.previousIndex = 0;\n            }\n        }else if(linkedListLast.ticket.tokenId == _tokenId){\n            if(linkedListHead.nextIndex == linkedListLast.ticket.tokenId){\n                linkedListHead.nextIndex = 0;\n                linkedListLast = _default;\n            } else {\n                linkedListLast = stakedList[linkedListLast.previousIndex];\n                linkedListLast.nextIndex = 0;\n            }\n        }else{\n            LinkedListInvestTicket memory previous = stakedList[item.previousIndex];\n            LinkedListInvestTicket memory next = stakedList[item.nextIndex];\n            previous.nextIndex = item.nextIndex;\n            next.previousIndex = item.previousIndex;\n            if(linkedListHead.ticket.tokenId == previous.ticket.tokenId) {\n                linkedListHead = previous;\n            }\n            if(linkedListLast.ticket.tokenId == next.ticket.tokenId) {\n                linkedListLast = previous;\n            }\n        }\n        delete stakedList[_tokenId];\n\n        investTicketsStaked[msg.sender].amountOfTicketStaked.decrement();\n        delete investTicketsStaked[msg.sender].stakedInvestTickets[_tokenId];\n        ticketsCounter.decrement();\n\n        emit InvestTicketUnstaked(item.ticket);\n    }\n\n    function unstakeAllTickets() internal {\n        //Unstake all Tickets\n    }\n\n\n\n    //DAOSIGNATURE REQUEST\n    function DAOTeamSignatureRequest() external {\n        require(msg.sender == DAOWallet, \"You are not the DAO !\");\n        require(workflowStatus == WorkflowStatus.MintTicketsRegistrationEnded);\n        DAOTeamSignatureCompleted();\n    }\n\n    //GENERATE OFFER NFT\n    function generateOfferNFT(OfferTicketProps[] calldata _offerTicketData, uint256 totalThPower) public onlyOwner {\n        require(workflowStatus == WorkflowStatus.DAOTeamSignatureCompleted, 'DAO must have signed first');\n        uint tokenId = 1;\n        timeOfLastRewardUpdate = block.timestamp;\n        for(uint i; i < _offerTicketData.length; i++) {\n            Counters.Counter memory counter;\n            OfferTicketProps memory ticketData = _offerTicketData[i];\n            OfferTicket memory ticket = OfferTicket(ticketData.ticketOwner, ticketData.power, ticketData.tokenUri, tokenId, counter, 0, block.timestamp);\n            offerOwnersList.push(ticket);\n            offerTicketOwners[ticketData.ticketOwner] = ticket;\n\n            _mint(ticketData.ticketOwner, tokenId);\n            _setTokenURI(tokenId, ticketData.tokenUri);\n\n            tokenId++;\n        }\n\n        burnAllTickets();\n        running();\n    }\n\n    function burnAllTickets() internal {\n        require(workflowStatus == WorkflowStatus.DAOTeamSignatureCompleted, 'DAO must have signed first');\n        InvestTicket[] memory investTickets = getStakedList();\n        for(uint i; i < investTickets.length; i++) {\n            InvestTicket memory ticket = investTickets[i];\n            InvestTicketsContract.useTicket(ticket.investTicketOwner, ticket.tokenId);\n        }\n    }\n\n    //HANDLE OFFER NFT TRANSFER (ownership change)\n\n    //***\n    //CHANGE WORKFLOWSTATUS\n    //***\n\n    //START MINT TICKET REGISTRATION\n    function mintTicketRegistrationStarted() external onlyOwner {\n        require(workflowStatus == WorkflowStatus.Initialized, \"Mint ticket registration have not been started yet\");\n        workflowStatus = WorkflowStatus.MintTicketsRegistrationStarted;\n        emit WorkflowStatusChanged(WorkflowStatus.Initialized, WorkflowStatus.MintTicketsRegistrationStarted);\n    }\n\n    //END MINT TICKET REGISTRATION\n    function mintTicketRegistrationEnded() internal {\n        require(workflowStatus == WorkflowStatus.MintTicketsRegistrationStarted, \"Mint ticket registration have not been started yet\");\n        if(ticketsCounter.current() < minimumTickets){\n            workflowStatus = WorkflowStatus.CanceledMinimumTicketsNotReach;\n            unstakeAllTickets();\n            emit WorkflowStatusChanged(WorkflowStatus.MintTicketsRegistrationStarted, WorkflowStatus.CanceledMinimumTicketsNotReach);\n        } else {\n            workflowStatus = WorkflowStatus.MintTicketsRegistrationEnded;\n            emit WorkflowStatusChanged(WorkflowStatus.MintTicketsRegistrationStarted, WorkflowStatus.MintTicketsRegistrationEnded);\n        }\n\n    }\n\n    function DAOTeamSignatureCompleted() internal {\n        require(workflowStatus == WorkflowStatus.MintTicketsRegistrationEnded, \"Ticket registration not ended\");\n        workflowStatus = WorkflowStatus.DAOTeamSignatureCompleted;\n        emit WorkflowStatusChanged(WorkflowStatus.MintTicketsRegistrationEnded, WorkflowStatus.DAOTeamSignatureCompleted);\n    }\n\n    function running() internal {\n        require(workflowStatus == WorkflowStatus.DAOTeamSignatureCompleted, 'DAO Team need to sign first in order to generate NFT');\n        workflowStatus = WorkflowStatus.Running;\n        emit WorkflowStatusChanged(WorkflowStatus.DAOTeamSignatureCompleted, WorkflowStatus.Running);\n    }\n\n    //SWITCH TO RUNNING MODE (need totalThPower and set timeOfLastRewardUpdate)\n\n    //***\n    //CRON TASK\n    //***\n\n    //CHECK IF TIME EXPIRED\n    function checkLockTimeExpired() external {\n        if(lockTimeLimit > block.timestamp) {\n            mintTicketRegistrationEnded();\n        }\n    }\n\n    //CHECK IF BEGIN OF NEW MONTH SO COMPUTE REWARD\n\n}",
  "sourcePath": "/Users/dylandivito/DEV/Solidity/Mining-DAO/truffle/contracts/MiningDAOCommercialOffer.sol",
  "compiler": {
    "name": "solc",
    "version": "0.8.18+commit.87f61d96.Emscripten.clang"
  },
  "schemaVersion": "3.4.11",
  "updatedAt": "2023-04-09T08:40:49.344Z",
  "networkType": "ethereum",
  "devdoc": {
    "events": {
      "Approval(address,address,uint256)": {
        "details": "Emitted when `owner` enables `approved` to manage the `tokenId` token."
      },
      "ApprovalForAll(address,address,bool)": {
        "details": "Emitted when `owner` enables or disables (`approved`) `operator` to manage all of its assets."
      },
      "Transfer(address,address,uint256)": {
        "details": "Emitted when `tokenId` token is transferred from `from` to `to`."
      }
    },
    "kind": "dev",
    "methods": {
      "approve(address,uint256)": {
        "details": "See {IERC721-approve}."
      },
      "balanceOf(address)": {
        "details": "See {IERC721-balanceOf}."
      },
      "getApproved(uint256)": {
        "details": "See {IERC721-getApproved}."
      },
      "isApprovedForAll(address,address)": {
        "details": "See {IERC721-isApprovedForAll}."
      },
      "name()": {
        "details": "See {IERC721Metadata-name}."
      },
      "owner()": {
        "details": "Returns the address of the current owner."
      },
      "ownerOf(uint256)": {
        "details": "See {IERC721-ownerOf}."
      },
      "renounceOwnership()": {
        "details": "Leaves the contract without owner. It will not be possible to call `onlyOwner` functions anymore. Can only be called by the current owner. NOTE: Renouncing ownership will leave the contract without an owner, thereby removing any functionality that is only available to the owner."
      },
      "safeTransferFrom(address,address,uint256)": {
        "details": "See {IERC721-safeTransferFrom}."
      },
      "safeTransferFrom(address,address,uint256,bytes)": {
        "details": "See {IERC721-safeTransferFrom}."
      },
      "setApprovalForAll(address,bool)": {
        "details": "See {IERC721-setApprovalForAll}."
      },
      "supportsInterface(bytes4)": {
        "details": "See {IERC165-supportsInterface}."
      },
      "symbol()": {
        "details": "See {IERC721Metadata-symbol}."
      },
      "tokenURI(uint256)": {
        "details": "See {IERC721Metadata-tokenURI}."
      },
      "transferFrom(address,address,uint256)": {
        "details": "See {IERC721-transferFrom}."
      },
      "transferOwnership(address)": {
        "details": "Transfers ownership of the contract to a new account (`newOwner`). Can only be called by the current owner."
      }
    },
    "version": 1
  },
  "userdoc": {
    "kind": "user",
    "methods": {},
    "version": 1
  }
}