{
  "contractName": "MiningDAOInvestTickets",
  "abi": [
    {
      "inputs": [
        {
          "internalType": "address",
          "name": "_DAOAdress",
          "type": "address"
        },
        {
          "internalType": "string",
          "name": "_tokenURI",
          "type": "string"
        }
      ],
      "stateMutability": "nonpayable",
      "type": "constructor"
    },
    {
      "anonymous": false,
      "inputs": [
        {
          "indexed": true,
          "internalType": "address",
          "name": "owner",
          "type": "address"
        },
        {
          "indexed": true,
          "internalType": "address",
          "name": "approved",
          "type": "address"
        },
        {
          "indexed": true,
          "internalType": "uint256",
          "name": "tokenId",
          "type": "uint256"
        }
      ],
      "name": "Approval",
      "type": "event"
    },
    {
      "anonymous": false,
      "inputs": [
        {
          "indexed": true,
          "internalType": "address",
          "name": "owner",
          "type": "address"
        },
        {
          "indexed": true,
          "internalType": "address",
          "name": "operator",
          "type": "address"
        },
        {
          "indexed": false,
          "internalType": "bool",
          "name": "approved",
          "type": "bool"
        }
      ],
      "name": "ApprovalForAll",
      "type": "event"
    },
    {
      "anonymous": false,
      "inputs": [
        {
          "indexed": true,
          "internalType": "address",
          "name": "previousOwner",
          "type": "address"
        },
        {
          "indexed": true,
          "internalType": "address",
          "name": "newOwner",
          "type": "address"
        }
      ],
      "name": "OwnershipTransferred",
      "type": "event"
    },
    {
      "anonymous": false,
      "inputs": [
        {
          "components": [
            {
              "internalType": "uint256",
              "name": "tokenId",
              "type": "uint256"
            },
            {
              "internalType": "uint256",
              "name": "index",
              "type": "uint256"
            },
            {
              "internalType": "address",
              "name": "ticketOwner",
              "type": "address"
            },
            {
              "internalType": "address",
              "name": "escrowContract",
              "type": "address"
            },
            {
              "internalType": "uint256",
              "name": "gweiValue",
              "type": "uint256"
            },
            {
              "internalType": "bool",
              "name": "isUsed",
              "type": "bool"
            },
            {
              "internalType": "bool",
              "name": "isMinted",
              "type": "bool"
            },
            {
              "internalType": "bool",
              "name": "isStaked",
              "type": "bool"
            }
          ],
          "indexed": false,
          "internalType": "struct MiningDAOInvestTickets.Ticket",
          "name": "ticket",
          "type": "tuple"
        }
      ],
      "name": "TicketBurned",
      "type": "event"
    },
    {
      "anonymous": false,
      "inputs": [
        {
          "components": [
            {
              "internalType": "uint256",
              "name": "tokenId",
              "type": "uint256"
            },
            {
              "internalType": "uint256",
              "name": "index",
              "type": "uint256"
            },
            {
              "internalType": "address",
              "name": "ticketOwner",
              "type": "address"
            },
            {
              "internalType": "address",
              "name": "escrowContract",
              "type": "address"
            },
            {
              "internalType": "uint256",
              "name": "gweiValue",
              "type": "uint256"
            },
            {
              "internalType": "bool",
              "name": "isUsed",
              "type": "bool"
            },
            {
              "internalType": "bool",
              "name": "isMinted",
              "type": "bool"
            },
            {
              "internalType": "bool",
              "name": "isStaked",
              "type": "bool"
            }
          ],
          "indexed": false,
          "internalType": "struct MiningDAOInvestTickets.Ticket",
          "name": "ticket",
          "type": "tuple"
        }
      ],
      "name": "TicketMinted",
      "type": "event"
    },
    {
      "anonymous": false,
      "inputs": [
        {
          "components": [
            {
              "internalType": "uint256",
              "name": "tokenId",
              "type": "uint256"
            },
            {
              "internalType": "uint256",
              "name": "index",
              "type": "uint256"
            },
            {
              "internalType": "address",
              "name": "ticketOwner",
              "type": "address"
            },
            {
              "internalType": "address",
              "name": "escrowContract",
              "type": "address"
            },
            {
              "internalType": "uint256",
              "name": "gweiValue",
              "type": "uint256"
            },
            {
              "internalType": "bool",
              "name": "isUsed",
              "type": "bool"
            },
            {
              "internalType": "bool",
              "name": "isMinted",
              "type": "bool"
            },
            {
              "internalType": "bool",
              "name": "isStaked",
              "type": "bool"
            }
          ],
          "indexed": false,
          "internalType": "struct MiningDAOInvestTickets.Ticket",
          "name": "ticket",
          "type": "tuple"
        }
      ],
      "name": "TicketRefund",
      "type": "event"
    },
    {
      "anonymous": false,
      "inputs": [
        {
          "components": [
            {
              "internalType": "uint256",
              "name": "tokenId",
              "type": "uint256"
            },
            {
              "internalType": "uint256",
              "name": "index",
              "type": "uint256"
            },
            {
              "internalType": "address",
              "name": "ticketOwner",
              "type": "address"
            },
            {
              "internalType": "address",
              "name": "escrowContract",
              "type": "address"
            },
            {
              "internalType": "uint256",
              "name": "gweiValue",
              "type": "uint256"
            },
            {
              "internalType": "bool",
              "name": "isUsed",
              "type": "bool"
            },
            {
              "internalType": "bool",
              "name": "isMinted",
              "type": "bool"
            },
            {
              "internalType": "bool",
              "name": "isStaked",
              "type": "bool"
            }
          ],
          "indexed": false,
          "internalType": "struct MiningDAOInvestTickets.Ticket",
          "name": "ticket",
          "type": "tuple"
        }
      ],
      "name": "TicketStaked",
      "type": "event"
    },
    {
      "anonymous": false,
      "inputs": [
        {
          "components": [
            {
              "internalType": "uint256",
              "name": "tokenId",
              "type": "uint256"
            },
            {
              "internalType": "uint256",
              "name": "index",
              "type": "uint256"
            },
            {
              "internalType": "address",
              "name": "ticketOwner",
              "type": "address"
            },
            {
              "internalType": "address",
              "name": "escrowContract",
              "type": "address"
            },
            {
              "internalType": "uint256",
              "name": "gweiValue",
              "type": "uint256"
            },
            {
              "internalType": "bool",
              "name": "isUsed",
              "type": "bool"
            },
            {
              "internalType": "bool",
              "name": "isMinted",
              "type": "bool"
            },
            {
              "internalType": "bool",
              "name": "isStaked",
              "type": "bool"
            }
          ],
          "indexed": false,
          "internalType": "struct MiningDAOInvestTickets.Ticket",
          "name": "ticket",
          "type": "tuple"
        }
      ],
      "name": "TicketUnstaked",
      "type": "event"
    },
    {
      "anonymous": false,
      "inputs": [
        {
          "indexed": true,
          "internalType": "address",
          "name": "from",
          "type": "address"
        },
        {
          "indexed": true,
          "internalType": "address",
          "name": "to",
          "type": "address"
        },
        {
          "indexed": true,
          "internalType": "uint256",
          "name": "tokenId",
          "type": "uint256"
        }
      ],
      "name": "Transfer",
      "type": "event"
    },
    {
      "inputs": [
        {
          "internalType": "address",
          "name": "to",
          "type": "address"
        },
        {
          "internalType": "uint256",
          "name": "tokenId",
          "type": "uint256"
        }
      ],
      "name": "approve",
      "outputs": [],
      "stateMutability": "nonpayable",
      "type": "function"
    },
    {
      "inputs": [
        {
          "internalType": "address",
          "name": "owner",
          "type": "address"
        }
      ],
      "name": "balanceOf",
      "outputs": [
        {
          "internalType": "uint256",
          "name": "",
          "type": "uint256"
        }
      ],
      "stateMutability": "view",
      "type": "function",
      "constant": true
    },
    {
      "inputs": [
        {
          "internalType": "uint256",
          "name": "tokenId",
          "type": "uint256"
        }
      ],
      "name": "getApproved",
      "outputs": [
        {
          "internalType": "address",
          "name": "",
          "type": "address"
        }
      ],
      "stateMutability": "view",
      "type": "function",
      "constant": true
    },
    {
      "inputs": [
        {
          "internalType": "address",
          "name": "owner",
          "type": "address"
        },
        {
          "internalType": "address",
          "name": "operator",
          "type": "address"
        }
      ],
      "name": "isApprovedForAll",
      "outputs": [
        {
          "internalType": "bool",
          "name": "",
          "type": "bool"
        }
      ],
      "stateMutability": "view",
      "type": "function",
      "constant": true
    },
    {
      "inputs": [],
      "name": "name",
      "outputs": [
        {
          "internalType": "string",
          "name": "",
          "type": "string"
        }
      ],
      "stateMutability": "view",
      "type": "function",
      "constant": true
    },
    {
      "inputs": [],
      "name": "owner",
      "outputs": [
        {
          "internalType": "address",
          "name": "",
          "type": "address"
        }
      ],
      "stateMutability": "view",
      "type": "function",
      "constant": true
    },
    {
      "inputs": [
        {
          "internalType": "uint256",
          "name": "tokenId",
          "type": "uint256"
        }
      ],
      "name": "ownerOf",
      "outputs": [
        {
          "internalType": "address",
          "name": "",
          "type": "address"
        }
      ],
      "stateMutability": "view",
      "type": "function",
      "constant": true
    },
    {
      "inputs": [],
      "name": "renounceOwnership",
      "outputs": [],
      "stateMutability": "nonpayable",
      "type": "function"
    },
    {
      "inputs": [
        {
          "internalType": "address",
          "name": "operator",
          "type": "address"
        },
        {
          "internalType": "bool",
          "name": "approved",
          "type": "bool"
        }
      ],
      "name": "setApprovalForAll",
      "outputs": [],
      "stateMutability": "nonpayable",
      "type": "function"
    },
    {
      "inputs": [
        {
          "internalType": "bytes4",
          "name": "interfaceId",
          "type": "bytes4"
        }
      ],
      "name": "supportsInterface",
      "outputs": [
        {
          "internalType": "bool",
          "name": "",
          "type": "bool"
        }
      ],
      "stateMutability": "view",
      "type": "function",
      "constant": true
    },
    {
      "inputs": [],
      "name": "symbol",
      "outputs": [
        {
          "internalType": "string",
          "name": "",
          "type": "string"
        }
      ],
      "stateMutability": "view",
      "type": "function",
      "constant": true
    },
    {
      "inputs": [
        {
          "internalType": "uint256",
          "name": "tokenId",
          "type": "uint256"
        }
      ],
      "name": "tokenURI",
      "outputs": [
        {
          "internalType": "string",
          "name": "",
          "type": "string"
        }
      ],
      "stateMutability": "view",
      "type": "function",
      "constant": true
    },
    {
      "inputs": [
        {
          "internalType": "address",
          "name": "from",
          "type": "address"
        },
        {
          "internalType": "address",
          "name": "to",
          "type": "address"
        },
        {
          "internalType": "uint256",
          "name": "tokenId",
          "type": "uint256"
        }
      ],
      "name": "transferFrom",
      "outputs": [],
      "stateMutability": "nonpayable",
      "type": "function"
    },
    {
      "inputs": [
        {
          "internalType": "address",
          "name": "newOwner",
          "type": "address"
        }
      ],
      "name": "transferOwnership",
      "outputs": [],
      "stateMutability": "nonpayable",
      "type": "function"
    },
    {
      "inputs": [],
      "name": "getWhitelistedList",
      "outputs": [
        {
          "internalType": "address[]",
          "name": "",
          "type": "address[]"
        }
      ],
      "stateMutability": "view",
      "type": "function",
      "constant": true
    },
    {
      "inputs": [
        {
          "internalType": "address",
          "name": "_contract",
          "type": "address"
        }
      ],
      "name": "whitelist",
      "outputs": [],
      "stateMutability": "nonpayable",
      "type": "function"
    },
    {
      "inputs": [
        {
          "internalType": "address",
          "name": "_contract",
          "type": "address"
        }
      ],
      "name": "unWhitelist",
      "outputs": [],
      "stateMutability": "nonpayable",
      "type": "function"
    },
    {
      "inputs": [
        {
          "internalType": "address",
          "name": "_address",
          "type": "address"
        }
      ],
      "name": "getTicketsByAddress",
      "outputs": [
        {
          "components": [
            {
              "internalType": "uint256",
              "name": "tokenId",
              "type": "uint256"
            },
            {
              "internalType": "uint256",
              "name": "index",
              "type": "uint256"
            },
            {
              "internalType": "address",
              "name": "ticketOwner",
              "type": "address"
            },
            {
              "internalType": "address",
              "name": "escrowContract",
              "type": "address"
            },
            {
              "internalType": "uint256",
              "name": "gweiValue",
              "type": "uint256"
            },
            {
              "internalType": "bool",
              "name": "isUsed",
              "type": "bool"
            },
            {
              "internalType": "bool",
              "name": "isMinted",
              "type": "bool"
            },
            {
              "internalType": "bool",
              "name": "isStaked",
              "type": "bool"
            }
          ],
          "internalType": "struct MiningDAOInvestTickets.Ticket[]",
          "name": "",
          "type": "tuple[]"
        }
      ],
      "stateMutability": "view",
      "type": "function",
      "constant": true
    },
    {
      "inputs": [
        {
          "internalType": "uint256",
          "name": "_tokenId",
          "type": "uint256"
        }
      ],
      "name": "getTicketByTokenId",
      "outputs": [
        {
          "components": [
            {
              "internalType": "uint256",
              "name": "tokenId",
              "type": "uint256"
            },
            {
              "internalType": "uint256",
              "name": "index",
              "type": "uint256"
            },
            {
              "internalType": "address",
              "name": "ticketOwner",
              "type": "address"
            },
            {
              "internalType": "address",
              "name": "escrowContract",
              "type": "address"
            },
            {
              "internalType": "uint256",
              "name": "gweiValue",
              "type": "uint256"
            },
            {
              "internalType": "bool",
              "name": "isUsed",
              "type": "bool"
            },
            {
              "internalType": "bool",
              "name": "isMinted",
              "type": "bool"
            },
            {
              "internalType": "bool",
              "name": "isStaked",
              "type": "bool"
            }
          ],
          "internalType": "struct MiningDAOInvestTickets.Ticket",
          "name": "",
          "type": "tuple"
        }
      ],
      "stateMutability": "view",
      "type": "function",
      "constant": true
    },
    {
      "inputs": [],
      "name": "getTotalNFT",
      "outputs": [
        {
          "internalType": "uint256",
          "name": "",
          "type": "uint256"
        }
      ],
      "stateMutability": "view",
      "type": "function",
      "constant": true
    },
    {
      "inputs": [],
      "name": "getTokenUri",
      "outputs": [
        {
          "internalType": "string",
          "name": "",
          "type": "string"
        }
      ],
      "stateMutability": "view",
      "type": "function",
      "constant": true
    },
    {
      "inputs": [
        {
          "internalType": "string",
          "name": "_tokenUri",
          "type": "string"
        }
      ],
      "name": "setTokenURI",
      "outputs": [],
      "stateMutability": "nonpayable",
      "type": "function"
    },
    {
      "inputs": [],
      "name": "getMintPriceETH",
      "outputs": [
        {
          "internalType": "uint256",
          "name": "",
          "type": "uint256"
        }
      ],
      "stateMutability": "view",
      "type": "function",
      "constant": true
    },
    {
      "inputs": [
        {
          "internalType": "uint256",
          "name": "_price",
          "type": "uint256"
        }
      ],
      "name": "setEthPrice",
      "outputs": [],
      "stateMutability": "nonpayable",
      "type": "function"
    },
    {
      "inputs": [
        {
          "internalType": "address",
          "name": "_customer",
          "type": "address"
        }
      ],
      "name": "mintTicketETH",
      "outputs": [
        {
          "internalType": "uint256",
          "name": "",
          "type": "uint256"
        }
      ],
      "stateMutability": "payable",
      "type": "function",
      "payable": true
    },
    {
      "inputs": [
        {
          "internalType": "address",
          "name": "_origin",
          "type": "address"
        },
        {
          "internalType": "uint256",
          "name": "_tokenId",
          "type": "uint256"
        }
      ],
      "name": "stakeTicket",
      "outputs": [],
      "stateMutability": "nonpayable",
      "type": "function"
    },
    {
      "inputs": [
        {
          "internalType": "address",
          "name": "_origin",
          "type": "address"
        },
        {
          "internalType": "uint256",
          "name": "_tokenId",
          "type": "uint256"
        }
      ],
      "name": "unstakeTicket",
      "outputs": [],
      "stateMutability": "nonpayable",
      "type": "function"
    },
    {
      "inputs": [
        {
          "internalType": "address",
          "name": "_origin",
          "type": "address"
        },
        {
          "internalType": "uint256",
          "name": "_tokenId",
          "type": "uint256"
        }
      ],
      "name": "useTicket",
      "outputs": [],
      "stateMutability": "nonpayable",
      "type": "function"
    },
    {
      "inputs": [
        {
          "internalType": "address payable",
          "name": "_address",
          "type": "address"
        },
        {
          "internalType": "uint256",
          "name": "_tokenId",
          "type": "uint256"
        }
      ],
      "name": "refundTicket",
      "outputs": [],
      "stateMutability": "nonpayable",
      "type": "function"
    },
    {
      "inputs": [
        {
          "internalType": "address",
          "name": "from",
          "type": "address"
        },
        {
          "internalType": "address",
          "name": "to",
          "type": "address"
        },
        {
          "internalType": "uint256",
          "name": "tokenId",
          "type": "uint256"
        }
      ],
      "name": "safeTransferFrom",
      "outputs": [],
      "stateMutability": "nonpayable",
      "type": "function"
    },
    {
      "inputs": [
        {
          "internalType": "address",
          "name": "from",
          "type": "address"
        },
        {
          "internalType": "address",
          "name": "to",
          "type": "address"
        },
        {
          "internalType": "uint256",
          "name": "tokenId",
          "type": "uint256"
        },
        {
          "internalType": "bytes",
          "name": "data",
          "type": "bytes"
        }
      ],
      "name": "safeTransferFrom",
      "outputs": [],
      "stateMutability": "nonpayable",
      "type": "function"
    }
  ],
  "bytecode": "0x608060405266038d7ea4c680006009553480156200001c57600080fd5b5060405162003b8838038062003b888339810160408190526200003f916200016d565b6040518060400160405280601f81526020017f4d696e696e672044414f202d20496e766573746d656e74205469636b65747300815250604051806040016040528060048152602001634d44414f60e01b8152508160009081620000a39190620002f2565b506001620000b28282620002f2565b505050620000cf620000c96200010160201b60201c565b62000105565b600a80546001600160a01b0319166001600160a01b038416179055600b620000f88282620002f2565b505050620003be565b3390565b600780546001600160a01b038381166001600160a01b0319831681179093556040519116919082907f8be0079c531659141344cd1fd0a4f28419497f9722a3daafe3b4186f6b6457e090600090a35050565b634e487b7160e01b600052604160045260246000fd5b600080604083850312156200018157600080fd5b82516001600160a01b03811681146200019957600080fd5b602084810151919350906001600160401b0380821115620001b957600080fd5b818601915086601f830112620001ce57600080fd5b815181811115620001e357620001e362000157565b604051601f8201601f19908116603f011681019083821181831017156200020e576200020e62000157565b8160405282815289868487010111156200022757600080fd5b600093505b828410156200024b57848401860151818501870152928501926200022c565b60008684830101528096505050505050509250929050565b600181811c908216806200027857607f821691505b6020821081036200029957634e487b7160e01b600052602260045260246000fd5b50919050565b601f821115620002ed57600081815260208120601f850160051c81016020861015620002c85750805b601f850160051c820191505b81811015620002e957828155600101620002d4565b5050505b505050565b81516001600160401b038111156200030e576200030e62000157565b62000326816200031f845462000263565b846200029f565b602080601f8311600181146200035e5760008415620003455750858301515b600019600386901b1c1916600185901b178555620002e9565b600085815260208120601f198616915b828110156200038f578886015182559484019460019091019084016200036e565b5085821015620003ae5787850151600019600388901b60f8161c191681555b5050505050600190811b01905550565b6137ba80620003ce6000396000f3fe6080604052600436106101d75760003560e01c80638da5cb5b11610102578063c395c8af11610095578063e985e9c511610064578063e985e9c514610608578063f21af00714610628578063f2fde38b14610648578063f5e47f961461066857600080fd5b8063c395c8af146104c2578063c87b56dd146104d7578063e0df5b6f146104f7578063e8af32531461051757600080fd5b8063ae5d1371116100d1578063ae5d137114610465578063af8052c014610478578063b88d4fde1461048d578063bcf16f2d146104ad57600080fd5b80638da5cb5b146103f257806395d89b41146104105780639b19251a14610425578063a22cb4651461044557600080fd5b806323b872dd1161017a5780636352211e116101495780636352211e1461036f578063705099b91461038f57806370a08231146103af578063715018a6146103dd57600080fd5b806323b872dd146102ed5780633627c1971461030d57806342842e0e1461032f5780634c5754231461034f57600080fd5b8063081812fc116101b6578063081812fc14610255578063095ea7b31461028d5780631457e16f146102ad57806320983649146102cd57600080fd5b80629f9262146101dc57806301ffc9a7146101fe57806306fdde0314610233575b600080fd5b3480156101e857600080fd5b506101fc6101f7366004612e57565b610695565b005b34801561020a57600080fd5b5061021e610219366004612e86565b6106a2565b60405190151581526020015b60405180910390f35b34801561023f57600080fd5b506102486106f4565b60405161022a9190612ef3565b34801561026157600080fd5b50610275610270366004612e57565b610786565b6040516001600160a01b03909116815260200161022a565b34801561029957600080fd5b506101fc6102a8366004612f1b565b6107ad565b3480156102b957600080fd5b506101fc6102c8366004612f1b565b6108c7565b3480156102d957600080fd5b506101fc6102e8366004612f1b565b610c06565b3480156102f957600080fd5b506101fc610308366004612f47565b610f35565b34801561031957600080fd5b50610322610f66565b60405161022a9190612f88565b34801561033b57600080fd5b506101fc61034a366004612f47565b610fc7565b34801561035b57600080fd5b506101fc61036a366004612f1b565b611004565b34801561037b57600080fd5b5061027561038a366004612e57565b61126d565b34801561039b57600080fd5b506101fc6103aa366004612f1b565b6112cd565b3480156103bb57600080fd5b506103cf6103ca366004612fd5565b611602565b60405190815260200161022a565b3480156103e957600080fd5b506101fc611688565b3480156103fe57600080fd5b506007546001600160a01b0316610275565b34801561041c57600080fd5b5061024861169c565b34801561043157600080fd5b506101fc610440366004612fd5565b6116ab565b34801561045157600080fd5b506101fc610460366004612ff2565b611719565b6103cf610473366004612fd5565b611728565b34801561048457600080fd5b506009546103cf565b34801561049957600080fd5b506101fc6104a8366004613046565b611b23565b3480156104b957600080fd5b506103cf611b5b565b3480156104ce57600080fd5b50610248611b6b565b3480156104e357600080fd5b506102486104f2366004612e57565b611b7a565b34801561050357600080fd5b506101fc610512366004613126565b611c8a565b34801561052357600080fd5b506105fb610532366004612e57565b6040805161010081018252600080825260208201819052918101829052606081018290526080810182905260a0810182905260c0810182905260e0810191909152506000908152600e6020908152604091829020825161010080820185528254825260018301549382019390935260028201546001600160a01b039081169482019490945260038201549093166060840152600481015460808401526005015460ff808216151560a08501529181048216151560c084015262010000900416151560e082015290565b60405161022a91906131fa565b34801561061457600080fd5b5061021e610623366004613209565b611c9f565b34801561063457600080fd5b506101fc610643366004612fd5565b611ccd565b34801561065457600080fd5b506101fc610663366004612fd5565b611ce1565b34801561067457600080fd5b50610688610683366004612fd5565b611d57565b60405161022a9190613237565b61069d611e35565b600955565b60006001600160e01b031982166380ac58cd60e01b14806106d357506001600160e01b03198216635b5e139f60e01b145b806106ee57506301ffc9a760e01b6001600160e01b03198316145b92915050565b6060600080546107039061327a565b80601f016020809104026020016040519081016040528092919081815260200182805461072f9061327a565b801561077c5780601f106107515761010080835404028352916020019161077c565b820191906000526020600020905b81548152906001019060200180831161075f57829003601f168201915b5050505050905090565b600061079182611e8f565b506000908152600460205260409020546001600160a01b031690565b60006107b88261126d565b9050806001600160a01b0316836001600160a01b03160361082a5760405162461bcd60e51b815260206004820152602160248201527f4552433732313a20617070726f76616c20746f2063757272656e74206f776e656044820152603960f91b60648201526084015b60405180910390fd5b336001600160a01b038216148061084657506108468133611c9f565b6108b85760405162461bcd60e51b815260206004820152603d60248201527f4552433732313a20617070726f76652063616c6c6572206973206e6f7420746f60448201527f6b656e206f776e6572206f7220617070726f76656420666f7220616c6c0000006064820152608401610821565b6108c28383611eee565b505050565b6000818152600e6020908152604091829020825161010080820185528254825260018301549382019390935260028201546001600160a01b039081169482019490945260038201549093166060840152600481015460808401526005015460ff808216151560a08501529181048216151560c0840181905262010000909104909116151560e083015261096c5760405162461bcd60e51b8152600401610821906132b4565b8060a001511561098e5760405162461bcd60e51b8152600401610821906132da565b826001600160a01b031681604001516001600160a01b0316146109c35760405162461bcd60e51b81526004016108219061331b565b336000908152600f602052604090205460ff166109f25760405162461bcd60e51b81526004016108219061334b565b8060e0015115610a3b5760405162461bcd60e51b8152602060048201526014602482015273151bdad95b88185b1c9958591e481cdd185ad95960621b6044820152606401610821565b600160e0820181815233606084019081526000858152600e6020908152604080832087518155828801805197820197909755818801516002820180546001600160a01b039283166001600160a01b031991821617909155955160038301805491831691909716179095556080880151600482015560a08801516005909101805460c08a015197511515620100000262ff0000199815156101000261ff00199415159490941661ffff19909216919091179290921796909616179094559187168152600c9091522090518154839291908110610b1857610b1861338f565b600091825260209182902083516006909202019081559082015160018201556040808301516002830180546001600160a01b039283166001600160a01b03199182161790915560608501516003850180549190931691161790556080830151600483015560a08301516005909201805460c085015160e0909501511515620100000262ff0000199515156101000261ff00199515159590951661ffff1990921691909117939093179390931691909117909155517ff7c5e117cc8655a7469c2ebadf7f35c8c89e46ff3304ed5cc0fd2daf5b1040fd90610bf99083906131fa565b60405180910390a1505050565b6000818152600e6020908152604091829020825161010080820185528254825260018301549382019390935260028201546001600160a01b039081169482019490945260038201549093166060840152600481015460808401526005015460ff808216151560a08501529181048216151560c0840181905262010000909104909116151560e0830152610cab5760405162461bcd60e51b8152600401610821906132b4565b8060a0015115610ccd5760405162461bcd60e51b8152600401610821906132da565b826001600160a01b031681604001516001600160a01b031614610d025760405162461bcd60e51b81526004016108219061331b565b336000908152600f602052604090205460ff16610d315760405162461bcd60e51b81526004016108219061334b565b8060e00151610d785760405162461bcd60e51b8152602060048201526013602482015272151bdad95b881a5cc81b9bdd081cdd185ad959606a1b6044820152606401610821565b600060e0820181815260608301828152848352600e602090815260408085208651815582870180516001830155828801516002830180546001600160a01b039283166001600160a01b031991821617909155955160038401805491831691909716179095556080880151600483015560a08801516005909201805460c08a015197511515620100000262ff0000199815156101000261ff00199515159590951661ffff19909216919091179390931796909616919091179094559187168452600c905290912090518154839291908110610e5457610e5461338f565b600091825260209182902083516006909202019081559082015160018201556040808301516002830180546001600160a01b039283166001600160a01b03199182161790915560608501516003850180549190931691161790556080830151600483015560a08301516005909201805460c085015160e0909501511515620100000262ff0000199515156101000261ff00199515159590951661ffff1990921691909117939093179390931691909117909155517f802aed120367922d34d477c798f1ce3f243fe4f443b7c1f756e3ae38902b544c90610bf99083906131fa565b610f3f3382611f5c565b610f5b5760405162461bcd60e51b8152600401610821906133a5565b6108c2838383611fba565b6060601080548060200260200160405190810160405280929190818152602001828054801561077c57602002820191906000526020600020905b81546001600160a01b03168152600190910190602001808311610fa0575050505050905090565b610fd283838361212b565b6000908152600e6020526040902060020180546001600160a01b0319166001600160a01b039290921691909117905550565b6000818152600e6020908152604091829020825161010080820185528254825260018301549382019390935260028201546001600160a01b039081169482019490945260038201549093166060840152600481015460808401526005015460ff808216151560a08501529181048216151560c0840181905262010000909104909116151560e08301526110a95760405162461bcd60e51b8152600401610821906132b4565b8060a00151156110cb5760405162461bcd60e51b8152600401610821906132da565b826001600160a01b031681604001516001600160a01b0316146111005760405162461bcd60e51b81526004016108219061331b565b336000908152600f602052604090205460ff1661112f5760405162461bcd60e51b81526004016108219061334b565b8060e001516111765760405162461bcd60e51b8152602060048201526013602482015272151bdad95b881a5cc81b9bdd081cdd185ad959606a1b6044820152606401610821565b61117f82612146565b600160a082018181526000848152600e60209081526040918290208551815590850151938101939093558301516002830180546001600160a01b039283166001600160a01b031991821617909155606085015160038501805491909316911617905560808301516004830155516005909101805460c084015160e08501511515620100000262ff0000199115156101000261ff00199515159590951661ffff1990931692909217939093179290921691909117905561123e8383612186565b7f8c82f2d2f3560199d113634676e6c5ddd4a7146cc63fd0173842ad60c7fc39ad81604051610bf991906131fa565b6000818152600260205260408120546001600160a01b0316806106ee5760405162461bcd60e51b8152602060048201526018602482015277115490cdcc8c4e881a5b9d985b1a59081d1bdad95b88125160421b6044820152606401610821565b6000818152600e6020908152604091829020825161010080820185528254825260018301549382019390935260028201546001600160a01b039081169482019490945260038201549093166060840152600481015460808401526005015460ff808216151560a08501529181048216151560c0840181905262010000909104909116151560e08301526113725760405162461bcd60e51b8152600401610821906132b4565b8060a00151156113945760405162461bcd60e51b8152600401610821906132da565b60408101516001600160a01b031633146113e65760405162461bcd60e51b815260206004820152601360248201527221b0b63632b91034b9903737ba1037bbb732b960691b6044820152606401610821565b600060648260800151605f6113fb9190613408565b611405919061341f565b9050600080856001600160a01b03168360405161143990700e4d49481bd988139195081c99599d5b99607a1b815260110190565b60006040518083038185875af1925050503d8060008114611476576040519150601f19603f3d011682016040523d82523d6000602084013e61147b565b606091505b5091509150816114c45760405162461bcd60e51b81526020600482015260146024820152732330b4b632b2103a379039b2b7321022ba3432b960611b6044820152606401610821565b6114cd85612146565b600160a085018181526000878152600e60209081526040918290208851815590880151938101939093558601516002830180546001600160a01b039283166001600160a01b031991821617909155606088015160038501805491909316911617905560808601516004830155516005909101805460c087015160e08801511515620100000262ff0000199115156101000261ff00199515159590951661ffff1990931692909217939093179290921691909117905561158c8686612186565b7f8c82f2d2f3560199d113634676e6c5ddd4a7146cc63fd0173842ad60c7fc39ad846040516115bb91906131fa565b60405180910390a17f8ab94202d58f148836a9ff381437611bf35bbc285cd3e7137901e20aa3d0599c846040516115f291906131fa565b60405180910390a1505050505050565b60006001600160a01b03821661166c5760405162461bcd60e51b815260206004820152602960248201527f4552433732313a2061646472657373207a65726f206973206e6f7420612076616044820152683634b21037bbb732b960b91b6064820152608401610821565b506001600160a01b031660009081526003602052604090205490565b611690611e35565b61169a6000612387565b565b6060600180546107039061327a565b6116b3611e35565b6001600160a01b03166000818152600f60205260408120805460ff191660019081179091556010805491820181559091527f1b6847dc741a1b0cd08d278845f9d819d87b734759afb55fe2de5cb82a9ae6720180546001600160a01b0319169091179055565b6117243383836123d9565b5050565b60006009543410156117885760405162461bcd60e51b815260206004820152602360248201527f596f7520646f6e2774206861766520656e6f756768206d6f6e657920746f206d6044820152621a5b9d60ea1b6064820152608401610821565b611796600880546001019055565b60006117a160085490565b9050600080600c6000866001600160a01b03166001600160a01b031681526020019081526020016000208054905090506000604051806101000160405280858152602001838152602001336001600160a01b03168152602001846001600160a01b031681526020016009548152602001600015158152602001600115158152602001600015158152509050600c6000876001600160a01b03166001600160a01b03168152602001908152602001600020819080600181540180825580915050600190039060005260206000209060060201600090919091909150600082015181600001556020820151816001015560408201518160020160006101000a8154816001600160a01b0302191690836001600160a01b0316021790555060608201518160030160006101000a8154816001600160a01b0302191690836001600160a01b031602179055506080820151816004015560a08201518160050160006101000a81548160ff02191690831515021790555060c08201518160050160016101000a81548160ff02191690831515021790555060e08201518160050160026101000a81548160ff021916908315150217905550505080600e6000868152602001908152602001600020600082015181600001556020820151816001015560408201518160020160006101000a8154816001600160a01b0302191690836001600160a01b0316021790555060608201518160030160006101000a8154816001600160a01b0302191690836001600160a01b031602179055506080820151816004015560a08201518160050160006101000a81548160ff02191690831515021790555060c08201518160050160016101000a81548160ff02191690831515021790555060e08201518160050160026101000a81548160ff021916908315150217905550905050611a4e86856124a7565b611ae284600b8054611a5f9061327a565b80601f0160208091040260200160405190810160405280929190818152602001828054611a8b9061327a565b8015611ad85780601f10611aad57610100808354040283529160200191611ad8565b820191906000526020600020905b815481529060010190602001808311611abb57829003601f168201915b5050505050612640565b7fa0e95fa508e4bf94c0d0bfa87a1b8d6ccbe8ed7d32652a2d67082659db6db39981604051611b1191906131fa565b60405180910390a15195945050505050565b611b2d3383611f5c565b611b495760405162461bcd60e51b8152600401610821906133a5565b611b55848484846126d3565b50505050565b6000611b6660085490565b905090565b6060600b80546107039061327a565b6060611b8582611e8f565b60008281526006602052604081208054611b9e9061327a565b80601f0160208091040260200160405190810160405280929190818152602001828054611bca9061327a565b8015611c175780601f10611bec57610100808354040283529160200191611c17565b820191906000526020600020905b815481529060010190602001808311611bfa57829003601f168201915b505050505090506000611c3560408051602081019091526000815290565b90508051600003611c47575092915050565b815115611c79578082604051602001611c61929190613441565b60405160208183030381529060405292505050919050565b611c8284612706565b949350505050565b611c92611e35565b600b6108c28284836134be565b6001600160a01b03918216600090815260056020908152604080832093909416825291909152205460ff1690565b611cd5611e35565b611cde8161277a565b50565b611ce9611e35565b6001600160a01b038116611d4e5760405162461bcd60e51b815260206004820152602660248201527f4f776e61626c653a206e6577206f776e657220697320746865207a65726f206160448201526564647265737360d01b6064820152608401610821565b611cde81612387565b6001600160a01b0381166000908152600c60209081526040808320805482518185028101850190935280835260609492939192909184015b82821015611e2a57600084815260209081902060408051610100808201835260068702909301805482526001808201548387015260028201546001600160a01b039081169484019490945260038201549093166060830152600481015460808301526005015460ff808216151560a08401529381048416151560c0830152620100009004909216151560e08301529083529092019101611d8f565b505050509050919050565b6007546001600160a01b0316331461169a5760405162461bcd60e51b815260206004820181905260248201527f4f776e61626c653a2063616c6c6572206973206e6f7420746865206f776e65726044820152606401610821565b6000818152600260205260409020546001600160a01b0316611cde5760405162461bcd60e51b8152602060048201526018602482015277115490cdcc8c4e881a5b9d985b1a59081d1bdad95b88125160421b6044820152606401610821565b600081815260046020526040902080546001600160a01b0319166001600160a01b0384169081179091558190611f238261126d565b6001600160a01b03167f8c5be1e5ebec7d5bd14f71427d1e84f3dd0314c0f7b2291e5b200ac8c7c3b92560405160405180910390a45050565b600080611f688361126d565b9050806001600160a01b0316846001600160a01b03161480611f8f5750611f8f8185611c9f565b80611c825750836001600160a01b0316611fa884610786565b6001600160a01b031614949350505050565b826001600160a01b0316611fcd8261126d565b6001600160a01b031614611ff35760405162461bcd60e51b81526004016108219061357e565b6001600160a01b0382166120555760405162461bcd60e51b8152602060048201526024808201527f4552433732313a207472616e7366657220746f20746865207a65726f206164646044820152637265737360e01b6064820152608401610821565b61206283838360016128ad565b826001600160a01b03166120758261126d565b6001600160a01b03161461209b5760405162461bcd60e51b81526004016108219061357e565b600081815260046020908152604080832080546001600160a01b03199081169091556001600160a01b0387811680865260038552838620805460001901905590871680865283862080546001019055868652600290945282852080549092168417909155905184937fddf252ad1be2c89b69c2b068fc378daa952ba7f163c4a11628f55a4df523b3ef91a4505050565b6108c283838360405180602001604052806000815250611b23565b61214f816129a6565b600081815260066020526040902080546121689061327a565b159050611cde576000818152600660205260408120611cde91612cb5565b6001600160a01b0382166000908152600c6020526040812090805b82546121af906001906135c3565b8110156122f557838382815481106121c9576121c961338f565b906000526020600020906006020160000154036121e557600191505b826121f083836135d6565b815481106122005761220061338f565b90600052602060002090600602018382815481106122205761222061338f565b6000918252602090912082546006909202019081556001808301549082015560028083015490820180546001600160a01b03199081166001600160a01b039384161790915560038085015490840180549092169216919091179055600480830154908201556005918201805492909101805460ff938416151560ff19821681178355835461010090819004861615150261ff001990911661ffff19909216919091171780825591546201000090819004909316151590920262ff000019909116179055806122ed816135e9565b9150506121a1565b508180548061230657612306613602565b60008281526020808220600660001990940193840201828155600181018390556002810180546001600160a01b0319908116909155600382018054909116905560048101839055600501805462ffffff19169055919092556001600160a01b0386168252600c905260409020825461238091908490612cef565b5050505050565b600780546001600160a01b038381166001600160a01b0319831681179093556040519116919082907f8be0079c531659141344cd1fd0a4f28419497f9722a3daafe3b4186f6b6457e090600090a35050565b816001600160a01b0316836001600160a01b03160361243a5760405162461bcd60e51b815260206004820152601960248201527f4552433732313a20617070726f766520746f2063616c6c6572000000000000006044820152606401610821565b6001600160a01b03838116600081815260056020908152604080832094871680845294825291829020805460ff191686151590811790915591519182527f17307eab39ab6107e8899845ad3d59bd9653f200f220920489ca2b5937696c31910160405180910390a3505050565b6001600160a01b0382166124fd5760405162461bcd60e51b815260206004820181905260248201527f4552433732313a206d696e7420746f20746865207a65726f20616464726573736044820152606401610821565b6000818152600260205260409020546001600160a01b0316156125625760405162461bcd60e51b815260206004820152601c60248201527f4552433732313a20746f6b656e20616c7265616479206d696e746564000000006044820152606401610821565b6125706000838360016128ad565b6000818152600260205260409020546001600160a01b0316156125d55760405162461bcd60e51b815260206004820152601c60248201527f4552433732313a20746f6b656e20616c7265616479206d696e746564000000006044820152606401610821565b6001600160a01b038216600081815260036020908152604080832080546001019055848352600290915280822080546001600160a01b0319168417905551839291907fddf252ad1be2c89b69c2b068fc378daa952ba7f163c4a11628f55a4df523b3ef908290a45050565b6000828152600260205260409020546001600160a01b03166126bb5760405162461bcd60e51b815260206004820152602e60248201527f45524337323155524953746f726167653a2055524920736574206f66206e6f6e60448201526d32bc34b9ba32b73a103a37b5b2b760911b6064820152608401610821565b60008281526006602052604090206108c28282613618565b6126de848484611fba565b6126ea84848484612a49565b611b555760405162461bcd60e51b8152600401610821906136d8565b606061271182611e8f565b600061272860408051602081019091526000815290565b905060008151116127485760405180602001604052806000815250612773565b8061275284612b4a565b604051602001612763929190613441565b6040516020818303038152906040525b9392505050565b6000805b60105461278d906001906135c3565b81101561285357826001600160a01b0316601082815481106127b1576127b161338f565b6000918252602090912001546001600160a01b0316036127d057600191505b60106127dc83836135d6565b815481106127ec576127ec61338f565b600091825260209091200154601080546001600160a01b0390921691839081106128185761281861338f565b600091825260209091200180546001600160a01b0319166001600160a01b03929092169190911790558061284b816135e9565b91505061277e565b50601080548061286557612865613602565b60008281526020808220830160001990810180546001600160a01b03191690559092019092556001600160a01b03939093168152600f9092525060409020805460ff19169055565b6000828152600e602052604090206005015460ff1615806128d557506001600160a01b038316155b6129215760405162461bcd60e51b815260206004820181905260248201527f596f752063616e6e6f74207472616e736665722061207573656420746f6b656e6044820152606401610821565b6000828152600e602052604090206005015462010000900460ff16158061294f57506001600160a01b038316155b611b555760405162461bcd60e51b815260206004820152602260248201527f596f752063616e6e6f74207472616e736665722061207374616b656420746f6b60448201526132b760f11b6064820152608401610821565b60006129b18261126d565b90506129c18160008460016128ad565b6129ca8261126d565b600083815260046020908152604080832080546001600160a01b03199081169091556001600160a01b0385168085526003845282852080546000190190558785526002909352818420805490911690555192935084927fddf252ad1be2c89b69c2b068fc378daa952ba7f163c4a11628f55a4df523b3ef908390a45050565b60006001600160a01b0384163b15612b3f57604051630a85bd0160e11b81526001600160a01b0385169063150b7a0290612a8d90339089908890889060040161372a565b6020604051808303816000875af1925050508015612ac8575060408051601f3d908101601f19168201909252612ac591810190613767565b60015b612b25573d808015612af6576040519150601f19603f3d011682016040523d82523d6000602084013e612afb565b606091505b508051600003612b1d5760405162461bcd60e51b8152600401610821906136d8565b805181602001fd5b6001600160e01b031916630a85bd0160e11b149050611c82565b506001949350505050565b60606000612b5783612bdd565b600101905060008167ffffffffffffffff811115612b7757612b77613030565b6040519080825280601f01601f191660200182016040528015612ba1576020820181803683370190505b5090508181016020015b600019016f181899199a1a9b1b9c1cb0b131b232b360811b600a86061a8153600a8504945084612bab57509392505050565b60008072184f03e93ff9f4daa797ed6e38ed64bf6a1f0160401b8310612c1c5772184f03e93ff9f4daa797ed6e38ed64bf6a1f0160401b830492506040015b6d04ee2d6d415b85acef81000000008310612c48576d04ee2d6d415b85acef8100000000830492506020015b662386f26fc100008310612c6657662386f26fc10000830492506010015b6305f5e1008310612c7e576305f5e100830492506008015b6127108310612c9257612710830492506004015b60648310612ca4576064830492506002015b600a83106106ee5760010192915050565b508054612cc19061327a565b6000825580601f10612cd1575050565b601f016020900490600052602060002090810190611cde9190612df2565b828054828255906000526020600020906006028101928215612de25760005260206000209160060282015b82811115612de257825482556001808401549083015560028084015490830180546001600160a01b03199081166001600160a01b0393841617909155600380860154908501805490921692169190911790556004808401549083015560058084018054918401805460ff938416151560ff19821681178355835461010090819004861615150261ff001990911661ffff19909216919091171780825591546201000090819004909316151590920262ff00001990911617905560069283019290910190612d1a565b50612dee929150612e07565b5090565b5b80821115612dee5760008155600101612df3565b5b80821115612dee576000808255600182018190556002820180546001600160a01b03199081169091556003830180549091169055600482015560058101805462ffffff19169055600601612e08565b600060208284031215612e6957600080fd5b5035919050565b6001600160e01b031981168114611cde57600080fd5b600060208284031215612e9857600080fd5b813561277381612e70565b60005b83811015612ebe578181015183820152602001612ea6565b50506000910152565b60008151808452612edf816020860160208601612ea3565b601f01601f19169290920160200192915050565b6020815260006127736020830184612ec7565b6001600160a01b0381168114611cde57600080fd5b60008060408385031215612f2e57600080fd5b8235612f3981612f06565b946020939093013593505050565b600080600060608486031215612f5c57600080fd5b8335612f6781612f06565b92506020840135612f7781612f06565b929592945050506040919091013590565b6020808252825182820181905260009190848201906040850190845b81811015612fc95783516001600160a01b031683529284019291840191600101612fa4565b50909695505050505050565b600060208284031215612fe757600080fd5b813561277381612f06565b6000806040838503121561300557600080fd5b823561301081612f06565b91506020830135801515811461302557600080fd5b809150509250929050565b634e487b7160e01b600052604160045260246000fd5b6000806000806080858703121561305c57600080fd5b843561306781612f06565b9350602085013561307781612f06565b925060408501359150606085013567ffffffffffffffff8082111561309b57600080fd5b818701915087601f8301126130af57600080fd5b8135818111156130c1576130c1613030565b604051601f8201601f19908116603f011681019083821181831017156130e9576130e9613030565b816040528281528a602084870101111561310257600080fd5b82602086016020830137600060208483010152809550505050505092959194509250565b6000806020838503121561313957600080fd5b823567ffffffffffffffff8082111561315157600080fd5b818501915085601f83011261316557600080fd5b81358181111561317457600080fd5b86602082850101111561318657600080fd5b60209290920196919550909350505050565b8051825260208101516020830152604081015160018060a01b03808216604085015280606084015116606085015250506080810151608083015260a0810151151560a083015260c0810151151560c083015260e0810151151560e08301525050565b61010081016106ee8284613198565b6000806040838503121561321c57600080fd5b823561322781612f06565b9150602083013561302581612f06565b6020808252825182820181905260009190848201906040850190845b81811015612fc957613266838551613198565b928401926101009290920191600101613253565b600181811c9082168061328e57607f821691505b6020821081036132ae57634e487b7160e01b600052602260045260246000fd5b50919050565b6020808252600c908201526b2737ba10309036b4b73a32b960a11b604082015260600190565b60208082526021908201527f54686973207469636b65742068617320616c7265616479206265656e207573656040820152601960fa1b606082015260800190565b60208082526016908201527521b0b63632b91034b9903737ba10309036b4b73a32b960511b604082015260600190565b60208082526024908201527f43616c6c6572206973206e6f7420612077686974656c697374656420636f6e746040820152631c9858dd60e21b606082015260800190565b634e487b7160e01b600052603260045260246000fd5b6020808252602d908201527f4552433732313a2063616c6c6572206973206e6f7420746f6b656e206f776e6560408201526c1c881bdc88185c1c1c9bdd9959609a1b606082015260800190565b634e487b7160e01b600052601160045260246000fd5b80820281158282048414176106ee576106ee6133f2565b60008261343c57634e487b7160e01b600052601260045260246000fd5b500490565b60008351613453818460208801612ea3565b835190830190613467818360208801612ea3565b01949350505050565b601f8211156108c257600081815260208120601f850160051c810160208610156134975750805b601f850160051c820191505b818110156134b6578281556001016134a3565b505050505050565b67ffffffffffffffff8311156134d6576134d6613030565b6134ea836134e4835461327a565b83613470565b6000601f84116001811461351e57600085156135065750838201355b600019600387901b1c1916600186901b178355612380565b600083815260209020601f19861690835b8281101561354f578685013582556020948501946001909201910161352f565b508682101561356c5760001960f88860031b161c19848701351681555b505060018560011b0183555050505050565b60208082526025908201527f4552433732313a207472616e736665722066726f6d20696e636f72726563742060408201526437bbb732b960d91b606082015260800190565b818103818111156106ee576106ee6133f2565b808201808211156106ee576106ee6133f2565b6000600182016135fb576135fb6133f2565b5060010190565b634e487b7160e01b600052603160045260246000fd5b815167ffffffffffffffff81111561363257613632613030565b61364681613640845461327a565b84613470565b602080601f83116001811461367b57600084156136635750858301515b600019600386901b1c1916600185901b1785556134b6565b600085815260208120601f198616915b828110156136aa5788860151825594840194600190910190840161368b565b50858210156136c85787850151600019600388901b60f8161c191681555b5050505050600190811b01905550565b60208082526032908201527f4552433732313a207472616e7366657220746f206e6f6e20455243373231526560408201527131b2b4bb32b91034b6b83632b6b2b73a32b960711b606082015260800190565b6001600160a01b038581168252841660208201526040810183905260806060820181905260009061375d90830184612ec7565b9695505050505050565b60006020828403121561377957600080fd5b815161277381612e7056fea264697066735822122036059e163be11df5d32ac59644d5a3b2d9a2310948ba133ab03fe077579aff4064736f6c63430008120033",
  "immutableReferences": {},
  "source": "// SPDX-License-Identifier: MIT\npragma solidity >=0.4.22 <0.9.0;\n\nimport '@openzeppelin/contracts/token/ERC721/ERC721.sol';\nimport '@openzeppelin/contracts/token/ERC721/extensions/ERC721URIStorage.sol';\nimport '@openzeppelin/contracts/utils/Counters.sol';\nimport '@openzeppelin/contracts/access/Ownable.sol';\n\ncontract MiningDAOInvestTickets is ERC721URIStorage, Ownable {\n    using Counters for Counters.Counter;\n\n    struct Ticket {\n        uint tokenId;\n        uint index;\n        address ticketOwner;\n        address escrowContract;\n        uint gweiValue;\n        bool isUsed;\n        bool isMinted;\n        bool isStaked;\n    }\n\n    event TicketMinted(Ticket ticket);\n    event TicketRefund(Ticket ticket);\n    event TicketBurned(Ticket ticket);\n    event TicketStaked(Ticket ticket);\n    event TicketUnstaked(Ticket ticket);\n\n    Counters.Counter private _tokenIds;\n    uint private mintPriceETH = 0.001 ether;\n    address private DAOAddress;\n    string private tokenUri;\n    mapping (address => Ticket[]) private ticketsByAddress;\n    mapping (address => Ticket[]) private usableTicketsByAddress;\n    mapping (uint => Ticket) private ticketByTokenId;\n    mapping (address => bool) private whitelistedOfferContract;\n    address[] private whitelistedList;\n\n\n\n    constructor(address _DAOAdress, string memory _tokenURI) ERC721(\"Mining DAO - Investment Tickets\", \"MDAO\") {\n        DAOAddress = _DAOAdress;\n        tokenUri = _tokenURI;\n    }\n\n    function getWhitelistedList() public view returns (address[] memory) {\n        return whitelistedList;\n    }\n\n    function whitelist(address _contract) public onlyOwner{\n        whitelistedOfferContract[_contract] = true;\n        whitelistedList.push(_contract);\n    }\n\n    function unWhitelist(address _contract) public onlyOwner{\n        removeFromWhitelist(_contract);\n    }\n\n    function getTicketsByAddress(address _address) public view returns (Ticket[] memory) {\n        return ticketsByAddress[_address];\n    }\n\n    function getTicketByTokenId(uint _tokenId) public view returns (Ticket memory) {\n        return ticketByTokenId[_tokenId];\n    }\n\n    function getTotalNFT() public view returns (uint256) {\n        return _tokenIds.current();\n    }\n\n    function getTokenUri() public view returns (string memory) {\n        return tokenUri;\n    }\n\n    function setTokenURI(string calldata _tokenUri) public onlyOwner {\n        tokenUri = _tokenUri;\n    }\n\n    function getMintPriceETH() public view returns (uint){\n        return mintPriceETH;\n    }\n\n    function setEthPrice(uint _price) public onlyOwner {\n        mintPriceETH = _price;\n    }\n\n    function  mintTicketETH(address _customer) public payable returns (uint) {\n        require(msg.value >= mintPriceETH, \"You don't have enough money to mint\");\n\n        _tokenIds.increment();\n        uint newTokenId = _tokenIds.current();\n        address _default;\n        uint length = ticketsByAddress[_customer].length;\n        Ticket memory ticket = Ticket(newTokenId, length, msg.sender, _default, mintPriceETH, false, true, false);\n        ticketsByAddress[_customer].push(ticket);\n        ticketByTokenId[newTokenId] = ticket;\n\n        _mint(_customer, newTokenId);\n        _setTokenURI(newTokenId, tokenUri);\n\n        emit TicketMinted(ticket);\n        return ticket.tokenId;\n    }\n\n    function stakeTicket(address _origin, uint _tokenId) public {\n        Ticket memory ticket = ticketByTokenId[_tokenId];\n        require(ticket.isMinted, \"Not a minter\");\n        require(!ticket.isUsed, \"This ticket has already been used\");\n        require(ticket.ticketOwner == _origin, \"Caller is not a minter\");\n        require(whitelistedOfferContract[msg.sender], \"Caller is not a whitelisted contract\");\n        require(!ticket.isStaked, \"Token already staked\");\n\n        ticket.isStaked = true;\n        ticket.escrowContract = msg.sender;\n        ticketByTokenId[_tokenId] = ticket;\n        ticketsByAddress[_origin][ticket.index] = ticket;\n\n        emit TicketStaked(ticket);\n    }\n\n    function unstakeTicket(address _origin, uint _tokenId) public {\n        Ticket memory ticket = ticketByTokenId[_tokenId];\n        require(ticket.isMinted, \"Not a minter\");\n        require(!ticket.isUsed, \"This ticket has already been used\");\n        require(ticket.ticketOwner == _origin, \"Caller is not a minter\");\n        require(whitelistedOfferContract[msg.sender], \"Caller is not a whitelisted contract\");\n        require(ticket.isStaked, \"Token is not staked\");\n\n        ticket.isStaked = false;\n        ticket.escrowContract = address(0);\n        ticketByTokenId[_tokenId] = ticket;\n        ticketsByAddress[_origin][ticket.index] = ticket;\n\n        emit TicketUnstaked(ticket);\n    }\n\n    function useTicket(address _origin, uint _tokenId) public {\n        Ticket memory ticket = ticketByTokenId[_tokenId];\n        require(ticket.isMinted, \"Not a minter\");\n        require(!ticket.isUsed, \"This ticket has already been used\");\n        require(ticket.ticketOwner == _origin, \"Caller is not a minter\");\n        require(whitelistedOfferContract[msg.sender], \"Caller is not a whitelisted contract\");\n        require(ticket.isStaked, \"Token is not staked\");\n\n        _burn(_tokenId);\n        ticket.isUsed = true;\n        ticketByTokenId[_tokenId] = ticket;\n        removeFromList(_origin, _tokenId);\n\n        emit TicketBurned(ticket);\n    }\n\n    function refundTicket(address payable _address, uint _tokenId) public {\n        Ticket memory ticket = ticketByTokenId[_tokenId];\n        require(ticket.isMinted, \"Not a minter\");\n        require(!ticket.isUsed, \"This ticket has already been used\");\n        require(ticket.ticketOwner == msg.sender, \"Caller is not owner\");\n\n        uint residualValue = (ticket.gweiValue * 95) / 100;\n\n        (bool sent, bytes memory data) = _address.call{value: residualValue}(\"95% of NFT refund\");\n        require(sent, \"Failed to send Ether\");\n        _burn(_tokenId);\n\n        ticket.isUsed = true;\n        ticketByTokenId[_tokenId] = ticket;\n        removeFromList(_address, _tokenId);\n\n        emit TicketBurned(ticket);\n        emit TicketRefund(ticket);\n    }\n\n    function removeFromList(address _address, uint _tokenId) private {\n        Ticket[] storage tickets = ticketsByAddress[_address];\n        uint extraIndex = 0;\n        for(uint i = 0; i < tickets.length-1; i++){\n            if(tickets[i].tokenId == _tokenId) {\n                extraIndex = 1;\n            }\n            tickets[i] = tickets[i+extraIndex];\n        }\n        tickets.pop();\n        ticketsByAddress[_address] = tickets;\n    }\n\n    function removeFromWhitelist(address _contract) internal {\n        uint extraIndex = 0;\n        for(uint i = 0; i < whitelistedList.length-1; i++){\n            if(whitelistedList[i] == _contract) {\n                extraIndex = 1;\n            }\n            whitelistedList[i] = whitelistedList[i+extraIndex];\n        }\n        whitelistedList.pop();\n        whitelistedOfferContract[_contract] = false;\n    }\n\n    function _beforeTokenTransfer(address from, address to, uint256 tokenId, uint256 batchSize) internal override {\n        super._beforeTokenTransfer(from, to, tokenId, batchSize);\n        require(!ticketByTokenId[tokenId].isUsed || to == address(0), \"You cannot transfer a used token\");\n        require(!ticketByTokenId[tokenId].isStaked || to == address(0), \"You cannot transfer a staked token\");\n    }\n\n    function safeTransferFrom(address from, address to, uint256 tokenId) public override {\n        super.safeTransferFrom(from, to, tokenId);\n        ticketByTokenId[tokenId].ticketOwner = to;\n    }\n\n}",
  "sourcePath": "/Users/dylandivito/DEV/Solidity/Mining-DAO/truffle/contracts/MiningDAOInvestTickets.sol",
  "compiler": {
    "name": "solc",
    "version": "0.8.18+commit.87f61d96.Emscripten.clang"
  },
  "schemaVersion": "3.4.11",
  "updatedAt": "2023-04-09T17:28:57.429Z",
  "networkType": "ethereum",
  "devdoc": {
    "events": {
      "Approval(address,address,uint256)": {
        "details": "Emitted when `owner` enables `approved` to manage the `tokenId` token."
      },
      "ApprovalForAll(address,address,bool)": {
        "details": "Emitted when `owner` enables or disables (`approved`) `operator` to manage all of its assets."
      },
      "Transfer(address,address,uint256)": {
        "details": "Emitted when `tokenId` token is transferred from `from` to `to`."
      }
    },
    "kind": "dev",
    "methods": {
      "approve(address,uint256)": {
        "details": "See {IERC721-approve}."
      },
      "balanceOf(address)": {
        "details": "See {IERC721-balanceOf}."
      },
      "getApproved(uint256)": {
        "details": "See {IERC721-getApproved}."
      },
      "isApprovedForAll(address,address)": {
        "details": "See {IERC721-isApprovedForAll}."
      },
      "name()": {
        "details": "See {IERC721Metadata-name}."
      },
      "owner()": {
        "details": "Returns the address of the current owner."
      },
      "ownerOf(uint256)": {
        "details": "See {IERC721-ownerOf}."
      },
      "renounceOwnership()": {
        "details": "Leaves the contract without owner. It will not be possible to call `onlyOwner` functions anymore. Can only be called by the current owner. NOTE: Renouncing ownership will leave the contract without an owner, thereby removing any functionality that is only available to the owner."
      },
      "safeTransferFrom(address,address,uint256)": {
        "details": "See {IERC721-safeTransferFrom}."
      },
      "safeTransferFrom(address,address,uint256,bytes)": {
        "details": "See {IERC721-safeTransferFrom}."
      },
      "setApprovalForAll(address,bool)": {
        "details": "See {IERC721-setApprovalForAll}."
      },
      "supportsInterface(bytes4)": {
        "details": "See {IERC165-supportsInterface}."
      },
      "symbol()": {
        "details": "See {IERC721Metadata-symbol}."
      },
      "tokenURI(uint256)": {
        "details": "See {IERC721Metadata-tokenURI}."
      },
      "transferFrom(address,address,uint256)": {
        "details": "See {IERC721-transferFrom}."
      },
      "transferOwnership(address)": {
        "details": "Transfers ownership of the contract to a new account (`newOwner`). Can only be called by the current owner."
      }
    },
    "version": 1
  },
  "userdoc": {
    "kind": "user",
    "methods": {},
    "version": 1
  }
}