{
  "contractName": "MiningDAOInvestTickets",
  "abi": [
    {
      "inputs": [
        {
          "internalType": "address",
          "name": "_DAOAdress",
          "type": "address"
        },
        {
          "internalType": "string",
          "name": "_tokenURI",
          "type": "string"
        }
      ],
      "stateMutability": "nonpayable",
      "type": "constructor"
    },
    {
      "anonymous": false,
      "inputs": [
        {
          "indexed": true,
          "internalType": "address",
          "name": "owner",
          "type": "address"
        },
        {
          "indexed": true,
          "internalType": "address",
          "name": "approved",
          "type": "address"
        },
        {
          "indexed": true,
          "internalType": "uint256",
          "name": "tokenId",
          "type": "uint256"
        }
      ],
      "name": "Approval",
      "type": "event"
    },
    {
      "anonymous": false,
      "inputs": [
        {
          "indexed": true,
          "internalType": "address",
          "name": "owner",
          "type": "address"
        },
        {
          "indexed": true,
          "internalType": "address",
          "name": "operator",
          "type": "address"
        },
        {
          "indexed": false,
          "internalType": "bool",
          "name": "approved",
          "type": "bool"
        }
      ],
      "name": "ApprovalForAll",
      "type": "event"
    },
    {
      "anonymous": false,
      "inputs": [
        {
          "indexed": true,
          "internalType": "address",
          "name": "previousOwner",
          "type": "address"
        },
        {
          "indexed": true,
          "internalType": "address",
          "name": "newOwner",
          "type": "address"
        }
      ],
      "name": "OwnershipTransferred",
      "type": "event"
    },
    {
      "anonymous": false,
      "inputs": [
        {
          "components": [
            {
              "internalType": "uint256",
              "name": "tokenId",
              "type": "uint256"
            },
            {
              "internalType": "address",
              "name": "ticketOwner",
              "type": "address"
            },
            {
              "internalType": "uint256",
              "name": "gweiValue",
              "type": "uint256"
            },
            {
              "internalType": "bool",
              "name": "isUsed",
              "type": "bool"
            },
            {
              "internalType": "bool",
              "name": "isMinted",
              "type": "bool"
            },
            {
              "internalType": "bool",
              "name": "isStaked",
              "type": "bool"
            }
          ],
          "indexed": false,
          "internalType": "struct MiningDAOInvestTickets.Ticket",
          "name": "ticket",
          "type": "tuple"
        }
      ],
      "name": "TicketBurned",
      "type": "event"
    },
    {
      "anonymous": false,
      "inputs": [
        {
          "components": [
            {
              "internalType": "uint256",
              "name": "tokenId",
              "type": "uint256"
            },
            {
              "internalType": "address",
              "name": "ticketOwner",
              "type": "address"
            },
            {
              "internalType": "uint256",
              "name": "gweiValue",
              "type": "uint256"
            },
            {
              "internalType": "bool",
              "name": "isUsed",
              "type": "bool"
            },
            {
              "internalType": "bool",
              "name": "isMinted",
              "type": "bool"
            },
            {
              "internalType": "bool",
              "name": "isStaked",
              "type": "bool"
            }
          ],
          "indexed": false,
          "internalType": "struct MiningDAOInvestTickets.Ticket",
          "name": "ticket",
          "type": "tuple"
        }
      ],
      "name": "TicketMinted",
      "type": "event"
    },
    {
      "anonymous": false,
      "inputs": [
        {
          "components": [
            {
              "internalType": "uint256",
              "name": "tokenId",
              "type": "uint256"
            },
            {
              "internalType": "address",
              "name": "ticketOwner",
              "type": "address"
            },
            {
              "internalType": "uint256",
              "name": "gweiValue",
              "type": "uint256"
            },
            {
              "internalType": "bool",
              "name": "isUsed",
              "type": "bool"
            },
            {
              "internalType": "bool",
              "name": "isMinted",
              "type": "bool"
            },
            {
              "internalType": "bool",
              "name": "isStaked",
              "type": "bool"
            }
          ],
          "indexed": false,
          "internalType": "struct MiningDAOInvestTickets.Ticket",
          "name": "ticket",
          "type": "tuple"
        }
      ],
      "name": "TicketRefund",
      "type": "event"
    },
    {
      "anonymous": false,
      "inputs": [
        {
          "components": [
            {
              "internalType": "uint256",
              "name": "tokenId",
              "type": "uint256"
            },
            {
              "internalType": "address",
              "name": "ticketOwner",
              "type": "address"
            },
            {
              "internalType": "uint256",
              "name": "gweiValue",
              "type": "uint256"
            },
            {
              "internalType": "bool",
              "name": "isUsed",
              "type": "bool"
            },
            {
              "internalType": "bool",
              "name": "isMinted",
              "type": "bool"
            },
            {
              "internalType": "bool",
              "name": "isStaked",
              "type": "bool"
            }
          ],
          "indexed": false,
          "internalType": "struct MiningDAOInvestTickets.Ticket",
          "name": "ticket",
          "type": "tuple"
        }
      ],
      "name": "TicketStaked",
      "type": "event"
    },
    {
      "anonymous": false,
      "inputs": [
        {
          "components": [
            {
              "internalType": "uint256",
              "name": "tokenId",
              "type": "uint256"
            },
            {
              "internalType": "address",
              "name": "ticketOwner",
              "type": "address"
            },
            {
              "internalType": "uint256",
              "name": "gweiValue",
              "type": "uint256"
            },
            {
              "internalType": "bool",
              "name": "isUsed",
              "type": "bool"
            },
            {
              "internalType": "bool",
              "name": "isMinted",
              "type": "bool"
            },
            {
              "internalType": "bool",
              "name": "isStaked",
              "type": "bool"
            }
          ],
          "indexed": false,
          "internalType": "struct MiningDAOInvestTickets.Ticket",
          "name": "ticket",
          "type": "tuple"
        }
      ],
      "name": "TicketUnstaked",
      "type": "event"
    },
    {
      "anonymous": false,
      "inputs": [
        {
          "indexed": true,
          "internalType": "address",
          "name": "from",
          "type": "address"
        },
        {
          "indexed": true,
          "internalType": "address",
          "name": "to",
          "type": "address"
        },
        {
          "indexed": true,
          "internalType": "uint256",
          "name": "tokenId",
          "type": "uint256"
        }
      ],
      "name": "Transfer",
      "type": "event"
    },
    {
      "inputs": [
        {
          "internalType": "address",
          "name": "to",
          "type": "address"
        },
        {
          "internalType": "uint256",
          "name": "tokenId",
          "type": "uint256"
        }
      ],
      "name": "approve",
      "outputs": [],
      "stateMutability": "nonpayable",
      "type": "function"
    },
    {
      "inputs": [
        {
          "internalType": "address",
          "name": "owner",
          "type": "address"
        }
      ],
      "name": "balanceOf",
      "outputs": [
        {
          "internalType": "uint256",
          "name": "",
          "type": "uint256"
        }
      ],
      "stateMutability": "view",
      "type": "function",
      "constant": true
    },
    {
      "inputs": [
        {
          "internalType": "uint256",
          "name": "tokenId",
          "type": "uint256"
        }
      ],
      "name": "getApproved",
      "outputs": [
        {
          "internalType": "address",
          "name": "",
          "type": "address"
        }
      ],
      "stateMutability": "view",
      "type": "function",
      "constant": true
    },
    {
      "inputs": [
        {
          "internalType": "address",
          "name": "owner",
          "type": "address"
        },
        {
          "internalType": "address",
          "name": "operator",
          "type": "address"
        }
      ],
      "name": "isApprovedForAll",
      "outputs": [
        {
          "internalType": "bool",
          "name": "",
          "type": "bool"
        }
      ],
      "stateMutability": "view",
      "type": "function",
      "constant": true
    },
    {
      "inputs": [],
      "name": "name",
      "outputs": [
        {
          "internalType": "string",
          "name": "",
          "type": "string"
        }
      ],
      "stateMutability": "view",
      "type": "function",
      "constant": true
    },
    {
      "inputs": [],
      "name": "owner",
      "outputs": [
        {
          "internalType": "address",
          "name": "",
          "type": "address"
        }
      ],
      "stateMutability": "view",
      "type": "function",
      "constant": true
    },
    {
      "inputs": [
        {
          "internalType": "uint256",
          "name": "tokenId",
          "type": "uint256"
        }
      ],
      "name": "ownerOf",
      "outputs": [
        {
          "internalType": "address",
          "name": "",
          "type": "address"
        }
      ],
      "stateMutability": "view",
      "type": "function",
      "constant": true
    },
    {
      "inputs": [],
      "name": "renounceOwnership",
      "outputs": [],
      "stateMutability": "nonpayable",
      "type": "function"
    },
    {
      "inputs": [
        {
          "internalType": "address",
          "name": "operator",
          "type": "address"
        },
        {
          "internalType": "bool",
          "name": "approved",
          "type": "bool"
        }
      ],
      "name": "setApprovalForAll",
      "outputs": [],
      "stateMutability": "nonpayable",
      "type": "function"
    },
    {
      "inputs": [
        {
          "internalType": "bytes4",
          "name": "interfaceId",
          "type": "bytes4"
        }
      ],
      "name": "supportsInterface",
      "outputs": [
        {
          "internalType": "bool",
          "name": "",
          "type": "bool"
        }
      ],
      "stateMutability": "view",
      "type": "function",
      "constant": true
    },
    {
      "inputs": [],
      "name": "symbol",
      "outputs": [
        {
          "internalType": "string",
          "name": "",
          "type": "string"
        }
      ],
      "stateMutability": "view",
      "type": "function",
      "constant": true
    },
    {
      "inputs": [
        {
          "internalType": "uint256",
          "name": "tokenId",
          "type": "uint256"
        }
      ],
      "name": "tokenURI",
      "outputs": [
        {
          "internalType": "string",
          "name": "",
          "type": "string"
        }
      ],
      "stateMutability": "view",
      "type": "function",
      "constant": true
    },
    {
      "inputs": [
        {
          "internalType": "address",
          "name": "from",
          "type": "address"
        },
        {
          "internalType": "address",
          "name": "to",
          "type": "address"
        },
        {
          "internalType": "uint256",
          "name": "tokenId",
          "type": "uint256"
        }
      ],
      "name": "transferFrom",
      "outputs": [],
      "stateMutability": "nonpayable",
      "type": "function"
    },
    {
      "inputs": [
        {
          "internalType": "address",
          "name": "newOwner",
          "type": "address"
        }
      ],
      "name": "transferOwnership",
      "outputs": [],
      "stateMutability": "nonpayable",
      "type": "function"
    },
    {
      "inputs": [
        {
          "internalType": "address",
          "name": "_address",
          "type": "address"
        }
      ],
      "name": "getTicketsByAddress",
      "outputs": [
        {
          "components": [
            {
              "internalType": "uint256",
              "name": "tokenId",
              "type": "uint256"
            },
            {
              "internalType": "address",
              "name": "ticketOwner",
              "type": "address"
            },
            {
              "internalType": "uint256",
              "name": "gweiValue",
              "type": "uint256"
            },
            {
              "internalType": "bool",
              "name": "isUsed",
              "type": "bool"
            },
            {
              "internalType": "bool",
              "name": "isMinted",
              "type": "bool"
            },
            {
              "internalType": "bool",
              "name": "isStaked",
              "type": "bool"
            }
          ],
          "internalType": "struct MiningDAOInvestTickets.Ticket[]",
          "name": "",
          "type": "tuple[]"
        }
      ],
      "stateMutability": "view",
      "type": "function",
      "constant": true
    },
    {
      "inputs": [
        {
          "internalType": "uint256",
          "name": "_tokenId",
          "type": "uint256"
        }
      ],
      "name": "getTicketByTokenId",
      "outputs": [
        {
          "components": [
            {
              "internalType": "uint256",
              "name": "tokenId",
              "type": "uint256"
            },
            {
              "internalType": "address",
              "name": "ticketOwner",
              "type": "address"
            },
            {
              "internalType": "uint256",
              "name": "gweiValue",
              "type": "uint256"
            },
            {
              "internalType": "bool",
              "name": "isUsed",
              "type": "bool"
            },
            {
              "internalType": "bool",
              "name": "isMinted",
              "type": "bool"
            },
            {
              "internalType": "bool",
              "name": "isStaked",
              "type": "bool"
            }
          ],
          "internalType": "struct MiningDAOInvestTickets.Ticket",
          "name": "",
          "type": "tuple"
        }
      ],
      "stateMutability": "view",
      "type": "function",
      "constant": true
    },
    {
      "inputs": [],
      "name": "getTotalNFT",
      "outputs": [
        {
          "internalType": "uint256",
          "name": "",
          "type": "uint256"
        }
      ],
      "stateMutability": "view",
      "type": "function",
      "constant": true
    },
    {
      "inputs": [],
      "name": "getTokenUri",
      "outputs": [
        {
          "internalType": "string",
          "name": "",
          "type": "string"
        }
      ],
      "stateMutability": "view",
      "type": "function",
      "constant": true
    },
    {
      "inputs": [
        {
          "internalType": "string",
          "name": "_tokenUri",
          "type": "string"
        }
      ],
      "name": "setTokenURI",
      "outputs": [],
      "stateMutability": "nonpayable",
      "type": "function"
    },
    {
      "inputs": [],
      "name": "getMintPriceETH",
      "outputs": [
        {
          "internalType": "uint256",
          "name": "",
          "type": "uint256"
        }
      ],
      "stateMutability": "view",
      "type": "function",
      "constant": true
    },
    {
      "inputs": [
        {
          "internalType": "uint256",
          "name": "_price",
          "type": "uint256"
        }
      ],
      "name": "setEthPrice",
      "outputs": [],
      "stateMutability": "nonpayable",
      "type": "function"
    },
    {
      "inputs": [
        {
          "internalType": "address",
          "name": "_customer",
          "type": "address"
        }
      ],
      "name": "mintTicketETH",
      "outputs": [
        {
          "internalType": "uint256",
          "name": "",
          "type": "uint256"
        }
      ],
      "stateMutability": "payable",
      "type": "function",
      "payable": true
    },
    {
      "inputs": [
        {
          "internalType": "uint256",
          "name": "_tokenId",
          "type": "uint256"
        }
      ],
      "name": "stakeTicket",
      "outputs": [],
      "stateMutability": "nonpayable",
      "type": "function"
    },
    {
      "inputs": [
        {
          "internalType": "uint256",
          "name": "_tokenId",
          "type": "uint256"
        }
      ],
      "name": "unstakeTicket",
      "outputs": [],
      "stateMutability": "nonpayable",
      "type": "function"
    },
    {
      "inputs": [
        {
          "internalType": "uint256",
          "name": "_tokenId",
          "type": "uint256"
        }
      ],
      "name": "useTicket",
      "outputs": [],
      "stateMutability": "nonpayable",
      "type": "function"
    },
    {
      "inputs": [
        {
          "internalType": "address payable",
          "name": "_address",
          "type": "address"
        },
        {
          "internalType": "uint256",
          "name": "_tokenId",
          "type": "uint256"
        }
      ],
      "name": "refundTicket",
      "outputs": [],
      "stateMutability": "nonpayable",
      "type": "function"
    },
    {
      "inputs": [
        {
          "internalType": "address",
          "name": "from",
          "type": "address"
        },
        {
          "internalType": "address",
          "name": "to",
          "type": "address"
        },
        {
          "internalType": "uint256",
          "name": "tokenId",
          "type": "uint256"
        }
      ],
      "name": "safeTransferFrom",
      "outputs": [],
      "stateMutability": "nonpayable",
      "type": "function"
    },
    {
      "inputs": [
        {
          "internalType": "address",
          "name": "from",
          "type": "address"
        },
        {
          "internalType": "address",
          "name": "to",
          "type": "address"
        },
        {
          "internalType": "uint256",
          "name": "tokenId",
          "type": "uint256"
        },
        {
          "internalType": "bytes",
          "name": "data",
          "type": "bytes"
        }
      ],
      "name": "safeTransferFrom",
      "outputs": [],
      "stateMutability": "nonpayable",
      "type": "function"
    }
  ],
  "bytecode": "0x608060405266038d7ea4c680006009553480156200001c57600080fd5b5060405162005eec38038062005eec833981810160405281019062000042919062000415565b6040518060400160405280601f81526020017f4d696e696e672044414f202d20496e766573746d656e74205469636b657473008152506040518060400160405280600481526020017f4d44414f000000000000000000000000000000000000000000000000000000008152508160009081620000bf9190620006c6565b508060019081620000d19190620006c6565b505050620000f4620000e86200014f60201b60201c565b6200015760201b60201c565b81600a60006101000a81548173ffffffffffffffffffffffffffffffffffffffff021916908373ffffffffffffffffffffffffffffffffffffffff16021790555080600b9081620001469190620006c6565b505050620007ad565b600033905090565b6000600760009054906101000a900473ffffffffffffffffffffffffffffffffffffffff16905081600760006101000a81548173ffffffffffffffffffffffffffffffffffffffff021916908373ffffffffffffffffffffffffffffffffffffffff1602179055508173ffffffffffffffffffffffffffffffffffffffff168173ffffffffffffffffffffffffffffffffffffffff167f8be0079c531659141344cd1fd0a4f28419497f9722a3daafe3b4186f6b6457e060405160405180910390a35050565b6000604051905090565b600080fd5b600080fd5b600073ffffffffffffffffffffffffffffffffffffffff82169050919050565b60006200025e8262000231565b9050919050565b620002708162000251565b81146200027c57600080fd5b50565b600081519050620002908162000265565b92915050565b600080fd5b600080fd5b6000601f19601f8301169050919050565b7f4e487b7100000000000000000000000000000000000000000000000000000000600052604160045260246000fd5b620002eb82620002a0565b810181811067ffffffffffffffff821117156200030d576200030c620002b1565b5b80604052505050565b6000620003226200021d565b9050620003308282620002e0565b919050565b600067ffffffffffffffff821115620003535762000352620002b1565b5b6200035e82620002a0565b9050602081019050919050565b60005b838110156200038b5780820151818401526020810190506200036e565b60008484015250505050565b6000620003ae620003a88462000335565b62000316565b905082815260208101848484011115620003cd57620003cc6200029b565b5b620003da8482856200036b565b509392505050565b600082601f830112620003fa57620003f962000296565b5b81516200040c84826020860162000397565b91505092915050565b600080604083850312156200042f576200042e62000227565b5b60006200043f858286016200027f565b925050602083015167ffffffffffffffff8111156200046357620004626200022c565b5b6200047185828601620003e2565b9150509250929050565b600081519050919050565b7f4e487b7100000000000000000000000000000000000000000000000000000000600052602260045260246000fd5b60006002820490506001821680620004ce57607f821691505b602082108103620004e457620004e362000486565b5b50919050565b60008190508160005260206000209050919050565b60006020601f8301049050919050565b600082821b905092915050565b6000600883026200054e7fffffffffffffffffffffffffffffffffffffffffffffffffffffffffffffffff826200050f565b6200055a86836200050f565b95508019841693508086168417925050509392505050565b6000819050919050565b6000819050919050565b6000620005a7620005a16200059b8462000572565b6200057c565b62000572565b9050919050565b6000819050919050565b620005c38362000586565b620005db620005d282620005ae565b8484546200051c565b825550505050565b600090565b620005f2620005e3565b620005ff818484620005b8565b505050565b5b8181101562000627576200061b600082620005e8565b60018101905062000605565b5050565b601f82111562000676576200064081620004ea565b6200064b84620004ff565b810160208510156200065b578190505b620006736200066a85620004ff565b83018262000604565b50505b505050565b600082821c905092915050565b60006200069b600019846008026200067b565b1980831691505092915050565b6000620006b6838362000688565b9150826002028217905092915050565b620006d1826200047b565b67ffffffffffffffff811115620006ed57620006ec620002b1565b5b620006f98254620004b5565b620007068282856200062b565b600060209050601f8311600181146200073e576000841562000729578287015190505b620007358582620006a8565b865550620007a5565b601f1984166200074e86620004ea565b60005b82811015620007785784890151825560018201915060208501945060208101905062000751565b8683101562000798578489015162000794601f89168262000688565b8355505b6001600288020188555050505b505050505050565b61572f80620007bd6000396000f3fe6080604052600436106101b65760003560e01c80638da5cb5b116100ec578063c395c8af1161008a578063e8af325311610064578063e8af3253146105f8578063e985e9c514610635578063f2fde38b14610672578063f5e47f961461069b576101b6565b8063c395c8af14610567578063c87b56dd14610592578063e0df5b6f146105cf576101b6565b8063ae5d1371116100c6578063ae5d1371146104b8578063af8052c0146104e8578063b88d4fde14610513578063bcf16f2d1461053c576101b6565b80638da5cb5b1461043957806395d89b4114610464578063a22cb4651461048f576101b6565b806342842e0e1161015957806370a082311161013357806370a0823114610393578063715018a6146103d05780637f36655d146103e75780638983408314610410576101b6565b806342842e0e146103045780636352211e1461032d578063705099b91461036a576101b6565b8063081812fc11610195578063081812fc1461024c578063095ea7b31461028957806323b872dd146102b257806326606448146102db576101b6565b80629f9262146101bb57806301ffc9a7146101e457806306fdde0314610221575b600080fd5b3480156101c757600080fd5b506101e260048036038101906101dd9190613b8c565b6106d8565b005b3480156101f057600080fd5b5061020b60048036038101906102069190613c11565b6106ea565b6040516102189190613c59565b60405180910390f35b34801561022d57600080fd5b506102366107cc565b6040516102439190613d04565b60405180910390f35b34801561025857600080fd5b50610273600480360381019061026e9190613b8c565b61085e565b6040516102809190613d67565b60405180910390f35b34801561029557600080fd5b506102b060048036038101906102ab9190613dae565b6108a4565b005b3480156102be57600080fd5b506102d960048036038101906102d49190613dee565b6109bb565b005b3480156102e757600080fd5b5061030260048036038101906102fd9190613b8c565b610a1b565b005b34801561031057600080fd5b5061032b60048036038101906103269190613dee565b610d68565b005b34801561033957600080fd5b50610354600480360381019061034f9190613b8c565b610dcd565b6040516103619190613d67565b60405180910390f35b34801561037657600080fd5b50610391600480360381019061038c9190613e7f565b610e53565b005b34801561039f57600080fd5b506103ba60048036038101906103b59190613ebf565b611266565b6040516103c79190613efb565b60405180910390f35b3480156103dc57600080fd5b506103e561131d565b005b3480156103f357600080fd5b5061040e60048036038101906104099190613b8c565b611331565b005b34801561041c57600080fd5b5061043760048036038101906104329190613b8c565b61166b565b005b34801561044557600080fd5b5061044e6119a6565b60405161045b9190613d67565b60405180910390f35b34801561047057600080fd5b506104796119d0565b6040516104869190613d04565b60405180910390f35b34801561049b57600080fd5b506104b660048036038101906104b19190613f42565b611a62565b005b6104d260048036038101906104cd9190613ebf565b611a78565b6040516104df9190613efb565b60405180910390f35b3480156104f457600080fd5b506104fd611e04565b60405161050a9190613efb565b60405180910390f35b34801561051f57600080fd5b5061053a600480360381019061053591906140b7565b611e0e565b005b34801561054857600080fd5b50610551611e70565b60405161055e9190613efb565b60405180910390f35b34801561057357600080fd5b5061057c611e81565b6040516105899190613d04565b60405180910390f35b34801561059e57600080fd5b506105b960048036038101906105b49190613b8c565b611f13565b6040516105c69190613d04565b60405180910390f35b3480156105db57600080fd5b506105f660048036038101906105f1919061419a565b612025565b005b34801561060457600080fd5b5061061f600480360381019061061a9190613b8c565b612043565b60405161062c919061428f565b60405180910390f35b34801561064157600080fd5b5061065c600480360381019061065791906142aa565b61212b565b6040516106699190613c59565b60405180910390f35b34801561067e57600080fd5b5061069960048036038101906106949190613ebf565b6121bf565b005b3480156106a757600080fd5b506106c260048036038101906106bd9190613ebf565b612242565b6040516106cf9190614414565b60405180910390f35b6106e061239b565b8060098190555050565b60007f80ac58cd000000000000000000000000000000000000000000000000000000007bffffffffffffffffffffffffffffffffffffffffffffffffffffffff1916827bffffffffffffffffffffffffffffffffffffffffffffffffffffffff191614806107b557507f5b5e139f000000000000000000000000000000000000000000000000000000007bffffffffffffffffffffffffffffffffffffffffffffffffffffffff1916827bffffffffffffffffffffffffffffffffffffffffffffffffffffffff1916145b806107c557506107c482612419565b5b9050919050565b6060600080546107db90614465565b80601f016020809104026020016040519081016040528092919081815260200182805461080790614465565b80156108545780601f1061082957610100808354040283529160200191610854565b820191906000526020600020905b81548152906001019060200180831161083757829003601f168201915b5050505050905090565b600061086982612483565b6004600083815260200190815260200160002060009054906101000a900473ffffffffffffffffffffffffffffffffffffffff169050919050565b60006108af82610dcd565b90508073ffffffffffffffffffffffffffffffffffffffff168373ffffffffffffffffffffffffffffffffffffffff160361091f576040517f08c379a000000000000000000000000000000000000000000000000000000000815260040161091690614508565b60405180910390fd5b8073ffffffffffffffffffffffffffffffffffffffff1661093e6124ce565b73ffffffffffffffffffffffffffffffffffffffff16148061096d575061096c816109676124ce565b61212b565b5b6109ac576040517f08c379a00000000000000000000000000000000000000000000000000000000081526004016109a39061459a565b60405180910390fd5b6109b683836124d6565b505050565b6109cc6109c66124ce565b8261258f565b610a0b576040517f08c379a0000000000000000000000000000000000000000000000000000000008152600401610a029061462c565b60405180910390fd5b610a16838383612624565b505050565b6000600e60008381526020019081526020016000206040518060c0016040529081600082015481526020016001820160009054906101000a900473ffffffffffffffffffffffffffffffffffffffff1673ffffffffffffffffffffffffffffffffffffffff1673ffffffffffffffffffffffffffffffffffffffff168152602001600282015481526020016003820160009054906101000a900460ff161515151581526020016003820160019054906101000a900460ff161515151581526020016003820160029054906101000a900460ff16151515158152505090508060800151610b3c576040517f08c379a0000000000000000000000000000000000000000000000000000000008152600401610b3390614698565b60405180910390fd5b806060015115610b81576040517f08c379a0000000000000000000000000000000000000000000000000000000008152600401610b789061472a565b60405180910390fd5b3373ffffffffffffffffffffffffffffffffffffffff16816020015173ffffffffffffffffffffffffffffffffffffffff1614610bf3576040517f08c379a0000000000000000000000000000000000000000000000000000000008152600401610bea90614796565b60405180910390fd5b8060a00151610c37576040517f08c379a0000000000000000000000000000000000000000000000000000000008152600401610c2e90614802565b60405180910390fd5b610c408261291d565b600181606001901515908115158152505080600e60008481526020019081526020016000206000820151816000015560208201518160010160006101000a81548173ffffffffffffffffffffffffffffffffffffffff021916908373ffffffffffffffffffffffffffffffffffffffff1602179055506040820151816002015560608201518160030160006101000a81548160ff02191690831515021790555060808201518160030160016101000a81548160ff02191690831515021790555060a08201518160030160026101000a81548160ff021916908315150217905550905050610d2d3383612970565b7ff21aa87017d3619b72fb0cc50c3ad1b0382aab7ec6a93fa6518574d06d47413d81604051610d5c919061428f565b60405180910390a15050565b610d73838383612c57565b81600e600083815260200190815260200160002060010160006101000a81548173ffffffffffffffffffffffffffffffffffffffff021916908373ffffffffffffffffffffffffffffffffffffffff160217905550505050565b600080610dd983612c77565b9050600073ffffffffffffffffffffffffffffffffffffffff168173ffffffffffffffffffffffffffffffffffffffff1603610e4a576040517f08c379a0000000000000000000000000000000000000000000000000000000008152600401610e419061486e565b60405180910390fd5b80915050919050565b6000600e60008381526020019081526020016000206040518060c0016040529081600082015481526020016001820160009054906101000a900473ffffffffffffffffffffffffffffffffffffffff1673ffffffffffffffffffffffffffffffffffffffff1673ffffffffffffffffffffffffffffffffffffffff168152602001600282015481526020016003820160009054906101000a900460ff161515151581526020016003820160019054906101000a900460ff161515151581526020016003820160029054906101000a900460ff16151515158152505090508060800151610f74576040517f08c379a0000000000000000000000000000000000000000000000000000000008152600401610f6b90614698565b60405180910390fd5b806060015115610fb9576040517f08c379a0000000000000000000000000000000000000000000000000000000008152600401610fb09061472a565b60405180910390fd5b3373ffffffffffffffffffffffffffffffffffffffff16816020015173ffffffffffffffffffffffffffffffffffffffff161461102b576040517f08c379a000000000000000000000000000000000000000000000000000000000815260040161102290614796565b60405180910390fd5b60006064605f836040015161104091906148bd565b61104a919061492e565b90506000808573ffffffffffffffffffffffffffffffffffffffff1683604051611073906149b6565b60006040518083038185875af1925050503d80600081146110b0576040519150601f19603f3d011682016040523d82523d6000602084013e6110b5565b606091505b5091509150816110fa576040517f08c379a00000000000000000000000000000000000000000000000000000000081526004016110f190614a17565b60405180910390fd5b6111038561291d565b600184606001901515908115158152505083600e60008781526020019081526020016000206000820151816000015560208201518160010160006101000a81548173ffffffffffffffffffffffffffffffffffffffff021916908373ffffffffffffffffffffffffffffffffffffffff1602179055506040820151816002015560608201518160030160006101000a81548160ff02191690831515021790555060808201518160030160016101000a81548160ff02191690831515021790555060a08201518160030160026101000a81548160ff0219169083151502179055509050506111f08686612970565b7ff21aa87017d3619b72fb0cc50c3ad1b0382aab7ec6a93fa6518574d06d47413d8460405161121f919061428f565b60405180910390a17f9fc5e71aeff7a6d972aa15a0fe198c3e4bf252cb9a1305552d0b7f98d70eebf784604051611256919061428f565b60405180910390a1505050505050565b60008073ffffffffffffffffffffffffffffffffffffffff168273ffffffffffffffffffffffffffffffffffffffff16036112d6576040517f08c379a00000000000000000000000000000000000000000000000000000000081526004016112cd90614aa9565b60405180910390fd5b600360008373ffffffffffffffffffffffffffffffffffffffff1673ffffffffffffffffffffffffffffffffffffffff168152602001908152602001600020549050919050565b61132561239b565b61132f6000612cb4565b565b6000600e60008381526020019081526020016000206040518060c0016040529081600082015481526020016001820160009054906101000a900473ffffffffffffffffffffffffffffffffffffffff1673ffffffffffffffffffffffffffffffffffffffff1673ffffffffffffffffffffffffffffffffffffffff168152602001600282015481526020016003820160009054906101000a900460ff161515151581526020016003820160019054906101000a900460ff161515151581526020016003820160029054906101000a900460ff16151515158152505090508060800151611452576040517f08c379a000000000000000000000000000000000000000000000000000000000815260040161144990614698565b60405180910390fd5b806060015115611497576040517f08c379a000000000000000000000000000000000000000000000000000000000815260040161148e9061472a565b60405180910390fd5b3373ffffffffffffffffffffffffffffffffffffffff16816020015173ffffffffffffffffffffffffffffffffffffffff1614611509576040517f08c379a000000000000000000000000000000000000000000000000000000000815260040161150090614796565b60405180910390fd5b8060a0015161154d576040517f08c379a000000000000000000000000000000000000000000000000000000000815260040161154490614802565b60405180910390fd5b60008160a001901515908115158152505080600e60008481526020019081526020016000206000820151816000015560208201518160010160006101000a81548173ffffffffffffffffffffffffffffffffffffffff021916908373ffffffffffffffffffffffffffffffffffffffff1602179055506040820151816002015560608201518160030160006101000a81548160ff02191690831515021790555060808201518160030160016101000a81548160ff02191690831515021790555060a08201518160030160026101000a81548160ff0219169083151502179055509050507f248f640e687960fbf08368bb2d6ab0b2a3268dfd569b69e9a7101c206da1cd8c8160405161165f919061428f565b60405180910390a15050565b6000600e60008381526020019081526020016000206040518060c0016040529081600082015481526020016001820160009054906101000a900473ffffffffffffffffffffffffffffffffffffffff1673ffffffffffffffffffffffffffffffffffffffff1673ffffffffffffffffffffffffffffffffffffffff168152602001600282015481526020016003820160009054906101000a900460ff161515151581526020016003820160019054906101000a900460ff161515151581526020016003820160029054906101000a900460ff1615151515815250509050806080015161178c576040517f08c379a000000000000000000000000000000000000000000000000000000000815260040161178390614698565b60405180910390fd5b8060600151156117d1576040517f08c379a00000000000000000000000000000000000000000000000000000000081526004016117c89061472a565b60405180910390fd5b3373ffffffffffffffffffffffffffffffffffffffff16816020015173ffffffffffffffffffffffffffffffffffffffff1614611843576040517f08c379a000000000000000000000000000000000000000000000000000000000815260040161183a90614796565b60405180910390fd5b8060a0015115611888576040517f08c379a000000000000000000000000000000000000000000000000000000000815260040161187f90614b15565b60405180910390fd5b60018160a001901515908115158152505080600e60008481526020019081526020016000206000820151816000015560208201518160010160006101000a81548173ffffffffffffffffffffffffffffffffffffffff021916908373ffffffffffffffffffffffffffffffffffffffff1602179055506040820151816002015560608201518160030160006101000a81548160ff02191690831515021790555060808201518160030160016101000a81548160ff02191690831515021790555060a08201518160030160026101000a81548160ff0219169083151502179055509050507f4f58770a6d7e5ecaf22e5da9aa506f095243cfc0b1f7dcea50ec9b09a2a832f18160405161199a919061428f565b60405180910390a15050565b6000600760009054906101000a900473ffffffffffffffffffffffffffffffffffffffff16905090565b6060600180546119df90614465565b80601f0160208091040260200160405190810160405280929190818152602001828054611a0b90614465565b8015611a585780601f10611a2d57610100808354040283529160200191611a58565b820191906000526020600020905b815481529060010190602001808311611a3b57829003601f168201915b5050505050905090565b611a74611a6d6124ce565b8383612d7a565b5050565b6000600954341015611abf576040517f08c379a0000000000000000000000000000000000000000000000000000000008152600401611ab690614ba7565b60405180910390fd5b611ac96008612ee6565b6000611ad56008612efc565b905060006040518060c001604052808381526020018573ffffffffffffffffffffffffffffffffffffffff1681526020016009548152602001600015158152602001600115158152602001600015158152509050600c60008573ffffffffffffffffffffffffffffffffffffffff1673ffffffffffffffffffffffffffffffffffffffff1681526020019081526020016000208190806001815401808255809150506001900390600052602060002090600402016000909190919091506000820151816000015560208201518160010160006101000a81548173ffffffffffffffffffffffffffffffffffffffff021916908373ffffffffffffffffffffffffffffffffffffffff1602179055506040820151816002015560608201518160030160006101000a81548160ff02191690831515021790555060808201518160030160016101000a81548160ff02191690831515021790555060a08201518160030160026101000a81548160ff021916908315150217905550505080600e60008481526020019081526020016000206000820151816000015560208201518160010160006101000a81548173ffffffffffffffffffffffffffffffffffffffff021916908373ffffffffffffffffffffffffffffffffffffffff1602179055506040820151816002015560608201518160030160006101000a81548160ff02191690831515021790555060808201518160030160016101000a81548160ff02191690831515021790555060a08201518160030160026101000a81548160ff021916908315150217905550905050611d2b8483612f0a565b611dbf82600b8054611d3c90614465565b80601f0160208091040260200160405190810160405280929190818152602001828054611d6890614465565b8015611db55780601f10611d8a57610100808354040283529160200191611db5565b820191906000526020600020905b815481529060010190602001808311611d9857829003601f168201915b5050505050613127565b7f0a58329b7f1e88b2a3a998689583a568a722e27f897f37aa3c1f59f573338ad481604051611dee919061428f565b60405180910390a1806000015192505050919050565b6000600954905090565b611e1f611e196124ce565b8361258f565b611e5e576040517f08c379a0000000000000000000000000000000000000000000000000000000008152600401611e559061462c565b60405180910390fd5b611e6a84848484613194565b50505050565b6000611e7c6008612efc565b905090565b6060600b8054611e9090614465565b80601f0160208091040260200160405190810160405280929190818152602001828054611ebc90614465565b8015611f095780601f10611ede57610100808354040283529160200191611f09565b820191906000526020600020905b815481529060010190602001808311611eec57829003601f168201915b5050505050905090565b6060611f1e82612483565b6000600660008481526020019081526020016000208054611f3e90614465565b80601f0160208091040260200160405190810160405280929190818152602001828054611f6a90614465565b8015611fb75780601f10611f8c57610100808354040283529160200191611fb7565b820191906000526020600020905b815481529060010190602001808311611f9a57829003601f168201915b505050505090506000611fc86131f0565b90506000815103611fdd578192505050612020565b600082511115612012578082604051602001611ffa929190614c03565b60405160208183030381529060405292505050612020565b61201b84613207565b925050505b919050565b61202d61239b565b8181600b918261203e929190614dde565b505050565b61204b6138af565b600e60008381526020019081526020016000206040518060c0016040529081600082015481526020016001820160009054906101000a900473ffffffffffffffffffffffffffffffffffffffff1673ffffffffffffffffffffffffffffffffffffffff1673ffffffffffffffffffffffffffffffffffffffff168152602001600282015481526020016003820160009054906101000a900460ff161515151581526020016003820160019054906101000a900460ff161515151581526020016003820160029054906101000a900460ff1615151515815250509050919050565b6000600560008473ffffffffffffffffffffffffffffffffffffffff1673ffffffffffffffffffffffffffffffffffffffff16815260200190815260200160002060008373ffffffffffffffffffffffffffffffffffffffff1673ffffffffffffffffffffffffffffffffffffffff16815260200190815260200160002060009054906101000a900460ff16905092915050565b6121c761239b565b600073ffffffffffffffffffffffffffffffffffffffff168173ffffffffffffffffffffffffffffffffffffffff1603612236576040517f08c379a000000000000000000000000000000000000000000000000000000000815260040161222d90614f20565b60405180910390fd5b61223f81612cb4565b50565b6060600c60008373ffffffffffffffffffffffffffffffffffffffff1673ffffffffffffffffffffffffffffffffffffffff168152602001908152602001600020805480602002602001604051908101604052809291908181526020016000905b8282101561239057838290600052602060002090600402016040518060c0016040529081600082015481526020016001820160009054906101000a900473ffffffffffffffffffffffffffffffffffffffff1673ffffffffffffffffffffffffffffffffffffffff1673ffffffffffffffffffffffffffffffffffffffff168152602001600282015481526020016003820160009054906101000a900460ff161515151581526020016003820160019054906101000a900460ff161515151581526020016003820160029054906101000a900460ff161515151581525050815260200190600101906122a3565b505050509050919050565b6123a36124ce565b73ffffffffffffffffffffffffffffffffffffffff166123c16119a6565b73ffffffffffffffffffffffffffffffffffffffff1614612417576040517f08c379a000000000000000000000000000000000000000000000000000000000815260040161240e90614f8c565b60405180910390fd5b565b60007f01ffc9a7000000000000000000000000000000000000000000000000000000007bffffffffffffffffffffffffffffffffffffffffffffffffffffffff1916827bffffffffffffffffffffffffffffffffffffffffffffffffffffffff1916149050919050565b61248c8161326f565b6124cb576040517f08c379a00000000000000000000000000000000000000000000000000000000081526004016124c29061486e565b60405180910390fd5b50565b600033905090565b816004600083815260200190815260200160002060006101000a81548173ffffffffffffffffffffffffffffffffffffffff021916908373ffffffffffffffffffffffffffffffffffffffff160217905550808273ffffffffffffffffffffffffffffffffffffffff1661254983610dcd565b73ffffffffffffffffffffffffffffffffffffffff167f8c5be1e5ebec7d5bd14f71427d1e84f3dd0314c0f7b2291e5b200ac8c7c3b92560405160405180910390a45050565b60008061259b83610dcd565b90508073ffffffffffffffffffffffffffffffffffffffff168473ffffffffffffffffffffffffffffffffffffffff1614806125dd57506125dc818561212b565b5b8061261b57508373ffffffffffffffffffffffffffffffffffffffff166126038461085e565b73ffffffffffffffffffffffffffffffffffffffff16145b91505092915050565b8273ffffffffffffffffffffffffffffffffffffffff1661264482610dcd565b73ffffffffffffffffffffffffffffffffffffffff161461269a576040517f08c379a00000000000000000000000000000000000000000000000000000000081526004016126919061501e565b60405180910390fd5b600073ffffffffffffffffffffffffffffffffffffffff168273ffffffffffffffffffffffffffffffffffffffff1603612709576040517f08c379a0000000000000000000000000000000000000000000000000000000008152600401612700906150b0565b60405180910390fd5b61271683838360016132b0565b8273ffffffffffffffffffffffffffffffffffffffff1661273682610dcd565b73ffffffffffffffffffffffffffffffffffffffff161461278c576040517f08c379a00000000000000000000000000000000000000000000000000000000081526004016127839061501e565b60405180910390fd5b6004600082815260200190815260200160002060006101000a81549073ffffffffffffffffffffffffffffffffffffffff02191690556001600360008573ffffffffffffffffffffffffffffffffffffffff1673ffffffffffffffffffffffffffffffffffffffff168152602001908152602001600020600082825403925050819055506001600360008473ffffffffffffffffffffffffffffffffffffffff1673ffffffffffffffffffffffffffffffffffffffff16815260200190815260200160002060008282540192505081905550816002600083815260200190815260200160002060006101000a81548173ffffffffffffffffffffffffffffffffffffffff021916908373ffffffffffffffffffffffffffffffffffffffff160217905550808273ffffffffffffffffffffffffffffffffffffffff168473ffffffffffffffffffffffffffffffffffffffff167fddf252ad1be2c89b69c2b068fc378daa952ba7f163c4a11628f55a4df523b3ef60405160405180910390a4612918838383600161338a565b505050565b61292681613390565b600060066000838152602001908152602001600020805461294690614465565b90501461296d5760066000828152602001908152602001600020600061296c9190613901565b5b50565b6000600c60008473ffffffffffffffffffffffffffffffffffffffff1673ffffffffffffffffffffffffffffffffffffffff16815260200190815260200160002090506000805b600183805490506129c891906150d0565b811015612b6457838382815481106129e3576129e2615104565b5b906000526020600020906004020160000154036129ff57600191505b828282612a0c9190615133565b81548110612a1d57612a1c615104565b5b9060005260206000209060040201838281548110612a3e57612a3d615104565b5b9060005260206000209060040201600082015481600001556001820160009054906101000a900473ffffffffffffffffffffffffffffffffffffffff168160010160006101000a81548173ffffffffffffffffffffffffffffffffffffffff021916908373ffffffffffffffffffffffffffffffffffffffff160217905550600282015481600201556003820160009054906101000a900460ff168160030160006101000a81548160ff0219169083151502179055506003820160019054906101000a900460ff168160030160016101000a81548160ff0219169083151502179055506003820160029054906101000a900460ff168160030160026101000a81548160ff0219169083151502179055509050508080612b5c90615167565b9150506129b7565b5081805480612b7657612b756151af565b5b60019003818190600052602060002090600402016000808201600090556001820160006101000a81549073ffffffffffffffffffffffffffffffffffffffff021916905560028201600090556003820160006101000a81549060ff02191690556003820160016101000a81549060ff02191690556003820160026101000a81549060ff02191690555050905581600c60008673ffffffffffffffffffffffffffffffffffffffff1673ffffffffffffffffffffffffffffffffffffffff168152602001908152602001600020908054612c50929190613941565b5050505050565b612c7283838360405180602001604052806000815250611e0e565b505050565b60006002600083815260200190815260200160002060009054906101000a900473ffffffffffffffffffffffffffffffffffffffff169050919050565b6000600760009054906101000a900473ffffffffffffffffffffffffffffffffffffffff16905081600760006101000a81548173ffffffffffffffffffffffffffffffffffffffff021916908373ffffffffffffffffffffffffffffffffffffffff1602179055508173ffffffffffffffffffffffffffffffffffffffff168173ffffffffffffffffffffffffffffffffffffffff167f8be0079c531659141344cd1fd0a4f28419497f9722a3daafe3b4186f6b6457e060405160405180910390a35050565b8173ffffffffffffffffffffffffffffffffffffffff168373ffffffffffffffffffffffffffffffffffffffff1603612de8576040517f08c379a0000000000000000000000000000000000000000000000000000000008152600401612ddf9061522a565b60405180910390fd5b80600560008573ffffffffffffffffffffffffffffffffffffffff1673ffffffffffffffffffffffffffffffffffffffff16815260200190815260200160002060008473ffffffffffffffffffffffffffffffffffffffff1673ffffffffffffffffffffffffffffffffffffffff16815260200190815260200160002060006101000a81548160ff0219169083151502179055508173ffffffffffffffffffffffffffffffffffffffff168373ffffffffffffffffffffffffffffffffffffffff167f17307eab39ab6107e8899845ad3d59bd9653f200f220920489ca2b5937696c3183604051612ed99190613c59565b60405180910390a3505050565b6001816000016000828254019250508190555050565b600081600001549050919050565b600073ffffffffffffffffffffffffffffffffffffffff168273ffffffffffffffffffffffffffffffffffffffff1603612f79576040517f08c379a0000000000000000000000000000000000000000000000000000000008152600401612f7090615296565b60405180910390fd5b612f828161326f565b15612fc2576040517f08c379a0000000000000000000000000000000000000000000000000000000008152600401612fb990615302565b60405180910390fd5b612fd06000838360016132b0565b612fd98161326f565b15613019576040517f08c379a000000000000000000000000000000000000000000000000000000000815260040161301090615302565b60405180910390fd5b6001600360008473ffffffffffffffffffffffffffffffffffffffff1673ffffffffffffffffffffffffffffffffffffffff16815260200190815260200160002060008282540192505081905550816002600083815260200190815260200160002060006101000a81548173ffffffffffffffffffffffffffffffffffffffff021916908373ffffffffffffffffffffffffffffffffffffffff160217905550808273ffffffffffffffffffffffffffffffffffffffff16600073ffffffffffffffffffffffffffffffffffffffff167fddf252ad1be2c89b69c2b068fc378daa952ba7f163c4a11628f55a4df523b3ef60405160405180910390a461312360008383600161338a565b5050565b6131308261326f565b61316f576040517f08c379a000000000000000000000000000000000000000000000000000000000815260040161316690615394565b60405180910390fd5b8060066000848152602001908152602001600020908161318f91906153b4565b505050565b61319f848484612624565b6131ab848484846134de565b6131ea576040517f08c379a00000000000000000000000000000000000000000000000000000000081526004016131e1906154f8565b60405180910390fd5b50505050565b606060405180602001604052806000815250905090565b606061321282612483565b600061321c6131f0565b9050600081511161323c5760405180602001604052806000815250613267565b8061324684613665565b604051602001613257929190614c03565b6040516020818303038152906040525b915050919050565b60008073ffffffffffffffffffffffffffffffffffffffff1661329183612c77565b73ffffffffffffffffffffffffffffffffffffffff1614159050919050565b6132bc84848484613733565b600e600083815260200190815260200160002060030160009054906101000a900460ff1615613320576040517f08c379a000000000000000000000000000000000000000000000000000000000815260040161331790615564565b60405180910390fd5b600e600083815260200190815260200160002060030160029054906101000a900460ff1615613384576040517f08c379a000000000000000000000000000000000000000000000000000000000815260040161337b906155f6565b60405180910390fd5b50505050565b50505050565b600061339b82610dcd565b90506133ab8160008460016132b0565b6133b482610dcd565b90506004600083815260200190815260200160002060006101000a81549073ffffffffffffffffffffffffffffffffffffffff02191690556001600360008373ffffffffffffffffffffffffffffffffffffffff1673ffffffffffffffffffffffffffffffffffffffff168152602001908152602001600020600082825403925050819055506002600083815260200190815260200160002060006101000a81549073ffffffffffffffffffffffffffffffffffffffff021916905581600073ffffffffffffffffffffffffffffffffffffffff168273ffffffffffffffffffffffffffffffffffffffff167fddf252ad1be2c89b69c2b068fc378daa952ba7f163c4a11628f55a4df523b3ef60405160405180910390a46134da81600084600161338a565b5050565b60006134ff8473ffffffffffffffffffffffffffffffffffffffff16613739565b15613658578373ffffffffffffffffffffffffffffffffffffffff1663150b7a026135286124ce565b8786866040518563ffffffff1660e01b815260040161354a949392919061566b565b6020604051808303816000875af192505050801561358657506040513d601f19601f8201168201806040525081019061358391906156cc565b60015b613608573d80600081146135b6576040519150601f19603f3d011682016040523d82523d6000602084013e6135bb565b606091505b506000815103613600576040517f08c379a00000000000000000000000000000000000000000000000000000000081526004016135f7906154f8565b60405180910390fd5b805181602001fd5b63150b7a0260e01b7bffffffffffffffffffffffffffffffffffffffffffffffffffffffff1916817bffffffffffffffffffffffffffffffffffffffffffffffffffffffff19161491505061365d565b600190505b949350505050565b6060600060016136748461375c565b01905060008167ffffffffffffffff81111561369357613692613f8c565b5b6040519080825280601f01601f1916602001820160405280156136c55781602001600182028036833780820191505090505b509050600082602001820190505b600115613728578080600190039150507f3031323334353637383961626364656600000000000000000000000000000000600a86061a8153600a858161371c5761371b6148ff565b5b049450600085036136d3575b819350505050919050565b50505050565b6000808273ffffffffffffffffffffffffffffffffffffffff163b119050919050565b600080600090507a184f03e93ff9f4daa797ed6e38ed64bf6a1f01000000000000000083106137ba577a184f03e93ff9f4daa797ed6e38ed64bf6a1f01000000000000000083816137b0576137af6148ff565b5b0492506040810190505b6d04ee2d6d415b85acef810000000083106137f7576d04ee2d6d415b85acef810000000083816137ed576137ec6148ff565b5b0492506020810190505b662386f26fc10000831061382657662386f26fc10000838161381c5761381b6148ff565b5b0492506010810190505b6305f5e100831061384f576305f5e1008381613845576138446148ff565b5b0492506008810190505b612710831061387457612710838161386a576138696148ff565b5b0492506004810190505b60648310613897576064838161388d5761388c6148ff565b5b0492506002810190505b600a83106138a6576001810190505b80915050919050565b6040518060c0016040528060008152602001600073ffffffffffffffffffffffffffffffffffffffff168152602001600081526020016000151581526020016000151581526020016000151581525090565b50805461390d90614465565b6000825580601f1061391f575061393e565b601f01602090049060005260206000209081019061393d9190613a9b565b5b50565b828054828255906000526020600020906004028101928215613a8a5760005260206000209160040282015b82811115613a89578282600082015481600001556001820160009054906101000a900473ffffffffffffffffffffffffffffffffffffffff168160010160006101000a81548173ffffffffffffffffffffffffffffffffffffffff021916908373ffffffffffffffffffffffffffffffffffffffff160217905550600282015481600201556003820160009054906101000a900460ff168160030160006101000a81548160ff0219169083151502179055506003820160019054906101000a900460ff168160030160016101000a81548160ff0219169083151502179055506003820160029054906101000a900460ff168160030160026101000a81548160ff02191690831515021790555050509160040191906004019061396c565b5b509050613a979190613ab8565b5090565b5b80821115613ab4576000816000905550600101613a9c565b5090565b5b80821115613b3e576000808201600090556001820160006101000a81549073ffffffffffffffffffffffffffffffffffffffff021916905560028201600090556003820160006101000a81549060ff02191690556003820160016101000a81549060ff02191690556003820160026101000a81549060ff021916905550600401613ab9565b5090565b6000604051905090565b600080fd5b600080fd5b6000819050919050565b613b6981613b56565b8114613b7457600080fd5b50565b600081359050613b8681613b60565b92915050565b600060208284031215613ba257613ba1613b4c565b5b6000613bb084828501613b77565b91505092915050565b60007fffffffff0000000000000000000000000000000000000000000000000000000082169050919050565b613bee81613bb9565b8114613bf957600080fd5b50565b600081359050613c0b81613be5565b92915050565b600060208284031215613c2757613c26613b4c565b5b6000613c3584828501613bfc565b91505092915050565b60008115159050919050565b613c5381613c3e565b82525050565b6000602082019050613c6e6000830184613c4a565b92915050565b600081519050919050565b600082825260208201905092915050565b60005b83811015613cae578082015181840152602081019050613c93565b60008484015250505050565b6000601f19601f8301169050919050565b6000613cd682613c74565b613ce08185613c7f565b9350613cf0818560208601613c90565b613cf981613cba565b840191505092915050565b60006020820190508181036000830152613d1e8184613ccb565b905092915050565b600073ffffffffffffffffffffffffffffffffffffffff82169050919050565b6000613d5182613d26565b9050919050565b613d6181613d46565b82525050565b6000602082019050613d7c6000830184613d58565b92915050565b613d8b81613d46565b8114613d9657600080fd5b50565b600081359050613da881613d82565b92915050565b60008060408385031215613dc557613dc4613b4c565b5b6000613dd385828601613d99565b9250506020613de485828601613b77565b9150509250929050565b600080600060608486031215613e0757613e06613b4c565b5b6000613e1586828701613d99565b9350506020613e2686828701613d99565b9250506040613e3786828701613b77565b9150509250925092565b6000613e4c82613d26565b9050919050565b613e5c81613e41565b8114613e6757600080fd5b50565b600081359050613e7981613e53565b92915050565b60008060408385031215613e9657613e95613b4c565b5b6000613ea485828601613e6a565b9250506020613eb585828601613b77565b9150509250929050565b600060208284031215613ed557613ed4613b4c565b5b6000613ee384828501613d99565b91505092915050565b613ef581613b56565b82525050565b6000602082019050613f106000830184613eec565b92915050565b613f1f81613c3e565b8114613f2a57600080fd5b50565b600081359050613f3c81613f16565b92915050565b60008060408385031215613f5957613f58613b4c565b5b6000613f6785828601613d99565b9250506020613f7885828601613f2d565b9150509250929050565b600080fd5b600080fd5b7f4e487b7100000000000000000000000000000000000000000000000000000000600052604160045260246000fd5b613fc482613cba565b810181811067ffffffffffffffff82111715613fe357613fe2613f8c565b5b80604052505050565b6000613ff6613b42565b90506140028282613fbb565b919050565b600067ffffffffffffffff82111561402257614021613f8c565b5b61402b82613cba565b9050602081019050919050565b82818337600083830152505050565b600061405a61405584614007565b613fec565b90508281526020810184848401111561407657614075613f87565b5b614081848285614038565b509392505050565b600082601f83011261409e5761409d613f82565b5b81356140ae848260208601614047565b91505092915050565b600080600080608085870312156140d1576140d0613b4c565b5b60006140df87828801613d99565b94505060206140f087828801613d99565b935050604061410187828801613b77565b925050606085013567ffffffffffffffff81111561412257614121613b51565b5b61412e87828801614089565b91505092959194509250565b600080fd5b600080fd5b60008083601f84011261415a57614159613f82565b5b8235905067ffffffffffffffff8111156141775761417661413a565b5b6020830191508360018202830111156141935761419261413f565b5b9250929050565b600080602083850312156141b1576141b0613b4c565b5b600083013567ffffffffffffffff8111156141cf576141ce613b51565b5b6141db85828601614144565b92509250509250929050565b6141f081613b56565b82525050565b6141ff81613d46565b82525050565b61420e81613c3e565b82525050565b60c08201600082015161422a60008501826141e7565b50602082015161423d60208501826141f6565b50604082015161425060408501826141e7565b5060608201516142636060850182614205565b5060808201516142766080850182614205565b5060a082015161428960a0850182614205565b50505050565b600060c0820190506142a46000830184614214565b92915050565b600080604083850312156142c1576142c0613b4c565b5b60006142cf85828601613d99565b92505060206142e085828601613d99565b9150509250929050565b600081519050919050565b600082825260208201905092915050565b6000819050602082019050919050565b60c08201600082015161432c60008501826141e7565b50602082015161433f60208501826141f6565b50604082015161435260408501826141e7565b5060608201516143656060850182614205565b5060808201516143786080850182614205565b5060a082015161438b60a0850182614205565b50505050565b600061439d8383614316565b60c08301905092915050565b6000602082019050919050565b60006143c1826142ea565b6143cb81856142f5565b93506143d683614306565b8060005b838110156144075781516143ee8882614391565b97506143f9836143a9565b9250506001810190506143da565b5085935050505092915050565b6000602082019050818103600083015261442e81846143b6565b905092915050565b7f4e487b7100000000000000000000000000000000000000000000000000000000600052602260045260246000fd5b6000600282049050600182168061447d57607f821691505b6020821081036144905761448f614436565b5b50919050565b7f4552433732313a20617070726f76616c20746f2063757272656e74206f776e6560008201527f7200000000000000000000000000000000000000000000000000000000000000602082015250565b60006144f2602183613c7f565b91506144fd82614496565b604082019050919050565b60006020820190508181036000830152614521816144e5565b9050919050565b7f4552433732313a20617070726f76652063616c6c6572206973206e6f7420746f60008201527f6b656e206f776e6572206f7220617070726f76656420666f7220616c6c000000602082015250565b6000614584603d83613c7f565b915061458f82614528565b604082019050919050565b600060208201905081810360008301526145b381614577565b9050919050565b7f4552433732313a2063616c6c6572206973206e6f7420746f6b656e206f776e6560008201527f72206f7220617070726f76656400000000000000000000000000000000000000602082015250565b6000614616602d83613c7f565b9150614621826145ba565b604082019050919050565b6000602082019050818103600083015261464581614609565b9050919050565b7f4e6f742061206d696e7465720000000000000000000000000000000000000000600082015250565b6000614682600c83613c7f565b915061468d8261464c565b602082019050919050565b600060208201905081810360008301526146b181614675565b9050919050565b7f54686973207469636b65742068617320616c7265616479206265656e2075736560008201527f6400000000000000000000000000000000000000000000000000000000000000602082015250565b6000614714602183613c7f565b915061471f826146b8565b604082019050919050565b6000602082019050818103600083015261474381614707565b9050919050565b7f43616c6c6572206973206e6f74206f776e657200000000000000000000000000600082015250565b6000614780601383613c7f565b915061478b8261474a565b602082019050919050565b600060208201905081810360008301526147af81614773565b9050919050565b7f546f6b656e206973206e6f74207374616b656400000000000000000000000000600082015250565b60006147ec601383613c7f565b91506147f7826147b6565b602082019050919050565b6000602082019050818103600083015261481b816147df565b9050919050565b7f4552433732313a20696e76616c696420746f6b656e2049440000000000000000600082015250565b6000614858601883613c7f565b915061486382614822565b602082019050919050565b600060208201905081810360008301526148878161484b565b9050919050565b7f4e487b7100000000000000000000000000000000000000000000000000000000600052601160045260246000fd5b60006148c882613b56565b91506148d383613b56565b92508282026148e181613b56565b915082820484148315176148f8576148f761488e565b5b5092915050565b7f4e487b7100000000000000000000000000000000000000000000000000000000600052601260045260246000fd5b600061493982613b56565b915061494483613b56565b925082614954576149536148ff565b5b828204905092915050565b600081905092915050565b7f393525206f66204e465420726566756e64000000000000000000000000000000600082015250565b60006149a060118361495f565b91506149ab8261496a565b601182019050919050565b60006149c182614993565b9150819050919050565b7f4661696c656420746f2073656e64204574686572000000000000000000000000600082015250565b6000614a01601483613c7f565b9150614a0c826149cb565b602082019050919050565b60006020820190508181036000830152614a30816149f4565b9050919050565b7f4552433732313a2061646472657373207a65726f206973206e6f74206120766160008201527f6c6964206f776e65720000000000000000000000000000000000000000000000602082015250565b6000614a93602983613c7f565b9150614a9e82614a37565b604082019050919050565b60006020820190508181036000830152614ac281614a86565b9050919050565b7f546f6b656e20616c7265616479207374616b6564000000000000000000000000600082015250565b6000614aff601483613c7f565b9150614b0a82614ac9565b602082019050919050565b60006020820190508181036000830152614b2e81614af2565b9050919050565b7f596f7520646f6e2774206861766520656e6f756768206d6f6e657920746f206d60008201527f696e740000000000000000000000000000000000000000000000000000000000602082015250565b6000614b91602383613c7f565b9150614b9c82614b35565b604082019050919050565b60006020820190508181036000830152614bc081614b84565b9050919050565b600081905092915050565b6000614bdd82613c74565b614be78185614bc7565b9350614bf7818560208601613c90565b80840191505092915050565b6000614c0f8285614bd2565b9150614c1b8284614bd2565b91508190509392505050565b600082905092915050565b60008190508160005260206000209050919050565b60006020601f8301049050919050565b600082821b905092915050565b600060088302614c947fffffffffffffffffffffffffffffffffffffffffffffffffffffffffffffffff82614c57565b614c9e8683614c57565b95508019841693508086168417925050509392505050565b6000819050919050565b6000614cdb614cd6614cd184613b56565b614cb6565b613b56565b9050919050565b6000819050919050565b614cf583614cc0565b614d09614d0182614ce2565b848454614c64565b825550505050565b600090565b614d1e614d11565b614d29818484614cec565b505050565b5b81811015614d4d57614d42600082614d16565b600181019050614d2f565b5050565b601f821115614d9257614d6381614c32565b614d6c84614c47565b81016020851015614d7b578190505b614d8f614d8785614c47565b830182614d2e565b50505b505050565b600082821c905092915050565b6000614db560001984600802614d97565b1980831691505092915050565b6000614dce8383614da4565b9150826002028217905092915050565b614de88383614c27565b67ffffffffffffffff811115614e0157614e00613f8c565b5b614e0b8254614465565b614e16828285614d51565b6000601f831160018114614e455760008415614e33578287013590505b614e3d8582614dc2565b865550614ea5565b601f198416614e5386614c32565b60005b82811015614e7b57848901358255600182019150602085019450602081019050614e56565b86831015614e985784890135614e94601f891682614da4565b8355505b6001600288020188555050505b50505050505050565b7f4f776e61626c653a206e6577206f776e657220697320746865207a65726f206160008201527f6464726573730000000000000000000000000000000000000000000000000000602082015250565b6000614f0a602683613c7f565b9150614f1582614eae565b604082019050919050565b60006020820190508181036000830152614f3981614efd565b9050919050565b7f4f776e61626c653a2063616c6c6572206973206e6f7420746865206f776e6572600082015250565b6000614f76602083613c7f565b9150614f8182614f40565b602082019050919050565b60006020820190508181036000830152614fa581614f69565b9050919050565b7f4552433732313a207472616e736665722066726f6d20696e636f72726563742060008201527f6f776e6572000000000000000000000000000000000000000000000000000000602082015250565b6000615008602583613c7f565b915061501382614fac565b604082019050919050565b6000602082019050818103600083015261503781614ffb565b9050919050565b7f4552433732313a207472616e7366657220746f20746865207a65726f2061646460008201527f7265737300000000000000000000000000000000000000000000000000000000602082015250565b600061509a602483613c7f565b91506150a58261503e565b604082019050919050565b600060208201905081810360008301526150c98161508d565b9050919050565b60006150db82613b56565b91506150e683613b56565b92508282039050818111156150fe576150fd61488e565b5b92915050565b7f4e487b7100000000000000000000000000000000000000000000000000000000600052603260045260246000fd5b600061513e82613b56565b915061514983613b56565b92508282019050808211156151615761516061488e565b5b92915050565b600061517282613b56565b91507fffffffffffffffffffffffffffffffffffffffffffffffffffffffffffffffff82036151a4576151a361488e565b5b600182019050919050565b7f4e487b7100000000000000000000000000000000000000000000000000000000600052603160045260246000fd5b7f4552433732313a20617070726f766520746f2063616c6c657200000000000000600082015250565b6000615214601983613c7f565b915061521f826151de565b602082019050919050565b6000602082019050818103600083015261524381615207565b9050919050565b7f4552433732313a206d696e7420746f20746865207a65726f2061646472657373600082015250565b6000615280602083613c7f565b915061528b8261524a565b602082019050919050565b600060208201905081810360008301526152af81615273565b9050919050565b7f4552433732313a20746f6b656e20616c7265616479206d696e74656400000000600082015250565b60006152ec601c83613c7f565b91506152f7826152b6565b602082019050919050565b6000602082019050818103600083015261531b816152df565b9050919050565b7f45524337323155524953746f726167653a2055524920736574206f66206e6f6e60008201527f6578697374656e7420746f6b656e000000000000000000000000000000000000602082015250565b600061537e602e83613c7f565b915061538982615322565b604082019050919050565b600060208201905081810360008301526153ad81615371565b9050919050565b6153bd82613c74565b67ffffffffffffffff8111156153d6576153d5613f8c565b5b6153e08254614465565b6153eb828285614d51565b600060209050601f83116001811461541e576000841561540c578287015190505b6154168582614dc2565b86555061547e565b601f19841661542c86614c32565b60005b828110156154545784890151825560018201915060208501945060208101905061542f565b86831015615471578489015161546d601f891682614da4565b8355505b6001600288020188555050505b505050505050565b7f4552433732313a207472616e7366657220746f206e6f6e20455243373231526560008201527f63656976657220696d706c656d656e7465720000000000000000000000000000602082015250565b60006154e2603283613c7f565b91506154ed82615486565b604082019050919050565b60006020820190508181036000830152615511816154d5565b9050919050565b7f596f752063616e6e6f74207472616e736665722061207573656420746f6b656e600082015250565b600061554e602083613c7f565b915061555982615518565b602082019050919050565b6000602082019050818103600083015261557d81615541565b9050919050565b7f596f752063616e6e6f74207472616e736665722061207374616b656420746f6b60008201527f656e000000000000000000000000000000000000000000000000000000000000602082015250565b60006155e0602283613c7f565b91506155eb82615584565b604082019050919050565b6000602082019050818103600083015261560f816155d3565b9050919050565b600081519050919050565b600082825260208201905092915050565b600061563d82615616565b6156478185615621565b9350615657818560208601613c90565b61566081613cba565b840191505092915050565b60006080820190506156806000830187613d58565b61568d6020830186613d58565b61569a6040830185613eec565b81810360608301526156ac8184615632565b905095945050505050565b6000815190506156c681613be5565b92915050565b6000602082840312156156e2576156e1613b4c565b5b60006156f0848285016156b7565b9150509291505056fea26469706673582212200e040ec855c9eb2094572134b028002374ec6167119afdf2d135378922e8706664736f6c63430008120033",
  "immutableReferences": {},
  "source": "// SPDX-License-Identifier: MIT\npragma solidity >=0.4.22 <0.9.0;\n\nimport '@openzeppelin/contracts/token/ERC721/ERC721.sol';\nimport '@openzeppelin/contracts/token/ERC721/extensions/ERC721URIStorage.sol';\nimport '@openzeppelin/contracts/utils/Counters.sol';\nimport '@openzeppelin/contracts/access/Ownable.sol';\n\n// ADD 5% Royalty\n// ADD STATIC Variable method\n// Attention royalty check par rapport  blur.\n\n\n\ncontract MiningDAOInvestTickets is ERC721URIStorage, Ownable {\n    using Counters for Counters.Counter;\n\n    struct Ticket {\n        uint tokenId;\n        address ticketOwner;\n        uint gweiValue;\n        bool isUsed;\n        bool isMinted;\n        bool isStaked;\n    }\n\n    event TicketMinted(Ticket ticket);\n    event TicketRefund(Ticket ticket);\n    event TicketBurned(Ticket ticket);\n    event TicketStaked(Ticket ticket);\n    event TicketUnstaked(Ticket ticket);\n\n    Counters.Counter private _tokenIds;\n    uint private mintPriceETH = 0.001 ether;\n    address private DAOAddress;\n    string private tokenUri;\n    mapping (address => Ticket[]) private ticketsByAddress;\n    mapping (address => Ticket[]) private usableTicketsByAddress;\n    mapping (uint => Ticket) private ticketByTokenId;\n\n\n    constructor(address _DAOAdress, string memory _tokenURI) ERC721(\"Mining DAO - Investment Tickets\", \"MDAO\") {\n        //https://gateway.pinata.cloud/ipfs/QmavcjZXHmzx9guhBaqwCFVy5BwcxRkEK3aDBEjr9PHriy\n        DAOAddress = _DAOAdress;\n        tokenUri = _tokenURI;\n    }\n\n    function getTicketsByAddress(address _address) public view returns (Ticket[] memory) {\n        return ticketsByAddress[_address];\n    }\n\n    function getTicketByTokenId(uint _tokenId) public view returns (Ticket memory) {\n        return ticketByTokenId[_tokenId];\n    }\n\n    function getTotalNFT() public view virtual returns (uint256) {\n        return _tokenIds.current();\n    }\n\n    function getTokenUri() public view virtual returns (string memory) {\n        return tokenUri;\n    }\n\n    function setTokenURI(string calldata _tokenUri) public onlyOwner {\n        tokenUri = _tokenUri;\n    }\n\n    function getMintPriceETH() public view virtual returns (uint){\n        return mintPriceETH;\n    }\n\n    function setEthPrice(uint _price) public onlyOwner {\n        mintPriceETH = _price;\n    }\n\n    function  mintTicketETH(address _customer) public payable returns (uint) {\n        require(msg.value >= mintPriceETH, \"You don't have enough money to mint\");\n\n        _tokenIds.increment();\n        uint newTokenId = _tokenIds.current();\n        Ticket memory ticket = Ticket(newTokenId, _customer, mintPriceETH, false, true, false);\n        ticketsByAddress[_customer].push(ticket);\n        ticketByTokenId[newTokenId] = ticket;\n\n        _mint(_customer, newTokenId);\n        _setTokenURI(newTokenId, tokenUri);\n\n        emit TicketMinted(ticket);\n        return ticket.tokenId;\n    }\n\n    function stakeTicket(uint _tokenId) public {\n        Ticket memory ticket = ticketByTokenId[_tokenId];\n        require(ticket.isMinted, \"Not a minter\");\n        require(!ticket.isUsed, \"This ticket has already been used\");\n        require(ticket.ticketOwner == msg.sender, \"Caller is not owner\");\n        require(!ticket.isStaked, \"Token already staked\");\n\n        ticket.isStaked = true;\n        ticketByTokenId[_tokenId] = ticket;\n\n        emit TicketStaked(ticket);\n    }\n\n    function unstakeTicket(uint _tokenId) public {\n        Ticket memory ticket = ticketByTokenId[_tokenId];\n        require(ticket.isMinted, \"Not a minter\");\n        require(!ticket.isUsed, \"This ticket has already been used\");\n        require(ticket.ticketOwner == msg.sender, \"Caller is not owner\");\n        require(ticket.isStaked, \"Token is not staked\");\n\n        ticket.isStaked = false;\n        ticketByTokenId[_tokenId] = ticket;\n\n        emit TicketUnstaked(ticket);\n    }\n\n    function useTicket(uint _tokenId) public {\n        Ticket memory ticket = ticketByTokenId[_tokenId];\n        require(ticket.isMinted, \"Not a minter\");\n        require(!ticket.isUsed, \"This ticket has already been used\");\n        require(ticket.ticketOwner == msg.sender, \"Caller is not owner\");\n        require(ticket.isStaked, \"Token is not staked\");\n\n        _burn(_tokenId);\n        ticket.isUsed = true;\n        ticketByTokenId[_tokenId] = ticket;\n        removeFromList(msg.sender, _tokenId);\n\n        emit TicketBurned(ticket);\n    }\n\n    function refundTicket(address payable _address, uint _tokenId) public {\n        Ticket memory ticket = ticketByTokenId[_tokenId];\n        require(ticket.isMinted, \"Not a minter\");\n        require(!ticket.isUsed, \"This ticket has already been used\");\n        require(ticket.ticketOwner == msg.sender, \"Caller is not owner\");\n\n        uint residualValue = (ticket.gweiValue * 95) / 100;\n\n        (bool sent, bytes memory data) = _address.call{value: residualValue}(\"95% of NFT refund\");\n        require(sent, \"Failed to send Ether\");\n        _burn(_tokenId);\n\n        ticket.isUsed = true;\n        ticketByTokenId[_tokenId] = ticket;\n        removeFromList(_address, _tokenId);\n\n        emit TicketBurned(ticket);\n        emit TicketRefund(ticket);\n    }\n\n    function removeFromList(address _address, uint _tokenId) private {\n        Ticket[] storage tickets = ticketsByAddress[_address];\n        uint extraIndex = 0;\n        for(uint i = 0; i < tickets.length-1; i++){\n            if(tickets[i].tokenId == _tokenId) {\n                extraIndex = 1;\n            }\n            tickets[i] = tickets[i+extraIndex];\n        }\n        tickets.pop();\n        ticketsByAddress[_address] = tickets;\n    }\n\n    function _beforeTokenTransfer(address from, address to, uint256 tokenId, uint256 batchSize) internal virtual override {\n        super._beforeTokenTransfer(from, to, tokenId, batchSize);\n        require(!ticketByTokenId[tokenId].isUsed, \"You cannot transfer a used token\");\n        require(!ticketByTokenId[tokenId].isStaked, \"You cannot transfer a staked token\");\n    }\n\n    function safeTransferFrom(address from, address to, uint256 tokenId) public virtual override {\n        super.safeTransferFrom(from, to, tokenId);\n        ticketByTokenId[tokenId].ticketOwner = to;\n    }\n}",
  "sourcePath": "/Users/dylandivito/DEV/Solidity/Mining-DAO/truffle/contracts/MiningDAOInvestTickets.sol",
  "compiler": {
    "name": "solc",
    "version": "0.8.18+commit.87f61d96.Emscripten.clang"
  },
  "schemaVersion": "3.4.11",
  "updatedAt": "2023-04-07T13:37:27.751Z",
  "networkType": "ethereum",
  "devdoc": {
    "events": {
      "Approval(address,address,uint256)": {
        "details": "Emitted when `owner` enables `approved` to manage the `tokenId` token."
      },
      "ApprovalForAll(address,address,bool)": {
        "details": "Emitted when `owner` enables or disables (`approved`) `operator` to manage all of its assets."
      },
      "Transfer(address,address,uint256)": {
        "details": "Emitted when `tokenId` token is transferred from `from` to `to`."
      }
    },
    "kind": "dev",
    "methods": {
      "approve(address,uint256)": {
        "details": "See {IERC721-approve}."
      },
      "balanceOf(address)": {
        "details": "See {IERC721-balanceOf}."
      },
      "getApproved(uint256)": {
        "details": "See {IERC721-getApproved}."
      },
      "isApprovedForAll(address,address)": {
        "details": "See {IERC721-isApprovedForAll}."
      },
      "name()": {
        "details": "See {IERC721Metadata-name}."
      },
      "owner()": {
        "details": "Returns the address of the current owner."
      },
      "ownerOf(uint256)": {
        "details": "See {IERC721-ownerOf}."
      },
      "renounceOwnership()": {
        "details": "Leaves the contract without owner. It will not be possible to call `onlyOwner` functions anymore. Can only be called by the current owner. NOTE: Renouncing ownership will leave the contract without an owner, thereby removing any functionality that is only available to the owner."
      },
      "safeTransferFrom(address,address,uint256)": {
        "details": "See {IERC721-safeTransferFrom}."
      },
      "safeTransferFrom(address,address,uint256,bytes)": {
        "details": "See {IERC721-safeTransferFrom}."
      },
      "setApprovalForAll(address,bool)": {
        "details": "See {IERC721-setApprovalForAll}."
      },
      "supportsInterface(bytes4)": {
        "details": "See {IERC165-supportsInterface}."
      },
      "symbol()": {
        "details": "See {IERC721Metadata-symbol}."
      },
      "tokenURI(uint256)": {
        "details": "See {IERC721Metadata-tokenURI}."
      },
      "transferFrom(address,address,uint256)": {
        "details": "See {IERC721-transferFrom}."
      },
      "transferOwnership(address)": {
        "details": "Transfers ownership of the contract to a new account (`newOwner`). Can only be called by the current owner."
      }
    },
    "version": 1
  },
  "userdoc": {
    "kind": "user",
    "methods": {},
    "version": 1
  }
}