{
  "contractName": "MiningDAOInvestTickets",
  "abi": [
    {
      "inputs": [
        {
          "internalType": "address",
          "name": "_DAOAdress",
          "type": "address"
        },
        {
          "internalType": "string",
          "name": "_tokenURI",
          "type": "string"
        }
      ],
      "stateMutability": "nonpayable",
      "type": "constructor"
    },
    {
      "anonymous": false,
      "inputs": [
        {
          "indexed": true,
          "internalType": "address",
          "name": "owner",
          "type": "address"
        },
        {
          "indexed": true,
          "internalType": "address",
          "name": "approved",
          "type": "address"
        },
        {
          "indexed": true,
          "internalType": "uint256",
          "name": "tokenId",
          "type": "uint256"
        }
      ],
      "name": "Approval",
      "type": "event"
    },
    {
      "anonymous": false,
      "inputs": [
        {
          "indexed": true,
          "internalType": "address",
          "name": "owner",
          "type": "address"
        },
        {
          "indexed": true,
          "internalType": "address",
          "name": "operator",
          "type": "address"
        },
        {
          "indexed": false,
          "internalType": "bool",
          "name": "approved",
          "type": "bool"
        }
      ],
      "name": "ApprovalForAll",
      "type": "event"
    },
    {
      "anonymous": false,
      "inputs": [
        {
          "indexed": true,
          "internalType": "address",
          "name": "previousOwner",
          "type": "address"
        },
        {
          "indexed": true,
          "internalType": "address",
          "name": "newOwner",
          "type": "address"
        }
      ],
      "name": "OwnershipTransferred",
      "type": "event"
    },
    {
      "anonymous": false,
      "inputs": [
        {
          "components": [
            {
              "internalType": "uint256",
              "name": "tokenId",
              "type": "uint256"
            },
            {
              "internalType": "address",
              "name": "ticketOwner",
              "type": "address"
            },
            {
              "internalType": "uint256",
              "name": "gweiValue",
              "type": "uint256"
            },
            {
              "internalType": "bool",
              "name": "isUsed",
              "type": "bool"
            },
            {
              "internalType": "bool",
              "name": "isMinted",
              "type": "bool"
            },
            {
              "internalType": "bool",
              "name": "isStaked",
              "type": "bool"
            }
          ],
          "indexed": false,
          "internalType": "struct MiningDAOInvestTickets.Ticket",
          "name": "ticket",
          "type": "tuple"
        }
      ],
      "name": "TicketBurned",
      "type": "event"
    },
    {
      "anonymous": false,
      "inputs": [
        {
          "components": [
            {
              "internalType": "uint256",
              "name": "tokenId",
              "type": "uint256"
            },
            {
              "internalType": "address",
              "name": "ticketOwner",
              "type": "address"
            },
            {
              "internalType": "uint256",
              "name": "gweiValue",
              "type": "uint256"
            },
            {
              "internalType": "bool",
              "name": "isUsed",
              "type": "bool"
            },
            {
              "internalType": "bool",
              "name": "isMinted",
              "type": "bool"
            },
            {
              "internalType": "bool",
              "name": "isStaked",
              "type": "bool"
            }
          ],
          "indexed": false,
          "internalType": "struct MiningDAOInvestTickets.Ticket",
          "name": "ticket",
          "type": "tuple"
        }
      ],
      "name": "TicketMinted",
      "type": "event"
    },
    {
      "anonymous": false,
      "inputs": [
        {
          "components": [
            {
              "internalType": "uint256",
              "name": "tokenId",
              "type": "uint256"
            },
            {
              "internalType": "address",
              "name": "ticketOwner",
              "type": "address"
            },
            {
              "internalType": "uint256",
              "name": "gweiValue",
              "type": "uint256"
            },
            {
              "internalType": "bool",
              "name": "isUsed",
              "type": "bool"
            },
            {
              "internalType": "bool",
              "name": "isMinted",
              "type": "bool"
            },
            {
              "internalType": "bool",
              "name": "isStaked",
              "type": "bool"
            }
          ],
          "indexed": false,
          "internalType": "struct MiningDAOInvestTickets.Ticket",
          "name": "ticket",
          "type": "tuple"
        }
      ],
      "name": "TicketRefund",
      "type": "event"
    },
    {
      "anonymous": false,
      "inputs": [
        {
          "components": [
            {
              "internalType": "uint256",
              "name": "tokenId",
              "type": "uint256"
            },
            {
              "internalType": "address",
              "name": "ticketOwner",
              "type": "address"
            },
            {
              "internalType": "uint256",
              "name": "gweiValue",
              "type": "uint256"
            },
            {
              "internalType": "bool",
              "name": "isUsed",
              "type": "bool"
            },
            {
              "internalType": "bool",
              "name": "isMinted",
              "type": "bool"
            },
            {
              "internalType": "bool",
              "name": "isStaked",
              "type": "bool"
            }
          ],
          "indexed": false,
          "internalType": "struct MiningDAOInvestTickets.Ticket",
          "name": "ticket",
          "type": "tuple"
        }
      ],
      "name": "TicketStaked",
      "type": "event"
    },
    {
      "anonymous": false,
      "inputs": [
        {
          "components": [
            {
              "internalType": "uint256",
              "name": "tokenId",
              "type": "uint256"
            },
            {
              "internalType": "address",
              "name": "ticketOwner",
              "type": "address"
            },
            {
              "internalType": "uint256",
              "name": "gweiValue",
              "type": "uint256"
            },
            {
              "internalType": "bool",
              "name": "isUsed",
              "type": "bool"
            },
            {
              "internalType": "bool",
              "name": "isMinted",
              "type": "bool"
            },
            {
              "internalType": "bool",
              "name": "isStaked",
              "type": "bool"
            }
          ],
          "indexed": false,
          "internalType": "struct MiningDAOInvestTickets.Ticket",
          "name": "ticket",
          "type": "tuple"
        }
      ],
      "name": "TicketUnstaked",
      "type": "event"
    },
    {
      "anonymous": false,
      "inputs": [
        {
          "indexed": true,
          "internalType": "address",
          "name": "from",
          "type": "address"
        },
        {
          "indexed": true,
          "internalType": "address",
          "name": "to",
          "type": "address"
        },
        {
          "indexed": true,
          "internalType": "uint256",
          "name": "tokenId",
          "type": "uint256"
        }
      ],
      "name": "Transfer",
      "type": "event"
    },
    {
      "inputs": [
        {
          "internalType": "address",
          "name": "to",
          "type": "address"
        },
        {
          "internalType": "uint256",
          "name": "tokenId",
          "type": "uint256"
        }
      ],
      "name": "approve",
      "outputs": [],
      "stateMutability": "nonpayable",
      "type": "function"
    },
    {
      "inputs": [
        {
          "internalType": "address",
          "name": "owner",
          "type": "address"
        }
      ],
      "name": "balanceOf",
      "outputs": [
        {
          "internalType": "uint256",
          "name": "",
          "type": "uint256"
        }
      ],
      "stateMutability": "view",
      "type": "function"
    },
    {
      "inputs": [
        {
          "internalType": "uint256",
          "name": "tokenId",
          "type": "uint256"
        }
      ],
      "name": "getApproved",
      "outputs": [
        {
          "internalType": "address",
          "name": "",
          "type": "address"
        }
      ],
      "stateMutability": "view",
      "type": "function"
    },
    {
      "inputs": [
        {
          "internalType": "address",
          "name": "owner",
          "type": "address"
        },
        {
          "internalType": "address",
          "name": "operator",
          "type": "address"
        }
      ],
      "name": "isApprovedForAll",
      "outputs": [
        {
          "internalType": "bool",
          "name": "",
          "type": "bool"
        }
      ],
      "stateMutability": "view",
      "type": "function"
    },
    {
      "inputs": [],
      "name": "name",
      "outputs": [
        {
          "internalType": "string",
          "name": "",
          "type": "string"
        }
      ],
      "stateMutability": "view",
      "type": "function"
    },
    {
      "inputs": [],
      "name": "owner",
      "outputs": [
        {
          "internalType": "address",
          "name": "",
          "type": "address"
        }
      ],
      "stateMutability": "view",
      "type": "function"
    },
    {
      "inputs": [
        {
          "internalType": "uint256",
          "name": "tokenId",
          "type": "uint256"
        }
      ],
      "name": "ownerOf",
      "outputs": [
        {
          "internalType": "address",
          "name": "",
          "type": "address"
        }
      ],
      "stateMutability": "view",
      "type": "function"
    },
    {
      "inputs": [],
      "name": "renounceOwnership",
      "outputs": [],
      "stateMutability": "nonpayable",
      "type": "function"
    },
    {
      "inputs": [
        {
          "internalType": "address",
          "name": "operator",
          "type": "address"
        },
        {
          "internalType": "bool",
          "name": "approved",
          "type": "bool"
        }
      ],
      "name": "setApprovalForAll",
      "outputs": [],
      "stateMutability": "nonpayable",
      "type": "function"
    },
    {
      "inputs": [
        {
          "internalType": "bytes4",
          "name": "interfaceId",
          "type": "bytes4"
        }
      ],
      "name": "supportsInterface",
      "outputs": [
        {
          "internalType": "bool",
          "name": "",
          "type": "bool"
        }
      ],
      "stateMutability": "view",
      "type": "function"
    },
    {
      "inputs": [],
      "name": "symbol",
      "outputs": [
        {
          "internalType": "string",
          "name": "",
          "type": "string"
        }
      ],
      "stateMutability": "view",
      "type": "function"
    },
    {
      "inputs": [
        {
          "internalType": "uint256",
          "name": "tokenId",
          "type": "uint256"
        }
      ],
      "name": "tokenURI",
      "outputs": [
        {
          "internalType": "string",
          "name": "",
          "type": "string"
        }
      ],
      "stateMutability": "view",
      "type": "function"
    },
    {
      "inputs": [
        {
          "internalType": "address",
          "name": "from",
          "type": "address"
        },
        {
          "internalType": "address",
          "name": "to",
          "type": "address"
        },
        {
          "internalType": "uint256",
          "name": "tokenId",
          "type": "uint256"
        }
      ],
      "name": "transferFrom",
      "outputs": [],
      "stateMutability": "nonpayable",
      "type": "function"
    },
    {
      "inputs": [
        {
          "internalType": "address",
          "name": "newOwner",
          "type": "address"
        }
      ],
      "name": "transferOwnership",
      "outputs": [],
      "stateMutability": "nonpayable",
      "type": "function"
    },
    {
      "inputs": [
        {
          "internalType": "address",
          "name": "_contract",
          "type": "address"
        }
      ],
      "name": "whitelist",
      "outputs": [],
      "stateMutability": "nonpayable",
      "type": "function"
    },
    {
      "inputs": [
        {
          "internalType": "address",
          "name": "_contract",
          "type": "address"
        }
      ],
      "name": "unWhitelist",
      "outputs": [],
      "stateMutability": "nonpayable",
      "type": "function"
    },
    {
      "inputs": [
        {
          "internalType": "address",
          "name": "_address",
          "type": "address"
        }
      ],
      "name": "getTicketsByAddress",
      "outputs": [
        {
          "components": [
            {
              "internalType": "uint256",
              "name": "tokenId",
              "type": "uint256"
            },
            {
              "internalType": "address",
              "name": "ticketOwner",
              "type": "address"
            },
            {
              "internalType": "uint256",
              "name": "gweiValue",
              "type": "uint256"
            },
            {
              "internalType": "bool",
              "name": "isUsed",
              "type": "bool"
            },
            {
              "internalType": "bool",
              "name": "isMinted",
              "type": "bool"
            },
            {
              "internalType": "bool",
              "name": "isStaked",
              "type": "bool"
            }
          ],
          "internalType": "struct MiningDAOInvestTickets.Ticket[]",
          "name": "",
          "type": "tuple[]"
        }
      ],
      "stateMutability": "view",
      "type": "function"
    },
    {
      "inputs": [
        {
          "internalType": "uint256",
          "name": "_tokenId",
          "type": "uint256"
        }
      ],
      "name": "getTicketByTokenId",
      "outputs": [
        {
          "components": [
            {
              "internalType": "uint256",
              "name": "tokenId",
              "type": "uint256"
            },
            {
              "internalType": "address",
              "name": "ticketOwner",
              "type": "address"
            },
            {
              "internalType": "uint256",
              "name": "gweiValue",
              "type": "uint256"
            },
            {
              "internalType": "bool",
              "name": "isUsed",
              "type": "bool"
            },
            {
              "internalType": "bool",
              "name": "isMinted",
              "type": "bool"
            },
            {
              "internalType": "bool",
              "name": "isStaked",
              "type": "bool"
            }
          ],
          "internalType": "struct MiningDAOInvestTickets.Ticket",
          "name": "",
          "type": "tuple"
        }
      ],
      "stateMutability": "view",
      "type": "function"
    },
    {
      "inputs": [],
      "name": "getTotalNFT",
      "outputs": [
        {
          "internalType": "uint256",
          "name": "",
          "type": "uint256"
        }
      ],
      "stateMutability": "view",
      "type": "function"
    },
    {
      "inputs": [],
      "name": "getTokenUri",
      "outputs": [
        {
          "internalType": "string",
          "name": "",
          "type": "string"
        }
      ],
      "stateMutability": "view",
      "type": "function"
    },
    {
      "inputs": [
        {
          "internalType": "string",
          "name": "_tokenUri",
          "type": "string"
        }
      ],
      "name": "setTokenURI",
      "outputs": [],
      "stateMutability": "nonpayable",
      "type": "function"
    },
    {
      "inputs": [],
      "name": "getMintPriceETH",
      "outputs": [
        {
          "internalType": "uint256",
          "name": "",
          "type": "uint256"
        }
      ],
      "stateMutability": "view",
      "type": "function"
    },
    {
      "inputs": [
        {
          "internalType": "uint256",
          "name": "_price",
          "type": "uint256"
        }
      ],
      "name": "setEthPrice",
      "outputs": [],
      "stateMutability": "nonpayable",
      "type": "function"
    },
    {
      "inputs": [
        {
          "internalType": "address",
          "name": "_customer",
          "type": "address"
        }
      ],
      "name": "mintTicketETH",
      "outputs": [
        {
          "internalType": "uint256",
          "name": "",
          "type": "uint256"
        }
      ],
      "stateMutability": "payable",
      "type": "function"
    },
    {
      "inputs": [
        {
          "internalType": "address",
          "name": "_origin",
          "type": "address"
        },
        {
          "internalType": "uint256",
          "name": "_tokenId",
          "type": "uint256"
        }
      ],
      "name": "stakeTicket",
      "outputs": [],
      "stateMutability": "nonpayable",
      "type": "function"
    },
    {
      "inputs": [
        {
          "internalType": "address",
          "name": "_origin",
          "type": "address"
        },
        {
          "internalType": "uint256",
          "name": "_tokenId",
          "type": "uint256"
        }
      ],
      "name": "unstakeTicket",
      "outputs": [],
      "stateMutability": "nonpayable",
      "type": "function"
    },
    {
      "inputs": [
        {
          "internalType": "address",
          "name": "_origin",
          "type": "address"
        },
        {
          "internalType": "uint256",
          "name": "_tokenId",
          "type": "uint256"
        }
      ],
      "name": "useTicket",
      "outputs": [],
      "stateMutability": "nonpayable",
      "type": "function"
    },
    {
      "inputs": [
        {
          "internalType": "address payable",
          "name": "_address",
          "type": "address"
        },
        {
          "internalType": "uint256",
          "name": "_tokenId",
          "type": "uint256"
        }
      ],
      "name": "refundTicket",
      "outputs": [],
      "stateMutability": "nonpayable",
      "type": "function"
    },
    {
      "inputs": [
        {
          "internalType": "address",
          "name": "from",
          "type": "address"
        },
        {
          "internalType": "address",
          "name": "to",
          "type": "address"
        },
        {
          "internalType": "uint256",
          "name": "tokenId",
          "type": "uint256"
        }
      ],
      "name": "safeTransferFrom",
      "outputs": [],
      "stateMutability": "nonpayable",
      "type": "function"
    },
    {
      "inputs": [
        {
          "internalType": "address",
          "name": "from",
          "type": "address"
        },
        {
          "internalType": "address",
          "name": "to",
          "type": "address"
        },
        {
          "internalType": "uint256",
          "name": "tokenId",
          "type": "uint256"
        },
        {
          "internalType": "bytes",
          "name": "data",
          "type": "bytes"
        }
      ],
      "name": "safeTransferFrom",
      "outputs": [],
      "stateMutability": "nonpayable",
      "type": "function"
    }
  ],
  "bytecode": "0x608060405266038d7ea4c680006009553480156200001c57600080fd5b50604051620062bf380380620062bf833981810160405281019062000042919062000415565b6040518060400160405280601f81526020017f4d696e696e672044414f202d20496e766573746d656e74205469636b657473008152506040518060400160405280600481526020017f4d44414f000000000000000000000000000000000000000000000000000000008152508160009081620000bf9190620006c6565b508060019081620000d19190620006c6565b505050620000f4620000e86200014f60201b60201c565b6200015760201b60201c565b81600a60006101000a81548173ffffffffffffffffffffffffffffffffffffffff021916908373ffffffffffffffffffffffffffffffffffffffff16021790555080600b9081620001469190620006c6565b505050620007ad565b600033905090565b6000600760009054906101000a900473ffffffffffffffffffffffffffffffffffffffff16905081600760006101000a81548173ffffffffffffffffffffffffffffffffffffffff021916908373ffffffffffffffffffffffffffffffffffffffff1602179055508173ffffffffffffffffffffffffffffffffffffffff168173ffffffffffffffffffffffffffffffffffffffff167f8be0079c531659141344cd1fd0a4f28419497f9722a3daafe3b4186f6b6457e060405160405180910390a35050565b6000604051905090565b600080fd5b600080fd5b600073ffffffffffffffffffffffffffffffffffffffff82169050919050565b60006200025e8262000231565b9050919050565b620002708162000251565b81146200027c57600080fd5b50565b600081519050620002908162000265565b92915050565b600080fd5b600080fd5b6000601f19601f8301169050919050565b7f4e487b7100000000000000000000000000000000000000000000000000000000600052604160045260246000fd5b620002eb82620002a0565b810181811067ffffffffffffffff821117156200030d576200030c620002b1565b5b80604052505050565b6000620003226200021d565b9050620003308282620002e0565b919050565b600067ffffffffffffffff821115620003535762000352620002b1565b5b6200035e82620002a0565b9050602081019050919050565b60005b838110156200038b5780820151818401526020810190506200036e565b60008484015250505050565b6000620003ae620003a88462000335565b62000316565b905082815260208101848484011115620003cd57620003cc6200029b565b5b620003da8482856200036b565b509392505050565b600082601f830112620003fa57620003f962000296565b5b81516200040c84826020860162000397565b91505092915050565b600080604083850312156200042f576200042e62000227565b5b60006200043f858286016200027f565b925050602083015167ffffffffffffffff8111156200046357620004626200022c565b5b6200047185828601620003e2565b9150509250929050565b600081519050919050565b7f4e487b7100000000000000000000000000000000000000000000000000000000600052602260045260246000fd5b60006002820490506001821680620004ce57607f821691505b602082108103620004e457620004e362000486565b5b50919050565b60008190508160005260206000209050919050565b60006020601f8301049050919050565b600082821b905092915050565b6000600883026200054e7fffffffffffffffffffffffffffffffffffffffffffffffffffffffffffffffff826200050f565b6200055a86836200050f565b95508019841693508086168417925050509392505050565b6000819050919050565b6000819050919050565b6000620005a7620005a16200059b8462000572565b6200057c565b62000572565b9050919050565b6000819050919050565b620005c38362000586565b620005db620005d282620005ae565b8484546200051c565b825550505050565b600090565b620005f2620005e3565b620005ff818484620005b8565b505050565b5b8181101562000627576200061b600082620005e8565b60018101905062000605565b5050565b601f82111562000676576200064081620004ea565b6200064b84620004ff565b810160208510156200065b578190505b620006736200066a85620004ff565b83018262000604565b50505b505050565b600082821c905092915050565b60006200069b600019846008026200067b565b1980831691505092915050565b6000620006b6838362000688565b9150826002028217905092915050565b620006d1826200047b565b67ffffffffffffffff811115620006ed57620006ec620002b1565b5b620006f98254620004b5565b620007068282856200062b565b600060209050601f8311600181146200073e576000841562000729578287015190505b620007358582620006a8565b865550620007a5565b601f1984166200074e86620004ea565b60005b82811015620007785784890151825560018201915060208501945060208101905062000751565b8683101562000798578489015162000794601f89168262000688565b8355505b6001600288020188555050505b505050505050565b615b0280620007bd6000396000f3fe6080604052600436106101cc5760003560e01c806395d89b41116100f7578063c395c8af11610095578063e985e9c511610064578063e985e9c514610674578063f21af007146106b1578063f2fde38b146106da578063f5e47f9614610703576101cc565b8063c395c8af146105a6578063c87b56dd146105d1578063e0df5b6f1461060e578063e8af325314610637576101cc565b8063ae5d1371116100d1578063ae5d1371146104f7578063af8052c014610527578063b88d4fde14610552578063bcf16f2d1461057b576101cc565b806395d89b411461047a5780639b19251a146104a5578063a22cb465146104ce576101cc565b806323b872dd1161016f578063705099b91161013e578063705099b9146103d257806370a08231146103fb578063715018a6146104385780638da5cb5b1461044f576101cc565b806323b872dd1461031a57806342842e0e146103435780634c5754231461036c5780636352211e14610395576101cc565b8063081812fc116101ab578063081812fc14610262578063095ea7b31461029f5780631457e16f146102c857806320983649146102f1576101cc565b80629f9262146101d157806301ffc9a7146101fa57806306fdde0314610237575b600080fd5b3480156101dd57600080fd5b506101f860048036038101906101f39190613e61565b610740565b005b34801561020657600080fd5b50610221600480360381019061021c9190613ee6565b610752565b60405161022e9190613f2e565b60405180910390f35b34801561024357600080fd5b5061024c610834565b6040516102599190613fd9565b60405180910390f35b34801561026e57600080fd5b5061028960048036038101906102849190613e61565b6108c6565b604051610296919061403c565b60405180910390f35b3480156102ab57600080fd5b506102c660048036038101906102c19190614083565b61090c565b005b3480156102d457600080fd5b506102ef60048036038101906102ea9190614083565b610a23565b005b3480156102fd57600080fd5b5061031860048036038101906103139190614083565b610deb565b005b34801561032657600080fd5b50610341600480360381019061033c91906140c3565b6111b2565b005b34801561034f57600080fd5b5061036a600480360381019061036591906140c3565b611212565b005b34801561037857600080fd5b50610393600480360381019061038e9190614083565b611277565b005b3480156103a157600080fd5b506103bc60048036038101906103b79190613e61565b611651565b6040516103c9919061403c565b60405180910390f35b3480156103de57600080fd5b506103f960048036038101906103f49190614154565b6116d7565b005b34801561040757600080fd5b50610422600480360381019061041d9190614194565b611aea565b60405161042f91906141d0565b60405180910390f35b34801561044457600080fd5b5061044d611ba1565b005b34801561045b57600080fd5b50610464611bb5565b604051610471919061403c565b60405180910390f35b34801561048657600080fd5b5061048f611bdf565b60405161049c9190613fd9565b60405180910390f35b3480156104b157600080fd5b506104cc60048036038101906104c79190614194565b611c71565b005b3480156104da57600080fd5b506104f560048036038101906104f09190614217565b611cd4565b005b610511600480360381019061050c9190614194565b611cea565b60405161051e91906141d0565b60405180910390f35b34801561053357600080fd5b5061053c612076565b60405161054991906141d0565b60405180910390f35b34801561055e57600080fd5b506105796004803603810190610574919061438c565b612080565b005b34801561058757600080fd5b506105906120e2565b60405161059d91906141d0565b60405180910390f35b3480156105b257600080fd5b506105bb6120f3565b6040516105c89190613fd9565b60405180910390f35b3480156105dd57600080fd5b506105f860048036038101906105f39190613e61565b612185565b6040516106059190613fd9565b60405180910390f35b34801561061a57600080fd5b506106356004803603810190610630919061446f565b612297565b005b34801561064357600080fd5b5061065e60048036038101906106599190613e61565b6122b5565b60405161066b9190614564565b60405180910390f35b34801561068057600080fd5b5061069b6004803603810190610696919061457f565b61239d565b6040516106a89190613f2e565b60405180910390f35b3480156106bd57600080fd5b506106d860048036038101906106d39190614194565b612431565b005b3480156106e657600080fd5b5061070160048036038101906106fc9190614194565b612494565b005b34801561070f57600080fd5b5061072a60048036038101906107259190614194565b612517565b60405161073791906146e9565b60405180910390f35b610748612670565b8060098190555050565b60007f80ac58cd000000000000000000000000000000000000000000000000000000007bffffffffffffffffffffffffffffffffffffffffffffffffffffffff1916827bffffffffffffffffffffffffffffffffffffffffffffffffffffffff1916148061081d57507f5b5e139f000000000000000000000000000000000000000000000000000000007bffffffffffffffffffffffffffffffffffffffffffffffffffffffff1916827bffffffffffffffffffffffffffffffffffffffffffffffffffffffff1916145b8061082d575061082c826126ee565b5b9050919050565b6060600080546108439061473a565b80601f016020809104026020016040519081016040528092919081815260200182805461086f9061473a565b80156108bc5780601f10610891576101008083540402835291602001916108bc565b820191906000526020600020905b81548152906001019060200180831161089f57829003601f168201915b5050505050905090565b60006108d182612758565b6004600083815260200190815260200160002060009054906101000a900473ffffffffffffffffffffffffffffffffffffffff169050919050565b600061091782611651565b90508073ffffffffffffffffffffffffffffffffffffffff168373ffffffffffffffffffffffffffffffffffffffff1603610987576040517f08c379a000000000000000000000000000000000000000000000000000000000815260040161097e906147dd565b60405180910390fd5b8073ffffffffffffffffffffffffffffffffffffffff166109a66127a3565b73ffffffffffffffffffffffffffffffffffffffff1614806109d557506109d4816109cf6127a3565b61239d565b5b610a14576040517f08c379a0000000000000000000000000000000000000000000000000000000008152600401610a0b9061486f565b60405180910390fd5b610a1e83836127ab565b505050565b6000600e60008381526020019081526020016000206040518060c0016040529081600082015481526020016001820160009054906101000a900473ffffffffffffffffffffffffffffffffffffffff1673ffffffffffffffffffffffffffffffffffffffff1673ffffffffffffffffffffffffffffffffffffffff168152602001600282015481526020016003820160009054906101000a900460ff161515151581526020016003820160019054906101000a900460ff161515151581526020016003820160029054906101000a900460ff16151515158152505090508060800151610b44576040517f08c379a0000000000000000000000000000000000000000000000000000000008152600401610b3b906148db565b60405180910390fd5b806060015115610b89576040517f08c379a0000000000000000000000000000000000000000000000000000000008152600401610b809061496d565b60405180910390fd5b8273ffffffffffffffffffffffffffffffffffffffff16816020015173ffffffffffffffffffffffffffffffffffffffff1614610bfb576040517f08c379a0000000000000000000000000000000000000000000000000000000008152600401610bf2906149d9565b60405180910390fd5b600f60003373ffffffffffffffffffffffffffffffffffffffff1673ffffffffffffffffffffffffffffffffffffffff16815260200190815260200160002060009054906101000a900460ff16610c87576040517f08c379a0000000000000000000000000000000000000000000000000000000008152600401610c7e90614a6b565b60405180910390fd5b8060a0015115610ccc576040517f08c379a0000000000000000000000000000000000000000000000000000000008152600401610cc390614ad7565b60405180910390fd5b60018160a001901515908115158152505080600e60008481526020019081526020016000206000820151816000015560208201518160010160006101000a81548173ffffffffffffffffffffffffffffffffffffffff021916908373ffffffffffffffffffffffffffffffffffffffff1602179055506040820151816002015560608201518160030160006101000a81548160ff02191690831515021790555060808201518160030160016101000a81548160ff02191690831515021790555060a08201518160030160026101000a81548160ff0219169083151502179055509050507f4f58770a6d7e5ecaf22e5da9aa506f095243cfc0b1f7dcea50ec9b09a2a832f181604051610dde9190614564565b60405180910390a1505050565b6000600e60008381526020019081526020016000206040518060c0016040529081600082015481526020016001820160009054906101000a900473ffffffffffffffffffffffffffffffffffffffff1673ffffffffffffffffffffffffffffffffffffffff1673ffffffffffffffffffffffffffffffffffffffff168152602001600282015481526020016003820160009054906101000a900460ff161515151581526020016003820160019054906101000a900460ff161515151581526020016003820160029054906101000a900460ff16151515158152505090508060800151610f0c576040517f08c379a0000000000000000000000000000000000000000000000000000000008152600401610f03906148db565b60405180910390fd5b806060015115610f51576040517f08c379a0000000000000000000000000000000000000000000000000000000008152600401610f489061496d565b60405180910390fd5b8273ffffffffffffffffffffffffffffffffffffffff16816020015173ffffffffffffffffffffffffffffffffffffffff1614610fc3576040517f08c379a0000000000000000000000000000000000000000000000000000000008152600401610fba906149d9565b60405180910390fd5b600f60003373ffffffffffffffffffffffffffffffffffffffff1673ffffffffffffffffffffffffffffffffffffffff16815260200190815260200160002060009054906101000a900460ff1661104f576040517f08c379a000000000000000000000000000000000000000000000000000000000815260040161104690614a6b565b60405180910390fd5b8060a00151611093576040517f08c379a000000000000000000000000000000000000000000000000000000000815260040161108a90614b43565b60405180910390fd5b60008160a001901515908115158152505080600e60008481526020019081526020016000206000820151816000015560208201518160010160006101000a81548173ffffffffffffffffffffffffffffffffffffffff021916908373ffffffffffffffffffffffffffffffffffffffff1602179055506040820151816002015560608201518160030160006101000a81548160ff02191690831515021790555060808201518160030160016101000a81548160ff02191690831515021790555060a08201518160030160026101000a81548160ff0219169083151502179055509050507f248f640e687960fbf08368bb2d6ab0b2a3268dfd569b69e9a7101c206da1cd8c816040516111a59190614564565b60405180910390a1505050565b6111c36111bd6127a3565b82612864565b611202576040517f08c379a00000000000000000000000000000000000000000000000000000000081526004016111f990614bd5565b60405180910390fd5b61120d8383836128f9565b505050565b61121d838383612bf2565b81600e600083815260200190815260200160002060010160006101000a81548173ffffffffffffffffffffffffffffffffffffffff021916908373ffffffffffffffffffffffffffffffffffffffff160217905550505050565b6000600e60008381526020019081526020016000206040518060c0016040529081600082015481526020016001820160009054906101000a900473ffffffffffffffffffffffffffffffffffffffff1673ffffffffffffffffffffffffffffffffffffffff1673ffffffffffffffffffffffffffffffffffffffff168152602001600282015481526020016003820160009054906101000a900460ff161515151581526020016003820160019054906101000a900460ff161515151581526020016003820160029054906101000a900460ff16151515158152505090508060800151611398576040517f08c379a000000000000000000000000000000000000000000000000000000000815260040161138f906148db565b60405180910390fd5b8060600151156113dd576040517f08c379a00000000000000000000000000000000000000000000000000000000081526004016113d49061496d565b60405180910390fd5b8273ffffffffffffffffffffffffffffffffffffffff16816020015173ffffffffffffffffffffffffffffffffffffffff161461144f576040517f08c379a0000000000000000000000000000000000000000000000000000000008152600401611446906149d9565b60405180910390fd5b600f60003373ffffffffffffffffffffffffffffffffffffffff1673ffffffffffffffffffffffffffffffffffffffff16815260200190815260200160002060009054906101000a900460ff166114db576040517f08c379a00000000000000000000000000000000000000000000000000000000081526004016114d290614a6b565b60405180910390fd5b8060a0015161151f576040517f08c379a000000000000000000000000000000000000000000000000000000000815260040161151690614b43565b60405180910390fd5b61152882612c12565b600181606001901515908115158152505080600e60008481526020019081526020016000206000820151816000015560208201518160010160006101000a81548173ffffffffffffffffffffffffffffffffffffffff021916908373ffffffffffffffffffffffffffffffffffffffff1602179055506040820151816002015560608201518160030160006101000a81548160ff02191690831515021790555060808201518160030160016101000a81548160ff02191690831515021790555060a08201518160030160026101000a81548160ff0219169083151502179055509050506116153383612c65565b7ff21aa87017d3619b72fb0cc50c3ad1b0382aab7ec6a93fa6518574d06d47413d816040516116449190614564565b60405180910390a1505050565b60008061165d83612f4c565b9050600073ffffffffffffffffffffffffffffffffffffffff168173ffffffffffffffffffffffffffffffffffffffff16036116ce576040517f08c379a00000000000000000000000000000000000000000000000000000000081526004016116c590614c41565b60405180910390fd5b80915050919050565b6000600e60008381526020019081526020016000206040518060c0016040529081600082015481526020016001820160009054906101000a900473ffffffffffffffffffffffffffffffffffffffff1673ffffffffffffffffffffffffffffffffffffffff1673ffffffffffffffffffffffffffffffffffffffff168152602001600282015481526020016003820160009054906101000a900460ff161515151581526020016003820160019054906101000a900460ff161515151581526020016003820160029054906101000a900460ff161515151581525050905080608001516117f8576040517f08c379a00000000000000000000000000000000000000000000000000000000081526004016117ef906148db565b60405180910390fd5b80606001511561183d576040517f08c379a00000000000000000000000000000000000000000000000000000000081526004016118349061496d565b60405180910390fd5b3373ffffffffffffffffffffffffffffffffffffffff16816020015173ffffffffffffffffffffffffffffffffffffffff16146118af576040517f08c379a00000000000000000000000000000000000000000000000000000000081526004016118a690614cad565b60405180910390fd5b60006064605f83604001516118c49190614cfc565b6118ce9190614d6d565b90506000808573ffffffffffffffffffffffffffffffffffffffff16836040516118f790614df5565b60006040518083038185875af1925050503d8060008114611934576040519150601f19603f3d011682016040523d82523d6000602084013e611939565b606091505b50915091508161197e576040517f08c379a000000000000000000000000000000000000000000000000000000000815260040161197590614e56565b60405180910390fd5b61198785612c12565b600184606001901515908115158152505083600e60008781526020019081526020016000206000820151816000015560208201518160010160006101000a81548173ffffffffffffffffffffffffffffffffffffffff021916908373ffffffffffffffffffffffffffffffffffffffff1602179055506040820151816002015560608201518160030160006101000a81548160ff02191690831515021790555060808201518160030160016101000a81548160ff02191690831515021790555060a08201518160030160026101000a81548160ff021916908315150217905550905050611a748686612c65565b7ff21aa87017d3619b72fb0cc50c3ad1b0382aab7ec6a93fa6518574d06d47413d84604051611aa39190614564565b60405180910390a17f9fc5e71aeff7a6d972aa15a0fe198c3e4bf252cb9a1305552d0b7f98d70eebf784604051611ada9190614564565b60405180910390a1505050505050565b60008073ffffffffffffffffffffffffffffffffffffffff168273ffffffffffffffffffffffffffffffffffffffff1603611b5a576040517f08c379a0000000000000000000000000000000000000000000000000000000008152600401611b5190614ee8565b60405180910390fd5b600360008373ffffffffffffffffffffffffffffffffffffffff1673ffffffffffffffffffffffffffffffffffffffff168152602001908152602001600020549050919050565b611ba9612670565b611bb36000612f89565b565b6000600760009054906101000a900473ffffffffffffffffffffffffffffffffffffffff16905090565b606060018054611bee9061473a565b80601f0160208091040260200160405190810160405280929190818152602001828054611c1a9061473a565b8015611c675780601f10611c3c57610100808354040283529160200191611c67565b820191906000526020600020905b815481529060010190602001808311611c4a57829003601f168201915b5050505050905090565b611c79612670565b6001600f60008373ffffffffffffffffffffffffffffffffffffffff1673ffffffffffffffffffffffffffffffffffffffff16815260200190815260200160002060006101000a81548160ff02191690831515021790555050565b611ce6611cdf6127a3565b838361304f565b5050565b6000600954341015611d31576040517f08c379a0000000000000000000000000000000000000000000000000000000008152600401611d2890614f7a565b60405180910390fd5b611d3b60086131bb565b6000611d4760086131d1565b905060006040518060c001604052808381526020018573ffffffffffffffffffffffffffffffffffffffff1681526020016009548152602001600015158152602001600115158152602001600015158152509050600c60008573ffffffffffffffffffffffffffffffffffffffff1673ffffffffffffffffffffffffffffffffffffffff1681526020019081526020016000208190806001815401808255809150506001900390600052602060002090600402016000909190919091506000820151816000015560208201518160010160006101000a81548173ffffffffffffffffffffffffffffffffffffffff021916908373ffffffffffffffffffffffffffffffffffffffff1602179055506040820151816002015560608201518160030160006101000a81548160ff02191690831515021790555060808201518160030160016101000a81548160ff02191690831515021790555060a08201518160030160026101000a81548160ff021916908315150217905550505080600e60008481526020019081526020016000206000820151816000015560208201518160010160006101000a81548173ffffffffffffffffffffffffffffffffffffffff021916908373ffffffffffffffffffffffffffffffffffffffff1602179055506040820151816002015560608201518160030160006101000a81548160ff02191690831515021790555060808201518160030160016101000a81548160ff02191690831515021790555060a08201518160030160026101000a81548160ff021916908315150217905550905050611f9d84836131df565b61203182600b8054611fae9061473a565b80601f0160208091040260200160405190810160405280929190818152602001828054611fda9061473a565b80156120275780601f10611ffc57610100808354040283529160200191612027565b820191906000526020600020905b81548152906001019060200180831161200a57829003601f168201915b50505050506133fc565b7f0a58329b7f1e88b2a3a998689583a568a722e27f897f37aa3c1f59f573338ad4816040516120609190614564565b60405180910390a1806000015192505050919050565b6000600954905090565b61209161208b6127a3565b83612864565b6120d0576040517f08c379a00000000000000000000000000000000000000000000000000000000081526004016120c790614bd5565b60405180910390fd5b6120dc84848484613469565b50505050565b60006120ee60086131d1565b905090565b6060600b80546121029061473a565b80601f016020809104026020016040519081016040528092919081815260200182805461212e9061473a565b801561217b5780601f106121505761010080835404028352916020019161217b565b820191906000526020600020905b81548152906001019060200180831161215e57829003601f168201915b5050505050905090565b606061219082612758565b60006006600084815260200190815260200160002080546121b09061473a565b80601f01602080910402602001604051908101604052809291908181526020018280546121dc9061473a565b80156122295780601f106121fe57610100808354040283529160200191612229565b820191906000526020600020905b81548152906001019060200180831161220c57829003601f168201915b50505050509050600061223a6134c5565b9050600081510361224f578192505050612292565b60008251111561228457808260405160200161226c929190614fd6565b60405160208183030381529060405292505050612292565b61228d846134dc565b925050505b919050565b61229f612670565b8181600b91826122b09291906151b1565b505050565b6122bd613b84565b600e60008381526020019081526020016000206040518060c0016040529081600082015481526020016001820160009054906101000a900473ffffffffffffffffffffffffffffffffffffffff1673ffffffffffffffffffffffffffffffffffffffff1673ffffffffffffffffffffffffffffffffffffffff168152602001600282015481526020016003820160009054906101000a900460ff161515151581526020016003820160019054906101000a900460ff161515151581526020016003820160029054906101000a900460ff1615151515815250509050919050565b6000600560008473ffffffffffffffffffffffffffffffffffffffff1673ffffffffffffffffffffffffffffffffffffffff16815260200190815260200160002060008373ffffffffffffffffffffffffffffffffffffffff1673ffffffffffffffffffffffffffffffffffffffff16815260200190815260200160002060009054906101000a900460ff16905092915050565b612439612670565b6000600f60008373ffffffffffffffffffffffffffffffffffffffff1673ffffffffffffffffffffffffffffffffffffffff16815260200190815260200160002060006101000a81548160ff02191690831515021790555050565b61249c612670565b600073ffffffffffffffffffffffffffffffffffffffff168173ffffffffffffffffffffffffffffffffffffffff160361250b576040517f08c379a0000000000000000000000000000000000000000000000000000000008152600401612502906152f3565b60405180910390fd5b61251481612f89565b50565b6060600c60008373ffffffffffffffffffffffffffffffffffffffff1673ffffffffffffffffffffffffffffffffffffffff168152602001908152602001600020805480602002602001604051908101604052809291908181526020016000905b8282101561266557838290600052602060002090600402016040518060c0016040529081600082015481526020016001820160009054906101000a900473ffffffffffffffffffffffffffffffffffffffff1673ffffffffffffffffffffffffffffffffffffffff1673ffffffffffffffffffffffffffffffffffffffff168152602001600282015481526020016003820160009054906101000a900460ff161515151581526020016003820160019054906101000a900460ff161515151581526020016003820160029054906101000a900460ff16151515158152505081526020019060010190612578565b505050509050919050565b6126786127a3565b73ffffffffffffffffffffffffffffffffffffffff16612696611bb5565b73ffffffffffffffffffffffffffffffffffffffff16146126ec576040517f08c379a00000000000000000000000000000000000000000000000000000000081526004016126e39061535f565b60405180910390fd5b565b60007f01ffc9a7000000000000000000000000000000000000000000000000000000007bffffffffffffffffffffffffffffffffffffffffffffffffffffffff1916827bffffffffffffffffffffffffffffffffffffffffffffffffffffffff1916149050919050565b61276181613544565b6127a0576040517f08c379a000000000000000000000000000000000000000000000000000000000815260040161279790614c41565b60405180910390fd5b50565b600033905090565b816004600083815260200190815260200160002060006101000a81548173ffffffffffffffffffffffffffffffffffffffff021916908373ffffffffffffffffffffffffffffffffffffffff160217905550808273ffffffffffffffffffffffffffffffffffffffff1661281e83611651565b73ffffffffffffffffffffffffffffffffffffffff167f8c5be1e5ebec7d5bd14f71427d1e84f3dd0314c0f7b2291e5b200ac8c7c3b92560405160405180910390a45050565b60008061287083611651565b90508073ffffffffffffffffffffffffffffffffffffffff168473ffffffffffffffffffffffffffffffffffffffff1614806128b257506128b1818561239d565b5b806128f057508373ffffffffffffffffffffffffffffffffffffffff166128d8846108c6565b73ffffffffffffffffffffffffffffffffffffffff16145b91505092915050565b8273ffffffffffffffffffffffffffffffffffffffff1661291982611651565b73ffffffffffffffffffffffffffffffffffffffff161461296f576040517f08c379a0000000000000000000000000000000000000000000000000000000008152600401612966906153f1565b60405180910390fd5b600073ffffffffffffffffffffffffffffffffffffffff168273ffffffffffffffffffffffffffffffffffffffff16036129de576040517f08c379a00000000000000000000000000000000000000000000000000000000081526004016129d590615483565b60405180910390fd5b6129eb8383836001613585565b8273ffffffffffffffffffffffffffffffffffffffff16612a0b82611651565b73ffffffffffffffffffffffffffffffffffffffff1614612a61576040517f08c379a0000000000000000000000000000000000000000000000000000000008152600401612a58906153f1565b60405180910390fd5b6004600082815260200190815260200160002060006101000a81549073ffffffffffffffffffffffffffffffffffffffff02191690556001600360008573ffffffffffffffffffffffffffffffffffffffff1673ffffffffffffffffffffffffffffffffffffffff168152602001908152602001600020600082825403925050819055506001600360008473ffffffffffffffffffffffffffffffffffffffff1673ffffffffffffffffffffffffffffffffffffffff16815260200190815260200160002060008282540192505081905550816002600083815260200190815260200160002060006101000a81548173ffffffffffffffffffffffffffffffffffffffff021916908373ffffffffffffffffffffffffffffffffffffffff160217905550808273ffffffffffffffffffffffffffffffffffffffff168473ffffffffffffffffffffffffffffffffffffffff167fddf252ad1be2c89b69c2b068fc378daa952ba7f163c4a11628f55a4df523b3ef60405160405180910390a4612bed838383600161365f565b505050565b612c0d83838360405180602001604052806000815250612080565b505050565b612c1b81613665565b6000600660008381526020019081526020016000208054612c3b9061473a565b905014612c6257600660008281526020019081526020016000206000612c619190613bd6565b5b50565b6000600c60008473ffffffffffffffffffffffffffffffffffffffff1673ffffffffffffffffffffffffffffffffffffffff16815260200190815260200160002090506000805b60018380549050612cbd91906154a3565b811015612e595783838281548110612cd857612cd76154d7565b5b90600052602060002090600402016000015403612cf457600191505b828282612d019190615506565b81548110612d1257612d116154d7565b5b9060005260206000209060040201838281548110612d3357612d326154d7565b5b9060005260206000209060040201600082015481600001556001820160009054906101000a900473ffffffffffffffffffffffffffffffffffffffff168160010160006101000a81548173ffffffffffffffffffffffffffffffffffffffff021916908373ffffffffffffffffffffffffffffffffffffffff160217905550600282015481600201556003820160009054906101000a900460ff168160030160006101000a81548160ff0219169083151502179055506003820160019054906101000a900460ff168160030160016101000a81548160ff0219169083151502179055506003820160029054906101000a900460ff168160030160026101000a81548160ff0219169083151502179055509050508080612e519061553a565b915050612cac565b5081805480612e6b57612e6a615582565b5b60019003818190600052602060002090600402016000808201600090556001820160006101000a81549073ffffffffffffffffffffffffffffffffffffffff021916905560028201600090556003820160006101000a81549060ff02191690556003820160016101000a81549060ff02191690556003820160026101000a81549060ff02191690555050905581600c60008673ffffffffffffffffffffffffffffffffffffffff1673ffffffffffffffffffffffffffffffffffffffff168152602001908152602001600020908054612f45929190613c16565b5050505050565b60006002600083815260200190815260200160002060009054906101000a900473ffffffffffffffffffffffffffffffffffffffff169050919050565b6000600760009054906101000a900473ffffffffffffffffffffffffffffffffffffffff16905081600760006101000a81548173ffffffffffffffffffffffffffffffffffffffff021916908373ffffffffffffffffffffffffffffffffffffffff1602179055508173ffffffffffffffffffffffffffffffffffffffff168173ffffffffffffffffffffffffffffffffffffffff167f8be0079c531659141344cd1fd0a4f28419497f9722a3daafe3b4186f6b6457e060405160405180910390a35050565b8173ffffffffffffffffffffffffffffffffffffffff168373ffffffffffffffffffffffffffffffffffffffff16036130bd576040517f08c379a00000000000000000000000000000000000000000000000000000000081526004016130b4906155fd565b60405180910390fd5b80600560008573ffffffffffffffffffffffffffffffffffffffff1673ffffffffffffffffffffffffffffffffffffffff16815260200190815260200160002060008473ffffffffffffffffffffffffffffffffffffffff1673ffffffffffffffffffffffffffffffffffffffff16815260200190815260200160002060006101000a81548160ff0219169083151502179055508173ffffffffffffffffffffffffffffffffffffffff168373ffffffffffffffffffffffffffffffffffffffff167f17307eab39ab6107e8899845ad3d59bd9653f200f220920489ca2b5937696c31836040516131ae9190613f2e565b60405180910390a3505050565b6001816000016000828254019250508190555050565b600081600001549050919050565b600073ffffffffffffffffffffffffffffffffffffffff168273ffffffffffffffffffffffffffffffffffffffff160361324e576040517f08c379a000000000000000000000000000000000000000000000000000000000815260040161324590615669565b60405180910390fd5b61325781613544565b15613297576040517f08c379a000000000000000000000000000000000000000000000000000000000815260040161328e906156d5565b60405180910390fd5b6132a5600083836001613585565b6132ae81613544565b156132ee576040517f08c379a00000000000000000000000000000000000000000000000000000000081526004016132e5906156d5565b60405180910390fd5b6001600360008473ffffffffffffffffffffffffffffffffffffffff1673ffffffffffffffffffffffffffffffffffffffff16815260200190815260200160002060008282540192505081905550816002600083815260200190815260200160002060006101000a81548173ffffffffffffffffffffffffffffffffffffffff021916908373ffffffffffffffffffffffffffffffffffffffff160217905550808273ffffffffffffffffffffffffffffffffffffffff16600073ffffffffffffffffffffffffffffffffffffffff167fddf252ad1be2c89b69c2b068fc378daa952ba7f163c4a11628f55a4df523b3ef60405160405180910390a46133f860008383600161365f565b5050565b61340582613544565b613444576040517f08c379a000000000000000000000000000000000000000000000000000000000815260040161343b90615767565b60405180910390fd5b806006600084815260200190815260200160002090816134649190615787565b505050565b6134748484846128f9565b613480848484846137b3565b6134bf576040517f08c379a00000000000000000000000000000000000000000000000000000000081526004016134b6906158cb565b60405180910390fd5b50505050565b606060405180602001604052806000815250905090565b60606134e782612758565b60006134f16134c5565b90506000815111613511576040518060200160405280600081525061353c565b8061351b8461393a565b60405160200161352c929190614fd6565b6040516020818303038152906040525b915050919050565b60008073ffffffffffffffffffffffffffffffffffffffff1661356683612f4c565b73ffffffffffffffffffffffffffffffffffffffff1614159050919050565b61359184848484613a08565b600e600083815260200190815260200160002060030160009054906101000a900460ff16156135f5576040517f08c379a00000000000000000000000000000000000000000000000000000000081526004016135ec90615937565b60405180910390fd5b600e600083815260200190815260200160002060030160029054906101000a900460ff1615613659576040517f08c379a0000000000000000000000000000000000000000000000000000000008152600401613650906159c9565b60405180910390fd5b50505050565b50505050565b600061367082611651565b9050613680816000846001613585565b61368982611651565b90506004600083815260200190815260200160002060006101000a81549073ffffffffffffffffffffffffffffffffffffffff02191690556001600360008373ffffffffffffffffffffffffffffffffffffffff1673ffffffffffffffffffffffffffffffffffffffff168152602001908152602001600020600082825403925050819055506002600083815260200190815260200160002060006101000a81549073ffffffffffffffffffffffffffffffffffffffff021916905581600073ffffffffffffffffffffffffffffffffffffffff168273ffffffffffffffffffffffffffffffffffffffff167fddf252ad1be2c89b69c2b068fc378daa952ba7f163c4a11628f55a4df523b3ef60405160405180910390a46137af81600084600161365f565b5050565b60006137d48473ffffffffffffffffffffffffffffffffffffffff16613a0e565b1561392d578373ffffffffffffffffffffffffffffffffffffffff1663150b7a026137fd6127a3565b8786866040518563ffffffff1660e01b815260040161381f9493929190615a3e565b6020604051808303816000875af192505050801561385b57506040513d601f19601f820116820180604052508101906138589190615a9f565b60015b6138dd573d806000811461388b576040519150601f19603f3d011682016040523d82523d6000602084013e613890565b606091505b5060008151036138d5576040517f08c379a00000000000000000000000000000000000000000000000000000000081526004016138cc906158cb565b60405180910390fd5b805181602001fd5b63150b7a0260e01b7bffffffffffffffffffffffffffffffffffffffffffffffffffffffff1916817bffffffffffffffffffffffffffffffffffffffffffffffffffffffff191614915050613932565b600190505b949350505050565b60606000600161394984613a31565b01905060008167ffffffffffffffff81111561396857613967614261565b5b6040519080825280601f01601f19166020018201604052801561399a5781602001600182028036833780820191505090505b509050600082602001820190505b6001156139fd578080600190039150507f3031323334353637383961626364656600000000000000000000000000000000600a86061a8153600a85816139f1576139f0614d3e565b5b049450600085036139a8575b819350505050919050565b50505050565b6000808273ffffffffffffffffffffffffffffffffffffffff163b119050919050565b600080600090507a184f03e93ff9f4daa797ed6e38ed64bf6a1f0100000000000000008310613a8f577a184f03e93ff9f4daa797ed6e38ed64bf6a1f0100000000000000008381613a8557613a84614d3e565b5b0492506040810190505b6d04ee2d6d415b85acef81000000008310613acc576d04ee2d6d415b85acef81000000008381613ac257613ac1614d3e565b5b0492506020810190505b662386f26fc100008310613afb57662386f26fc100008381613af157613af0614d3e565b5b0492506010810190505b6305f5e1008310613b24576305f5e1008381613b1a57613b19614d3e565b5b0492506008810190505b6127108310613b49576127108381613b3f57613b3e614d3e565b5b0492506004810190505b60648310613b6c5760648381613b6257613b61614d3e565b5b0492506002810190505b600a8310613b7b576001810190505b80915050919050565b6040518060c0016040528060008152602001600073ffffffffffffffffffffffffffffffffffffffff168152602001600081526020016000151581526020016000151581526020016000151581525090565b508054613be29061473a565b6000825580601f10613bf45750613c13565b601f016020900490600052602060002090810190613c129190613d70565b5b50565b828054828255906000526020600020906004028101928215613d5f5760005260206000209160040282015b82811115613d5e578282600082015481600001556001820160009054906101000a900473ffffffffffffffffffffffffffffffffffffffff168160010160006101000a81548173ffffffffffffffffffffffffffffffffffffffff021916908373ffffffffffffffffffffffffffffffffffffffff160217905550600282015481600201556003820160009054906101000a900460ff168160030160006101000a81548160ff0219169083151502179055506003820160019054906101000a900460ff168160030160016101000a81548160ff0219169083151502179055506003820160029054906101000a900460ff168160030160026101000a81548160ff021916908315150217905550505091600401919060040190613c41565b5b509050613d6c9190613d8d565b5090565b5b80821115613d89576000816000905550600101613d71565b5090565b5b80821115613e13576000808201600090556001820160006101000a81549073ffffffffffffffffffffffffffffffffffffffff021916905560028201600090556003820160006101000a81549060ff02191690556003820160016101000a81549060ff02191690556003820160026101000a81549060ff021916905550600401613d8e565b5090565b6000604051905090565b600080fd5b600080fd5b6000819050919050565b613e3e81613e2b565b8114613e4957600080fd5b50565b600081359050613e5b81613e35565b92915050565b600060208284031215613e7757613e76613e21565b5b6000613e8584828501613e4c565b91505092915050565b60007fffffffff0000000000000000000000000000000000000000000000000000000082169050919050565b613ec381613e8e565b8114613ece57600080fd5b50565b600081359050613ee081613eba565b92915050565b600060208284031215613efc57613efb613e21565b5b6000613f0a84828501613ed1565b91505092915050565b60008115159050919050565b613f2881613f13565b82525050565b6000602082019050613f436000830184613f1f565b92915050565b600081519050919050565b600082825260208201905092915050565b60005b83811015613f83578082015181840152602081019050613f68565b60008484015250505050565b6000601f19601f8301169050919050565b6000613fab82613f49565b613fb58185613f54565b9350613fc5818560208601613f65565b613fce81613f8f565b840191505092915050565b60006020820190508181036000830152613ff38184613fa0565b905092915050565b600073ffffffffffffffffffffffffffffffffffffffff82169050919050565b600061402682613ffb565b9050919050565b6140368161401b565b82525050565b6000602082019050614051600083018461402d565b92915050565b6140608161401b565b811461406b57600080fd5b50565b60008135905061407d81614057565b92915050565b6000806040838503121561409a57614099613e21565b5b60006140a88582860161406e565b92505060206140b985828601613e4c565b9150509250929050565b6000806000606084860312156140dc576140db613e21565b5b60006140ea8682870161406e565b93505060206140fb8682870161406e565b925050604061410c86828701613e4c565b9150509250925092565b600061412182613ffb565b9050919050565b61413181614116565b811461413c57600080fd5b50565b60008135905061414e81614128565b92915050565b6000806040838503121561416b5761416a613e21565b5b60006141798582860161413f565b925050602061418a85828601613e4c565b9150509250929050565b6000602082840312156141aa576141a9613e21565b5b60006141b88482850161406e565b91505092915050565b6141ca81613e2b565b82525050565b60006020820190506141e560008301846141c1565b92915050565b6141f481613f13565b81146141ff57600080fd5b50565b600081359050614211816141eb565b92915050565b6000806040838503121561422e5761422d613e21565b5b600061423c8582860161406e565b925050602061424d85828601614202565b9150509250929050565b600080fd5b600080fd5b7f4e487b7100000000000000000000000000000000000000000000000000000000600052604160045260246000fd5b61429982613f8f565b810181811067ffffffffffffffff821117156142b8576142b7614261565b5b80604052505050565b60006142cb613e17565b90506142d78282614290565b919050565b600067ffffffffffffffff8211156142f7576142f6614261565b5b61430082613f8f565b9050602081019050919050565b82818337600083830152505050565b600061432f61432a846142dc565b6142c1565b90508281526020810184848401111561434b5761434a61425c565b5b61435684828561430d565b509392505050565b600082601f83011261437357614372614257565b5b813561438384826020860161431c565b91505092915050565b600080600080608085870312156143a6576143a5613e21565b5b60006143b48782880161406e565b94505060206143c58782880161406e565b93505060406143d687828801613e4c565b925050606085013567ffffffffffffffff8111156143f7576143f6613e26565b5b6144038782880161435e565b91505092959194509250565b600080fd5b600080fd5b60008083601f84011261442f5761442e614257565b5b8235905067ffffffffffffffff81111561444c5761444b61440f565b5b60208301915083600182028301111561446857614467614414565b5b9250929050565b6000806020838503121561448657614485613e21565b5b600083013567ffffffffffffffff8111156144a4576144a3613e26565b5b6144b085828601614419565b92509250509250929050565b6144c581613e2b565b82525050565b6144d48161401b565b82525050565b6144e381613f13565b82525050565b60c0820160008201516144ff60008501826144bc565b50602082015161451260208501826144cb565b50604082015161452560408501826144bc565b50606082015161453860608501826144da565b50608082015161454b60808501826144da565b5060a082015161455e60a08501826144da565b50505050565b600060c08201905061457960008301846144e9565b92915050565b6000806040838503121561459657614595613e21565b5b60006145a48582860161406e565b92505060206145b58582860161406e565b9150509250929050565b600081519050919050565b600082825260208201905092915050565b6000819050602082019050919050565b60c08201600082015161460160008501826144bc565b50602082015161461460208501826144cb565b50604082015161462760408501826144bc565b50606082015161463a60608501826144da565b50608082015161464d60808501826144da565b5060a082015161466060a08501826144da565b50505050565b600061467283836145eb565b60c08301905092915050565b6000602082019050919050565b6000614696826145bf565b6146a081856145ca565b93506146ab836145db565b8060005b838110156146dc5781516146c38882614666565b97506146ce8361467e565b9250506001810190506146af565b5085935050505092915050565b60006020820190508181036000830152614703818461468b565b905092915050565b7f4e487b7100000000000000000000000000000000000000000000000000000000600052602260045260246000fd5b6000600282049050600182168061475257607f821691505b6020821081036147655761476461470b565b5b50919050565b7f4552433732313a20617070726f76616c20746f2063757272656e74206f776e6560008201527f7200000000000000000000000000000000000000000000000000000000000000602082015250565b60006147c7602183613f54565b91506147d28261476b565b604082019050919050565b600060208201905081810360008301526147f6816147ba565b9050919050565b7f4552433732313a20617070726f76652063616c6c6572206973206e6f7420746f60008201527f6b656e206f776e6572206f7220617070726f76656420666f7220616c6c000000602082015250565b6000614859603d83613f54565b9150614864826147fd565b604082019050919050565b600060208201905081810360008301526148888161484c565b9050919050565b7f4e6f742061206d696e7465720000000000000000000000000000000000000000600082015250565b60006148c5600c83613f54565b91506148d08261488f565b602082019050919050565b600060208201905081810360008301526148f4816148b8565b9050919050565b7f54686973207469636b65742068617320616c7265616479206265656e2075736560008201527f6400000000000000000000000000000000000000000000000000000000000000602082015250565b6000614957602183613f54565b9150614962826148fb565b604082019050919050565b600060208201905081810360008301526149868161494a565b9050919050565b7f43616c6c6572206973206e6f742061206d696e74657200000000000000000000600082015250565b60006149c3601683613f54565b91506149ce8261498d565b602082019050919050565b600060208201905081810360008301526149f2816149b6565b9050919050565b7f43616c6c6572206973206e6f7420612077686974656c697374656420636f6e7460008201527f7261637400000000000000000000000000000000000000000000000000000000602082015250565b6000614a55602483613f54565b9150614a60826149f9565b604082019050919050565b60006020820190508181036000830152614a8481614a48565b9050919050565b7f546f6b656e20616c7265616479207374616b6564000000000000000000000000600082015250565b6000614ac1601483613f54565b9150614acc82614a8b565b602082019050919050565b60006020820190508181036000830152614af081614ab4565b9050919050565b7f546f6b656e206973206e6f74207374616b656400000000000000000000000000600082015250565b6000614b2d601383613f54565b9150614b3882614af7565b602082019050919050565b60006020820190508181036000830152614b5c81614b20565b9050919050565b7f4552433732313a2063616c6c6572206973206e6f7420746f6b656e206f776e6560008201527f72206f7220617070726f76656400000000000000000000000000000000000000602082015250565b6000614bbf602d83613f54565b9150614bca82614b63565b604082019050919050565b60006020820190508181036000830152614bee81614bb2565b9050919050565b7f4552433732313a20696e76616c696420746f6b656e2049440000000000000000600082015250565b6000614c2b601883613f54565b9150614c3682614bf5565b602082019050919050565b60006020820190508181036000830152614c5a81614c1e565b9050919050565b7f43616c6c6572206973206e6f74206f776e657200000000000000000000000000600082015250565b6000614c97601383613f54565b9150614ca282614c61565b602082019050919050565b60006020820190508181036000830152614cc681614c8a565b9050919050565b7f4e487b7100000000000000000000000000000000000000000000000000000000600052601160045260246000fd5b6000614d0782613e2b565b9150614d1283613e2b565b9250828202614d2081613e2b565b91508282048414831517614d3757614d36614ccd565b5b5092915050565b7f4e487b7100000000000000000000000000000000000000000000000000000000600052601260045260246000fd5b6000614d7882613e2b565b9150614d8383613e2b565b925082614d9357614d92614d3e565b5b828204905092915050565b600081905092915050565b7f393525206f66204e465420726566756e64000000000000000000000000000000600082015250565b6000614ddf601183614d9e565b9150614dea82614da9565b601182019050919050565b6000614e0082614dd2565b9150819050919050565b7f4661696c656420746f2073656e64204574686572000000000000000000000000600082015250565b6000614e40601483613f54565b9150614e4b82614e0a565b602082019050919050565b60006020820190508181036000830152614e6f81614e33565b9050919050565b7f4552433732313a2061646472657373207a65726f206973206e6f74206120766160008201527f6c6964206f776e65720000000000000000000000000000000000000000000000602082015250565b6000614ed2602983613f54565b9150614edd82614e76565b604082019050919050565b60006020820190508181036000830152614f0181614ec5565b9050919050565b7f596f7520646f6e2774206861766520656e6f756768206d6f6e657920746f206d60008201527f696e740000000000000000000000000000000000000000000000000000000000602082015250565b6000614f64602383613f54565b9150614f6f82614f08565b604082019050919050565b60006020820190508181036000830152614f9381614f57565b9050919050565b600081905092915050565b6000614fb082613f49565b614fba8185614f9a565b9350614fca818560208601613f65565b80840191505092915050565b6000614fe28285614fa5565b9150614fee8284614fa5565b91508190509392505050565b600082905092915050565b60008190508160005260206000209050919050565b60006020601f8301049050919050565b600082821b905092915050565b6000600883026150677fffffffffffffffffffffffffffffffffffffffffffffffffffffffffffffffff8261502a565b615071868361502a565b95508019841693508086168417925050509392505050565b6000819050919050565b60006150ae6150a96150a484613e2b565b615089565b613e2b565b9050919050565b6000819050919050565b6150c883615093565b6150dc6150d4826150b5565b848454615037565b825550505050565b600090565b6150f16150e4565b6150fc8184846150bf565b505050565b5b81811015615120576151156000826150e9565b600181019050615102565b5050565b601f8211156151655761513681615005565b61513f8461501a565b8101602085101561514e578190505b61516261515a8561501a565b830182615101565b50505b505050565b600082821c905092915050565b60006151886000198460080261516a565b1980831691505092915050565b60006151a18383615177565b9150826002028217905092915050565b6151bb8383614ffa565b67ffffffffffffffff8111156151d4576151d3614261565b5b6151de825461473a565b6151e9828285615124565b6000601f8311600181146152185760008415615206578287013590505b6152108582615195565b865550615278565b601f19841661522686615005565b60005b8281101561524e57848901358255600182019150602085019450602081019050615229565b8683101561526b5784890135615267601f891682615177565b8355505b6001600288020188555050505b50505050505050565b7f4f776e61626c653a206e6577206f776e657220697320746865207a65726f206160008201527f6464726573730000000000000000000000000000000000000000000000000000602082015250565b60006152dd602683613f54565b91506152e882615281565b604082019050919050565b6000602082019050818103600083015261530c816152d0565b9050919050565b7f4f776e61626c653a2063616c6c6572206973206e6f7420746865206f776e6572600082015250565b6000615349602083613f54565b915061535482615313565b602082019050919050565b600060208201905081810360008301526153788161533c565b9050919050565b7f4552433732313a207472616e736665722066726f6d20696e636f72726563742060008201527f6f776e6572000000000000000000000000000000000000000000000000000000602082015250565b60006153db602583613f54565b91506153e68261537f565b604082019050919050565b6000602082019050818103600083015261540a816153ce565b9050919050565b7f4552433732313a207472616e7366657220746f20746865207a65726f2061646460008201527f7265737300000000000000000000000000000000000000000000000000000000602082015250565b600061546d602483613f54565b915061547882615411565b604082019050919050565b6000602082019050818103600083015261549c81615460565b9050919050565b60006154ae82613e2b565b91506154b983613e2b565b92508282039050818111156154d1576154d0614ccd565b5b92915050565b7f4e487b7100000000000000000000000000000000000000000000000000000000600052603260045260246000fd5b600061551182613e2b565b915061551c83613e2b565b925082820190508082111561553457615533614ccd565b5b92915050565b600061554582613e2b565b91507fffffffffffffffffffffffffffffffffffffffffffffffffffffffffffffffff820361557757615576614ccd565b5b600182019050919050565b7f4e487b7100000000000000000000000000000000000000000000000000000000600052603160045260246000fd5b7f4552433732313a20617070726f766520746f2063616c6c657200000000000000600082015250565b60006155e7601983613f54565b91506155f2826155b1565b602082019050919050565b60006020820190508181036000830152615616816155da565b9050919050565b7f4552433732313a206d696e7420746f20746865207a65726f2061646472657373600082015250565b6000615653602083613f54565b915061565e8261561d565b602082019050919050565b6000602082019050818103600083015261568281615646565b9050919050565b7f4552433732313a20746f6b656e20616c7265616479206d696e74656400000000600082015250565b60006156bf601c83613f54565b91506156ca82615689565b602082019050919050565b600060208201905081810360008301526156ee816156b2565b9050919050565b7f45524337323155524953746f726167653a2055524920736574206f66206e6f6e60008201527f6578697374656e7420746f6b656e000000000000000000000000000000000000602082015250565b6000615751602e83613f54565b915061575c826156f5565b604082019050919050565b6000602082019050818103600083015261578081615744565b9050919050565b61579082613f49565b67ffffffffffffffff8111156157a9576157a8614261565b5b6157b3825461473a565b6157be828285615124565b600060209050601f8311600181146157f157600084156157df578287015190505b6157e98582615195565b865550615851565b601f1984166157ff86615005565b60005b8281101561582757848901518255600182019150602085019450602081019050615802565b868310156158445784890151615840601f891682615177565b8355505b6001600288020188555050505b505050505050565b7f4552433732313a207472616e7366657220746f206e6f6e20455243373231526560008201527f63656976657220696d706c656d656e7465720000000000000000000000000000602082015250565b60006158b5603283613f54565b91506158c082615859565b604082019050919050565b600060208201905081810360008301526158e4816158a8565b9050919050565b7f596f752063616e6e6f74207472616e736665722061207573656420746f6b656e600082015250565b6000615921602083613f54565b915061592c826158eb565b602082019050919050565b6000602082019050818103600083015261595081615914565b9050919050565b7f596f752063616e6e6f74207472616e736665722061207374616b656420746f6b60008201527f656e000000000000000000000000000000000000000000000000000000000000602082015250565b60006159b3602283613f54565b91506159be82615957565b604082019050919050565b600060208201905081810360008301526159e2816159a6565b9050919050565b600081519050919050565b600082825260208201905092915050565b6000615a10826159e9565b615a1a81856159f4565b9350615a2a818560208601613f65565b615a3381613f8f565b840191505092915050565b6000608082019050615a53600083018761402d565b615a60602083018661402d565b615a6d60408301856141c1565b8181036060830152615a7f8184615a05565b905095945050505050565b600081519050615a9981613eba565b92915050565b600060208284031215615ab557615ab4613e21565b5b6000615ac384828501615a8a565b9150509291505056fea2646970667358221220e3d254972baf78c59c3fcaa7c07be792d1783b2acc011c5302fe611b4e358c5464736f6c63430008120033",
  "immutableReferences": {},
  "source": "// SPDX-License-Identifier: MIT\npragma solidity >=0.4.22 <0.9.0;\n\nimport '@openzeppelin/contracts/token/ERC721/ERC721.sol';\nimport '@openzeppelin/contracts/token/ERC721/extensions/ERC721URIStorage.sol';\nimport '@openzeppelin/contracts/utils/Counters.sol';\nimport '@openzeppelin/contracts/access/Ownable.sol';\n\n// ADD 5% Royalty\n// ADD STATIC Variable method\n// Attention royalty check par rapport  blur.\n\n\n\ncontract MiningDAOInvestTickets is ERC721URIStorage, Ownable {\n    using Counters for Counters.Counter;\n\n    struct Ticket {\n        uint tokenId;\n        address ticketOwner;\n        uint gweiValue;\n        bool isUsed;\n        bool isMinted;\n        bool isStaked;\n    }\n\n    event TicketMinted(Ticket ticket);\n    event TicketRefund(Ticket ticket);\n    event TicketBurned(Ticket ticket);\n    event TicketStaked(Ticket ticket);\n    event TicketUnstaked(Ticket ticket);\n\n    Counters.Counter private _tokenIds;\n    uint private mintPriceETH = 0.001 ether;\n    address private DAOAddress;\n    string private tokenUri;\n    mapping (address => Ticket[]) private ticketsByAddress;\n    mapping (address => Ticket[]) private usableTicketsByAddress;\n    mapping (uint => Ticket) private ticketByTokenId;\n    mapping (address => bool) private whitelistedOfferContract;\n\n\n\n    constructor(address _DAOAdress, string memory _tokenURI) ERC721(\"Mining DAO - Investment Tickets\", \"MDAO\") {\n        DAOAddress = _DAOAdress;\n        tokenUri = _tokenURI;\n    }\n\n    function whitelist(address _contract) public onlyOwner{\n        whitelistedOfferContract[_contract] = true;\n    }\n\n    function unWhitelist(address _contract) public onlyOwner{\n        whitelistedOfferContract[_contract] = false;\n    }\n\n    function getTicketsByAddress(address _address) public view returns (Ticket[] memory) {\n        return ticketsByAddress[_address];\n    }\n\n    function getTicketByTokenId(uint _tokenId) public view returns (Ticket memory) {\n        return ticketByTokenId[_tokenId];\n    }\n\n    function getTotalNFT() public view returns (uint256) {\n        return _tokenIds.current();\n    }\n\n    function getTokenUri() public view returns (string memory) {\n        return tokenUri;\n    }\n\n    function setTokenURI(string calldata _tokenUri) public onlyOwner {\n        tokenUri = _tokenUri;\n    }\n\n    function getMintPriceETH() public view returns (uint){\n        return mintPriceETH;\n    }\n\n    function setEthPrice(uint _price) public onlyOwner {\n        mintPriceETH = _price;\n    }\n\n    function  mintTicketETH(address _customer) public payable returns (uint) {\n        require(msg.value >= mintPriceETH, \"You don't have enough money to mint\");\n\n        _tokenIds.increment();\n        uint newTokenId = _tokenIds.current();\n        Ticket memory ticket = Ticket(newTokenId, _customer, mintPriceETH, false, true, false);\n        ticketsByAddress[_customer].push(ticket);\n        ticketByTokenId[newTokenId] = ticket;\n\n        _mint(_customer, newTokenId);\n        _setTokenURI(newTokenId, tokenUri);\n\n        emit TicketMinted(ticket);\n        return ticket.tokenId;\n    }\n\n    function stakeTicket(address _origin, uint _tokenId) public {\n        Ticket memory ticket = ticketByTokenId[_tokenId];\n        require(ticket.isMinted, \"Not a minter\");\n        require(!ticket.isUsed, \"This ticket has already been used\");\n        require(ticket.ticketOwner == _origin, \"Caller is not a minter\");\n        require(whitelistedOfferContract[msg.sender], \"Caller is not a whitelisted contract\");\n        require(!ticket.isStaked, \"Token already staked\");\n\n        ticket.isStaked = true;\n        ticketByTokenId[_tokenId] = ticket;\n\n        emit TicketStaked(ticket);\n    }\n\n    function unstakeTicket(address _origin, uint _tokenId) public {\n        Ticket memory ticket = ticketByTokenId[_tokenId];\n        require(ticket.isMinted, \"Not a minter\");\n        require(!ticket.isUsed, \"This ticket has already been used\");\n        require(ticket.ticketOwner == _origin, \"Caller is not a minter\");\n        require(whitelistedOfferContract[msg.sender], \"Caller is not a whitelisted contract\");\n        require(ticket.isStaked, \"Token is not staked\");\n\n        ticket.isStaked = false;\n        ticketByTokenId[_tokenId] = ticket;\n\n        emit TicketUnstaked(ticket);\n    }\n\n    function useTicket(address _origin, uint _tokenId) public {\n        Ticket memory ticket = ticketByTokenId[_tokenId];\n        require(ticket.isMinted, \"Not a minter\");\n        require(!ticket.isUsed, \"This ticket has already been used\");\n        require(ticket.ticketOwner == _origin, \"Caller is not a minter\");\n        require(whitelistedOfferContract[msg.sender], \"Caller is not a whitelisted contract\");\n        require(ticket.isStaked, \"Token is not staked\");\n\n        _burn(_tokenId);\n        ticket.isUsed = true;\n        ticketByTokenId[_tokenId] = ticket;\n        removeFromList(msg.sender, _tokenId);\n\n        emit TicketBurned(ticket);\n    }\n\n    function refundTicket(address payable _address, uint _tokenId) public {\n        Ticket memory ticket = ticketByTokenId[_tokenId];\n        require(ticket.isMinted, \"Not a minter\");\n        require(!ticket.isUsed, \"This ticket has already been used\");\n        require(ticket.ticketOwner == msg.sender, \"Caller is not owner\");\n\n        uint residualValue = (ticket.gweiValue * 95) / 100;\n\n        (bool sent, bytes memory data) = _address.call{value: residualValue}(\"95% of NFT refund\");\n        require(sent, \"Failed to send Ether\");\n        _burn(_tokenId);\n\n        ticket.isUsed = true;\n        ticketByTokenId[_tokenId] = ticket;\n        removeFromList(_address, _tokenId);\n\n        emit TicketBurned(ticket);\n        emit TicketRefund(ticket);\n    }\n\n    function removeFromList(address _address, uint _tokenId) private {\n        Ticket[] storage tickets = ticketsByAddress[_address];\n        uint extraIndex = 0;\n        for(uint i = 0; i < tickets.length-1; i++){\n            if(tickets[i].tokenId == _tokenId) {\n                extraIndex = 1;\n            }\n            tickets[i] = tickets[i+extraIndex];\n        }\n        tickets.pop();\n        ticketsByAddress[_address] = tickets;\n    }\n\n    function _beforeTokenTransfer(address from, address to, uint256 tokenId, uint256 batchSize) internal virtual override {\n        super._beforeTokenTransfer(from, to, tokenId, batchSize);\n        require(!ticketByTokenId[tokenId].isUsed, \"You cannot transfer a used token\");\n        require(!ticketByTokenId[tokenId].isStaked, \"You cannot transfer a staked token\");\n    }\n\n    function safeTransferFrom(address from, address to, uint256 tokenId) public virtual override {\n        super.safeTransferFrom(from, to, tokenId);\n        ticketByTokenId[tokenId].ticketOwner = to;\n    }\n\n}",
  "sourcePath": "/Users/dylandivito/DEV/Solidity/Mining-DAO/truffle/contracts/MiningDAOInvestTickets.sol",
  "compiler": {
    "name": "solc",
    "version": "0.8.18+commit.87f61d96.Emscripten.clang"
  },
  "schemaVersion": "3.4.11",
  "updatedAt": "2023-04-08T16:19:20.851Z",
  "devdoc": {
    "events": {
      "Approval(address,address,uint256)": {
        "details": "Emitted when `owner` enables `approved` to manage the `tokenId` token."
      },
      "ApprovalForAll(address,address,bool)": {
        "details": "Emitted when `owner` enables or disables (`approved`) `operator` to manage all of its assets."
      },
      "Transfer(address,address,uint256)": {
        "details": "Emitted when `tokenId` token is transferred from `from` to `to`."
      }
    },
    "kind": "dev",
    "methods": {
      "approve(address,uint256)": {
        "details": "See {IERC721-approve}."
      },
      "balanceOf(address)": {
        "details": "See {IERC721-balanceOf}."
      },
      "getApproved(uint256)": {
        "details": "See {IERC721-getApproved}."
      },
      "isApprovedForAll(address,address)": {
        "details": "See {IERC721-isApprovedForAll}."
      },
      "name()": {
        "details": "See {IERC721Metadata-name}."
      },
      "owner()": {
        "details": "Returns the address of the current owner."
      },
      "ownerOf(uint256)": {
        "details": "See {IERC721-ownerOf}."
      },
      "renounceOwnership()": {
        "details": "Leaves the contract without owner. It will not be possible to call `onlyOwner` functions anymore. Can only be called by the current owner. NOTE: Renouncing ownership will leave the contract without an owner, thereby removing any functionality that is only available to the owner."
      },
      "safeTransferFrom(address,address,uint256)": {
        "details": "See {IERC721-safeTransferFrom}."
      },
      "safeTransferFrom(address,address,uint256,bytes)": {
        "details": "See {IERC721-safeTransferFrom}."
      },
      "setApprovalForAll(address,bool)": {
        "details": "See {IERC721-setApprovalForAll}."
      },
      "supportsInterface(bytes4)": {
        "details": "See {IERC165-supportsInterface}."
      },
      "symbol()": {
        "details": "See {IERC721Metadata-symbol}."
      },
      "tokenURI(uint256)": {
        "details": "See {IERC721Metadata-tokenURI}."
      },
      "transferFrom(address,address,uint256)": {
        "details": "See {IERC721-transferFrom}."
      },
      "transferOwnership(address)": {
        "details": "Transfers ownership of the contract to a new account (`newOwner`). Can only be called by the current owner."
      }
    },
    "version": 1
  },
  "userdoc": {
    "kind": "user",
    "methods": {},
    "version": 1
  }
}