{
  "contractName": "MiningDAOCommercialOffer",
  "abi": [
    {
      "inputs": [
        {
          "internalType": "address",
          "name": "_InvestTicketsContractAddress",
          "type": "address"
        },
        {
          "internalType": "string",
          "name": "_offerName",
          "type": "string"
        },
        {
          "internalType": "string",
          "name": "_ref",
          "type": "string"
        },
        {
          "internalType": "string",
          "name": "_collectionName",
          "type": "string"
        },
        {
          "internalType": "address",
          "name": "_DAOWallet",
          "type": "address"
        },
        {
          "internalType": "address[]",
          "name": "_DAOTeamWallets",
          "type": "address[]"
        },
        {
          "internalType": "address",
          "name": "_treasuryWallet",
          "type": "address"
        },
        {
          "internalType": "uint256",
          "name": "_minimumTickets",
          "type": "uint256"
        },
        {
          "internalType": "uint256",
          "name": "_maximumTickets",
          "type": "uint256"
        },
        {
          "internalType": "uint256",
          "name": "_lockTimeLimit",
          "type": "uint256"
        }
      ],
      "stateMutability": "nonpayable",
      "type": "constructor"
    },
    {
      "anonymous": false,
      "inputs": [
        {
          "indexed": true,
          "internalType": "address",
          "name": "owner",
          "type": "address"
        },
        {
          "indexed": true,
          "internalType": "address",
          "name": "approved",
          "type": "address"
        },
        {
          "indexed": true,
          "internalType": "uint256",
          "name": "tokenId",
          "type": "uint256"
        }
      ],
      "name": "Approval",
      "type": "event"
    },
    {
      "anonymous": false,
      "inputs": [
        {
          "indexed": true,
          "internalType": "address",
          "name": "owner",
          "type": "address"
        },
        {
          "indexed": true,
          "internalType": "address",
          "name": "operator",
          "type": "address"
        },
        {
          "indexed": false,
          "internalType": "bool",
          "name": "approved",
          "type": "bool"
        }
      ],
      "name": "ApprovalForAll",
      "type": "event"
    },
    {
      "anonymous": false,
      "inputs": [
        {
          "components": [
            {
              "internalType": "address",
              "name": "investTicketOwner",
              "type": "address"
            },
            {
              "internalType": "uint256",
              "name": "tokenId",
              "type": "uint256"
            },
            {
              "internalType": "bool",
              "name": "isStaked",
              "type": "bool"
            }
          ],
          "indexed": false,
          "internalType": "struct MiningDAOCommercialOffer.InvestTicket",
          "name": "ticket",
          "type": "tuple"
        }
      ],
      "name": "InvestTicketStaked",
      "type": "event"
    },
    {
      "anonymous": false,
      "inputs": [
        {
          "components": [
            {
              "internalType": "address",
              "name": "investTicketOwner",
              "type": "address"
            },
            {
              "internalType": "uint256",
              "name": "tokenId",
              "type": "uint256"
            },
            {
              "internalType": "bool",
              "name": "isStaked",
              "type": "bool"
            }
          ],
          "indexed": false,
          "internalType": "struct MiningDAOCommercialOffer.InvestTicket",
          "name": "ticket",
          "type": "tuple"
        }
      ],
      "name": "InvestTicketUnstaked",
      "type": "event"
    },
    {
      "anonymous": false,
      "inputs": [
        {
          "indexed": true,
          "internalType": "address",
          "name": "previousOwner",
          "type": "address"
        },
        {
          "indexed": true,
          "internalType": "address",
          "name": "newOwner",
          "type": "address"
        }
      ],
      "name": "OwnershipTransferred",
      "type": "event"
    },
    {
      "anonymous": false,
      "inputs": [
        {
          "components": [
            {
              "internalType": "address",
              "name": "ticketOwner",
              "type": "address"
            },
            {
              "internalType": "uint256",
              "name": "power",
              "type": "uint256"
            },
            {
              "internalType": "string",
              "name": "tokenUri",
              "type": "string"
            },
            {
              "internalType": "uint256",
              "name": "tokenId",
              "type": "uint256"
            },
            {
              "components": [
                {
                  "internalType": "uint256",
                  "name": "_value",
                  "type": "uint256"
                }
              ],
              "internalType": "struct Counters.Counter",
              "name": "unclaimedMonths",
              "type": "tuple"
            },
            {
              "internalType": "uint256",
              "name": "unclaimedValue",
              "type": "uint256"
            },
            {
              "internalType": "uint256",
              "name": "timeOfLastRewardUpdate",
              "type": "uint256"
            }
          ],
          "indexed": false,
          "internalType": "struct MiningDAOCommercialOffer.OfferTicket",
          "name": "ticket",
          "type": "tuple"
        }
      ],
      "name": "RewardClaimed",
      "type": "event"
    },
    {
      "anonymous": false,
      "inputs": [
        {
          "indexed": true,
          "internalType": "address",
          "name": "from",
          "type": "address"
        },
        {
          "indexed": true,
          "internalType": "address",
          "name": "to",
          "type": "address"
        },
        {
          "indexed": true,
          "internalType": "uint256",
          "name": "tokenId",
          "type": "uint256"
        }
      ],
      "name": "Transfer",
      "type": "event"
    },
    {
      "anonymous": false,
      "inputs": [
        {
          "indexed": false,
          "internalType": "enum MiningDAOCommercialOffer.WorkflowStatus",
          "name": "previous",
          "type": "uint8"
        },
        {
          "indexed": false,
          "internalType": "enum MiningDAOCommercialOffer.WorkflowStatus",
          "name": "current",
          "type": "uint8"
        }
      ],
      "name": "WorkflowStatusChanged",
      "type": "event"
    },
    {
      "inputs": [
        {
          "internalType": "address",
          "name": "to",
          "type": "address"
        },
        {
          "internalType": "uint256",
          "name": "tokenId",
          "type": "uint256"
        }
      ],
      "name": "approve",
      "outputs": [],
      "stateMutability": "nonpayable",
      "type": "function"
    },
    {
      "inputs": [
        {
          "internalType": "address",
          "name": "owner",
          "type": "address"
        }
      ],
      "name": "balanceOf",
      "outputs": [
        {
          "internalType": "uint256",
          "name": "",
          "type": "uint256"
        }
      ],
      "stateMutability": "view",
      "type": "function"
    },
    {
      "inputs": [
        {
          "internalType": "uint256",
          "name": "tokenId",
          "type": "uint256"
        }
      ],
      "name": "getApproved",
      "outputs": [
        {
          "internalType": "address",
          "name": "",
          "type": "address"
        }
      ],
      "stateMutability": "view",
      "type": "function"
    },
    {
      "inputs": [
        {
          "internalType": "address",
          "name": "owner",
          "type": "address"
        },
        {
          "internalType": "address",
          "name": "operator",
          "type": "address"
        }
      ],
      "name": "isApprovedForAll",
      "outputs": [
        {
          "internalType": "bool",
          "name": "",
          "type": "bool"
        }
      ],
      "stateMutability": "view",
      "type": "function"
    },
    {
      "inputs": [],
      "name": "name",
      "outputs": [
        {
          "internalType": "string",
          "name": "",
          "type": "string"
        }
      ],
      "stateMutability": "view",
      "type": "function"
    },
    {
      "inputs": [
        {
          "internalType": "address",
          "name": "",
          "type": "address"
        }
      ],
      "name": "offerTicketOwners",
      "outputs": [
        {
          "internalType": "address",
          "name": "ticketOwner",
          "type": "address"
        },
        {
          "internalType": "uint256",
          "name": "power",
          "type": "uint256"
        },
        {
          "internalType": "string",
          "name": "tokenUri",
          "type": "string"
        },
        {
          "internalType": "uint256",
          "name": "tokenId",
          "type": "uint256"
        },
        {
          "components": [
            {
              "internalType": "uint256",
              "name": "_value",
              "type": "uint256"
            }
          ],
          "internalType": "struct Counters.Counter",
          "name": "unclaimedMonths",
          "type": "tuple"
        },
        {
          "internalType": "uint256",
          "name": "unclaimedValue",
          "type": "uint256"
        },
        {
          "internalType": "uint256",
          "name": "timeOfLastRewardUpdate",
          "type": "uint256"
        }
      ],
      "stateMutability": "view",
      "type": "function"
    },
    {
      "inputs": [],
      "name": "owner",
      "outputs": [
        {
          "internalType": "address",
          "name": "",
          "type": "address"
        }
      ],
      "stateMutability": "view",
      "type": "function"
    },
    {
      "inputs": [
        {
          "internalType": "uint256",
          "name": "tokenId",
          "type": "uint256"
        }
      ],
      "name": "ownerOf",
      "outputs": [
        {
          "internalType": "address",
          "name": "",
          "type": "address"
        }
      ],
      "stateMutability": "view",
      "type": "function"
    },
    {
      "inputs": [],
      "name": "renounceOwnership",
      "outputs": [],
      "stateMutability": "nonpayable",
      "type": "function"
    },
    {
      "inputs": [
        {
          "internalType": "address",
          "name": "from",
          "type": "address"
        },
        {
          "internalType": "address",
          "name": "to",
          "type": "address"
        },
        {
          "internalType": "uint256",
          "name": "tokenId",
          "type": "uint256"
        }
      ],
      "name": "safeTransferFrom",
      "outputs": [],
      "stateMutability": "nonpayable",
      "type": "function"
    },
    {
      "inputs": [
        {
          "internalType": "address",
          "name": "from",
          "type": "address"
        },
        {
          "internalType": "address",
          "name": "to",
          "type": "address"
        },
        {
          "internalType": "uint256",
          "name": "tokenId",
          "type": "uint256"
        },
        {
          "internalType": "bytes",
          "name": "data",
          "type": "bytes"
        }
      ],
      "name": "safeTransferFrom",
      "outputs": [],
      "stateMutability": "nonpayable",
      "type": "function"
    },
    {
      "inputs": [
        {
          "internalType": "address",
          "name": "operator",
          "type": "address"
        },
        {
          "internalType": "bool",
          "name": "approved",
          "type": "bool"
        }
      ],
      "name": "setApprovalForAll",
      "outputs": [],
      "stateMutability": "nonpayable",
      "type": "function"
    },
    {
      "inputs": [
        {
          "internalType": "bytes4",
          "name": "interfaceId",
          "type": "bytes4"
        }
      ],
      "name": "supportsInterface",
      "outputs": [
        {
          "internalType": "bool",
          "name": "",
          "type": "bool"
        }
      ],
      "stateMutability": "view",
      "type": "function"
    },
    {
      "inputs": [],
      "name": "symbol",
      "outputs": [
        {
          "internalType": "string",
          "name": "",
          "type": "string"
        }
      ],
      "stateMutability": "view",
      "type": "function"
    },
    {
      "inputs": [
        {
          "internalType": "uint256",
          "name": "tokenId",
          "type": "uint256"
        }
      ],
      "name": "tokenURI",
      "outputs": [
        {
          "internalType": "string",
          "name": "",
          "type": "string"
        }
      ],
      "stateMutability": "view",
      "type": "function"
    },
    {
      "inputs": [
        {
          "internalType": "address",
          "name": "from",
          "type": "address"
        },
        {
          "internalType": "address",
          "name": "to",
          "type": "address"
        },
        {
          "internalType": "uint256",
          "name": "tokenId",
          "type": "uint256"
        }
      ],
      "name": "transferFrom",
      "outputs": [],
      "stateMutability": "nonpayable",
      "type": "function"
    },
    {
      "inputs": [
        {
          "internalType": "address",
          "name": "newOwner",
          "type": "address"
        }
      ],
      "name": "transferOwnership",
      "outputs": [],
      "stateMutability": "nonpayable",
      "type": "function"
    },
    {
      "inputs": [],
      "name": "workflowStatus",
      "outputs": [
        {
          "internalType": "enum MiningDAOCommercialOffer.WorkflowStatus",
          "name": "",
          "type": "uint8"
        }
      ],
      "stateMutability": "view",
      "type": "function"
    },
    {
      "inputs": [],
      "name": "getOfferDetail",
      "outputs": [
        {
          "components": [
            {
              "internalType": "string",
              "name": "offerName",
              "type": "string"
            },
            {
              "internalType": "string",
              "name": "ref",
              "type": "string"
            },
            {
              "internalType": "uint256",
              "name": "minimumTickets",
              "type": "uint256"
            },
            {
              "internalType": "uint256",
              "name": "maximumTickets",
              "type": "uint256"
            },
            {
              "internalType": "uint256",
              "name": "ticketsCounter",
              "type": "uint256"
            },
            {
              "internalType": "uint256",
              "name": "lockTimeLimit",
              "type": "uint256"
            },
            {
              "internalType": "enum MiningDAOCommercialOffer.WorkflowStatus",
              "name": "status",
              "type": "uint8"
            }
          ],
          "internalType": "struct MiningDAOCommercialOffer.OfferDetail",
          "name": "",
          "type": "tuple"
        }
      ],
      "stateMutability": "view",
      "type": "function"
    },
    {
      "inputs": [
        {
          "internalType": "uint256",
          "name": "_tokenId",
          "type": "uint256"
        }
      ],
      "name": "getStakedTicket",
      "outputs": [
        {
          "components": [
            {
              "internalType": "uint256",
              "name": "previousIndex",
              "type": "uint256"
            },
            {
              "components": [
                {
                  "internalType": "address",
                  "name": "investTicketOwner",
                  "type": "address"
                },
                {
                  "internalType": "uint256",
                  "name": "tokenId",
                  "type": "uint256"
                },
                {
                  "internalType": "bool",
                  "name": "isStaked",
                  "type": "bool"
                }
              ],
              "internalType": "struct MiningDAOCommercialOffer.InvestTicket",
              "name": "ticket",
              "type": "tuple"
            },
            {
              "internalType": "uint256",
              "name": "nextIndex",
              "type": "uint256"
            }
          ],
          "internalType": "struct MiningDAOCommercialOffer.LinkedListInvestTicket",
          "name": "",
          "type": "tuple"
        }
      ],
      "stateMutability": "view",
      "type": "function"
    },
    {
      "inputs": [],
      "name": "getTotalStakedTicket",
      "outputs": [
        {
          "internalType": "uint256",
          "name": "",
          "type": "uint256"
        }
      ],
      "stateMutability": "view",
      "type": "function"
    },
    {
      "inputs": [],
      "name": "getStakedList",
      "outputs": [
        {
          "components": [
            {
              "internalType": "address",
              "name": "investTicketOwner",
              "type": "address"
            },
            {
              "internalType": "uint256",
              "name": "tokenId",
              "type": "uint256"
            },
            {
              "internalType": "bool",
              "name": "isStaked",
              "type": "bool"
            }
          ],
          "internalType": "struct MiningDAOCommercialOffer.InvestTicket[]",
          "name": "",
          "type": "tuple[]"
        }
      ],
      "stateMutability": "view",
      "type": "function"
    },
    {
      "inputs": [
        {
          "internalType": "uint256",
          "name": "_tokenId",
          "type": "uint256"
        }
      ],
      "name": "stakeTicket",
      "outputs": [],
      "stateMutability": "nonpayable",
      "type": "function"
    },
    {
      "inputs": [
        {
          "internalType": "uint256",
          "name": "_tokenId",
          "type": "uint256"
        }
      ],
      "name": "unstakeTicket",
      "outputs": [],
      "stateMutability": "nonpayable",
      "type": "function"
    },
    {
      "inputs": [],
      "name": "DAOTeamSignatureRequest",
      "outputs": [],
      "stateMutability": "nonpayable",
      "type": "function"
    },
    {
      "inputs": [
        {
          "components": [
            {
              "internalType": "address",
              "name": "ticketOwner",
              "type": "address"
            },
            {
              "internalType": "uint256",
              "name": "power",
              "type": "uint256"
            },
            {
              "internalType": "string",
              "name": "tokenUri",
              "type": "string"
            }
          ],
          "internalType": "struct MiningDAOCommercialOffer.OfferTicketProps[]",
          "name": "_offerTicketData",
          "type": "tuple[]"
        },
        {
          "internalType": "uint256",
          "name": "totalThPower",
          "type": "uint256"
        }
      ],
      "name": "generateOfferNFT",
      "outputs": [],
      "stateMutability": "nonpayable",
      "type": "function"
    },
    {
      "inputs": [],
      "name": "mintTicketRegistrationStarted",
      "outputs": [],
      "stateMutability": "nonpayable",
      "type": "function"
    },
    {
      "inputs": [],
      "name": "checkLockTimeExpired",
      "outputs": [],
      "stateMutability": "nonpayable",
      "type": "function"
    }
  ],
  "bytecode": "0x60806040523480156200001157600080fd5b5060405162003b1438038062003b14833981016040819052620000349162000414565b86886000620000448382620005b4565b506001620000538282620005b4565b505050620000706200006a620001b960201b60201c565b620001bd565b600880546001600160a01b0319166001600160a01b038c16179055600c620000998a82620005b4565b50600d620000a88982620005b4565b50600980546001600160a01b0319166001600160a01b0388161790558451620000d990600a9060208801906200020f565b50600b80546001600160a01b0319166001600160a01b038616179055601083905560118290556013819055600f80546000919060ff191660018302179055506001600160a01b0386166000908152600e60205260408120805460ff191660011790555b8551811015620001a8576001600e600088848151811062000161576200016162000680565b6020908102919091018101516001600160a01b03168252810191909152604001600020805460ff1916911515919091179055806200019f8162000696565b9150506200013c565b5050505050505050505050620006be565b3390565b600780546001600160a01b038381166001600160a01b0319831681179093556040519116919082907f8be0079c531659141344cd1fd0a4f28419497f9722a3daafe3b4186f6b6457e090600090a35050565b82805482825590600052602060002090810192821562000267579160200282015b828111156200026757825182546001600160a01b0319166001600160a01b0390911617825560209092019160019091019062000230565b506200027592915062000279565b5090565b5b808211156200027557600081556001016200027a565b80516001600160a01b0381168114620002a857600080fd5b919050565b634e487b7160e01b600052604160045260246000fd5b604051601f8201601f191681016001600160401b0381118282101715620002ee57620002ee620002ad565b604052919050565b600082601f8301126200030857600080fd5b81516001600160401b03811115620003245762000324620002ad565b60206200033a601f8301601f19168201620002c3565b82815285828487010111156200034f57600080fd5b60005b838110156200036f57858101830151828201840152820162000352565b506000928101909101919091529392505050565b600082601f8301126200039557600080fd5b815160206001600160401b03821115620003b357620003b3620002ad565b8160051b620003c4828201620002c3565b9283528481018201928281019087851115620003df57600080fd5b83870192505b848310156200040957620003f98362000290565b82529183019190830190620003e5565b979650505050505050565b6000806000806000806000806000806101408b8d0312156200043557600080fd5b620004408b62000290565b60208c0151909a506001600160401b03808211156200045e57600080fd5b6200046c8e838f01620002f6565b9a5060408d01519150808211156200048357600080fd5b620004918e838f01620002f6565b995060608d0151915080821115620004a857600080fd5b620004b68e838f01620002f6565b9850620004c660808e0162000290565b975060a08d0151915080821115620004dd57600080fd5b50620004ec8d828e0162000383565b955050620004fd60c08c0162000290565b935060e08b015192506101008b015191506101208b015190509295989b9194979a5092959850565b600181811c908216806200053a57607f821691505b6020821081036200055b57634e487b7160e01b600052602260045260246000fd5b50919050565b601f821115620005af57600081815260208120601f850160051c810160208610156200058a5750805b601f850160051c820191505b81811015620005ab5782815560010162000596565b5050505b505050565b81516001600160401b03811115620005d057620005d0620002ad565b620005e881620005e1845462000525565b8462000561565b602080601f831160018114620006205760008415620006075750858301515b600019600386901b1c1916600185901b178555620005ab565b600085815260208120601f198616915b82811015620006515788860151825594840194600190910190840162000630565b5085821015620006705787850151600019600388901b60f8161c191681555b5050505050600190811b01905550565b634e487b7160e01b600052603260045260246000fd5b600060018201620006b757634e487b7160e01b600052601160045260246000fd5b5060010190565b61344680620006ce6000396000f3fe608060405234801561001057600080fd5b50600436106101c45760003560e01c80637f36655d116100f9578063a22cb46511610097578063e985e9c511610071578063e985e9c5146103a8578063eb5e459f146103bb578063f0cf628b146103d0578063f2fde38b146103f057600080fd5b8063a22cb4651461036f578063b88d4fde14610382578063c87b56dd1461039557600080fd5b806389834083116100d357806389834083146103295780638da5cb5b1461033c57806395d89b411461034d578063a1edffa21461035557600080fd5b80637f36655d146102f9578063829b46631461030c57806388f833e01461031457600080fd5b806342842e0e1161016657806370a082311161014057806370a08231146102c0578063715018a6146102e15780637550d1c9146102e957806377696646146102f157600080fd5b806342842e0e1461028757806343909ec71461029a5780636352211e146102ad57600080fd5b8063095ea7b3116101a2578063095ea7b31461023157806323b872dd14610246578063241277ea146102595780632df270251461026157600080fd5b806301ffc9a7146101c957806306fdde03146101f1578063081812fc14610206575b600080fd5b6101dc6101d7366004612a8b565b610403565b60405190151581526020015b60405180910390f35b6101f9610455565b6040516101e89190612af8565b610219610214366004612b0b565b6104e7565b6040516001600160a01b0390911681526020016101e8565b61024461023f366004612b40565b61050e565b005b610244610254366004612b6a565b610628565b610244610659565b61027461026f366004612ba6565b6106d8565b6040516101e89796959493929190612bc1565b610244610295366004612b6a565b6107b3565b6102446102a8366004612c0d565b6107ce565b6102196102bb366004612b0b565b610a7b565b6102d36102ce366004612ba6565b610adb565b6040519081526020016101e8565b610244610b61565b610244610b73565b6102d3610b85565b610244610307366004612b0b565b610b95565b610244611331565b61031c6113a9565b6040516101e89190612c88565b610244610337366004612b0b565b61154d565b6007546001600160a01b0316610219565b6101f9611978565b600f546103629060ff1681565b6040516101e89190612d2d565b61024461037d366004612d3b565b611987565b610244610390366004612e03565b611996565b6101f96103a3366004612b0b565b6119c8565b6101dc6103b6366004612e7f565b611ad8565b6103c3611b06565b6040516101e89190612eb2565b6103e36103de366004612b0b565b611c80565b6040516101e89190612f29565b6102446103fe366004612ba6565b611cd7565b60006001600160e01b031982166380ac58cd60e01b148061043457506001600160e01b03198216635b5e139f60e01b145b8061044f57506301ffc9a760e01b6001600160e01b03198316145b92915050565b60606000805461046490612f74565b80601f016020809104026020016040519081016040528092919081815260200182805461049090612f74565b80156104dd5780601f106104b2576101008083540402835291602001916104dd565b820191906000526020600020905b8154815290600101906020018083116104c057829003601f168201915b5050505050905090565b60006104f282611d50565b506000908152600460205260409020546001600160a01b031690565b600061051982610a7b565b9050806001600160a01b0316836001600160a01b03160361058b5760405162461bcd60e51b815260206004820152602160248201527f4552433732313a20617070726f76616c20746f2063757272656e74206f776e656044820152603960f91b60648201526084015b60405180910390fd5b336001600160a01b03821614806105a757506105a78133611ad8565b6106195760405162461bcd60e51b815260206004820152603d60248201527f4552433732313a20617070726f76652063616c6c6572206973206e6f7420746f60448201527f6b656e206f776e6572206f7220617070726f76656420666f7220616c6c0000006064820152608401610582565b6106238383611daf565b505050565b6106323382611e1d565b61064e5760405162461bcd60e51b815260040161058290612fae565b610623838383611e7b565b6009546001600160a01b031633146106ab5760405162461bcd60e51b8152602060048201526015602482015274596f7520617265206e6f74207468652044414f202160581b6044820152606401610582565b6002600f5460ff1660068111156106c4576106c4612cf5565b146106ce57600080fd5b6106d6611fdf565b565b6023602052600090815260409020805460018201546002830180546001600160a01b0390931693919261070a90612f74565b80601f016020809104026020016040519081016040528092919081815260200182805461073690612f74565b80156107835780601f1061075857610100808354040283529160200191610783565b820191906000526020600020905b81548152906001019060200180831161076657829003601f168201915b50505050600383015460408051602081019091526004850154815260058501546006909501549394919390925087565b61062383838360405180602001604052806000815250611996565b6107d6612075565b6003600f5460ff1660068111156107ef576107ef612cf5565b1461083c5760405162461bcd60e51b815260206004820152601a60248201527f44414f206d7573742068617665207369676e65642066697273740000000000006044820152606401610582565b42602055600160005b83811015610a6457604080516020810190915260008152600086868481811061087057610870612ffb565b90506020028101906108829190613011565b61088b90613031565b6040805160e08101825282516001600160a01b039081168252602080850151908301908152848401519383019384526060830189905260808301879052600060a084018190524260c085015260228054600181018255915283517f61035b26e3e9eee00e0d72fd1ee8ddca6894550dca6916ea2ac6baa90d11e510600790920291820180546001600160a01b0319169190941617835590517f61035b26e3e9eee00e0d72fd1ee8ddca6894550dca6916ea2ac6baa90d11e5118201559251939450909283927f61035b26e3e9eee00e0d72fd1ee8ddca6894550dca6916ea2ac6baa90d11e512019061097d908261310f565b5060608201516003820155608082015151600482015560a0820151600582015560c09091015160069091015581516001600160a01b03908116600090815260236020908152604091829020845181546001600160a01b0319169416939093178355830151600183015582015182919060028201906109fb908261310f565b5060608201516003820155608082015151600482015560a0820151600582015560c0909101516006909101558151610a3390866120cf565b610a4185836040015161225a565b84610a4b816131cf565b9550505050508080610a5c906131cf565b915050610845565b50610a6d6122ed565b610a75612410565b50505050565b6000818152600260205260408120546001600160a01b03168061044f5760405162461bcd60e51b8152602060048201526018602482015277115490cdcc8c4e881a5b9d985b1a59081d1bdad95b88125160421b6044820152606401610582565b60006001600160a01b038216610b455760405162461bcd60e51b815260206004820152602960248201527f4552433732313a2061646472657373207a65726f206973206e6f7420612076616044820152683634b21037bbb732b960b91b6064820152608401610582565b506001600160a01b031660009081526003602052604090205490565b610b69612075565b6106d660006124c3565b4260135411156106d6576106d6612515565b6000610b9060125490565b905090565b336000908152601f602052604090205460011115610bf55760405162461bcd60e51b815260206004820152601860248201527f596f7520686176652030205469636b6574205374616b656400000000000000006044820152606401610582565b6001600f5460ff166006811115610c0e57610c0e612cf5565b14610c2b5760405162461bcd60e51b8152600401610582906131f6565b336000908152601f6020908152604080832084845260010190915290206003015460ff16610c925760405162461bcd60e51b8152602060048201526014602482015273151a58dad95d081a5cc81b9bdd081cdd185ad95960621b6044820152606401610582565b600854604051632098364960e01b8152336004820152602481018390526001600160a01b0390911690632098364990604401600060405180830381600087803b158015610cde57600080fd5b505af1158015610cf2573d6000803e3d6000fd5b5050506000828152601e6020908152604091829020825160608082018552825482528451908101855260018301546001600160a01b03168152600283015481850152600383015460ff161515818601529281019290925260040154918101919091529050610d5e6129f0565b601254600103610de957805160148190556020808301518051601580546001600160a01b039092166001600160a01b031992831681179091559282015160168190556040928301516017805491151560ff199283168117909155938701516018819055601996909655601a8054909316909417909155601b55601c8054909216179055601d5561124b565b601654839003610f4857601b5460185403610ed75760408051606080820183526000808352601880548252601e60209081528583208651948501875260018101546001600160a01b039081168652600282015486840190815260039092015460ff16151586890190815283880187905287890186905296516014559451601580549187166001600160a01b0319928316179055905160165594516017805491151560ff19928316179055929091558551601955858101518051601a80549190951695169490941790925590820151601b5590820151601c805491151591909216179055810151601d5561124b565b601880546000908152601e60205260408120805460149081556001820154601580546001600160a01b039092166001600160a01b0319909216919091179055600282015460165560038201546017805460ff191660ff9092161515919091179055600490910154909255905561124b565b601b5483900361101f57601b5460185403610fb757600060185580516019556020808201518051601a80546001600160a01b0319166001600160a01b0390921691909117905590810151601b55604090810151601c805460ff1916911515919091179055810151601d5561124b565b601980546000908152601e6020526040812080549092556001820154601a80546001600160a01b0319166001600160a01b039092169190911790556002820154601b55600390910154601c805460ff909216151560ff19909216919091179055601d5561124b565b6000601e60008460000151815260200190815260200160002060405180606001604052908160008201548152602001600182016040518060600160405290816000820160009054906101000a90046001600160a01b03166001600160a01b03166001600160a01b03168152602001600182015481526020016002820160009054906101000a900460ff161515151581525050815260200160048201548152505090506000601e60008560400151815260200190815260200160002060405180606001604052908160008201548152602001600182016040518060600160405290816000820160009054906101000a90046001600160a01b03166001600160a01b03166001600160a01b03168152602001600182015481526020016002820160009054906101000a900460ff1615151515815250508152602001600482015481525050905083604001518260400181815250508360000151816000018181525050816020015160200151601460010160010154036111e75781516014556020808301518051601580546001600160a01b0319166001600160a01b03909216919091179055908101516016556040908101516017805460ff19169115159190911790558201516018555b6020808201510151601b54036112485781516019556020808301518051601a80546001600160a01b0319166001600160a01b0390921691909117905590810151601b55604090810151601c805460ff1916911515919091179055820151601d555b50505b6000838152601e602090815260408083208381556001810180546001600160a01b03191690556002810184905560038101805460ff19169055600401839055338352601f909152902061129d906125b7565b336000908152601f602090815260408083208684526001908101909252822082815590810180546001600160a01b03191690556002810182905560038101805460ff19169055600401556112f160126125b7565b7fe705dd9d71182b5cf2821d65e821de54338ddb99849a71aa739ce428be12927b82602001516040516113249190613237565b60405180910390a1505050565b611339612075565b6000600f5460ff16600681111561135257611352612cf5565b1461136f5760405162461bcd60e51b815260040161058290613263565b600f805460ff191660019081179091556040516000805160206133f18339815191529161139f91600091906132b5565b60405180910390a1565b606060006113b660125490565b67ffffffffffffffff8111156113ce576113ce612d77565b60405190808252806020026020018201604052801561141957816020015b60408051606081018252600080825260208083018290529282015282526000199092019101816113ec5790505b509050600061142760125490565b6000036114345750919050565b60408051606080820183526014548252825190810183526015546001600160a01b0316815260165460208281019190915260175460ff1615158285015282018190526018549282019290925290838361148c816131cf565b94508151811061149e5761149e612ffb565b60200260200101819052505b604081015115611545576040908101516000908152601e602090815290829020825160608082018552825482528451908101855260018301546001600160a01b03168152600283015481850152600383015460ff16151581860152928101839052600490910154928101929092528383611523816131cf565b94508151811061153557611535612ffb565b60200260200101819052506114aa565b509092915050565b6001600f5460ff16600681111561156657611566612cf5565b146115835760405162461bcd60e51b8152600401610582906131f6565b336000908152601f6020908152604080832084845260010190915290206003015460ff16156115ec5760405162461bcd60e51b8152602060048201526015602482015274151a58dad95d08185b1c9958591e481cdd185ad959605a1b6044820152606401610582565b600854604051631457e16f60e01b8152336004820152602481018390526001600160a01b0390911690631457e16f90604401600060405180830381600087803b15801561163857600080fd5b505af115801561164c573d6000803e3d6000fd5b50506040805160608101825233815260208101859052600191810191909152915061167790506129f0565b60175460ff166116eb5750604080516060810182526000808252602080830185905282840182905260148290558451601580546001600160a01b0319166001600160a01b03909216919091179055840151601655918301516017805460ff1916911515919091179055601891909155611724565b5060408051606081018252601b548082526020808301859052600083850181905285820151928152601e90915292909220600401919091555b6012546001036117345760188390555b80601e60008581526020019081526020016000206000820151816000015560208201518160010160008201518160000160006101000a8154816001600160a01b0302191690836001600160a01b031602179055506020820151816001015560408201518160020160006101000a81548160ff0219169083151502179055505050604082015181600401559050508060196000820151816000015560208201518160010160008201518160000160006101000a8154816001600160a01b0302191690836001600160a01b031602179055506020820151816001015560408201518160020160006101000a81548160ff02191690831515021790555050506040820151816004015590505080601f6000336001600160a01b03166001600160a01b0316815260200190815260200160002060010160008581526020019081526020016000206000820151816000015560208201518160010160008201518160000160006101000a8154816001600160a01b0302191690836001600160a01b031602179055506020820151816001015560408201518160020160006101000a81548160ff021916908315150217905550505060408201518160040155905050611924601f6000336001600160a01b03166001600160a01b0316815260200190815260200160002060000180546001019055565b611932601280546001019055565b6011546012540361194557611945612515565b7f40009383578d93076aa0b4174716f668f22544022966ac50296178faa5f3dd9e81602001516040516113249190613237565b60606001805461046490612f74565b61199233838361260e565b5050565b6119a03383611e1d565b6119bc5760405162461bcd60e51b815260040161058290612fae565b610a75848484846126dc565b60606119d382611d50565b600082815260066020526040812080546119ec90612f74565b80601f0160208091040260200160405190810160405280929190818152602001828054611a1890612f74565b8015611a655780601f10611a3a57610100808354040283529160200191611a65565b820191906000526020600020905b815481529060010190602001808311611a4857829003601f168201915b505050505090506000611a8360408051602081019091526000815290565b90508051600003611a95575092915050565b815115611ac7578082604051602001611aaf9291906132d0565b60405160208183030381529060405292505050919050565b611ad08461270f565b949350505050565b6001600160a01b03918216600090815260056020908152604080832093909416825291909152205460ff1690565b611b0e612a28565b6040518060e00160405280600c8054611b2690612f74565b80601f0160208091040260200160405190810160405280929190818152602001828054611b5290612f74565b8015611b9f5780601f10611b7457610100808354040283529160200191611b9f565b820191906000526020600020905b815481529060010190602001808311611b8257829003601f168201915b50505050508152602001600d8054611bb690612f74565b80601f0160208091040260200160405190810160405280929190818152602001828054611be290612f74565b8015611c2f5780601f10611c0457610100808354040283529160200191611c2f565b820191906000526020600020905b815481529060010190602001808311611c1257829003601f168201915b5050505050815260200160105481526020016011548152602001611c5260125490565b81526013546020820152600f5460409091019060ff166006811115611c7957611c79612cf5565b9052919050565b611c886129f0565b50506040805160608082018352601954825282519081018352601a546001600160a01b03168152601b54602082810191909152601c5460ff16151582850152820152601d549181019190915290565b611cdf612075565b6001600160a01b038116611d445760405162461bcd60e51b815260206004820152602660248201527f4f776e61626c653a206e6577206f776e657220697320746865207a65726f206160448201526564647265737360d01b6064820152608401610582565b611d4d816124c3565b50565b6000818152600260205260409020546001600160a01b0316611d4d5760405162461bcd60e51b8152602060048201526018602482015277115490cdcc8c4e881a5b9d985b1a59081d1bdad95b88125160421b6044820152606401610582565b600081815260046020526040902080546001600160a01b0319166001600160a01b0384169081179091558190611de482610a7b565b6001600160a01b03167f8c5be1e5ebec7d5bd14f71427d1e84f3dd0314c0f7b2291e5b200ac8c7c3b92560405160405180910390a45050565b600080611e2983610a7b565b9050806001600160a01b0316846001600160a01b03161480611e505750611e508185611ad8565b80611ad05750836001600160a01b0316611e69846104e7565b6001600160a01b031614949350505050565b826001600160a01b0316611e8e82610a7b565b6001600160a01b031614611eb45760405162461bcd60e51b8152600401610582906132ff565b6001600160a01b038216611f165760405162461bcd60e51b8152602060048201526024808201527f4552433732313a207472616e7366657220746f20746865207a65726f206164646044820152637265737360e01b6064820152608401610582565b826001600160a01b0316611f2982610a7b565b6001600160a01b031614611f4f5760405162461bcd60e51b8152600401610582906132ff565b600081815260046020908152604080832080546001600160a01b03199081169091556001600160a01b0387811680865260038552838620805460001901905590871680865283862080546001019055868652600290945282852080549092168417909155905184937fddf252ad1be2c89b69c2b068fc378daa952ba7f163c4a11628f55a4df523b3ef91a4505050565b6002600f5460ff166006811115611ff857611ff8612cf5565b146120455760405162461bcd60e51b815260206004820152601d60248201527f5469636b657420726567697374726174696f6e206e6f7420656e6465640000006044820152606401610582565b600f805460ff191660039081179091556040516000805160206133f18339815191529161139f91600291906132b5565b6007546001600160a01b031633146106d65760405162461bcd60e51b815260206004820181905260248201527f4f776e61626c653a2063616c6c6572206973206e6f7420746865206f776e65726044820152606401610582565b6001600160a01b0382166121255760405162461bcd60e51b815260206004820181905260248201527f4552433732313a206d696e7420746f20746865207a65726f20616464726573736044820152606401610582565b6000818152600260205260409020546001600160a01b03161561218a5760405162461bcd60e51b815260206004820152601c60248201527f4552433732313a20746f6b656e20616c7265616479206d696e746564000000006044820152606401610582565b6000818152600260205260409020546001600160a01b0316156121ef5760405162461bcd60e51b815260206004820152601c60248201527f4552433732313a20746f6b656e20616c7265616479206d696e746564000000006044820152606401610582565b6001600160a01b038216600081815260036020908152604080832080546001019055848352600290915280822080546001600160a01b0319168417905551839291907fddf252ad1be2c89b69c2b068fc378daa952ba7f163c4a11628f55a4df523b3ef908290a45050565b6000828152600260205260409020546001600160a01b03166122d55760405162461bcd60e51b815260206004820152602e60248201527f45524337323155524953746f726167653a2055524920736574206f66206e6f6e60448201526d32bc34b9ba32b73a103a37b5b2b760911b6064820152608401610582565b6000828152600660205260409020610623828261310f565b6003600f5460ff16600681111561230657612306612cf5565b146123535760405162461bcd60e51b815260206004820152601a60248201527f44414f206d7573742068617665207369676e65642066697273740000000000006044820152606401610582565b600061235d6113a9565b905060005b815181101561199257600082828151811061237f5761237f612ffb565b602090810291909101810151600854815192820151604051634c57542360e01b81526001600160a01b03948516600482015260248101919091529193509190911690634c57542390604401600060405180830381600087803b1580156123e457600080fd5b505af11580156123f8573d6000803e3d6000fd5b50505050508080612408906131cf565b915050612362565b6003600f5460ff16600681111561242957612429612cf5565b146124935760405162461bcd60e51b815260206004820152603460248201527f44414f205465616d206e65656420746f207369676e20666972737420696e206f6044820152731c99195c881d1bc819d95b995c985d194813919560621b6064820152608401610582565b600f805460ff191660049081179091556040516000805160206133f18339815191529161139f91600391906132b5565b600780546001600160a01b038381166001600160a01b0319831681179093556040519116919082907f8be0079c531659141344cd1fd0a4f28419497f9722a3daafe3b4186f6b6457e090600090a35050565b6001600f5460ff16600681111561252e5761252e612cf5565b1461254b5760405162461bcd60e51b815260040161058290613263565b601054601254101561258757600f805460ff191660059081179091556040516000805160206133f18339815191529161139f91600191906132b5565b600f805460ff191660029081179091556040516000805160206133f18339815191529161139f91600191906132b5565b8054806126065760405162461bcd60e51b815260206004820152601b60248201527f436f756e7465723a2064656372656d656e74206f766572666c6f7700000000006044820152606401610582565b600019019055565b816001600160a01b0316836001600160a01b03160361266f5760405162461bcd60e51b815260206004820152601960248201527f4552433732313a20617070726f766520746f2063616c6c6572000000000000006044820152606401610582565b6001600160a01b03838116600081815260056020908152604080832094871680845294825291829020805460ff191686151590811790915591519182527f17307eab39ab6107e8899845ad3d59bd9653f200f220920489ca2b5937696c31910160405180910390a3505050565b6126e7848484611e7b565b6126f384848484612783565b610a755760405162461bcd60e51b815260040161058290613344565b606061271a82611d50565b600061273160408051602081019091526000815290565b90506000815111612751576040518060200160405280600081525061277c565b8061275b84612884565b60405160200161276c9291906132d0565b6040516020818303038152906040525b9392505050565b60006001600160a01b0384163b1561287957604051630a85bd0160e11b81526001600160a01b0385169063150b7a02906127c7903390899088908890600401613396565b6020604051808303816000875af1925050508015612802575060408051601f3d908101601f191682019092526127ff918101906133d3565b60015b61285f573d808015612830576040519150601f19603f3d011682016040523d82523d6000602084013e612835565b606091505b5080516000036128575760405162461bcd60e51b815260040161058290613344565b805181602001fd5b6001600160e01b031916630a85bd0160e11b149050611ad0565b506001949350505050565b6060600061289183612918565b600101905060008167ffffffffffffffff8111156128b1576128b1612d77565b6040519080825280601f01601f1916602001820160405280156128db576020820181803683370190505b5090508181016020015b600019016f181899199a1a9b1b9c1cb0b131b232b360811b600a86061a8153600a85049450846128e5575b509392505050565b60008072184f03e93ff9f4daa797ed6e38ed64bf6a1f0160401b83106129575772184f03e93ff9f4daa797ed6e38ed64bf6a1f0160401b830492506040015b6d04ee2d6d415b85acef81000000008310612983576d04ee2d6d415b85acef8100000000830492506020015b662386f26fc1000083106129a157662386f26fc10000830492506010015b6305f5e10083106129b9576305f5e100830492506008015b61271083106129cd57612710830492506004015b606483106129df576064830492506002015b600a831061044f5760010192915050565b604080516060808201835260008083528351918201845280825260208281018290529382015290918201908152602001600081525090565b6040518060e0016040528060608152602001606081526020016000815260200160008152602001600081526020016000815260200160006006811115612a7057612a70612cf5565b905290565b6001600160e01b031981168114611d4d57600080fd5b600060208284031215612a9d57600080fd5b813561277c81612a75565b60005b83811015612ac3578181015183820152602001612aab565b50506000910152565b60008151808452612ae4816020860160208601612aa8565b601f01601f19169290920160200192915050565b60208152600061277c6020830184612acc565b600060208284031215612b1d57600080fd5b5035919050565b80356001600160a01b0381168114612b3b57600080fd5b919050565b60008060408385031215612b5357600080fd5b612b5c83612b24565b946020939093013593505050565b600080600060608486031215612b7f57600080fd5b612b8884612b24565b9250612b9660208501612b24565b9150604084013590509250925092565b600060208284031215612bb857600080fd5b61277c82612b24565b60018060a01b038816815286602082015260e060408201526000612be860e0830188612acc565b6060830196909652509251608084015260a083019190915260c0909101529392505050565b600080600060408486031215612c2257600080fd5b833567ffffffffffffffff80821115612c3a57600080fd5b818601915086601f830112612c4e57600080fd5b813581811115612c5d57600080fd5b8760208260051b8501011115612c7257600080fd5b6020928301989097509590910135949350505050565b6020808252825182820181905260009190848201906040850190845b81811015612ce957612cd683855180516001600160a01b03168252602080820151908301526040908101511515910152565b9284019260609290920191600101612ca4565b50909695505050505050565b634e487b7160e01b600052602160045260246000fd5b60078110612d2957634e487b7160e01b600052602160045260246000fd5b9052565b6020810161044f8284612d0b565b60008060408385031215612d4e57600080fd5b612d5783612b24565b915060208301358015158114612d6c57600080fd5b809150509250929050565b634e487b7160e01b600052604160045260246000fd5b600067ffffffffffffffff80841115612da857612da8612d77565b604051601f8501601f19908116603f01168101908282118183101715612dd057612dd0612d77565b81604052809350858152868686011115612de957600080fd5b858560208301376000602087830101525050509392505050565b60008060008060808587031215612e1957600080fd5b612e2285612b24565b9350612e3060208601612b24565b925060408501359150606085013567ffffffffffffffff811115612e5357600080fd5b8501601f81018713612e6457600080fd5b612e7387823560208401612d8d565b91505092959194509250565b60008060408385031215612e9257600080fd5b612e9b83612b24565b9150612ea960208401612b24565b90509250929050565b602081526000825160e06020840152612ecf610100840182612acc565b90506020840151601f19848303016040850152612eec8282612acc565b9150506040840151606084015260608401516080840152608084015160a084015260a084015160c084015260c084015161291060e0850182612d0b565b8151815260208083015160a0830191612f639084018280516001600160a01b03168252602080820151908301526040908101511515910152565b506040830151608083015292915050565b600181811c90821680612f8857607f821691505b602082108103612fa857634e487b7160e01b600052602260045260246000fd5b50919050565b6020808252602d908201527f4552433732313a2063616c6c6572206973206e6f7420746f6b656e206f776e6560408201526c1c881bdc88185c1c1c9bdd9959609a1b606082015260800190565b634e487b7160e01b600052603260045260246000fd5b60008235605e1983360301811261302757600080fd5b9190910192915050565b60006060823603121561304357600080fd5b6040516060810167ffffffffffffffff828210818311171561306757613067612d77565b8160405261307485612b24565b835260208501356020840152604085013591508082111561309457600080fd5b50830136601f8201126130a657600080fd5b6130b536823560208401612d8d565b60408301525092915050565b601f82111561062357600081815260208120601f850160051c810160208610156130e85750805b601f850160051c820191505b81811015613107578281556001016130f4565b505050505050565b815167ffffffffffffffff81111561312957613129612d77565b61313d816131378454612f74565b846130c1565b602080601f831160018114613172576000841561315a5750858301515b600019600386901b1c1916600185901b178555613107565b600085815260208120601f198616915b828110156131a157888601518255948401946001909101908401613182565b50858210156131bf5787850151600019600388901b60f8161c191681555b5050505050600190811b01905550565b6000600182016131ef57634e487b7160e01b600052601160045260246000fd5b5060010190565b60208082526021908201527f5374616b696e67206973206e6f7420617574686f72697a656420616e796d6f726040820152606560f81b606082015260800190565b81516001600160a01b03168152602080830151908201526040808301511515908201526060810161044f565b60208082526032908201527f4d696e74207469636b657420726567697374726174696f6e2068617665206e6f6040820152711d081899595b881cdd185c9d1959081e595d60721b606082015260800190565b604081016132c38285612d0b565b61277c6020830184612d0b565b600083516132e2818460208801612aa8565b8351908301906132f6818360208801612aa8565b01949350505050565b60208082526025908201527f4552433732313a207472616e736665722066726f6d20696e636f72726563742060408201526437bbb732b960d91b606082015260800190565b60208082526032908201527f4552433732313a207472616e7366657220746f206e6f6e20455243373231526560408201527131b2b4bb32b91034b6b83632b6b2b73a32b960711b606082015260800190565b6001600160a01b03858116825284166020820152604081018390526080606082018190526000906133c990830184612acc565b9695505050505050565b6000602082840312156133e557600080fd5b815161277c81612a7556fe880498af3c6b66c92ab2120d6b0aca7539f4b40c5f3d8366dc8f8706bf60e992a2646970667358221220692d88a5d1eaf2cb42d5051c37757634abd5f29d2487333888b148a35f7891e164736f6c63430008120033",
  "immutableReferences": {},
  "source": "// SPDX-License-Identifier: MIT\npragma solidity >=0.4.22 <0.9.0;\n\nimport '@openzeppelin/contracts/token/ERC721/ERC721.sol';\nimport '@openzeppelin/contracts/token/ERC721/extensions/ERC721URIStorage.sol';\nimport './MiningDAOInvestTickets.sol';\n\n/// @title ERC721 Contract for offer contract management\n/// @author Dylan Di Vito\n/// @notice Serves as offer contract management and NFT collection\n/// @dev Inherit the openzepellin ERC721 implementation\ncontract MiningDAOCommercialOffer is ERC721URIStorage, Ownable {\n    using Counters for Counters.Counter;\n\n    /// @dev InvestTicket contract in order to stake/unstake/use them through commercial offer\n    MiningDAOInvestTickets private InvestTicketsContract;\n\n    /// @dev Status of the smartcontract in order to handle control\n    enum WorkflowStatus {\n        Initialized,\n        MintTicketsRegistrationStarted,\n        MintTicketsRegistrationEnded,\n        DAOTeamSignatureCompleted,\n        Running,\n        CanceledMinimumTicketsNotReach,\n        Stopped\n    }\n\n    /// @dev All details of contract objet. Used as return object for Dapp\n    struct OfferDetail {\n        string offerName;\n        string ref;\n        uint minimumTickets;\n        uint maximumTickets;\n        uint ticketsCounter;\n        uint lockTimeLimit;\n        WorkflowStatus status;\n    }\n    /// @dev Invest ticket staked on commercial offer\n    struct InvestTicket {\n        address investTicketOwner;\n        uint256 tokenId;\n        bool isStaked;\n    }\n\n    /// @dev Map and counter of  tickets staked by one user\n    struct InvestTicketsStaked {\n        Counters.Counter amountOfTicketStaked;\n        mapping(uint => LinkedListInvestTicket) stakedInvestTickets;\n    }\n\n    /// @dev OfferTicket object represent one NFT minted by users when offer is closed to staking and burn all ticket in order to generate NFT\n    struct OfferTicket {\n        address ticketOwner;\n        uint256 power;\n        string tokenUri;\n        uint tokenId;\n        Counters.Counter unclaimedMonths;\n        uint256 unclaimedValue;\n        uint256 timeOfLastRewardUpdate;\n    }\n\n    /// @dev OfferTicket reduced object used to return data to frontend\n    struct OfferTicketProps {\n        address ticketOwner;\n        uint power;\n        string tokenUri;\n    }\n\n    /// @dev Structure of a linkedlist object used to keep next and previous index\n    struct LinkedListInvestTicket {\n        uint previousIndex;\n        InvestTicket ticket;\n        uint nextIndex;\n    }\n\n    // GLOBAL\n    /// @dev Address of the DAO contract\n    address DAOWallet;\n    /// @dev Address of all DAO team waller\n    address[] DAOTeamWallets;\n    /// @dev Address of the treasury\n    address treasuryWallet;\n    /// @dev Name of the offer\n    string offerName;\n    /// @dev Reference of the offer\n    string ref;\n    /// @dev Whitelisted wallet\n    mapping(address => bool) whitelisted;\n    /// @dev Status of contract\n    WorkflowStatus public workflowStatus;\n\n    // PHASE 1\n    /// @dev Number of minimum ticket staked required\n    uint minimumTickets;\n    /// @dev Number of maximum ticket staked allowed\n    uint maximumTickets;\n    /// @dev Number of tickets actually staked\n    Counters.Counter ticketsCounter;\n    /// @dev Maximum Datetime after what staking is not allowed anymore\n    uint lockTimeLimit;\n    /// @dev Head of the linked list. used to start iteration\n    LinkedListInvestTicket linkedListHead;\n    /// @dev Tail of linked list\n    LinkedListInvestTicket linkedListLast;\n    /// @dev Ticket by tokenId\n    mapping(uint => LinkedListInvestTicket) stakedList;\n    /// @dev All tickets by user address\n    mapping(address => InvestTicketsStaked) investTicketsStaked;\n\n\n    // PHASE 2\n    /// @dev last time DAO rewarded the contract\n    uint256 timeOfLastRewardUpdate;\n    /// @dev Total power of mining\n    uint256 totalTHPower;\n    /// @dev List of ticket NFT owner\n    OfferTicket[] offerOwnersList;\n    /// @dev Offer ticket map by user address\n    mapping(address => OfferTicket) public offerTicketOwners;\n\n    event InvestTicketStaked(InvestTicket ticket);\n    event InvestTicketUnstaked(InvestTicket ticket);\n    event RewardClaimed(OfferTicket ticket);\n    event WorkflowStatusChanged(WorkflowStatus previous, WorkflowStatus current);\n\n\n    /// @dev Constructor need to init all global parameters\n    constructor(\n        address _InvestTicketsContractAddress,\n        string memory _offerName,\n        string memory _ref,\n        string memory _collectionName,\n        address _DAOWallet,\n        address[] memory _DAOTeamWallets,\n        address _treasuryWallet,\n        uint _minimumTickets,\n        uint _maximumTickets,\n        uint _lockTimeLimit\n    ) ERC721(_collectionName, _ref){\n        InvestTicketsContract = MiningDAOInvestTickets(_InvestTicketsContractAddress);\n        offerName = _offerName;\n        ref = _ref;\n        DAOWallet = _DAOWallet;\n        DAOTeamWallets = _DAOTeamWallets;\n        treasuryWallet = _treasuryWallet;\n        minimumTickets = _minimumTickets;\n        maximumTickets = _maximumTickets;\n        lockTimeLimit = _lockTimeLimit;\n        workflowStatus = WorkflowStatus.Initialized;\n\n        whitelisted[_DAOWallet] = true;\n        for(uint i = 0; i < _DAOTeamWallets.length; i++){\n            whitelisted[_DAOTeamWallets[i]] = true;\n        }\n    }\n\n    /// @dev MODIFIER CHECK whitelistedOwner\n    modifier isWhitelisted() {\n        require(whitelisted[msg.sender] == true, \"You are not whitelisted\");\n        _;\n    }\n\n    /// @dev MODIFIER CHECK isInvestTicketStaker\n    modifier isInvestTicketStacker() {\n        require(investTicketsStaked[msg.sender].amountOfTicketStaked.current() >= 1, \"You have 0 Ticket Staked\");\n        _;\n    }\n\n    /// @dev MODIFIER CHECK isOfferTicketOwner\n    modifier isOfferTicketOwner() {\n        require(offerTicketOwners[msg.sender].power >= 1, \"You are not an offer ticket owner\");\n        _;\n    }\n\n    /// @dev Get detail of Offer for frontend. Encapslate info in OfferDetail struct\n    function getOfferDetail() public view returns (OfferDetail memory) {\n        return OfferDetail(offerName, ref, minimumTickets, maximumTickets, ticketsCounter.current(), lockTimeLimit, workflowStatus);\n    }\n\n    /// @dev get Staked ticket by token id\n    function getStakedTicket(uint _tokenId) public view returns (LinkedListInvestTicket memory) {\n        //return stakedList[_tokenId];\n        return linkedListLast;\n    }\n\n    /// @dev get total number of staked ticket\n    function getTotalStakedTicket() public view returns (uint) {\n        return ticketsCounter.current();\n    }\n\n    /// @dev get list of staked ticket by iterate through linked list\n    function getStakedList() public view returns (InvestTicket[] memory) {\n        InvestTicket[] memory ticketsList = new InvestTicket[](ticketsCounter.current());\n        uint index;\n        if(ticketsCounter.current() == 0){\n            return ticketsList;\n        }\n        LinkedListInvestTicket memory current = linkedListHead;\n        ticketsList[index++] = current.ticket;\n        while(current.nextIndex != 0) {\n            current = stakedList[current.nextIndex];\n            ticketsList[index++] = current.ticket;\n        }\n        return ticketsList;\n    }\n\n    /// @dev Stake ticket on offer and interact with InvestTicket contract\n    function stakeTicket(uint _tokenId) external {\n        require(workflowStatus == WorkflowStatus.MintTicketsRegistrationStarted, \"Staking is not authorized anymore\");\n        require(!investTicketsStaked[msg.sender].stakedInvestTickets[_tokenId].ticket.isStaked, \"Ticket already staked\");\n        InvestTicketsContract.stakeTicket(msg.sender, _tokenId);\n        InvestTicket memory investTicket = InvestTicket(msg.sender, _tokenId, true);\n\n        LinkedListInvestTicket memory item;\n        if(!linkedListHead.ticket.isStaked) {\n            item = LinkedListInvestTicket(0,investTicket,0);\n            linkedListHead = item;\n        } else {\n            item = LinkedListInvestTicket(linkedListLast.ticket.tokenId,investTicket,0);\n            stakedList[linkedListLast.ticket.tokenId].nextIndex = item.ticket.tokenId;\n        }\n        if(ticketsCounter.current() == 1) {\n            linkedListHead.nextIndex = _tokenId;\n        }\n        stakedList[_tokenId] = item;\n        linkedListLast = item;\n\n        investTicketsStaked[msg.sender].stakedInvestTickets[_tokenId] = item;\n        investTicketsStaked[msg.sender].amountOfTicketStaked.increment();\n\n        ticketsCounter.increment();\n        if(ticketsCounter.current() == maximumTickets){\n            mintTicketRegistrationEnded();\n        }\n\n        emit InvestTicketStaked(item.ticket);\n    }\n\n    /// @dev Unstake ticket on offer and interact with InvestTicket contract\n    function unstakeTicket(uint _tokenId) external isInvestTicketStacker {\n        require(workflowStatus == WorkflowStatus.MintTicketsRegistrationStarted, \"Staking is not authorized anymore\");\n        require(investTicketsStaked[msg.sender].stakedInvestTickets[_tokenId].ticket.isStaked, \"Ticket is not staked\");\n        InvestTicketsContract.unstakeTicket(msg.sender, _tokenId);\n\n        LinkedListInvestTicket memory item = stakedList[_tokenId];\n        LinkedListInvestTicket memory _default;\n        if(ticketsCounter.current() == 1) {\n            linkedListHead = _default;\n            linkedListLast = _default;\n        }else if(linkedListHead.ticket.tokenId == _tokenId) {\n            if(linkedListHead.nextIndex == linkedListLast.ticket.tokenId){\n                linkedListHead = LinkedListInvestTicket(0,stakedList[linkedListHead.nextIndex].ticket,0);\n                linkedListLast = _default;\n            } else {\n                linkedListHead = stakedList[linkedListHead.nextIndex];\n                linkedListHead.previousIndex = 0;\n            }\n        }else if(linkedListLast.ticket.tokenId == _tokenId){\n            if(linkedListHead.nextIndex == linkedListLast.ticket.tokenId){\n                linkedListHead.nextIndex = 0;\n                linkedListLast = _default;\n            } else {\n                linkedListLast = stakedList[linkedListLast.previousIndex];\n                linkedListLast.nextIndex = 0;\n            }\n        }else{\n            LinkedListInvestTicket memory previous = stakedList[item.previousIndex];\n            LinkedListInvestTicket memory next = stakedList[item.nextIndex];\n            previous.nextIndex = item.nextIndex;\n            next.previousIndex = item.previousIndex;\n            if(linkedListHead.ticket.tokenId == previous.ticket.tokenId) {\n                linkedListHead = previous;\n            }\n            if(linkedListLast.ticket.tokenId == next.ticket.tokenId) {\n                linkedListLast = previous;\n            }\n        }\n        delete stakedList[_tokenId];\n\n        investTicketsStaked[msg.sender].amountOfTicketStaked.decrement();\n        delete investTicketsStaked[msg.sender].stakedInvestTickets[_tokenId];\n        ticketsCounter.decrement();\n\n        emit InvestTicketUnstaked(item.ticket);\n    }\n\n    /// @dev Unstake all ticket from contract. Used after they got burned in order to generate commercial offer NFT\n    function unstakeAllTickets() internal {\n        //Unstake all Tickets\n    }\n\n\n\n    /// @dev DAO Signature before burn all investTickets and generate offer NFT\n    function DAOTeamSignatureRequest() external {\n        require(msg.sender == DAOWallet, \"You are not the DAO !\");\n        require(workflowStatus == WorkflowStatus.MintTicketsRegistrationEnded);\n        DAOTeamSignatureCompleted();\n    }\n\n    /// @dev Will generate one NFT for each user based on number of ticket staked by each.\n    function generateOfferNFT(OfferTicketProps[] calldata _offerTicketData, uint256 totalThPower) public onlyOwner {\n        require(workflowStatus == WorkflowStatus.DAOTeamSignatureCompleted, 'DAO must have signed first');\n        uint tokenId = 1;\n        timeOfLastRewardUpdate = block.timestamp;\n        for(uint i; i < _offerTicketData.length; i++) {\n            Counters.Counter memory counter;\n            OfferTicketProps memory ticketData = _offerTicketData[i];\n            OfferTicket memory ticket = OfferTicket(ticketData.ticketOwner, ticketData.power, ticketData.tokenUri, tokenId, counter, 0, block.timestamp);\n            offerOwnersList.push(ticket);\n            offerTicketOwners[ticketData.ticketOwner] = ticket;\n\n            _mint(ticketData.ticketOwner, tokenId);\n            _setTokenURI(tokenId, ticketData.tokenUri);\n\n            tokenId++;\n        }\n\n        burnAllTickets();\n        running();\n    }\n\n    /// @dev Burn all InvestTickets staked\n    function burnAllTickets() internal {\n        require(workflowStatus == WorkflowStatus.DAOTeamSignatureCompleted, 'DAO must have signed first');\n        InvestTicket[] memory investTickets = getStakedList();\n        for(uint i; i < investTickets.length; i++) {\n            InvestTicket memory ticket = investTickets[i];\n            InvestTicketsContract.useTicket(ticket.investTicketOwner, ticket.tokenId);\n        }\n    }\n\n    //HANDLE OFFER NFT TRANSFER (ownership change)\n\n    //***\n    //CHANGE WORKFLOWSTATUS\n    //***\n\n    //START MINT TICKET REGISTRATION\n    function mintTicketRegistrationStarted() external onlyOwner {\n        require(workflowStatus == WorkflowStatus.Initialized, \"Mint ticket registration have not been started yet\");\n        workflowStatus = WorkflowStatus.MintTicketsRegistrationStarted;\n        emit WorkflowStatusChanged(WorkflowStatus.Initialized, WorkflowStatus.MintTicketsRegistrationStarted);\n    }\n\n    //END MINT TICKET REGISTRATION\n    function mintTicketRegistrationEnded() internal {\n        require(workflowStatus == WorkflowStatus.MintTicketsRegistrationStarted, \"Mint ticket registration have not been started yet\");\n        if(ticketsCounter.current() < minimumTickets){\n            workflowStatus = WorkflowStatus.CanceledMinimumTicketsNotReach;\n            unstakeAllTickets();\n            emit WorkflowStatusChanged(WorkflowStatus.MintTicketsRegistrationStarted, WorkflowStatus.CanceledMinimumTicketsNotReach);\n        } else {\n            workflowStatus = WorkflowStatus.MintTicketsRegistrationEnded;\n            emit WorkflowStatusChanged(WorkflowStatus.MintTicketsRegistrationStarted, WorkflowStatus.MintTicketsRegistrationEnded);\n        }\n\n    }\n\n    function DAOTeamSignatureCompleted() internal {\n        require(workflowStatus == WorkflowStatus.MintTicketsRegistrationEnded, \"Ticket registration not ended\");\n        workflowStatus = WorkflowStatus.DAOTeamSignatureCompleted;\n        emit WorkflowStatusChanged(WorkflowStatus.MintTicketsRegistrationEnded, WorkflowStatus.DAOTeamSignatureCompleted);\n    }\n\n    function running() internal {\n        require(workflowStatus == WorkflowStatus.DAOTeamSignatureCompleted, 'DAO Team need to sign first in order to generate NFT');\n        workflowStatus = WorkflowStatus.Running;\n        emit WorkflowStatusChanged(WorkflowStatus.DAOTeamSignatureCompleted, WorkflowStatus.Running);\n    }\n\n    //SWITCH TO RUNNING MODE (need totalThPower and set timeOfLastRewardUpdate)\n\n    //***\n    //CRON TASK\n    //***\n\n    //CHECK IF TIME EXPIRED\n    function checkLockTimeExpired() external {\n        if(lockTimeLimit > block.timestamp) {\n            mintTicketRegistrationEnded();\n        }\n    }\n\n    //CHECK IF BEGIN OF NEW MONTH SO COMPUTE REWARD\n\n}",
  "sourcePath": "/Users/dylandivito/DEV/Solidity/Mining-DAO/truffle/contracts/MiningDAOCommercialOffer.sol",
  "compiler": {
    "name": "solc",
    "version": "0.8.18+commit.87f61d96.Emscripten.clang"
  },
  "schemaVersion": "3.4.11",
  "updatedAt": "2023-04-10T10:48:00.169Z",
  "devdoc": {
    "author": "Dylan Di Vito",
    "details": "Inherit the openzepellin ERC721 implementation",
    "events": {
      "Approval(address,address,uint256)": {
        "details": "Emitted when `owner` enables `approved` to manage the `tokenId` token."
      },
      "ApprovalForAll(address,address,bool)": {
        "details": "Emitted when `owner` enables or disables (`approved`) `operator` to manage all of its assets."
      },
      "Transfer(address,address,uint256)": {
        "details": "Emitted when `tokenId` token is transferred from `from` to `to`."
      }
    },
    "kind": "dev",
    "methods": {
      "DAOTeamSignatureRequest()": {
        "details": "DAO Signature before burn all investTickets and generate offer NFT"
      },
      "approve(address,uint256)": {
        "details": "See {IERC721-approve}."
      },
      "balanceOf(address)": {
        "details": "See {IERC721-balanceOf}."
      },
      "constructor": {
        "details": "Constructor need to init all global parameters"
      },
      "generateOfferNFT((address,uint256,string)[],uint256)": {
        "details": "Will generate one NFT for each user based on number of ticket staked by each."
      },
      "getApproved(uint256)": {
        "details": "See {IERC721-getApproved}."
      },
      "getOfferDetail()": {
        "details": "Get detail of Offer for frontend. Encapslate info in OfferDetail struct"
      },
      "getStakedList()": {
        "details": "get list of staked ticket by iterate through linked list"
      },
      "getStakedTicket(uint256)": {
        "details": "get Staked ticket by token id"
      },
      "getTotalStakedTicket()": {
        "details": "get total number of staked ticket"
      },
      "isApprovedForAll(address,address)": {
        "details": "See {IERC721-isApprovedForAll}."
      },
      "name()": {
        "details": "See {IERC721Metadata-name}."
      },
      "owner()": {
        "details": "Returns the address of the current owner."
      },
      "ownerOf(uint256)": {
        "details": "See {IERC721-ownerOf}."
      },
      "renounceOwnership()": {
        "details": "Leaves the contract without owner. It will not be possible to call `onlyOwner` functions anymore. Can only be called by the current owner. NOTE: Renouncing ownership will leave the contract without an owner, thereby removing any functionality that is only available to the owner."
      },
      "safeTransferFrom(address,address,uint256)": {
        "details": "See {IERC721-safeTransferFrom}."
      },
      "safeTransferFrom(address,address,uint256,bytes)": {
        "details": "See {IERC721-safeTransferFrom}."
      },
      "setApprovalForAll(address,bool)": {
        "details": "See {IERC721-setApprovalForAll}."
      },
      "stakeTicket(uint256)": {
        "details": "Stake ticket on offer and interact with InvestTicket contract"
      },
      "supportsInterface(bytes4)": {
        "details": "See {IERC165-supportsInterface}."
      },
      "symbol()": {
        "details": "See {IERC721Metadata-symbol}."
      },
      "tokenURI(uint256)": {
        "details": "See {IERC721Metadata-tokenURI}."
      },
      "transferFrom(address,address,uint256)": {
        "details": "See {IERC721-transferFrom}."
      },
      "transferOwnership(address)": {
        "details": "Transfers ownership of the contract to a new account (`newOwner`). Can only be called by the current owner."
      },
      "unstakeTicket(uint256)": {
        "details": "Unstake ticket on offer and interact with InvestTicket contract"
      }
    },
    "stateVariables": {
      "DAOTeamWallets": {
        "details": "Address of all DAO team waller"
      },
      "DAOWallet": {
        "details": "Address of the DAO contract"
      },
      "InvestTicketsContract": {
        "details": "InvestTicket contract in order to stake/unstake/use them through commercial offer"
      },
      "investTicketsStaked": {
        "details": "All tickets by user address"
      },
      "linkedListHead": {
        "details": "Head of the linked list. used to start iteration"
      },
      "linkedListLast": {
        "details": "Tail of linked list"
      },
      "lockTimeLimit": {
        "details": "Maximum Datetime after what staking is not allowed anymore"
      },
      "maximumTickets": {
        "details": "Number of maximum ticket staked allowed"
      },
      "minimumTickets": {
        "details": "Number of minimum ticket staked required"
      },
      "offerName": {
        "details": "Name of the offer"
      },
      "offerOwnersList": {
        "details": "List of ticket NFT owner"
      },
      "offerTicketOwners": {
        "details": "Offer ticket map by user address"
      },
      "ref": {
        "details": "Reference of the offer"
      },
      "stakedList": {
        "details": "Ticket by tokenId"
      },
      "ticketsCounter": {
        "details": "Number of tickets actually staked"
      },
      "timeOfLastRewardUpdate": {
        "details": "last time DAO rewarded the contract"
      },
      "totalTHPower": {
        "details": "Total power of mining"
      },
      "treasuryWallet": {
        "details": "Address of the treasury"
      },
      "whitelisted": {
        "details": "Whitelisted wallet"
      },
      "workflowStatus": {
        "details": "Status of contract"
      }
    },
    "title": "ERC721 Contract for offer contract management",
    "version": 1
  },
  "userdoc": {
    "kind": "user",
    "methods": {},
    "notice": "Serves as offer contract management and NFT collection",
    "version": 1
  }
}